:03000000020008F3
:0300670002000391
:0300030002006A8E
:10006A001200FE9006007401F0E4A3F090C200753D
:10007A00F001E412012B90C20075F001E41201C9EB
:10008A0074DFC0E0743BC0E07480C0E012317D15BB
:10009A0081158115817582001212997582011212D9
:1000AA009912074974E8C0E0743BC0E07480C0E06C
:1000BA0012317D158115811581900B26E4F0A3F08C
:1000CA00900B28F0900B29F0900B2AF0900B2BF054
:1000DA00A3F0758208122DFCE5C120E60C12011668
:1000EA00850882850983120006122CE7122B531207
:0400FA00134180E44A
:103BDF00537461727475700A0052656164790A00DA
:060061007508007509F4AA
:1000FE0075A15575A1AA53B3E043B30675B2D87571
:10010E00A1FF9000070206D875A15575A1AA75B377
:10011E009875B2D875A1FF9000070206D8AF82AECF
:10012E0083ADF0FC900602EFF0EEA3F0EDA3F0EC41
:10013E00A3F0900600E0F5F0A3E045F0600C43C696
:10014E000143C40843C50C43CE10C29FD29EC29D2C
:10015E00D29C438780900602E0FCA3E0FDA3E0FE64
:10016E00A3E0FF900B42ECF0EDA3F0EEA3F0EFA3B3
:10017E00F0908D8075F05BE4123020AC82AD830C74
:10018E00BC00010DEDC313CC13CC740F5589442064
:10019E00F58943C9A0C3E49CFC8C8DD28ED29922E2
:1001AE0010980280FB85998222E582900606F01057
:1001BE00990280FB900606E0F59922AF82AE83ADE0
:1001CE00F0FC900607EFF0EEA3F0EDA3F0ECA3F039
:1001DE00759300759120759380759701900B3AE594
:1001EE0097F0E4A3F0A3F0A3F0908D8075F05BE49C
:1001FE00122F64AC82AD83AEF0FF900607E0F8A339
:10020E00E0F9A3E0FAA3E0FB900B42E8F0E9A3F0DB
:10021E00EAA3F0EBA3F08C828D838EF0EF123020E8
:10022E00AC82AD838C9A8D9175920175930322E504
:10023E009530E0FB859A8222E58290060BF0E595DB
:10024E0030E5FB90060BE0F59A22E58290060EF063
:10025E0090060F74C4F07400A3F07440A3F09006DF
:10026E001274BAF07400A3F07440A3F090061574E3
:10027E00BCF07400A3F07440A3F090061874BEF0A6
:10028E007400A3F07440A3F090061B74C5F07400C4
:10029E00A3F07440A3F090061E74BBF07400A3F09C
:1002AE007440A3F090062174BDF07400A3F0744066
:1002BE00A3F090062474BFF07400A3F07440A3F072
:1002CE0090060DE0FF24F9500122EF2F2F9002DF50
:1002DE00730202F40203770203FC0204570204D9EC
:1002EE0002055F0205E390060EE0FFFE8EF005F0BC
:1002FE007401800225E0D5F0FBF4ADC65DF5C6EFC6
:10030E0075F003A4FFAEF0240FF582EE3406F583EC
:10031E00E0FBA3E0FCA3E0FD8B828C838DF0123B0F
:10032E00BFFA90060CE0F989F005F0740180022501
:10033E00E0D5F0FBF4F952028B828C838DF0EA1239
:10034E003114EF241BF582EE3406F583E0FDA3E0B5
:10035E00FEA3E0FF8D828E838FF0123BBF52018D84
:10036E00828E838FF0E902311490060EE0FFFE8E2E
:10037E00F005F07401800225E0D5F0FBF4ADC65D0A
:10038E00F5C6EF75F003A4FFAEF0240FF582EE3440
:10039E0006F583E0FBA3E0FCA3E0FD8B828C838D4E
:1003AE00F0123BBFFA90060CE0F989F005F07401EB
:1003BE00800225E0D5F0FBF9F4F8EA52008B828C2E
:1003CE00838DF0E8123114EF241BF582EE3406F51E
:1003DE0083E0FDA3E0FEA3E0FF8D828E838FF012FB
:1003EE003BBF42018D828E838FF0E902311490065D
:1003FE000EE0FFFE8EF005F07401800225E0D5F0D0
:10040E00FBF4ADC65DF5C6EF75F003A4240FF582BF
:10041E00740635F0F583E0FDA3E0FEA3E0FF8D82C8
:10042E008E838FF0123BBFFC90060CE0FB8BF00529
:10043E00F07401800225E0D5F0FBF4FBEC42038D55
:10044E00828E838FF0EB02311490060EE0FFFE8E4B
:10045E00F005F07401800225E0D5F0FBADC64DF538
:10046E00C6EF75F003A4FFAEF0240FF582EE34064E
:10047E00F583E0FBA3E0FCA3E0FD8B828C838DF083
:10048E00123BBFFA90060CE0F989F005F07401807A
:10049E000225E0D5F0FBF4F952028B828C838DF0AD
:1004AE00EA123114EF241BF582EE3406F583E0FDDB
:1004BE00A3E0FEA3E0FF8D828E838FF0123BBF522E
:1004CE00018D828E838FF0E902311490060EE0FFCB
:1004DE00FE8EF005F07401800225E0D5F0FBADC66E
:1004EE004DF5C6EF75F003A4FFAEF0240FF582EEC6
:1004FE003406F583E0FBA3E0FCA3E0FD8B828C8346
:10050E008DF0123BBFFA90060CE0F989F005F074FD
:10051E0001800225E0D5F0FBF942028B828C838D9F
:10052E00F0EA123114EF241BF582EE3406F583E067
:10053E00FDA3E0FEA3E0FF8D828E838FF0123BBF02
:10054E00FCE9F4F9EC52018D828E838FF0E90231D1
:10055E001490060EE0FFFE8EF005F0740180022569
:10056E00E0D5F0FBADC64DF5C6EF75F003A4FFAEBA
:10057E00F0240FF582EE3406F583E0FBA3E0FCA336
:10058E00E0FD8B828C838DF0123BBFFA90060CE05F
:10059E00F989F005F07401800225E0D5F0FBF9F43D
:1005AE00F8EA52008B828C838DF0E8123114EF241E
:1005BE001BF582EE3406F583E0FDA3E0FEA3E0FF1B
:1005CE008D828E838FF0123BBF42018D828E838F80
:1005DE00F0E902311490060EE0FFFE8EF005F07485
:1005EE0001800225E0D5F0FBADC64DF5C6EF75F0E6
:1005FE0003A4FFAEF0240FF582EE3406F583E0FB84
:10060E00A3E0FCA3E0FD8B828C838DF0123BBFFA3E
:10061E0090060CE0F989F005F07401800225E0D512
:10062E00F0FBF942028B828C838DF0EA123114EFCB
:10063E00241BF582EE3406F583E0FDA3E0FEA3E075
:10064E00FF8D828E838FF0123BBF42018D828E838F
:10065E008FF0E9023114AF83E582900627F0EFA305
:10066E00F0900627E0FEA3E08E8202024612023DC3
:10067E007E008E8322AF83E582900629F0EFA3F0F1
:10068E00900629E0FEA3E0FFEE4F603505A105A11F
:10069E0005A105A105A105A105A105A105A105A11C
:1006AE0005A105A105A105A105A105A105A105A10C
:1006BE0005A11EBEFF011F900629EEF0EFA3F080EC
:1006CE00C7900629EEF0EFA3F022AF83E5829006E5
:1006DE002BF0EFA3F090062BE0FEA3E0FFEE4F60B1
:1006EE001D9003E8C007C006120683D006D0071E71
:1006FE00BEFF011F90062BEEF0EFA3F080DF9006F9
:10070E002BEEF0EFA3F022E582900834F0E0FF75B7
:10071E00F003A4FDAEF0242EF582EE3408F583E44A
:10072E00F0ED242EFDEE3408FE8D828E83A3E4F0D0
:10073E00EF600475E5002275E40022C2EA75E280DE
:10074E0075E3009024477448F090244CE4F0A3F035
:10075E0090244E04F0E4A3F0F5D4F5D675E2897535
:10076E00D24075D8FF7582001207157582011207E7
:10077E001575E10322E582900835F0E5E35480FF1C
:10078E00E0547F4FF5E322E582900836F0E06007F3
:10079E0053E2BF53D27F2243E24022E582900837D4
:1007AE00F090062D7408F075820012078375820191
:1007BE00120795900837E0FFE0701374FB55E44480
:1007CE0002F5E490000F1206D853E4FD8014BF0129
:1007DE001174FB55E54402F5E590000F1206D8534F
:1007EE00E5FD9000FA120683C2D822E58290083801
:1007FE00F0E075F003A4242EFE740835F0FF8E820F
:10080E008F83E0FDBD010050078E828F837401F04F
:10081E00900838E0FF7049E5DB20E3030208B7E5F6
:10082E00E420E035E5DB30E21AEF75F003A4242E68
:10083E00FD740835F0FE8D828E83A3A3E4F043E4AD
:10084E00048016EF75F003A4242EFD740835F0FE17
:10085E008D828E83A3A37401F043E401758200227E
:10086E00BF0146E5DB30E741E5E520E035E5DB306D
:10087E00E61AEF75F003A4242EFD740835F0FE8DF4
:10088E00828E83A3A3E4F043E5048016EF75F00394
:10089E00A4242EFE740835F0FF8E828F83A3A374DA
:1008AE0001F043E5017582002275821622E58290E1
:1008BE00083AF0E075F003A4242EFE740835F0FF1C
:1008CE008E828F83A3E0F582C007C006120783D005
:1008DE0006D0078E828F83A3A3E0F582020795E5EB
:1008EE008290083EF090083BE0FF8FD48FD69008A0
:1008FE003FE4F0A3F090083EE0FEC4540FFDBD01AE
:10090E0003ED8001E4F50DE4BD090104F50E900838
:10091E003CE0F9A3E0FA8ED5C2D9750AC8750B0072
:10092E00E50A450B602820D925900001C007C006B6
:10093E00C005C002C001120683D001D002D005D07E
:10094E0006D007150A74FFB50A02150B80D275D5AD
:10095E000020D9047582FE2220D903020A6530DEFA
:10096E000475820022E5D9540FF50C740EB50C04F3
:10097E0074018001E4F50A60077420450CF58222AB
:10098E00740AB50C0474018001E4F86033E94A700E
:10099E000A7420450CF50D850D8222C3E994FFEAF9
:1009AE0094FF500519B9FF011A90083FE024FFFB90
:1009BE00A3E034FFFC90083FEBF0ECA3F0020A68D2
:1009CE00E50D700CE50E7034BD0D028003020A6158
:1009DE0030DE04758200227402B50C04758200228A
:1009EE00E50A7003E860077420450CF58222E50CD9
:1009FE007003020A687420450CF5822230DE0475FD
:100A0E00820022EF6011740BB50C0474018001E4B6
:100A1E0024FFE433FC80107403B50C0474018001D0
:100A2E00E4FB24FFE433FCEC600475820022E50A4B
:100A3E007003E860077420450CF582227403B50C30
:100A4E0007740BB50C028012E50C600E7420450C79
:100A5E00F582227582FE2275D8FF90000FC007C066
:100A6E0006C005C002C001120683D001D002D00517
:100A7E00D006D00790083FE02401F0A3E03400F048
:100A8E0090083FE0FBA3E0FCC3EB94C8EC9400504D
:100A9E000302092475822022AF83E582900846F076
:100AAE00EFA3F07437C0E0743CC0E07480C0E01275
:100ABE00317D158115811581900846E0FEA3E0FF7A
:100ACE0090084AEEF0EFA3F0900841E0FBA3E0FCA3
:100ADE00A3E0FD9000C8C007C006C005C004C00357
:100AEE00120683D003D004D005D006D007EB4C609D
:100AFE000E8B828C838DF0E4123114A31231147597
:100B0E00D70890083BE4F090083C7410F07427A3CB
:100B1E00F07582D0C007C006C005C004C00312081D
:100B2E00EDAA82D003D004D005D006D007EA600328
:100B3E008A8222C006C00775D6D075D4D075D7016B
:100B4E00900107E0FA7900900106E0F87F0049F580
:100B5E000FEF4AF510900848E50FF0E510A3F0D01E
:100B6E0007D006E50F45107003020E31EE4F7003ED
:100B7E00020E31900100E0FF20E703020CC9C00510
:100B8E00C004C003C00FC0107449C0E0743CC0E084
:100B9E007480C0E012317DE58124FBF581D003D055
:100BAE0004D005900848E0FEA3E0FF4E7003020C4F
:100BBE00C390012CC007C006C005C004C0031206B6
:100BCE008390083BE5D4F090083C7410F07427A392
:100BDE00F07582901208EDAA82D003D004D005D011
:100BEE0006D007EA60038A8222A9D17A00C3E99E61
:100BFE00EA9F5006A9D17A0080048E018F028906E1
:100C0E007F00900848E0F8A3E0FA900848E8C39EF9
:100C1E00F0EA9FA3F0EB4C60248B828C838DF01254
:100C2E003BBFF8A3123BBFFAEE28FEEF3AFF8B82D2
:100C3E008C838DF0EE123114A3EF12311490084A0A
:100C4E00E0FEA3E0FF7A00C3EA99501CC001EA2E31
:100C5E00F511E43FF5128A82758300E085118285D5
:100C6E001283F00AD00180DF90084AE0FEA3E0FF75
:100C7E0090084AE92EF0E43FA3F0AED17F00C00504
:100C8E00C004C003C006C0077465C0E0743CC0E079
:100C9E007480C0E012317DE58124FBF581D003D054
:100CAE0004D005E5D1600E90062DE0FFC3E5D19F7F
:100CBE004003020BB175D700020E31C005C004C04F
:100CCE0003C00FC0107478C0E0743CC0E07480C0E4
:100CDE00E012317DE58124FBF581D003D004D005EF
:100CEE00900848E0FEA3E0FF4E7003020E31900024
:100CFE00C8C007C006C005C004C003120683D003D7
:100D0E00D004D005D006D00790062DE0F97A00C3A6
:100D1E00EE99EF9A50048E018F0289D790084AE01F
:100D2E00FEA3E0FFE5D72EFEE43FFF90084AEEF06B
:100D3E00EFA3F08E828F83A3E0FABA0956900B8947
:100D4E00E0F97A007401697003EA600679017A00AD
:100D5E00800479007A00900B89E9F08E828F83E906
:100D6E00F0900B89E0FF7E007A00C005C004C0033E
:100D7E00C007C006C001C0027494C0E0743CC0E05D
:100D8E007480C0E012317DE58124F9F581D003D065
:100D9E0004D005AED77F00C005C004C003C006C096
:100DAE000774AAC0E0743CC0E07480C0E012317DCC
:100DBE00E58124FBF58190083BE5D6F090083C7464
:100DCE0010F07427A3F07582101208EDAF82D003D5
:100DDE00D004D005EF60038F8222AED77F0090083B
:100DEE0048E0F9A3E0FA900848E9C39EF0EA9FA311
:100DFE00F0EB4C7003020CEE8B828C838DF0123B69
:100E0E00BFFEA3123BBFFFA9D77A00E92EFEEA3F31
:100E1E00FF8B828C838DF0EE123114A3EF123114FE
:100E2E00020CEE9000C8120683E5D760047F908016
:100E3E00027F1090083B74C0F090083C7410F07460
:100E4E0027A3F08F821208EDE582FF60038F8222C6
:100E5E00E5D77003F58222E5D17003F58222758203
:100E6E001722AF83E58290084DF0EFA3F090084C67
:100E7E00E0FFFD7E00C007C006C005C005C00674B9
:100E8E00BCC0E0743CC0E07480C0E012317DE581EE
:100E9E0024FBF581D005D006D00790084DE0FBA3CA
:100EAE00E0FC7A00C3EA9F501EC005C0068A007996
:100EBE0001EA2BF582E43CF583E49388828983F082
:100ECE000AD006D00580DDC005C00674D3C0E0741C
:100EDE003CC0E07480C0E012317DE58124FBF581D9
:100EEE002290062D7408F074E6C0E0743CC0E074E5
:100EFE0080C0E012317D15811581158190084C74EA
:100F0E0008F0903BEF120E70900841744FF0740889
:100F1E00A3F0E4A3F0900844F07402A3F090062E20
:100F2E00120AA6E582FF60038F822274FBC0E07472
:100F3E003CC0E07480C0E012317D158115811581B1
:100F4E00900635E090062DF0903BF5E493FF900867
:100F5E004FE0FDA3E0FE7C00C3ED9FEE9C501974A4
:100F6E0028C0E0743DC0E07480C0E012317D158170
:100F7E00158115817582172275820022E5829008EF
:100F8E0051F090084C7408F0903C07120E709008C7
:100F9E0051E0FF900102F0900841E4F0A3F0A3F0BD
:100FAE00900844F0A3F0900000C007120AA6AE828B
:100FBE00D007EE60038E82228F057E00C007C0052B
:100FCE00C0067452C0E0743DC0E07480C0E01231BF
:100FDE007DE58124FBF581D0078F82120783900077
:100FEE00641206D875820022E582900852F09008AD
:100FFE004C7408F0903C17120E70900852E090015D
:10100E0002F0900841E4F0A3F0A3F0900844F0A39E
:10101E00F0900000020AA690084C7408F0903C0F65
:10102E00120E70900841E4F0A3F0A3F0900844F083
:10103E007402A3F090062E020AA6AF83E5829008F2
:10104E0058F0EFA3F0900858E0FEA3E0FF8E828FD9
:10105E0083E07C0024FEFDEC34FFA2E713CD13CD1C
:10106E008E828F83A3E0FCBC030280047582002273
:10107E00900855E0FBA3E0FCEB24FFF515EC34FFE4
:10108E00F516900853E0F517A3E0F51885171385AC
:10109E0018147800C3E89D5063C00588047D00C312
:1010AE00EC9515ED9516D0055052C00588037C00C1
:1010BE00EB2BFBEC33FC74032BFAE43CFDEA2EFA2B
:1010CE00ED3FFD8A828D83E0D005600FE82513F594
:1010DE0082E43514F583743FF0801EE82517F9E499
:1010EE003518FA74022BFBE43CFCEB2EF582EC3F38
:1010FE00F583E0FC89828A83F0088098E82517F54D
:10110E0082E43518F583E4F07F00900857E0FE0E78
:10111E00900B26EDF0EFA3F0900B28EEF0900B293C
:10112E007434F0900B2A7456F0900B2BE517F0E503
:10113E0018A3F0758205122DFC75820122AF83E58E
:10114E008290085AF0EFA3F090085AE0FEA3E0FF59
:10115E007C007D008E828F83E0FB7A00C3EC9BEDDA
:10116E0064808AF063F08095F0503CEC2EF582EDB1
:10117E003FF583E0FB7A00C007C006C005C004C07F
:10118E0003C0027462C0E0743DC0E07480C0E0121F
:10119E00317DE58124FBF581D004D005D006D00742
:1011AE000CBC00B00D80AD746AC0E0743DC0E0743C
:1011BE0080C0E012317D1581158115812290084C79
:1011CE007408F0903BF7120E70900841745CF07446
:1011DE0008A3F0E4A3F0900844F07402A3F0900684
:1011EE002E120AA6E582FF60038F8222903BFDE459
:1011FE0093FF90085CE0FDA3E0FE7C00C3ED9FEE44
:10120E009C500475821722900630E0FF7E009006F7
:10121E0031E0FCE42FFFEC3EFE90084C7408F09099
:10122E003BF7C007C006120E70D006D0078F048E93
:10123E0005900106ECF08E07900107EFF090084143
:10124E00745CF07408A3F0E4A3F0900844F0740208
:10125E00A3F090062E120AA6E582FF60038F82226B
:10126E007582002290084C7408F0903BFF120E70AD
:10127E00900841745EF07408A3F0E4A3F090084463
:10128E00F07402A3F090062E020AA6E5829008C022
:10129E00F0E0FF75F010A4FDAEF024A0F582EE3460
:1012AE0008F583E4F0A3F0A3F0A3F0ED24A0FDEE87
:1012BE003408FE8D828E83A3A3A3A3E4F0A3F0A330
:1012CE00F0A3F074082DF582E43EF583E4F0A3F06C
:1012DE00A3F0A3F0740C2DF582E43EF583E4F0A3A5
:1012EE00F0A3F0A3F07E00EE75F008A42460FC7469
:1012FE000835F0FD74012CFAE43DFB8A828B83E005
:10130E00B507298C828D83E4F08A828B83F08C82E0
:10131E008D83A3A3F08C828D83A3A3A3F08C828DE7
:10132E0083A3A3A3A3F0A3F0A3F0A3F00EBE080023
:10133E0040B5227F00EF75F008A4FDAEF02460FBEF
:10134E00EE3408FC8B828C83E070030214EEED24E5
:10135E0060FDEE3408FE8D828E83A3E0FC9008398A
:10136E00E4F08C82C007C006C0051208BBD005D0C1
:10137E0006D0078D828E83A3A3A3E0FE747F5E4406
:10138E0090FDEE30E7067CC07E0080047C007E007F
:10139E0090083BECF090083CE4F0A3F08D82C0077F
:1013AE001208EDE582D00760030214EEEF75F00827
:1013BE00A42460F520740835F0F52174032520FB74
:1013CE00E43521FC8B828C83E0F97A006301808BFB
:1013DE00828C83E9F09008C1E5D1F0E0F519E07058
:1013EE00030214EEB2968B828C83E0F87900747F40
:1013FE0058F51A891B8F1C891D74042520F51EE4CF
:10140E003521F51F851E82851F83E0F8A3E0F9A321
:10141E00E0FAA3E0FEC007C004C003C01AC01BC0A0
:10142E001CC01DC000C001C002C006746CC0E074B8
:10143E003DC0E07480C0E012317DE58124F5F58178
:10144E00D003D004D007AA197E00851E82851F8383
:10145E00E0FD8B828C83E0FB53037F852082852108
:10146E0083A3E075F010A4F9ACF024A0F582EC345F
:10147E0008F583E0F520E924A0F9EC3408FC898214
:10148E008C83A3A3A3A3E0F51E740829F582E43C84
:10149E00F583E0F8740C29F582E43CF583E0FC90CA
:1014AE000B2EEAF0EEA3F0900B30EDF0900B31EF37
:1014BE00F0900B32EBF0900B337400F07400A3F04D
:1014CE00900B35E520F0900B36E51EF0900B37E8CB
:1014DE00F0900B38ECF0758204C007122EAAD007DC
:1014EE000FBF0800500302134322E5829008C3F099
:1014FE0090084C7408F0903C2F120E709008C3E0C8
:10150E0075F008A42460FE740835F0FF8E828F8378
:10151E00A3A3E0900104F09001067401F09000C8BE
:10152E0012068375D70890083BE4F090083C7410BF
:10153E00F07427A3F07582D01208EDE582600122C7
:10154E009008C2E0900100F075D70190083BE5D6F7
:10155E00F090083C7410F07427A3F0758210020806
:10156E00EDAF83E5829008C7F0EFA3F09008C9E4D1
:10157E00F0A3F09008CBF09008CCF09008C6E07580
:10158E00F008A42460FE740835F0FF9008C7E0F55B
:10159E0028A3E0F529AA28AB299008C4E0F526A3D4
:1015AE00E0F5279008C9E0F522A3E0F523C3E52274
:1015BE009526E5239527400122C006C007E5222582
:1015CE0028F582E5233529F583E0FF9008CD74FCDC
:1015DE005FF074035FF5229008CEF09008CFE4F030
:1015EE00A3F0A3F0A3F07403B522028006D007D0B7
:1015FE0006800BD007D0069008CEE52204F0C00678
:10160E00C0079008C9E0FEA3E0FF74012EF522E4A6
:10161E003FF5239008CEE0F524752500D007D006BF
:10162E00C3E52595245054C006C007AE257F00EEB5
:10163E002522FEEF3523FFEE2AF582EF3BF583E000
:10164E00F8E4F9FEFFE525C40354F8FD8DF005F02E
:10165E00800CE828F8E933F9EE33FEEF33FFD5F0CE
:10166E00F19008CFE048F0A3E049F0A3E04EF0A3DC
:10167E00E04FF00525D007D00680A59008CBE0FD01
:10168E009008CDE0FCE4BCC00104F52579008D2264
:10169E00752300E5256008752A01752B008005E489
:1016AE00F52AF52BC006C007E522C3952AF8E523D7
:1016BE00952BFF89047E00C3EC98EE64808FF06357
:1016CE00F08095F0D007D0065030C007C006C00598
:1016DE00C003C002C0017483C0E0743DC0E07480DA
:1016EE00C0E012317D158115811581D001D002D057
:1016FE0003D005D006D0070980949008CDE0FDBD3B
:10170E0004028063BD0803021955BD1403021CDFD9
:10171E00BD1803021DC7BD2403021D19BD280302F7
:10172E001E01BD3403021D53BD4403021D8DBD6455
:10173E0003021EBCBD7403021FA4BD8003021EF66D
:10174E00BD8403021FDEBD9003021F30BD94030251
:10175E002018BDA003021E3BBDB003021F6ABDC010
:10176E0003021E7C0220519008CFE0F52CA3E0F579
:10177E002DA3E0F52EA3E0F52FC3E52D94FFE52E66
:10178E009400E52F9400400AE4F52C752DFFF52EFC
:10179E00F52FC007C006C003C0027488C0E0743DB8
:1017AE00C0E07480C0E012317D158115811581D0A5
:1017BE0002D003D006D0077401B52C0D14B52D0937
:1017CE00B52E06B52F030218967407B52C0CE4B58A
:1017DE002D08B52E05B52F02805E7408B52C0CE4CD
:1017EE00B52D08B52E05B52F0280257409B52C0C24
:1017FE00E4B52D08B52E05B52F028064E4B52C0D89
:10180E00B52E0AB52F07F4B52D030218BD0218F632
:10181E00C007C006C003C0027494C0E0743DC0E0AF
:10182E007480C0E012317D158115811581D002D0F2
:10183E0003D006D00702192DC007C006C003C00290
:10184E007499C0E0743DC0E07480C0E012317D1523
:10185E008115811581D002D003D006D00702192D33
:10186E00C007C006C003C00274A9C0E0743DC0E04A
:10187E007480C0E012317D158115811581D002D0A2
:10188E0003D006D00702192DC007C006C003C00240
:10189E0074B0C0E0743DC0E07480C0E012317D15BC
:1018AE008115811581D002D003D006D0078070C07B
:1018BE0007C006C003C0029008CFE0C0E0A3E0C09E
:1018CE00E0A3E0C0E0A3E0C0E074C9C0E0743DC096
:1018DE00E07480C0E012317DE58124F9F581D002FB
:1018EE00D003D006D0078037C007C006C003C002A1
:1018FE009008CFE0C0E0A3E0C0E0A3E0C0E0A3E02A
:10190E00C0E074E0C0E0743DC0E07480C0E012310D
:10191E007DE58124F9F581D002D003D006D007C031
:10192E0007C006C003C002746AC0E0743DC0E07414
:10193E0080C0E012317D158115811581D002D00352
:10194E00D006D0070220989008CCE07036C002C0B6
:10195E000374042EF52CE43FF52D9008CFE0F8A388
:10196E00E0FAA3E0FBA3E0FC852C82852D83E8F052
:10197E00EAA3F0EBA3F0ECA3F09008CC7401F0D046
:10198E0003D002C007C006C003C00274F0C0E074EA
:10199E003DC0E07480C0E012317D15811581158146
:1019AE00D002D003D006D0079008CFE0F52CA3E0EC
:1019BE00F52DA3E0F52EA3E0F52FC37438952CE496
:1019CE00952DE4952EE4952F5003021C8AE52C24C8
:1019DE000B83F582E52C243D83F583E4735D85ADA1
:1019EE00D5FD254D759DC58A8A8A8A8A8A8A8A8AF4
:1019FE008A8A8A8A8A8A8A8A8A8A8A8A8A8A8A8A39
:101A0E008A8A8A8A8A8A8A8A8A8A8A8A8AED153C88
:101A1E008A8A8A8A8A631A1A1A1A1A1B1B1B1B1B9A
:101A2E001C1C1C1C1C1C1C1C1C1C1C1C1C1C1C1CE8
:101A3E001C1C1C1C1C1C1C1C1C1C1C1C1C1C1C1CD8
:101A4E001C1C1C1C1C1C1B1C1C1C1C1C1C1C1CC025
:101A5E0007C006C003C00274F7C0E0743DC0E07456
:101A6E0080C0E012317D158115811581D002D00321
:101A7E00D006D007021CB7C007C006C003C0027450
:101A8E00FFC0E0743DC0E07480C0E012317D15816E
:101A9E0015811581D002D003D006D007021CB7C025
:101AAE0007C006C003C0027407C0E0743EC0E074F5
:101ABE0080C0E012317D158115811581D002D003D1
:101ACE00D006D007021CB7C007C006C003C0027400
:101ADE000DC0E0743EC0E07480C0E012317D15810F
:101AEE0015811581D002D003D006D007021CB7C0D5
:101AFE0007C006C003C0027416C0E0743EC0E07496
:101B0E0080C0E012317D158115811581D002D00380
:101B1E00D006D007021CB7C007C006C003C00274AF
:101B2E001FC0E0743EC0E07480C0E012317D1581AC
:101B3E0015811581D002D003D006D007021CB7C084
:101B4E0007C006C003C0027427C0E0743EC0E07434
:101B5E0080C0E012317D158115811581D002D00330
:101B6E00D006D007021CB7C007C006C003C002745F
:101B7E0030C0E0743EC0E07480C0E012317D15814B
:101B8E0015811581D002D003D006D007021CB7C034
:101B9E0007C006C003C0027437C0E0743EC0E074D4
:101BAE0080C0E012317D158115811581D002D003E0
:101BBE00D006D007021CB7C007C006C003C002740F
:101BCE004DC0E0743EC0E07480C0E012317D1581DE
:101BDE0015811581D002D003D006D007021CB7C0E4
:101BEE0007C006C003C0027464C0E0743EC0E07457
:101BFE0080C0E012317D158115811581D002D00390
:101C0E00D006D007021CB7C007C006C003C00274BE
:101C1E0066C0E0743EC0E07480C0E012317D158174
:101C2E0015811581D002D003D006D007807BC00766
:101C3E00C006C003C0027468C0E0743EC0E0748089
:101C4E00C0E012317D158115811581D002D003D0EF
:101C5E0006D0078054C007C006C003C002746AC015
:101C6E00E0743EC0E07480C0E012317D15811581B4
:101C7E001581D002D003D006D007802DC007C00634
:101C8E00C003C002C02CC02DC02EC02F74E0C0E017
:101C9E00743DC0E07480C0E012317DE58124F9F519
:101CAE0081D002D003D006D007C007C006C003C043
:101CBE0002746AC0E0743DC0E07480C0E012317DF1
:101CCE00158115811581D002D003D006D0070220D0
:101CDE0098C007C006C003C0029008CFE0C0E0A3C2
:101CEE00E0C0E0A3E0C0E0A3E0C0E07470C0E07428
:101CFE003EC0E07480C0E012317DE58124F9F581AB
:101D0E00D002D003D006D007022098C007C006C06C
:101D1E0003C0029008CFE0C0E0A3E0C0E0A3E0C0A3
:101D2E00E0A3E0C0E07481C0E0743EC0E07480C007
:101D3E00E012317DE58124F9F581D002D003D00681
:101D4E00D007022098C007C006C003C0029008CF7B
:101D5E00E0C0E0A3E0C0E0A3E0C0E0A3E0C0E07418
:101D6E0092C0E0743EC0E07480C0E012317DE58127
:101D7E0024F9F581D002D003D006D007022098C0F6
:101D8E0007C006C003C0029008CFE0C0E0A3E0C0C9
:101D9E00E0A3E0C0E0A3E0C0E074A4C0E0743EC0E5
:101DAE00E07480C0E012317DE58124F9F581D00226
:101DBE00D003D006D007022098C007C006C003C0CB
:101DCE00029008CFE0C0E0A3E0C0E0A3E0C0E0A333
:101DDE00E0C0E07492C0E0743EC0E07480C0E012D7
:101DEE00317DE58124F9F581D002D003D006D007EC
:101DFE00022098C007C006C003C0029008CFE0C002
:101E0E00E0A3E0C0E0A3E0C0E0A3E0C0E074A4C0A3
:101E1E00E0743EC0E07480C0E012317DE58124F9AB
:101E2E00F581D002D003D006D007022098C007C09B
:101E3E0006C003C0029008CFE0C0E0A3E0C0E0A35C
:101E4E00E0C0E0A3E0C0E074B6C0E0743EC0E07451
:101E5E0080C0E012317DE58124F9F581D002D003F6
:101E6E00D006D0079008CBE02401F0022098C007DE
:101E7E00C006C003C0029008CFE0C0E0A3E0C0E0FF
:101E8E00A3E0C0E0A3E0C0E074CCC0E0743EC0E0CC
:101E9E007480C0E012317DE58124F9F581D002D045
:101EAE0003D006D0079008CBE014F0022098C007AC
:101EBE00C006C003C0029008CFE0C0E0A3E0C0E0BF
:101ECE00A3E0C0E0A3E0C0E074E0C0E0743EC0E078
:101EDE007480C0E012317DE58124F9F581D002D005
:101EEE0003D006D007022098C007C006C003C00268
:101EFE009008CFE0C0E0A3E0C0E0A3E0C0E0A3E024
:101F0E00C0E074EEC0E0743EC0E07480C0E01231F8
:101F1E007DE58124F9F581D002D003D006D00702E9
:101F2E002098C007C006C003C0029008CFE0C0E0F2
:101F3E00A3E0C0E0A3E0C0E0A3E0C0E074FDC0E019
:101F4E00743EC0E07480C0E012317DE58124F9F565
:101F5E0081D002D003D006D007022098C007C00659
:101F6E00C003C0029008CFE0C0E0A3E0C0E0A3E051
:101F7E00C0E0A3E0C0E0740DC0E0743FC0E0748028
:101F8E00C0E012317DE58124F9F581D002D003D075
:101F9E0006D007022098C007C006C003C0029008F2
:101FAE00CFE0C0E0A3E0C0E0A3E0C0E0A3E0C0E06B
:101FBE00741EC0E0743FC0E07480C0E012317DE555
:101FCE008124F9F581D002D003D006D007022098E3
:101FDE00C007C006C003C0029008CFE0C0E0A3E077
:101FEE00C0E0A3E0C0E0A3E0C0E0742FC0E0743F07
:101FFE00C0E07480C0E012317DE58124F9F581D016
:10200E0002D003D006D007022098C007C006C00336
:10201E00C0029008CFE0C0E0A3E0C0E0A3E0C0E0C3
:10202E00A3E0C0E0743EC0E0743FC0E07480C0E046
:10203E0012317DE58124F9F581D002D003D006D08E
:10204E00078047A9247C008D007D00C007C006C014
:10205E0003C0029008CFE0C0E0A3E0C0E0A3E0C060
:10206E00E0A3E0C0E0C001C004C000C0057450C0D1
:10207E00E0743FC0E07480C0E012317DE58124F54C
:10208E00F581D002D003D006D0079008CEE0FD7CBB
:10209E00000DBD00010C9008C9E0F8A3E0F990080E
:1020AE00C9ED28F0EC39A3F00215B1E5829008D302
:1020BE00F0E075F008A42460FE740835F0FF740299
:1020CE002EFEE43FFF8E828F83E0FD7C00C007C0B2
:1020DE0006C005C0047490C0E0743FC0E07480C0B8
:1020EE00E012317DE58124FBF58190084C7408F0F7
:1020FE00903C1F120E70D006D0078E828F83E09018
:10210E000104F090084174D4F07408A3F0E4A3F035
:10211E00900844F0A3F090062EC007C006120AA63F
:10212E0090084C7408F0903C27120E70D006D00721
:10213E008E828F83E0900104F0900106E4F090010E
:10214E00077402F090084174D4F07408A3F0E4A36D
:10215E00F0900844F07402A3F090062E120AA6E541
:10216E0082FF60038F82227E007F009008D4E0FC05
:10217E00A3E0FDC3EE9CEF9D5036EE242EF582EFCC
:10218E003406F583E0FD7C00C007C006C005C00420
:10219E007462C0E0743DC0E07480C0E012317DE531
:1021AE008124FBF581D006D0070EBE00BE0F80BB8A
:1021BE00746AC0E0743DC0E07480C0E012317D15D9
:1021CE0081158115819008D4E0FEA3E0FF9008D31D
:1021DE00E0FD75F008A42460FB740835F0FC8B82DA
:1021EE008C83A3A3E0FA8B828C83A3E0FC900B2656
:1021FE00EEF0EFA3F0900B28EDF0900B29EAF090A3
:10220E000B2AECF0900B2B742EF07406A3F0758253
:10221E0007C005122DFCD0059008D4E0FEA3E0FF08
:10222E009008C4EEF0EFA3F09008C6EDF090062EE5
:10223E0012156F758200229008D6E0FEA3E0FF8E85
:10224E00828F83A3A3E0FD7C00C007C006C005C03B
:10225E000474B5C0E0743FC0E07480C0E012317DFC
:10226E00E58124FBF581D006D0078E828F83A3A350
:10227E00A3A3A3E0FD7C00C007C006C005C0047484
:10228E00C3C0E0743FC0E07480C0E012317DE581D0
:10229E0024FBF581D006D00774062EF582E43FF5B7
:1022AE0083E0FD7C00C007C006C005C00474CFC02B
:1022BE00E0743FC0E07480C0E012317DE58124FB04
:1022CE00F581D006D00774072EF582E43FF583E042
:1022DE00FF7E00C007C00674DFC0E0743FC0E0742C
:1022EE0080C0E012317DE58124FBF58122AF83E5CC
:1022FE00829008DAF0EFA3F09008DAE0FEA3E0FF98
:10230E008E828F83A3A3E0FF7E00C007C00674F801
:10231E00C0E0743FC0E07480C0E012317DE58124DE
:10232E00FBF5819008D8E0FEA3E0FF8E828F83A399
:10233E00A3E0FDFB53030F7C00EDC4540FFD7A00A8
:10234E008E828F83A3A3A3E0F853000F7900C007FA
:10235E00C006C003C004C005C002C000C001740D99
:10236E00C0E07440C0E07480C0E012317DE581248D
:10237E00F7F581D006D0078E828F83A3A3A3A3E0A7
:10238E00FD7C00C007C006C005C004741CC0E0740C
:10239E0040C0E07480C0E012317DE58124FBF58100
:1023AE00D006D00774062EF582E43FF583E0FF7E5B
:1023BE0000C007C0067433C0E07440C0E07480C033
:1023CE00E012317DE58124FBF5812222E582900821
:1023DE00DCF09008DDE4F09008DCE0FFFEFD75F027
:1023EE0003A4F53085F0318F35753400900064C04C
:1023FE0007C006C0051206D89000641206D88535AF
:10240E00821212998535821207A9D005D006D007FF
:10241E007800900001C007C006C005C0001206D8A3
:10242E00D000D005D006D0078F82C007C006C005E9
:10243E00C0001207F9E582D000D005D006D00760A3
:10244E000608B8640040CBB86441C0058F82C0074F
:10245E00C006C005120715D005D006D0078F007D27
:10246E0000C007C006C005C000C0057443C0E074BC
:10247E0040C0E07480C0E012317DE58124FBF5811F
:10248E00D005D006D007D005022B41C005900839E3
:10249E00E4F08E82C007C006C0051208BBD005D07E
:1024AE00068E007D00C006C005C000C0057466C063
:1024BE00E07440C0E07480C0E012317DE58124FB01
:1024CE00F581D005120EEFAD82D006D0079008DD53
:1024DE00EDF0EDD0056003022AD0C005900632E083
:1024EE00F87D00C007C006C005C000C0057480C0DE
:1024FE00E07440C0E07480C0E012317DE58124FBC1
:10250E00F581D005900635E0F87D00C005C000C00D
:10251E00057491C0E07440C0E07480C0E012317D5B
:10252E00E58124FBF581D005D006EE75F010A4F8F8
:10253E00ADF024A0F532ED3408F533900636E0F90F
:10254E007A007B007C00853282853383E9F0EAA332
:10255E00F0EBA3F0ECA3F0E824A0F8ED3408FD7442
:10256E000428F532E43DF533900637E0F97A007B26
:10257E00007C00853282853383E9F0EAA3F0EBA379
:10258E00F0ECA3F0740828F532E43DF533900638EC
:10259E00E0F97A007B007C00853282853383E9F096
:1025AE00EAA3F0EBA3F0ECA3F0740C28F8E43DFDE5
:1025BE00900639E0F97A007B007C0088828D83E9F1
:1025CE00F0EAA3F0EBA3F0ECA3F090062EC006C049
:1025DE000512114BD005D006903C09E4932EF5322E
:1025EE00853282C006120F8AAD82D006D0079008BF
:1025FE00DDEDF0EDD0056003022AD0EE75F003A4F8
:10260E00242EFB740835F0FC8B828C83A3E532F00C
:10261E00C007C006C00512102590062E12114BD011
:10262E0005D006900853742EF07406A3F09008554A
:10263E00E4F07402A3F0900857EEF090062EC00658
:10264E00C005121048E582D005D006D007602CC018
:10265E0007C006C005742EC0E07406C0E0E4C0E0FA
:10266E0074A5C0E07440C0E07480C0E012317DE516
:10267E008124FAF581D005D006D007C007C006C068
:10268E00051211CBAC82D005D006D0079008DDEC38
:10269E00F0EC6003022AD0900630E0FC7B0090063E
:1026AE0031E0FAE42CFCEA3BFB9008DCE0FA0A90FD
:1026BE000B26ECF0EBA3F0900B28E532F0900B29F3
:1026CE00EAF0900B2A74AAF0900B2B742EF074067D
:1026DE00A3F0758206122DFC900AE0E4F0A3F07BC5
:1026EE00007C00900630E0FA8A3275330090063195
:1026FE00E0FAE42532F8EA3533FAC3EB98EC9A5057
:10270E0036EB242EF582EC3406F583E0F97A00C020
:10271E0004C003C001C0027462C0E0743DC0E07426
:10272E0080C0E012317DE58124FBF581D003D00419
:10273E000BBB00AF0C80AC746AC0E0743DC0E0749B
:10274E0080C0E012317D158115811581900633E030
:10275E00FCFA7B00C004C002C00374B8C0E0744031
:10276E00C0E07480C0E012317DE58124FBF58190DC
:10277E000632E0FB7A00C003C00274D1C0E07440A0
:10278E00C0E07480C0E012317DE58124FBF581D07C
:10279E00048C82120FF6900630E0FC7B009006311E
:1027AE00E0FAE42CFCEA3BFB8C018B02E4F532F5FB
:1027BE0033C3E53299E5339A502EC004C003E53297
:1027CE0024E0F8E5333408FCE532242EF582E533B7
:1027DE003406F583E088828C83F00532E4B532024C
:1027EE000533D003D00480C990062EE0FA9008DE9F
:1027FE00F0E4A3F09008DCE0F539A9398C368B377C
:10280E009008DEE0F532A3E0F533C3E5329536E508
:10281E003395374003022ACCE53224E0F532E53316
:10282E003408F533900AE2E532F0E533A3F0853251
:10283E0082853383A3E0F8B80402801AB8050280BB
:10284E0056B821030229D1B82403022A27B825033A
:10285E00022A53022A7F88037C00C001C003C004F1
:10286E0074E6C0E07440C0E07480C0E012317DE5D3
:10287E008124FBF581D001AB32AC33900AE0EBF052
:10288E00ECA3F09008D6EBF0ECA3F08982C0011215
:10289E002245D001022AA7C00188017C00C001C0D8
:1028AE0001C0047402C0E07441C0E07480C0E01244
:1028BE00317DE58124FBF5818532828533831211CA
:1028CE004BD001900AE0E0FBA3E0FC8B828C83A34B
:1028DE00A3A3A3A3E0FCBC03028005D001022AA798
:1028EE00AB32AC3374022BF53AE43CF53B853A82BD
:1028FE00853B83E0D00120E703022AA7753800C08C
:10290E0001E53875F008A42460F9740835F0FA89E9
:10291E00828A83E0D0016008053874F8253850DFCC
:10292E00C001A9387A00C001C001C002741DC0E008
:10293E007441C0E07480C0E012317DE58124FBF566
:10294E0081D001E53875F008A42460F9740835F0DB
:10295E00FA740329F53CE43AF53D853A82853B83CA
:10296E00E0F53A853C82853D83F089828A83740145
:10297E00F00429F53CE43AF53D900AE0E0FBA3E0D3
:10298E00FC8B828C83A3A3E0853C82853D83F089FA
:10299E00828A83A3E539F0AB3A7C00C001C003C044
:1029AE0004743FC0E07441C0E07480C0E012317D19
:1029BE00E58124FBF5818538821220B9D001D00142
:1029CE00022AA788037C00C001C003C0047466C03D
:1029DE00E07441C0E07480C0E012317DE58124FBDB
:1029EE00F581D001900AE0E0FBA3E0FC900AE0E064
:1029FE00F5F0A3E045F07003022AA7C001A932AAA0
:102A0E00339008D8E9F0EAA3F08B828C83C00112D0
:102A1E0022FBD001D001022AA788037C00C001C08E
:102A2E0003C004747CC0E07441C0E07480C0E01246
:102A3E00317DE58124FBF581853282853383121148
:102A4E004BD001805488037C00C001C003C00474C5
:102A5E00A4C0E07441C0E07480C0E012317DE58115
:102A6E0024FBF58185328285338312114BD0018090
:102A7E00287C00C001C000C00474CEC0E07441C008
:102A8E00E07480C0E012317DE58124FBF581853252
:102A9E008285338312114BD001900AE2E0FBA3E052
:102AAE00FC8B828C83E0FB7C009008DEE0F8A3E0D8
:102ABE00FA9008DEEB28F0EC3AA3F002280E7582AD
:102ACE0000229008DDE0FCFA7B00C007C006C005BE
:102ADE00C004C002C00374F0C0E07441C0E0748052
:102AEE00C0E012317DE58124FBF581D004D0058D47
:102AFE00030B900B26E4F0A3F0900B28EBF0900B59
:102B0E0029ECF0900B2A74EEF0900B2BE4F0A3F06E
:102B1E00758203C005122DFCE530242EF582E531B9
:102B2E003408F5837402F0758201120795D005D032
:102B3E0006D007053474F6253440030223FA9008B4
:102B4E00DDE0F58222900AE4E4F010D803022CE0D6
:102B5E00E5DB30E36390082EE06008E5E430E00347
:102B6E00022C1D75820012071590082E7401F0E4D8
:102B7E00C0E0C0E074FEC0E07441C0E07480C0E00C
:102B8E0012317DE58124FBF581900B26E4F0A3F054
:102B9E00900B2804F0900B29F0900B2AF0900B2B41
:102BAE00E4F0A3F0758201122DFC7582001223DA77
:102BBE00E582900AE4F0805790082EE0FFBF0100F6
:102BCE00404D758200121299758200120715E4C0ED
:102BDE00E0C0E0741FC0E07442C0E07480C0E01238
:102BEE00317DE58124FBF581900B26E4F0A3F09076
:102BFE000B2804F0900B29F0900B2AF0900B2BE48D
:102C0E00F0A3F0758202122DFC900AE47416F0E522
:102C1E00DB30E764900831E06008E5E530E0030260
:102C2E002CE07582011207159008317401F0C0E096
:102C3E00E4C0E074FEC0E07441C0E07480C0E012F5
:102C4E00317DE58124FBF581900B26E4F0A3F09015
:102C5E000B287402F0900B29F0900B2AF0900B2B9E
:102C6E00E4F0A3F0758201122DFC7582011223DAB5
:102C7E00E582900AE4F0805A900831E0FFBF01002F
:102C8E004050758201121299758201120715740156
:102C9E00C0E0E4C0E0741FC0E07442C0E07480C0C5
:102CAE00E012317DE58124FBF581900B26E4F0A343
:102CBE00F0900B287402F0900B29F0900B2AF090F4
:102CCE000B2BE4F0A3F0758202122DFC900AE47433
:092CDE0016F0900AE4E0F58222F0
:103BEF008006000100001200800600020000120093
:103BFF00810600040000090000050200000000001B
:103C0F0080060203090402040009000000000000FE
:103C1F00210A000000000000810600220000FF00C2
:103C2F002109000200000000686F73744374726C06
:103C3F005472616E736665720A0052656D61696ECA
:103C4F00696E6720627974657320746F2072656185
:103C5F00642025640A0052656365697665642025D2
:103C6F00692062797465730A0052656D61696E69C6
:103C7F006E6720627974657320746F207772697430
:103C8F0065202569005345545F504F52542020251D
:103C9F00303258202025303258200053656E646929
:103CAF006E672025692062797465730A0066696CF6
:103CBF006C54784275666665722025692062797446
:103CCF0065730A0066696C6C547842756666657236
:103CDF0020646F6E650A0067657444657669636575
:103CEF0044657363726970746F720A004465766914
:103CFF0063652064657363726970746F7220726597
:103D0F0071756573742073656E7420737563636565
:103D1F00737366756C6C790A0052656365697665B5
:103D2F0064207061636B657420697320736D616CBF
:103D3F006C6572207468616E206578706563746558
:103D4F00640A00536574416464726573733A202585
:103D5F00690A0030782530325820000A004849445B
:103D6F0020256C752C2025692064617461202569DC
:103D7F00203A2000202020200055736167652070B5
:103D8F0061676520004C454473004B6579626F6134
:103D9F0072642F4B657970616400427574746F6E35
:103DAF000067656E65726963206465736B746F700D
:103DBF0020636F6E74726F6C730076656E646F72D2
:103DCF0020646566696E65642030782530346C78C0
:103DDF0000756E6B6E6F776E2030782530326C7891
:103DEF000055736167652000556E6B6E6F776E00BF
:103DFF00506F696E746572004D6F75736500526513
:103E0F00736572766564004A6F79737469636B00CA
:103E1F0047616D65706164004B6579626F617264B3
:103E2F00004B6579706164004D756C74692D417834
:103E3F00697320636F6E74726F6C6C65720054617E
:103E4F00626C65742073797374656D20636F6E7423
:103E5F00726F6C7300580059005A00576865656C93
:103E6F00004C6F676963616C206D696E20256C75FE
:103E7F000A004C6F676963616C206D617820256C57
:103E8F00750A00506879736963616C206D696E20E3
:103E9F00256C750A00506879736963616C206D61D8
:103EAF007820256C750A00436F6C6C656374696FBD
:103EBF006E20737461727420256C750A00436F6CE9
:103ECF006C656374696F6E20656E6420256C750A6E
:103EDF0000556E69742030782530326C780A0049AD
:103EEF006E7075742030782530326C780A004F75FB
:103EFF00747075742030782530326C780A004665FE
:103F0F0061747572652030782530326C780A0052F2
:103F1F0065706F72742073697A6520256C750A005D
:103F2F005265706F727420494420256C750A0052D7
:103F3F0065706F727420636F756E7420256C750ACF
:103F4F0000556E6B6E6F776E204849442072657016
:103F5F006F7274206964656E7469666965723A2060
:103F6F00307825303278202825692062797465737E
:103F7F002920646174613A2030782530326C780AD8
:103F8F000052657175657374696E67207265706F25
:103F9F0072742066726F6D20696E746572666163EC
:103FAF00652025690A00496E746572666163652034
:103FBF0025640A002020436C6173732025640A0076
:103FCF00202053756220436C6173732025640A00AF
:103FDF002020496E746572666163652050726F743C
:103FEF006F636F6C2025640A004849442061742078
:103FFF00496E746572666163652025640A0020202E
:10400F005553422025642E256425640A0020204341
:10401F006F756E74727920636F6465203078253008
:10402F0032580A0020205479706558203078253096
:10403F0032580A004661696C656420746F20656EA2
:10404F0061626C6520726F6F742068756220706F8B
:10405F0072742025690A00726F6F74206875622070
:10406F00706F727420256920656E61626C65640AD9
:10407F000044657669636520636C617373202569FD
:10408F000A004D6178207061636B65742073697AE3
:10409F00652025690A00446576696365205374724B
:1040AF00696E673A2025730A00436F6E66696775FC
:1040BF00726174696F6E2076616C75653A20256444
:1040CF000A00496E7465726661636520636F756E71
:1040DF00743A2025640A00496E74657266616365DF
:1040EF002064657363726970746F7220666F756E8A
:1040FF00640A00456E64706F696E74206465736343
:10410F00726970746F7220666F756E640A00436F08
:10411F006E6E65637465642064657669636520619E
:10412F007420706F736974696F6E3A2025690A0085
:10413F00476F7420656E64706F696E7420666F725E
:10414F00207468652048494464657669636520304A
:10415F0078253032780A00484944206465736372C9
:10416F006970746F7220666F756E640A00436C61BC
:10417F007373207370656369666963206865616432
:10418F0065722064657363726970746F7220666FF5
:10419F00756E640A00436C61737320737065636995
:1041AF0066696320656E64706F696E7420646573F1
:1041BF0063726970746F7220666F756E640A005552
:1041CF006E65787065637465642064657363726986
:1041DF0070746F7220747970653A20253032580AE6
:1041EF00004572726F72203D20253032580A00440C
:1041FF00657669636520617420726F6F74206875CE
:10420F006220256920636F6E6E65637465640A00B2
:10421F0044657669636520617420726F6F742068DE
:10422F00756220256920646973636F6E6E656374B0
:04423F0065640A00A8
:014258000065
:102CE70010980122900B8AE024E5F582E4340AF576
:102CF70083E599F0900B8AE0FF24E5F582E4340A36
:102D0700F583E0FEBE0A028008BF40005003022D93
:102D1700C47E00900B8AE0FDC3EE9D502EEE24E5A5
:102D2700F582E4340AF583E0FD7C00C006C005C0E7
:102D3700047443C0E07442C0E07480C0E012317D87
:102D4700E58124FBF581D0060E80C8744BC0E07482
:102D570042C0E07480C0E012317D15811581158174
:102D6700900AE5E0FEBE6B24900AE6E0FDBD620E28
:102D77001201168508828509831200068037BD7205
:102D87003475A15575A1AA43B1108029EE30E72506
:102D97008E04530460E4C423CCC423541F6CCC5466
:102DA7001FCC6CCC30E40244E09008C2741F5EF084
:102DB7008C821214F8900B8AE4F0022CE7900B8AAD
:102DC700EF04F0022CE7E582900B25F0E0FFBFC08F
:102DD700028005BFDB1A800C7582DB1201B7758292
:102DE700DC0201B77582DB1201B77582DD0201B71C
:102DF7008F820201B7E582900B2DF0900B26E0FE43
:102E0700A3E0FF8E058D82C007C006122DCDD00628
:102E1700D0078F058D82C007C006122DCD900B2DD0
:102E2700E0F582122DCD900B28E0F582122DCD9082
:102E37000B29E0F582122DCD900B2AE0F582122D99
:102E4700CD758200122DCD758200122DCD758200B1
:102E5700122DCD758200122DCDD006D007900B2BE9
:102E6700E0FCA3E0FD7A007B00C3EA9EEB9F502DB8
:102E7700EA2CF582EB3DF583E0F582C007C006C07A
:102E870005C004C003C002122DCDD002D003D00468
:102E9700D005D006D0070ABA00CF0B80CC7582C008
:102EA7000201B7E582900B39F0900B2EE0FEA3E00C
:102EB700FF8E058D82C007C006122DCDD006D00724
:102EC7008F058D82C007C006122DCD900B39E0F516
:102ED70082122DCD900B30E0F582122DCD900B3163
:102EE700E0F582122DCD900B32E0F582122DCD90B8
:102EF7000B35E0F582122DCD900B36E0F582122DC1
:102F0700CD900B37E0F582122DCD900B38E0F5828E
:102F1700122DCDD006D007900B33E0FCA3E0FD7A4D
:102F2700007B00C3EA9EEB9F502DEA2CF582EB3D18
:102F3700F583E0F582C007C006C005C004C003C022
:102F470002122DCDD002D003D004D005D006D00771
:0D2F57000ABA00CF0B80CC7582C00201B712
:0A42430030782530325820000A00C0
:014259000064
:102F6400AF82AE83ADF0FC900B3EEFF0EEA3F0ED3C
:102F7400A3F0ECA3F0900B3EE0FCA3E0FDA3E0FE85
:102F8400A3E0FF30E70FC3E49CF8E49DF9E49EFA64
:102F9400E49FFB80088C008D018E028F03900B3A16
:102FA400E0FCA3E0FDA3E0FEA3E0FF33E433F53E41
:102FB4006013C3E49CF53FE49DF540E49EF541E4D1
:102FC4009FF54280088C3F8D408E418F42900B428A
:102FD400E53FF0E540A3F0E541A3F0E542A3F08826
:102FE4008289838AF0EB123020AC82AD83AEF0FF8D
:102FF400900B3EE0A3E0A3E0A3E033E433653E603E
:1030040013C3E49CF8E49DF9E49EFAE49F88828962
:10301400838AF0228C828D838EF0EF22AF82AE837E
:10302400ADF0FC900B46EFF0EEA3F0EDA3F0ECA3B3
:10303400F0900B4AE4F0A3F0A3F0A3F0900B42E06D
:10304400FCA3E0FDA3E0FEA3E0FF7B20C003900B04
:1030540046E0F8A3E0F9A3E0FAA3E0FB900B4E23CB
:103064005401F0E828F8E933F9EA33FAEB33FB903A
:103074000B46E8F0E9A3F0EAA3F0EBA3F0900B4AC7
:10308400E0F8A3E0F9A3E0FAA3E0FBE828F8E933C9
:10309400F9EA33FAEB33FB900B4AE8F0E9A3F0EAE0
:1030A400A3F0EBA3F0D003900B4EE06008900B4A22
:1030B400E043E001F0900B4AE0F54EA3E0F54FA3A6
:1030C400E0F550A3E0F551C3E54E9CE54F9DE55076
:1030D4009EE5519F401F900B4AE54EC39CF0E54F7F
:1030E4009DA3F0E5509EA3F0E5519FA3F0900B46FD
:1030F400E043E001F01BEB6003023050900B46E02C
:10310400FCA3E0FDA3E0FEA3E08C828D838EF0227D
:06003700E478FFF6D8FD9D
:100015007902E94400601B7A01904258788975A0FD
:100025000BE493F2A308B8000205A0D9F4DAF2753F
:02003500A0FF2A
:1031140020F71130F6138883A88220F509F6A883D6
:0B3124007583002280FEF280F5F0228F
:10003D007800E84400600A790075A006E4F309D859
:10004D00FC7889E84405600C7906900600E4F0A37D
:04005D00D8FCD9FAF8
:02000600E473A1
:10312F00C04D85814D7E008E83120664D04D22AF37
:10313F00F0AE83E582900B51F0EEA3F0EFA3F09089
:10314F000B51E0FDA3E0FEA3E0FF900B50E0FC90DD
:10315F000B65E4F0A3F0A3F0900B68EDF0EEA3F095
:10316F00EFA3F0900B6BECF090312F023286C04D35
:10317F00E581F54D24FBFF900B65E4F0A3F0A3F080
:10318F00E54D24FBF8900B68E6F008E6A3F008E69F
:10319F00A3F0900B6BEFF090312F123286D04D22AF
:1031AF00E582900B61F0E0FF900B57E0C0E0A3E0E9
:1031BF00C0E0A3E0C0E01231CA800D900B55E0C013
:1031CF00E0A3E0C0E08F8222158115811581900B5D
:1031DF005FE02401F0A3E03400F022E582900B625F
:1031EF00F0E02430FF24C6500D74072FFF900B54CE
:1031FF00E060034307208F820231AFE582900B63BB
:10320F00F0E0FFC4540FF582C0071231EAD0075324
:10321F00070F8F820231EAE582900B64F0900B5A10
:10322F00E0FCA3E0FDA3E0FEA3E0FF900B5EE0FB5C
:10323F00754E20900B64E0F98B00E828F8EF2354CB
:10324F000148FBEC2CFCED33FDEE33FEEF33FFC3F7
:10325F00EB994007EBC399FB430401E54E14FA8A3F
:10326F004E70D5900B5AECF0EDA3F0EEA3F0EFA358
:10327F00F0900B5EEBF022AF83E582900B6CF0EFDA
:10328F00A3F0900B6CE0FEA3E0FF900B55EEF0EF78
:10329F00A3F0900B65E0FDA3E0FEA3E0FF900B57BA
:1032AF00EDF0EEA3F0EFA3F0900B5FE4F0A3F0903E
:1032BF000B68E0FDA3E0FEA3E0FF8D828E838FF00D
:1032CF00123BBFFC900B6874012DF0E43EA3F0EFAE
:1032DF00A3F0EC7003023B7BBC25028003023B731F
:1032EF00900B6EE4F0900B6FF0900B70F0900B71F1
:1032FF00F0900B72F0900B73F0900B74F0900B75C5
:10330F00F0900B77F0900B78F0A3F0900B7A14F00D
:10331F00A3F0900B68E0FDA3E0FEA3E0FF8D828E8B
:10332F00838FF0123BBFFBA3AD82AE83900B68ED92
:10333F00F0EEA3F0EFA3F0900B7EEBF0BB25088B24
:10334F00821231AF0232BEBB3000500302341FEB8A
:10335F0024C6500302341F900B7AE0F543A3E0F527
:10336F004474FFB54363B54460C005C006C0079001
:10337F000B78E0FAA3E0FF900B87EAF0EFA3F09051
:10338F00000AC005C003123B9FAE82AF83D003D0AB
:10339F00058B027D00EA2EFEED3FFFEE24D0FEEFFF
:1033AF0034FFFF900B78EEF0EFA3F0D007D006D0EC
:1033BF0005900B78E0F5F0A3E045F0600302332CA5
:1033CF00900B6F7401F002332CC005C006C007903C
:1033DF000B87E543F0E544A3F090000AC006C00553
:1033EF00C003123B9FAA82AF83D003D005D0067EC5
:1033FF0000EB2AFAEE3FFFEA24D0FAEF34FFFF90FA
:10340F000B7AEAF0EFA3F0D007D006D00502332CE9
:10341F00900B7EE0FBBB2E2FC005C006C007900BA4
:10342F007AE0FAA3E0FFBAFF05BFFF028009D007D9
:10343F00D006D00502332CD007D006D005900B7ADA
:10344F00E4F0A3F002332CBB61004014EB24854061
:10345F000F900B7E74DF5BF0900B547401F08005BE
:10346F00900B54E4F0900B7EE0FBBB20028075BB09
:10347F002B028067BB2D028059BB4202806FBB437A
:10348F0002807CBB4403023716BB460302373CBBAA
:10349F00480302332CBB4903023716BB4A030233DE
:1034AF002CBB4C028050BB4F03023724BB5003028E
:1034BF003684BB53028077BB540302332CBB5503B6
:1034CF0002372CBB5803023734BB5A0302332C028A
:1034DF003744900B6E7401F002332C900B70740113
:1034EF00F002332C900B717401F002332C900B739C
:1034FF007401F002332C900B747401F002332C9092
:10350F000B73E0600E900B6BE014F9F0900B7EE7FD
:10351F00F0800F900B6BE024FEFFF08F01900B7E7D
:10352F00E7F0900B7EE0F5821231AF023753900B2C
:10353F006BE024FDFFF08F018705098706098707D8
:10354F001919900B5AEDF0EEA3F0EFA3F08D828EC8
:10355F00838FF0123B87858243858344900B7AE0FB
:10356F00FAA3E0FDBAFF0DBDFF0A900B7AE543F019
:10357F00E544A3F0900B6EE0704B900B78E0FAA34C
:10358F00E0FDC3E5439AE5449D503A900B78EAC3BA
:10359F009543F0ED9544A3F0900B78E0FAA3E0FD8E
:1035AF008A068D071ABAFF011DEE4F601075822033
:1035BF00C005C0021231AFD002D00580E3900B7866
:1035CF00EAF0EDA3F0900B7AE0F546A3E0F5479013
:1035DF000B5AE0FAA3E0FDA3E0FF8A828D838FF000
:1035EF00123BBFF545603CC3E4954674808547F0B8
:1035FF0063F08095F0502C154674FFB546021547C1
:10360F008545821231AF900B5AE0FAA3E0FDA3E09B
:10361F00FF0ABA00010D900B5AEAF0EDA3F0EFA3E9
:10362F00F080AC900B6EE07003023753900B78E094
:10363F00FEA3E0FFC3E5439EE5449F4003023753DB
:10364F00900B78EEC39543F0EF9544A3F0900B7871
:10365F00E0FEA3E0FF8E028F051EBEFF011FEA4DA5
:10366F00700302374B758220C007C0061231AFD0EE
:10367F0006D00780E0900B6BE024FDFDF08D0187F5
:10368F004809874909874A1919900B5AE548F0E507
:10369F0049A3F0E54AA3F0900B5CE0FDBD8000402C
:1036AF0008900B7E7443F08020BD60004008900BA3
:1036BF007E7450F08013BD40004008900B7E74491B
:1036CF00F08006900B7E7458F0900B7EE0FDF58233
:1036DF00C0051231AF75823A1231AF758230123197
:1036EF00AF7582781231AFD005BD4902800EBD5043
:1036FF00028009900B5BE0F58212320A900B5AE0C0
:10370F00F58212320A803D900B727401F0900B77A4
:10371F00740AF0802F900B777408F08027900B7746
:10372F00740AF0801F900B777410F08017900B7550
:10373F007401F0800F8B821231AF8008900B78EEFE
:10374F00F0EFA3F0900B75E06071900B6BE024FC31
:10375F00FFF08F0187030987050987060987071976
:10376F001919900B5AEBF0EDA3F0EEA3F0EFA3F0C5
:10377F00900B5A744DF07442A3F07480A3F0900B29
:10378F005AE0F548A3E0F549A3E0F54A740125484E
:10379F00FAE43549FBAF4A900B5AEAF0EBA3F0EF8E
:1037AF00A3F0854882854983854AF0123BBFFF709D
:1037BF00030232BE8F821231AF80C3900B77E0705D
:1037CF00030232BE900B73E06047900B6BE014F96D
:1037DF00F087077E007D007B00900B5AEFF0EEA381
:1037EF00F0EDA3F0EBA3F0900B72E06003023896BC
:1037FF00900B5AE0FBA3E0A3E0A3E07D007E007FE7
:10380F0000900B5AEBF0EDA3F0EEA3F0EFA3F080D6
:10381F0076900B74E06028900B6BE024FCFFF08F28
:10382F000187030987050987060987071919199061
:10383F000B5AEBF0EDA3F0EEA3F0EFA3F08048905E
:10384F000B6BE024FEFFF08F01870609870719EF46
:10385F003395E0FDFB900B5AEEF0EFA3F0EDA3F0E4
:10386F00EBA3F0900B72E0701E900B5AE0FBA3E0FD
:10387F00FDA3E0A3E07E007F00900B5AEBF0EDA3D9
:10388F00F0EEA3F0EFA3F0900B72E06041900B5AB3
:10389F00E0FBA3E0FDA3E0FEA3E0FF30E72B900BDE
:1038AF005AE0FBA3E0FDA3E0FEA3E0FFC3E49BFB14
:1038BF00E49DFDE49EFEE49FFF900B5AEBF0EDA319
:1038CF00F0EEA3F0EFA3F08005900B72E4F0900BF5
:1038DF00767401F0900B77E0F546754B84754C0BC1
:1038EF00E4F543F544900B5EE4F0854682123226F0
:1038FF00900B76E07026900B5EE0C4F548854B8206
:10390F00854C83E0FFE5484207854B82854C83EF6A
:10391F00F0154B74FFB54B02154C800C900B5EE00D
:10392F00FF854B82854C83F00543E4B54302054484
:10393F00900B76E0B40100E433F0900B5AE0FAA359
:10394F00E0FBA3E0FEA3E0FFEA4B4E4F7097900B16
:10395F0085E54BF0E54CA3F0900B7CE543F0E54497
:10396F00A3F0900B78E0F5F0A3E045F07009900B11
:10397F00787401F0E4A3F0900B6FE0FFE0704790D4
:10398F000B6EE0704185434B85444C900B78E0FA09
:10399F00A3E0FBC007AF4B0F8F067F00C3EE9AEF7C
:1039AF009BD0075019758220C007C003C002123187
:1039BF00AFD002D003D0071ABAFF011B80D5900BEE
:1039CF0078EAF0EBA3F0900B72E0602075822DC0C7
:1039DF00071231AFD007900B78E024FFFDA3E0343E
:1039EF00FFFE900B78EDF0EEA3F08056900B7CE08D
:1039FF00F5F0A3E045F0604A900B70E0602075820F
:103A0F002BC0071231AFD007900B78E024FFFDA336
:103A1F00E034FFFE900B78EDF0EEA3F08024900BD6
:103A2F0071E0601E758220C0071231AFD007900B76
:103A3F0078E024FFFDA3E034FFFE900B78EDF0EE6D
:103A4F00A3F0900B6EE07048900B7CE0F54BA3E079
:103A5F00F54C900B78E0FAA3E0FBC0078A068B07C2
:103A6F001ABAFF011BC3E54B9EE54C9FD00750537D
:103A7F00EF60067D307E0080047D207E008D82C049
:103A8F0007C003C0021231AFD002D003D00780CAE3
:103A9F00900B78E0FEA3E0FF900B7CE0F54BA3E0EA
:103AAF00F54CC3E54B9EE54C9F500F900B78EEC342
:103ABF00954BF0EF954CA3F08011900B78E4F0A3A9
:103ACF00F08008900B78EAF0EBA3F0900B85E0FE06
:103ADF00A3E0FF900B7CE0F54BA3E0F54CAA4BADB8
:103AEF004C154B74FFB54B02154CEA4D6045900BCE
:103AFF0076E0B40100E433F0900B76E070140EBE64
:103B0F0000010F8E828F83E0C4540FFD900B5EF087
:103B1F00800E8E828F83E0FD53050F900B5EEDF0CC
:103B2F00900B5EE0F582C007C0061231EAD006D0D6
:103B3F000780AA900B6EE070030232BE900B78E004
:103B4F00FEA3E0FF8E038F051EBEFF011FEB4D701E
:103B5F00030232BE758220C007C0061231AFD006F5
:103B6F00D00780E08C821231AF0232BE900B5FE043
:083B7F00FEA3E08E82F5832213
:0B424D003C4E4F20464C4F41543E00B9
:103B8700AA82AB83123BBF6003A380F8C3E5829A86
:103B9700F582E5839BF58322AA83AB828BF0900B9A
:103BA70087E0A4F8A9F08AF0E0A429F98BF0A3E054
:083BB700A429F5838882222273
:0D000800758151123BDBE5826003020003AD
:103BBF0020F71430F6148883A88220F507E6A8832F
:103BCF0075830022E280F7E49322E02275820022BF
:00000001FF
