:03000000020008F3
:0300670002000391
:0300030002006A8E
:10006A001200FB9006007401F0E4A3F090C2007540
:10007A00F001E412011390C20075F001E41201AE1E
:10008A00741FC0E0743BC0E07480C0E01230BD153C
:10009A00811581158175820012128C7582011212E6
:1000AA008C12073C7428C0E0743BC0E07480C0E046
:1000BA001230BD158115811581900B24E4F0A3F04F
:1000CA00900B26F0900B27F0900B28F0900B29F05C
:1000DA00A3F0758208122D3CE5C120E60985088245
:1000EA00850983120006122C63122ACF1213348058
:0100FA00E71E
:103B1F00537461727475700A0052656164790A009A
:060061007508007509F4AA
:1000FB0075A15575A1AA53B3E043B30675B2D87574
:10010B00A1FF9000070206CBAF82AE83ADF0FC904F
:10011B000602EFF0EEA3F0EDA3F0ECA3F0900600D7
:10012B00E0F5F0A3E045F0600C43C60143C408437F
:10013B00C50C43CE10C29FD29EC29DD29C438780DA
:10014B00900602E0FCA3E0FDA3E0FEA3E0FF900B12
:10015B0040ECF0EDA3F0EEA3F0EFA3F0908D8075E3
:10016B00F05BE4122F60AC82AD830CBC00010DED93
:10017B00C313CC13CC740F55894420F58943C9A004
:10018B00C3E49CFC8C8DD28ED2992210980280FBFA
:10019B0085998222E582900606F0E0F5993099FD6B
:1001AB00D29922AF82AE83ADF0FC900607EFF0EE52
:1001BB00A3F0EDA3F0ECA3F075930075912075936C
:1001CB0080759701900B38E597F0E4A3F0A3F0A3AB
:1001DB00F0908D8075F05BE4122EA4AC82AD83AEF3
:1001EB00F0FF900607E0F8A3E0F9A3E0FAA3E0FB29
:1001FB00900B40E8F0E9A3F0EAA3F0EBA3F08C82BC
:10020B008D838EF0EF122F60AC82AD838C9A8D9123
:10021B0075920175930322E59530E0FB859A822256
:10022B00E58290060BF0E59530E5FB90060BE0F5CB
:10023B009A22E58290060EF090060F74C4F07400BB
:10024B00A3F07440A3F090061274BAF07400A3F0FC
:10025B007440A3F090061574BCF07400A3F07440C6
:10026B00A3F090061874BEF07400A3F07440A3F0D2
:10027B0090061B74C5F07400A3F07440A3F09006B5
:10028B001E74BBF07400A3F07440A3F090062174AD
:10029B00BDF07400A3F07440A3F090062474BFF07B
:1002AB007400A3F07440A3F090060DE0FF24F95006
:1002BB000122EF2F2F9002C4730202D902035C02BA
:1002CB0003E102043C0204BE0205440205C8900689
:1002DB000EE0FFFE8EF005F07401800225E0D5F0F4
:1002EB00FBF4ADC65DF5C6EF75F003A4FFAEF024CD
:1002FB000FF582EE3406F583E0FBA3E0FCA3E0FDF3
:10030B008B828C838DF0123AFFFA90060CE0F98900
:10031B00F005F07401800225E0D5F0FBF4F95202F0
:10032B008B828C838DF0EA123054EF241BF582EE16
:10033B003406F583E0FDA3E0FEA3E0FF8D828E8300
:10034B008FF0123AFF52018D828E838FF0E90230CB
:10035B005490060EE0FFFE8EF005F074018002252E
:10036B00E0D5F0FBF4ADC65DF5C6EF75F003A4FF69
:10037B00AEF0240FF582EE3406F583E0FBA3E0FC30
:10038B00A3E0FD8B828C838DF0123AFFFA90060C62
:10039B00E0F989F005F07401800225E0D5F0FBF956
:1003AB00F4F8EA52008B828C838DF0E8123054EF14
:1003BB00241BF582EE3406F583E0FDA3E0FEA3E0FB
:1003CB00FF8D828E838FF0123AFF42018D828E83D6
:1003DB008FF0E902305490060EE0FFFE8EF005F030
:1003EB007401800225E0D5F0FBF4ADC65DF5C6EFD8
:1003FB0075F003A4240FF582740635F0F583E0FD48
:10040B00A3E0FEA3E0FF8D828E838FF0123AFFFCF8
:10041B0090060CE0FB8BF005F07401800225E0D513
:10042B00F0FBF4FBEC42038D828E838FF0EB0230FA
:10043B005490060EE0FFFE8EF005F074018002254D
:10044B00E0D5F0FBADC64DF5C6EF75F003A4FFAEDE
:10045B00F0240FF582EE3406F583E0FBA3E0FCA35A
:10046B00E0FD8B828C838DF0123AFFFA90060CE044
:10047B00F989F005F07401800225E0D5F0FBF4F961
:10048B0052028B828C838DF0EA123054EF241BF5D1
:10049B0082EE3406F583E0FDA3E0FEA3E0FF8D8240
:1004AB008E838FF0123AFF52018D828E838FF0E98B
:1004BB0002305490060EE0FFFE8EF005F0740180C2
:1004CB000225E0D5F0FBADC64DF5C6EF75F003A4E4
:1004DB00FFAEF0240FF582EE3406F583E0FBA3E0CC
:1004EB00FCA3E0FD8B828C838DF0123AFFFA900611
:1004FB000CE0F989F005F07401800225E0D5F0FBE2
:10050B00F942028B828C838DF0EA123054EF241B5C
:10051B00F582EE3406F583E0FDA3E0FEA3E0FF8D4C
:10052B00828E838FF0123AFFFCE9F4F9EC52018DC5
:10053B00828E838FF0E902305490060EE0FFFE8E20
:10054B00F005F07401800225E0D5F0FBADC64DF54A
:10055B00C6EF75F003A4FFAEF0240FF582EE340660
:10056B00F583E0FBA3E0FCA3E0FD8B828C838DF095
:10057B00123AFFFA90060CE0F989F005F07401804D
:10058B000225E0D5F0FBF9F4F8EA52008B828C835C
:10059B008DF0E8123054EF241BF582EE3406F58310
:1005AB00E0FDA3E0FEA3E0FF8D828E838FF0123A75
:1005BB00FF42018D828E838FF0E902305490060E3C
:1005CB00E0FFFE8EF005F07401800225E0D5F0FB14
:1005DB00ADC64DF5C6EF75F003A4FFAEF0240FF5D5
:1005EB0082EE3406F583E0FBA3E0FCA3E0FD8B82F7
:1005FB008C838DF0123AFFFA90060CE0F989F00526
:10060B00F07401800225E0D5F0FBF942028B828C5D
:10061B00838DF0EA123054EF241BF582EE3406F58D
:10062B0083E0FDA3E0FEA3E0FF8D828E838FF012AB
:10063B003AFF42018D828E838FF0E9023054AF83F3
:10064B00E582900627F0EFA3F010990280FB90064D
:10065B0027E0FEA3E0FF8E998E828F8322109802F3
:10066B0080FBAE997F008E828F8322AF83E58290D1
:10067B000629F0EFA3F0900629E0FEA3E0FFEE4F72
:10068B00603505A105A105A105A105A105A105A140
:10069B0005A105A105A105A105A105A105A105A11F
:1006AB0005A105A105A105A11EBEFF011F900629ED
:1006BB00EEF0EFA3F080C7900629EEF0EFA3F02247
:1006CB00AF83E58290062BF0EFA3F090062BE0FEB4
:1006DB00A3E0FFEE4F601D9003E8C007C0061206B3
:1006EB0076D006D0071EBEFF011F90062BEEF0EF53
:1006FB00A3F080DF90062BEEF0EFA3F022E58290C3
:10070B000834F0E0FF75F003A4FDAEF0242EF58263
:10071B00EE3408F583E4F0ED242EFDEE3408FE8D67
:10072B00828E83A3E4F0EF600475E5002275E4008C
:10073B0022C2EA75E28075E3009024477448F0907A
:10074B00244CE4F0A3F090244E04F0E4A3F0F5D491
:10075B00F5D675E28975D24075D8FF758200120700
:10076B000875820112070875E10322E582900835AE
:10077B00F0E5E35480FFE0547F4FF5E322E58290F0
:10078B000836F0E0600753E2BF53D27F2243E240CA
:10079B0022E582900837F090062D7408F0758200E0
:1007AB00120776758201120788900837E0FFE07018
:1007BB001374FB55E44402F5E490000F1206CB537F
:1007CB00E4FD8014BF011174FB55E54402F5E5907F
:1007DB00000F1206CB53E5FD9000FA120676C2D835
:1007EB0022E582900838F0E075F003A4242EFE7405
:1007FB000835F0FF8E828F83E0FDBD010050078E20
:10080B00828F837401F0900838E0FF7049E5DB209C
:10081B00E3030208AAE5E420E035E5DB30E21AEF5A
:10082B0075F003A4242EFD740835F0FE8D828E83A3
:10083B00A3A3E4F043E4048016EF75F003A4242E85
:10084B00FD740835F0FE8D828E83A3A37401F043F3
:10085B00E40175820022BF0146E5DB30E741E5E5A7
:10086B0020E035E5DB30E61AEF75F003A4242EFD0E
:10087B00740835F0FE8D828E83A3A3E4F043E50468
:10088B008016EF75F003A4242EFE740835F0FF8E4E
:10089B00828F83A3A37401F043E501758200227557
:1008AB00821622E58290083AF0E075F003A4242E1C
:1008BB00FE740835F0FF8E828F83A3E0F582C007AC
:1008CB00C006120776D006D0078E828F83A3A3E0D3
:1008DB00F582020788E58290083EF090083BE0FF26
:1008EB008FD48FD690083FE4F0A3F090083EE0FE43
:1008FB00C4540FFDBD0103ED8001E4F50DE4BD090A
:10090B000104F50E90083CE0F9A3E0FA8ED5C2D9AC
:10091B00750AC8750B00E50A450B602820D9259090
:10092B000001C007C006C005C002C001120676D088
:10093B0001D002D005D006D007150A74FFB50A0204
:10094B00150B80D275D50020D9047582FE2220D9D3
:10095B0003020A5830DE0475820022E5D9540FF5E4
:10096B000C740EB50C0474018001E4F50A60077475
:10097B0020450CF58222740AB50C0474018001E445
:10098B00F86033E94A700A7420450CF50D850D8229
:10099B0022C3E994FFEA94FF500519B9FF011A909D
:1009AB00083FE024FFFBA3E034FFFC90083FEBF093
:1009BB00ECA3F0020A5BE50D700CE50E7034BD0D77
:1009CB00028003020A5430DE04758200227402B5E1
:1009DB000C0475820022E50A7003E8600774204559
:1009EB000CF58222E50C7003020A5B7420450CF5B2
:1009FB00822230DE0475820022EF6011740BB50C7D
:100A0B000474018001E424FFE433FC80107403B50B
:100A1B000C0474018001E4FB24FFE433FCEC600460
:100A2B0075820022E50A7003E860077420450CF517
:100A3B0082227403B50C07740BB50C028012E50C03
:100A4B00600E7420450CF582227582FE2275D8FF4C
:100A5B0090000FC007C006C005C002C00112067689
:100A6B00D001D002D005D006D00790083FE024017A
:100A7B00F0A3E03400F090083FE0FBA3E0FCC3EBF5
:100A8B0094C8EC9400500302091775822022AF839F
:100A9B00E582900846F0EFA3F0746FC0E0743BC0A2
:100AAB00E07480C0E01230BD15811581158190086E
:100ABB0046E0FEA3E0FF90084AEEF0EFA3F09008AB
:100ACB0041E0FBA3E0FCA3E0FD9000C8C007C0061B
:100ADB00C005C004C003120676D003D004D005D0E5
:100AEB0006D007EB4C600E8B828C838DF0E41230BA
:100AFB0054A312305475D70890083BE4F090083C8F
:100B0B007410F07427A3F07582D0C007C006C0051F
:100B1B00C004C0031208E0AA82D003D004D005D0D1
:100B2B0006D007EA60038A8222C006C00775D6D0BA
:100B3B0075D4D075D701900107E0FA7900900106C2
:100B4B00E0F87F0049F50FEF4AF510900848E50FE4
:100B5B00F0E510A3F0D007D006E50F4510700302A7
:100B6B000E24EE4F7003020E24900100E0FF20E7ED
:100B7B0003020CBCC005C004C003C00FC0107481BD
:100B8B00C0E0743BC0E07480C0E01230BDE581244E
:100B9B00FBF581D003D004D005900848E0FEA3E01C
:100BAB00FF4E7003020CB690012CC007C006C005A7
:100BBB00C004C00312067690083BE5D4F090083CC5
:100BCB007410F07427A3F07582901208E0AA82D0FB
:100BDB0003D004D005D006D007EA60038A8222A98D
:100BEB00D17A00C3E99EEA9F5006A9D17A0080040E
:100BFB008E018F0289067F00900848E0F8A3E0FA87
:100C0B00900848E8C39EF0EA9FA3F0EB4C60248B5E
:100C1B00828C838DF0123AFFF8A3123AFFFAEE287A
:100C2B00FEEF3AFF8B828C838DF0EE123054A3EFE4
:100C3B0012305490084AE0FEA3E0FF7A00C3EA9911
:100C4B00501CC001EA2EF511E43FF5128A82758320
:100C5B0000E0851182851283F00AD00180DF9008B5
:100C6B004AE0FEA3E0FF90084AE92EF0E43FA3F030
:100C7B00AED17F00C005C004C003C006C007749D81
:100C8B00C0E0743BC0E07480C0E01230BDE581244D
:100C9B00FBF581D003D004D005E5D1600E90062D75
:100CAB00E0FFC3E5D19F4003020BA475D700020EF2
:100CBB0024C005C004C003C00FC01074B0C0E074E2
:100CCB003BC0E07480C0E01230BDE58124FBF581B0
:100CDB00D003D004D005900848E0FEA3E0FF4E708F
:100CEB0003020E249000C8C007C006C005C004C094
:100CFB0003120676D003D004D005D006D007900699
:100D0B002DE0F97A00C3EE99EF9A50048E018F0211
:100D1B0089D790084AE0FEA3E0FFE5D72EFEE43F1B
:100D2B00FF90084AEEF0EFA3F08E828F83A3E0FAD8
:100D3B00BA0956900B87E0F97A007401697003EADF
:100D4B00600679017A00800479007A00900B87E9BC
:100D5B00F08E828F83E9F0900B87E0FF7E007A00A4
:100D6B00C005C004C003C007C006C001C00274CCDC
:100D7B00C0E0743BC0E07480C0E01230BDE581245C
:100D8B00F9F581D003D004D005AED77F00C005C0E4
:100D9B0004C003C006C00774E2C0E0743BC0E0743B
:100DAB0080C0E01230BDE58124FBF58190083BE566
:100DBB00D6F090083C7410F07427A3F075821012D3
:100DCB0008E0AF82D003D004D005EF60038F8222FE
:100DDB00AED77F00900848E0F9A3E0FA900848E905
:100DEB00C39EF0EA9FA3F0EB4C7003020CE18B82E5
:100DFB008C838DF0123AFFFEA3123AFFFFA9D77A2C
:100E0B0000E92EFEEA3FFF8B828C838DF0EE1230D1
:100E1B0054A3EF123054020CE19000C8120676E591
:100E2B00D760047F9080027F1090083B74C0F090D5
:100E3B00083C7410F07427A3F08F821208E0E5824F
:100E4B00FF60038F8222E5D77003F58222E5D17014
:100E5B0003F5822275821722AF83E58290084DF04D
:100E6B00EFA3F090084CE0FFFD7E00C007C006C06A
:100E7B0005C005C00674F4C0E0743BC0E07480C0CC
:100E8B00E01230BDE58124FBF581D005D006D007FB
:100E9B0090084DE0FBA3E0FC7A00C3EA9F501EC014
:100EAB0005C0068A007901EA2BF582E43CF583E460
:100EBB009388828983F00AD006D00580DDC005C0F7
:100ECB0006740BC0E0743CC0E07480C0E01230BD0F
:100EDB00E58124FBF5812290062D7408F0741EC069
:100EEB00E0743CC0E07480C0E01230BD1581158108
:100EFB00158190084C7408F0903B2F120E639008EC
:100F0B0041744FF07408A3F0E4A3F0900844F0741C
:100F1B0002A3F090062E120A99E582FF60038F82DE
:100F2B00227433C0E0743CC0E07480C0E01230BD6A
:100F3B00158115811581900635E090062DF0903BBB
:100F4B0035E493FF90084FE0FDA3E0FE7C00C3ED7A
:100F5B009FEE9C50197460C0E0743CC0E07480C07C
:100F6B00E01230BD158115811581758217227582AE
:100F7B000022E582900851F090084C7408F0903BE9
:100F8B0047120E63900851E0FF900102F090084168
:100F9B00E4F0A3F0A3F0900844F0A3F0900000C09D
:100FAB0007120A99AE82D007EE60038E82228F055C
:100FBB007E00C007C005C006748AC0E0743CC0E068
:100FCB007480C0E01230BDE58124FBF581D0078F22
:100FDB00821207769000641206CB75820022E5829E
:100FEB00900852F090084C7408F0903B57120E6327
:100FFB00900852E0900102F0900841E4F0A3F0A3B6
:10100B00F0900844F0A3F0900000020A9990084C6D
:10101B007408F0903B4F120E63900841E4F0A3F07C
:10102B00A3F0900844F07402A3F090062E020A99E4
:10103B00AF83E582900858F0EFA3F0900858E0FEDC
:10104B00A3E0FF8E828F83E07C0024FEFDEC34FF57
:10105B00A2E713CD13CD8E828F83A3E0FCBC0302DA
:10106B00800475820022900855E0FBA3E0FCEB2482
:10107B00FFF515EC34FFF516900853E0F517A3E0D8
:10108B00F5188517138518147800C3E89D5063C0B5
:10109B000588047D00C3EC9515ED9516D0055052CF
:1010AB00C00588037C00EB2BFBEC33FC74032BFAA1
:1010BB00E43CFDEA2EFAED3FFD8A828D83E0D005FC
:1010CB00600FE82513F582E43514F583743FF08047
:1010DB001EE82517F9E43518FA74022BFBE43CFCE7
:1010EB00EB2EF582EC3FF583E0FC89828A83F008D6
:1010FB008098E82517F582E43518F583E4F07F0036
:10110B00900857E0FE0E900B24EDF0EFA3F0900B40
:10111B0026EEF0900B277434F0900B287456F09059
:10112B000B29E517F0E518A3F0758205122D3C7518
:10113B00820122AF83E58290085AF0EFA3F090086A
:10114B005AE0FEA3E0FF7C007D008E828F83E0FBE4
:10115B007A00C3EC9BED64808AF063F08095F050CD
:10116B003CEC2EF582ED3FF583E0FB7A00C007C027
:10117B0006C005C004C003C002749AC0E0743CC032
:10118B00E07480C0E01230BDE58124FBF581D00412
:10119B00D005D006D0070CBC00B00D80AD74A2C03A
:1011AB00E0743CC0E07480C0E01230BD1581158145
:1011BB0015812290084C7408F0903B37120E639007
:1011CB000841745CF07408A3F0E4A3F0900844F0B9
:1011DB007402A3F090062E120A99E582FF60038F2A
:1011EB008222903B3DE493FF90085CE0FDA3E0FE80
:1011FB007C00C3ED9FEE9C50047582172290063045
:10120B00E0FF7E00900631E0FCE42FFFEC3EFE9009
:10121B00084C7408F0903B37C007C006120E63D021
:10122B0006D0078F048E05900106ECF08E07900117
:10123B0007EFF0900841745CF07408A3F0E4A3F09E
:10124B00900844F07402A3F090062E120A99E582DE
:10125B00FF60038F82227582002290084C7408F085
:10126B00903B3F120E63900841745EF07408A3F03C
:10127B00E4A3F0900844F07402A3F090062E020A47
:10128B0099E5829008C0F0E0FF75F010A4FDAEF078
:10129B0024A0F582EE3408F583E4F0A3F0A3F0A3C9
:1012AB00F0ED24A0FDEE3408FE8D828E83A3A3A364
:1012BB00A3E4F0A3F0A3F0A3F074082DF582E43EB1
:1012CB00F583E4F0A3F0A3F0A3F0740C2DF582E406
:1012DB003EF583E4F0A3F0A3F0A3F07E00EE75F0EF
:1012EB0008A42460FC740835F0FD74012CFAE43D6D
:1012FB00FB8A828B83E0B507298C828D83E4F08A8D
:10130B00828B83F08C828D83A3A3F08C828D83A33D
:10131B00A3A3F08C828D83A3A3A3A3F0A3F0A3F0CC
:10132B00A3F00EBE080040B5227F00EF75F008A4B5
:10133B00FDAEF02460FBEE3408FC8B828C83E070F6
:10134B00030214E1ED2460FDEE3408FE8D828E83E2
:10135B00A3E0FC900839E4F08C82C007C006C005FE
:10136B001208AED005D006D0078D828E83A3A3A31F
:10137B00E0FE747F5E4490FDEE30E7067CC07E009D
:10138B0080047C007E0090083BECF090083CE4F07D
:10139B00A3F08D82C0071208E0E582D0076003023C
:1013AB0014E1EF75F008A42460F520740835F0F50E
:1013BB002174032520FBE43521FC8B828C83E0F91F
:1013CB007A006301808B828C83E9F09008C1E5D1B0
:1013DB00F0E0F519E070030214E1B2968B828C8376
:1013EB00E0F87900747F58F51A891B8F1C891D74DE
:1013FB00042520F51EE43521F51F851E82851F83EC
:10140B00E0F8A3E0F9A3E0FAA3E0FEC007C004C034
:10141B0003C01AC01BC01CC01DC000C001C002C04D
:10142B000674A4C0E0743CC0E07480C0E01230BD10
:10143B00E58124F5F581D003D004D007AA197E00ED
:10144B00851E82851F83E0FD8B828C83E0FB53031B
:10145B007F852082852183A3E075F010A4F9ACF081
:10146B0024A0F582EC3408F583E0F520E924A0F9FB
:10147B00EC3408FC89828C83A3A3A3A3E0F51E7430
:10148B000829F582E43CF583E0F8740C29F582E435
:10149B003CF583E0FC900B2CEAF0EEA3F0900B2EC6
:1014AB00EDF0900B2FEFF0900B30EBF0900B3174C5
:1014BB0000F07400A3F0900B33E520F0900B34E5B3
:1014CB001EF0900B35E8F0900B36ECF0758204C0F3
:1014DB0007122DEAD0070FBF080050030213362264
:1014EB00AF83E5829008C5F0EFA3F09008C7E4F056
:1014FB00A3F09008C9F09008CAF09008C4E075F00A
:10150B0008A42460FE740835F0FF9008C5E0F528A8
:10151B00A3E0F529AA28AB299008C2E0F526A3E0A1
:10152B00F5279008C7E0F522A3E0F523C3E5229544
:10153B0026E5239527400122C006C007E522252872
:10154B00F582E5233529F583E0FF9008CB74FC5F2A
:10155B00F074035FF5229008CCF09008CDE4F0A373
:10156B00F0A3F0A3F07403B522028006D007D006D7
:10157B00800BD007D0069008CCE52204F0C006C043
:10158B00079008C7E0FEA3E0FF74012EF522E43FAD
:10159B00F5239008CCE0F524752500D007D006C3C1
:1015AB00E52595245054C006C007AE257F00EE25D7
:1015BB0022FEEF3523FFEE2AF582EF3BF583E0F8B1
:1015CB00E4F9FEFFE525C40354F8FD8DF005F0802A
:1015DB000CE828F8E933F9EE33FEEF33FFD5F0F1E1
:1015EB009008CDE048F0A3E049F0A3E04EF0A3E073
:1015FB004FF00525D007D00680A59008C9E0FD90D7
:10160B0008CBE0FCE4BCC00104F52579008D227504
:10161B002300E5256008752A01752B008005E4F58C
:10162B002AF52BC006C007E522C3952AF8E52395BA
:10163B002BFF89047E00C3EC98EE64808FF063F07F
:10164B008095F0D007D0065030C007C006C005C04B
:10165B0003C002C00174BBC0E0743CC0E07480C026
:10166B00E01230BD158115811581D001D002D00358
:10167B00D005D006D0070980949008CBE0FDBD04BF
:10168B00028063BD08030218D1BD1403021C5BBDAD
:10169B001803021D43BD2403021C95BD2803021D24
:1016AB007DBD3403021CCFBD4403021D09BD640381
:1016BB00021E38BD7403021F20BD8003021E72BDC3
:1016CB008403021F5ABD9003021EACBD9403021F7C
:1016DB0094BDA003021DB7BDB003021EE6BDC0033F
:1016EB00021DF8021FCD9008CDE0F52CA3E0F52DDF
:1016FB00A3E0F52EA3E0F52FC3E52D94FFE52E9483
:10170B0000E52F9400400AE4F52C752DFFF52EF51E
:10171B002FC007C006C003C00274C0C0E0743CC039
:10172B00E07480C0E01230BD158115811581D002A7
:10173B00D003D006D0077401B52C0D14B52D09B507
:10174B002E06B52F030218127407B52C0CE4B52D19
:10175B0008B52E05B52F02805E7408B52C0CE4B5C8
:10176B002D08B52E05B52F0280257409B52C0CE478
:10177B00B52D08B52E05B52F028064E4B52C0DB53B
:10178B002E0AB52F07F4B52D03021839021872C0B3
:10179B0007C006C003C00274CCC0E0743CC0E07448
:1017AB0080C0E01230BD158115811581D002D003A8
:1017BB00D006D0070218A9C007C006C003C0027428
:1017CB00D1C0E0743CC0E07480C0E01230BD158124
:1017DB0015811581D002D003D006D0070218A9C0FD
:1017EB0007C006C003C00274E1C0E0743CC0E074E3
:1017FB0080C0E01230BD158115811581D002D00358
:10180B00D006D0070218A9C007C006C003C00274D7
:10181B00E8C0E0743CC0E07480C0E01230BD1581BC
:10182B0015811581D002D003D006D0078070C00778
:10183B00C006C003C0029008CDE0C0E0A3E0C0E04A
:10184B00A3E0C0E0A3E0C0E07401C0E0743DC0E0E1
:10185B007480C0E01230BDE58124F9F581D002D04F
:10186B0003D006D0078037C007C006C003C0029064
:10187B0008CDE0C0E0A3E0C0E0A3E0C0E0A3E0C07F
:10188B00E07418C0E0743DC0E07480C0E01230BD5D
:10189B00E58124F9F581D002D003D006D007C0072B
:1018AB00C006C003C00274A2C0E0743CC0E07480E8
:1018BB00C0E01230BD158115811581D002D003D047
:1018CB0006D0070220149008CAE07036C002C0038D
:1018DB0074042EF52CE43FF52D9008CDE0F8A3E031
:1018EB00FAA3E0FBA3E0FC852C82852D83E8F0EACC
:1018FB00A3F0EBA3F0ECA3F09008CA7401F0D003B3
:10190B00D002C007C006C003C0027428C0E0743DFB
:10191B00C0E07480C0E01230BD158115811581D0F7
:10192B0002D003D006D0079008CDE0F52CA3E0F54C
:10193B002DA3E0F52EA3E0F52FC37438952CE49579
:10194B002DE4952EE4952F5003021C06E52C240B59
:10195B0083F582E52C243D83F583E473D90129516A
:10196B0079A1C9F119410606060606060606060602
:10197B0006060606060606060606060606060606FC
:10198B000606060606060606060606066991B8064C
:10199B0006060606DF191A1A1A1A1A1A1A1B1B1C24
:1019AB001C1C1C1C1C1C1C1C1C1C1C1C1C1C1C1C6C
:1019BB001C1C1C1C1C1C1C1C1C1C1C1C1C1C1C1C5C
:1019CB001C1C1C1C1C1B1B1B1C1C1C1C1C1BC007C1
:1019DB00C006C003C002742FC0E0743DC0E0748029
:1019EB00C0E01230BD158115811581D002D003D016
:1019FB0006D007021C33C007C006C003C0027437F1
:101A0B00C0E0743DC0E07480C0E01230BD1581159C
:101A1B00811581D002D003D006D007021C33C0073A
:101A2B00C006C003C002743FC0E0743DC0E07480C8
:101A3B00C0E01230BD158115811581D002D003D0C5
:101A4B0006D007021C33C007C006C003C002744592
:101A5B00C0E0743DC0E07480C0E01230BD1581154C
:101A6B00811581D002D003D006D007021C33C007EA
:101A7B00C006C003C002744EC0E0743DC0E0748069
:101A8B00C0E01230BD158115811581D002D003D075
:101A9B0006D007021C33C007C006C003C002745730
:101AAB00C0E0743DC0E07480C0E01230BD158115FC
:101ABB00811581D002D003D006D007021C33C0079A
:101ACB00C006C003C002745FC0E0743DC0E0748008
:101ADB00C0E01230BD158115811581D002D003D025
:101AEB0006D007021C33C007C006C003C0027468CF
:101AFB00C0E0743DC0E07480C0E01230BD158115AC
:101B0B00811581D002D003D006D007021C33C00749
:101B1B00C006C003C002746FC0E0743DC0E07480A7
:101B2B00C0E01230BD158115811581D002D003D0D4
:101B3B0006D007021C33C007C006C003C002748561
:101B4B00C0E0743DC0E07480C0E01230BD1581155B
:101B5B00811581D002D003D006D007021C33C007F9
:101B6B00C006C003C002749CC0E0743DC0E074802A
:101B7B00C0E01230BD158115811581D002D003D084
:101B8B0006D007021C33C007C006C003C002749EF8
:101B9B00C0E0743DC0E07480C0E01230BD1581150B
:101BAB00811581D002D003D006D007807BC007C03F
:101BBB0006C003C00274A0C0E0743DC0E07480C0D6
:101BCB00E01230BD158115811581D002D003D006EE
:101BDB00D0078054C007C006C003C00274A2C0E087
:101BEB00743DC0E07480C0E01230BD1581158115C5
:101BFB0081D002D003D006D007802DC007C006C00D
:101C0B0003C002C02CC02DC02EC02F7418C0E074AE
:101C1B003DC0E07480C0E01230BDE58124F9F58150
:101C2B00D002D003D006D007C007C006C003C00245
:101C3B0074A2C0E0743CC0E07480C0E01230BD15EB
:101C4B008115811581D002D003D006D00702201454
:101C5B00C007C006C003C0029008CDE0C0E0A3E0FF
:101C6B00C0E0A3E0C0E0A3E0C0E074A8C0E0743D16
:101C7B00C0E07480C0E01230BDE58124F9F581D05D
:101C8B0002D003D006D007022014C007C006C00341
:101C9B00C0029008CDE0C0E0A3E0C0E0A3E0C0E04C
:101CAB00A3E0C0E074B9C0E0743DC0E07480C0E054
:101CBB001230BDE58124F9F581D002D003D006D0D6
:101CCB0007022014C007C006C003C0029008CDE075
:101CDB00C0E0A3E0C0E0A3E0C0E0A3E0C0E074CAB2
:101CEB00C0E0743DC0E07480C0E01230BDE58124DB
:101CFB00F9F581D002D003D006D007022014C0071B
:101D0B00C006C003C0029008CDE0C0E0A3E0C0E075
:101D1B00A3E0C0E0A3E0C0E074DCC0E0743DC0E031
:101D2B007480C0E01230BDE58124F9F581D002D07A
:101D3B0003D006D007022014C007C006C003C002A0
:101D4B009008CDE0C0E0A3E0C0E0A3E0C0E0A3E0DA
:101D5B00C0E074CAC0E0743DC0E07480C0E01230D3
:101D6B00BDE58124F9F581D002D003D006D007025E
:101D7B002014C007C006C003C0029008CDE0C0E02D
:101D8B00A3E0C0E0A3E0C0E0A3E0C0E074DCC0E0EF
:101D9B00743DC0E07480C0E01230BDE58124F9F5DC
:101DAB0081D002D003D006D007022014C007C00692
:101DBB00C003C0029008CDE0C0E0A3E0C0E0A3E008
:101DCB00C0E0A3E0C0E074EEC0E0743DC0E07480FE
:101DDB00C0E01230BDE58124F9F581D002D003D0EB
:101DEB0006D0079008C9E02401F0022014C007C0F8
:101DFB0006C003C0029008CDE0C0E0A3E0C0E0A3A2
:101E0B00E0C0E0A3E0C0E07404C0E0743EC0E07446
:101E1B0080C0E01230BDE58124F9F581D002D003FA
:101E2B00D006D0079008C9E014F0022014C007C0F8
:101E3B0006C003C0029008CDE0C0E0A3E0C0E0A361
:101E4B00E0C0E0A3E0C0E07418C0E0743EC0E074F2
:101E5B0080C0E01230BDE58124F9F581D002D003BA
:101E6B00D006D007022014C007C006C003C00290E2
:101E7B0008CDE0C0E0A3E0C0E0A3E0C0E0A3E0C079
:101E8B00E07426C0E0743EC0E07480C0E01230BD48
:101E9B00E58124F9F581D002D003D006D0070220CA
:101EAB0014C007C006C003C0029008CDE0C0E0A379
:101EBB00E0C0E0A3E0C0E0A3E0C0E07435C0E07494
:101ECB003EC0E07480C0E01230BDE58124F9F5819D
:101EDB00D002D003D006D007022014C007C006C022
:101EEB0003C0029008CDE0C0E0A3E0C0E0A3E0C0D7
:101EFB00E0A3E0C0E07445C0E0743EC0E07480C075
:101F0B00E01230BDE58124F9F581D002D003D00673
:101F1B00D007022014C007C006C003C0029008CD32
:101F2B00E0C0E0A3E0C0E0A3E0C0E0A3E0C0E07449
:101F3B0056C0E0743EC0E07480C0E01230BDE58155
:101F4B0024F9F581D002D003D006D007022014C0AB
:101F5B0007C006C003C0029008CDE0C0E0A3E0C0FC
:101F6B00E0A3E0C0E0A3E0C0E07467C0E0743EC053
:101F7B00E07480C0E01230BDE58124F9F581D00218
:101F8B00D003D006D007022014C007C006C003C080
:101F9B00029008CDE0C0E0A3E0C0E0A3E0C0E0A366
:101FAB00E0C0E07476C0E0743EC0E07480C0E01224
:101FBB0030BDE58124F9F581D002D003D006D007DE
:101FCB008047A9247C008D007D00C007C006C0039C
:101FDB00C0029008CDE0C0E0A3E0C0E0A3E0C0E009
:101FEB00A3E0C0E0C001C004C000C0057488C0E01D
:101FFB00743EC0E07480C0E01230BDE58124F5F57D
:10200B0081D002D003D006D0079008CCE0FD7C0035
:10201B000DBD00010C9008C7E0F8A3E0F99008C7CC
:10202B00ED28F0EC39A3F002152DE5829008D1F0E4
:10203B00E075F008A42460FE740835F0FF74022EDE
:10204B00FEE43FFF8E828F83E0FD7C00C007C0065D
:10205B00C005C00474C8C0E0743EC0E07480C0E02A
:10206B001230BDE58124FBF58190084C7408F0908B
:10207B003B5F120E63D006D0078E828F83E09001F8
:10208B0004F090084174D2F07408A3F0E4A3F0902C
:10209B000844F0A3F090062EC007C006120A9990D0
:1020AB00084C7408F0903B67120E63D006D0078E75
:1020BB00828F83E0900104F0900106E4F090010719
:1020CB007402F090084174D2F07408A3F0E4A3F00A
:1020DB00900844F07402A3F090062E120A99E58240
:1020EB00FF60038F82227E007F009008D2E0FCA36A
:1020FB00E0FDC3EE9CEF9D5036EE242EF582EF34BF
:10210B0006F583E0FD7C00C007C006C005C0047463
:10211B009AC0E0743CC0E07480C0E01230BDE58131
:10212B0024FBF581D006D0070EBE00BE0F80BB741A
:10213B00A2C0E0743CC0E07480C0E01230BD1581D9
:10214B00158115819008D2E0FEA3E0FF9008D1E045
:10215B00FD75F008A42460FB740835F0FC8B828CB1
:10216B0083A3A3E0FA8B828C83A3E0FC900B24EE79
:10217B00F0EFA3F0900B26EDF0900B27EAF0900B0D
:10218B0028ECF0900B29742EF07406A3F0758207DF
:10219B00C005122D3CD0059008D2E0FEA3E0FF90C5
:1021AB0008C2EEF0EFA3F09008C4EDF090062E12EB
:1021BB0014EB758200229008D4E0FEA3E0FF8E8220
:1021CB008F83A3A3E0FD7C00C007C006C005C0043D
:1021DB0074EDC0E0743EC0E07480C0E01230BDE529
:1021EB008124FBF581D006D0078E828F83A3A3A316
:1021FB00A3A3E0FD7C00C007C006C005C00474FBB0
:10220B00C0E0743EC0E07480C0E01230BDE58124B4
:10221B00FBF581D006D00774062EF582E43FF583DB
:10222B00E0FD7C00C007C006C005C0047407C0E019
:10223B00743FC0E07480C0E01230BDE58124FBF533
:10224B0081D006D00774072EF582E43FF583E0FFBB
:10225B007E00C007C0067417C0E0743FC0E07480F6
:10226B00C0E01230BDE58124FBF58122AF83E5820E
:10227B009008D8F0EFA3F09008D8E0FEA3E0FF8E13
:10228B00828F83A3A3E0FF7E00C007C0067430C01B
:10229B00E0743FC0E07480C0E01230BDE58124FBE8
:1022AB00F5819008D6E0FEA3E0FF8E828F83A3A377
:1022BB00E0FDFB53030F7C00EDC4540FFD7A008E41
:1022CB00828F83A3A3A3E0F853000F7900C007C04C
:1022DB0006C003C004C005C002C000C0017445C0E5
:1022EB00E0743FC0E07480C0E01230BDE58124F79C
:1022FB00F581D006D0078E828F83A3A3A3A3E0FD25
:10230B007C00C007C006C005C0047454C0E0743F15
:10231B00C0E07480C0E01230BDE58124FBF581D0B4
:10232B0006D00774062EF582E43FF583E0FF7E00AE
:10233B00C007C006746BC0E0743FC0E07480C0E09F
:10234B001230BDE58124FBF5812222E5829008DA6B
:10235B00F09008DBE4F09008DAE0FFFEFD75F00387
:10236B00A4F53085F0318F35753400900064C007CB
:10237B00C006C0051206CB9000641206CB853582D1
:10238B0012128C85358212079CD005D006D00778A7
:10239B0000900001C007C006C005C0001206CBD0DC
:1023AB0000D005D006D0078F82C007C006C005C07D
:1023BB00001207ECE582D000D005D006D0076006EE
:1023CB0008B8640040CBB86441C0058F82C007C019
:1023DB0006C005120708D005D006D0078F007D0078
:1023EB00C007C006C005C000C005747BC0E0743FC9
:1023FB00C0E07480C0E01230BDE58124FBF581D0D4
:10240B0005D006D007D005022ABDC005900839E4D7
:10241B00F08E82C007C006C0051208AED005D006EC
:10242B008E007D00C006C005C000C005749EC0E0D4
:10243B00743FC0E07480C0E01230BDE58124FBF531
:10244B0081D005120EE2AD82D006D0079008DBEDED
:10245B00F0EDD0056003022A4CC005900632E0F87F
:10246B007D00C007C006C005C000C00574B8C0E041
:10247B00743FC0E07480C0E01230BDE58124FBF5F1
:10248B0081D005900635E0F87D00C005C000C00581
:10249B0074C9C0E0743FC0E07480C0E01230BDE589
:1024AB008124FBF581D005D006EE75F010A4F8ADB4
:1024BB00F024A0F532ED3408F533900636E0F97AC6
:1024CB00007B007C00853282853383E9F0EAA3F040
:1024DB00EBA3F0ECA3F0E824A0F8ED3408FD7404B2
:1024EB0028F532E43DF533900637E0F97A007B00AE
:1024FB007C00853282853383E9F0EAA3F0EBA3F00D
:10250B00ECA3F0740828F532E43DF533900638E07F
:10251B00F97A007B007C00853282853383E9F0EA0F
:10252B00A3F0EBA3F0ECA3F0740C28F8E43DFD90C2
:10253B000639E0F97A007B007C0088828D83E9F014
:10254B00EAA3F0EBA3F0ECA3F090062EC006C005B7
:10255B0012113ED005D006903B49E4932EF53285FF
:10256B003282C006120F7DAD82D006D0079008DBF9
:10257B00EDF0EDD0056003022A4CEE75F003A424B8
:10258B002EFB740835F0FC8B828C83A3E532F0C0F4
:10259B0007C006C00512101890062E12113ED0056A
:1025AB00D006900853742EF07406A3F0900855E4EF
:1025BB00F07402A3F0900857EEF090062EC006C000
:1025CB000512103BE582D005D006D007602CC00762
:1025DB00C006C005742EC0E07406C0E0E4C0E07411
:1025EB00DDC0E0743FC0E07480C0E01230BDE58117
:1025FB0024FAF581D005D006D007C007C006C00568
:10260B001211BEAC82D005D006D0079008DBECF0DF
:10261B00EC6003022A4C900630E0FC7B0090063104
:10262B00E0FAE42CFCEA3BFB9008DAE0FA0A900BA8
:10263B0024ECF0EBA3F0900B26E532F0900B27EA9D
:10264B00F0900B2874AAF0900B29742EF07406A34B
:10265B00F0758206122D3C900ADEE4F0A3F07B00AD
:10266B007C00900630E0FA8A32753300900631E038
:10267B00FAE42532F8EA3533FAC3EB98EC9A503684
:10268B00EB242EF582EC3406F583E0F97A00C004D6
:10269B00C003C001C002749AC0E0743CC0E07480F7
:1026AB00C0E01230BDE58124FBF581D003D0040BD3
:1026BB00BB00AF0C80AC74A2C0E0743CC0E0748073
:1026CB00C0E01230BD158115811581900633E0FCF9
:1026DB00FA7B00C004C002C00374F0C0E0743FC0BA
:1026EB00E07480C0E01230BDE58124FBF5819006DB
:1026FB0032E0FB7A00C003C0027409C0E07440C032
:10270B00E07480C0E01230BDE58124FBF581D0047C
:10271B008C82120FE9900630E0FC7B00900631E0D2
:10272B00FAE42CFCEA3BFB8C018B02E4F532F5332B
:10273B00C3E53299E5339A502EC004C003E5322429
:10274B00DEF8E5333408FCE532242EF582E533342C
:10275B0006F583E088828C83F00532E4B5320205FE
:10276B0033D003D00480C990062EE0FA9008DCF039
:10277B00E4A3F09008DAE0F539A9398C368B379061
:10278B0008DCE0F532A3E0F533C3E5329536E533EB
:10279B0095374003022A48E53224DEF532E533341F
:1027AB0008F533900AE0E532F0E533A3F085328289
:1027BB00853383A3E0F8B80402801AB8050280566B
:1027CB00B8210302294DB824030229A3B82503021B
:1027DB0029CF0229FB88037C00C001C003C004740D
:1027EB001EC0E07440C0E07480C0E01230BDE581D3
:1027FB0024FBF581D001AB32AC33900ADEEBF0EC6D
:10280B00A3F09008D4EBF0ECA3F08982C001122165
:10281B00C1D001022A23C00188017C00C001C00184
:10282B00C004743AC0E07440C0E07480C0E0123061
:10283B00BDE58124FBF58185328285338312113E00
:10284B00D001900ADEE0FBA3E0FC8B828C83A3A378
:10285B00A3A3A3E0FCBC03028005D001022A23AB97
:10286B0032AC3374022BF53AE43CF53B853A828566
:10287B003B83E0D00120E703022A23753800C00117
:10288B00E53875F008A42460F9740835F0FA8982EC
:10289B008A83E0D0016008053874F8253850DFC012
:1028AB0001A9387A00C001C001C0027455C0E074A0
:1028BB0040C0E07480C0E01230BDE58124FBF5819F
:1028CB00D001E53875F008A42460F9740835F0FAE6
:1028DB00740329F53CE43AF53D853A82853B83E068
:1028EB00F53A853C82853D83F089828A837401F0B9
:1028FB000429F53CE43AF53D900ADEE0FBA3E0FC4D
:10290B008B828C83A3A3E0853C82853D83F08982F7
:10291B008A83A3E539F0AB3A7C00C001C003C00445
:10292B007477C0E07440C0E07480C0E01230BDE545
:10293B008124FBF581853882122035D001D001022C
:10294B002A2388037C00C001C003C004749EC0E02E
:10295B007440C0E07480C0E01230BDE58124FBF50B
:10296B0081D001900ADEE0FBA3E0FC900ADEE0F5EB
:10297B00F0A3E045F07003022A23C001A932AA3369
:10298B009008D6E9F0EAA3F08B828C83C001122267
:10299B0077D001D001022A2388037C00C001C00339
:1029AB00C00474B4C0E07440C0E07480C0E0123066
:1029BB00BDE58124FBF58185328285338312113E7F
:1029CB00D001805488037C00C001C003C00474DCB8
:1029DB00C0E07440C0E07480C0E01230BDE58124DB
:1029EB00FBF58185328285338312113ED00180281D
:1029FB007C00C001C000C0047406C0E07441C0E09C
:102A0B007480C0E01230BDE58124FBF581853282F4
:102A1B0085338312113ED001900AE0E0FBA3E0FC6A
:102A2B008B828C83E0FB7C009008DCE0F8A3E0FA5F
:102A3B009008DCEB28F0EC3AA3F002278A758200B1
:102A4B00229008DBE0FCFA7B00C007C006C005C083
:102A5B0004C002C0037428C0E07441C0E07480C09D
:102A6B00E01230BDE58124FBF581D004D0058D0348
:102A7B000B900B24E4F0A3F0900B26EBF0900B27BC
:102A8B00ECF0900B2874EEF0900B29E4F0A3F075AA
:102A9B008203C005122D3CE530242EF582E531343E
:102AAB0008F5837402F0758201120788D005D006F1
:102ABB00D007053474F6253440030223769008DBE7
:102ACB00E0F58222900AE2E4F010D803022C5CE5D8
:102ADB00DB30E36390082EE06008E5E430E00302AE
:102AEB002B9975820012070890082E7401F0E4C030
:102AFB00E0C0E07436C0E07441C0E07480C0E01206
:102B0B0030BDE58124FBF581900B24E4F0A3F0901C
:102B1B000B2604F0900B27F0900B28F0900B29E478
:102B2B00F0A3F0758201122D3C758200122356E53D
:102B3B0082900AE2F0805790082EE0FFBF01004020
:102B4B004D75820012128C758200120708E4C0E0EA
:102B5B00C0E07457C0E07441C0E07480C0E0123034
:102B6B00BDE58124FBF581900B24E4F0A3F0900BE1
:102B7B002604F0900B27F0900B28F0900B29E4F033
:102B8B00A3F0758202122D3C900AE27416F0E5DB7D
:102B9B0030E764900831E06008E5E530E003022C93
:102BAB005C7582011207089008317401F0C0E0E4F3
:102BBB00C0E07436C0E07441C0E07480C0E01230F5
:102BCB00BDE58124FBF581900B24E4F0A3F0900B81
:102BDB00267402F0900B27F0900B28F0900B29E451
:102BEB00F0A3F0758201122D3C758201122356E57C
:102BFB0082900AE2F0805A900831E0FFBF0100405A
:102C0B005075820112128C7582011207087401C073
:102C1B00E0E4C0E07457C0E07441C0E07480C0E0F1
:102C2B001230BDE58124FBF581900B24E4F0A3F079
:102C3B00900B267402F0900B27F0900B28F0900B62
:102C4B0029E4F0A3F0758202122D3C900AE274166F
:082C5B00F0900AE2E0F582228C
:103B2F008006000100001200800600020000120053
:103B3F0081060004000009000005020000000000DB
:103B4F0080060203090402040009000000000000BF
:103B5F00210A000000000000810600220000FF0083
:103B6F00686F73744374726C5472616E73666572AE
:103B7F000A0052656D61696E696E672062797465BE
:103B8F007320746F20726561642025640A0052658A
:103B9F006365697665642025692062797465730AA7
:103BAF000052656D61696E696E6720627974657325
:103BBF0020746F207772697465202569005345540E
:103BCF005F504F525420202530325820202530325C
:103BDF0058200053656E64696E67202569206279ED
:103BEF007465730A0066696C6C5478427566666515
:103BFF00722025692062797465730A0066696C6C9E
:103C0F00547842756666657220646F6E650A006748
:103C1F00657444657669636544657363726970742E
:103C2F006F720A0044657669636520646573637219
:103C3F006970746F72207265717565737420736526
:103C4F006E74207375636365737366756C6C790A34
:103C5F00005265636569766564207061636B657496
:103C6F0020697320736D616C6C6572207468616E6E
:103C7F002065787065637465640A005365744164E8
:103C8F0064726573733A2025690A003078253032E3
:103C9F005820000A0048494420256C752C202569BE
:103CAF002064617461202569203A200020202020A3
:103CBF00005573616765207061676520004C45444E
:103CCF0073004B6579626F6172642F4B6579706118
:103CDF006400427574746F6E0067656E6572696318
:103CEF00206465736B746F7020636F6E74726F6C8A
:103CFF00730076656E646F7220646566696E6564C5
:103D0F002030782530346C7800756E6B6E6F776E5F
:103D1F002030782530326C7800557361676520004C
:103D2F00556E6B6E6F776E00506F696E74657200B3
:103D3F004D6F757365005265736572766564004AE1
:103D4F006F79737469636B0047616D6570616400AF
:103D5F004B6579626F617264004B657970616400C5
:103D6F004D756C74692D4178697320636F6E747231
:103D7F006F6C6C6572005461626C6574207379733B
:103D8F0074656D20636F6E74726F6C730058005999
:103D9F00005A00576865656C004C6F676963616C0A
:103DAF00206D696E20256C750A004C6F6769636121
:103DBF006C206D617820256C750A005068797369E5
:103DCF0063616C206D696E20256C750A00506879EF
:103DDF00736963616C206D617820256C750A0043EF
:103DEF006F6C6C656374696F6E207374617274208D
:103DFF00256C750A00436F6C6C656374696F6E2078
:103E0F00656E6420256C750A00556E6974203078D4
:103E1F002530326C780A00496E7075742030782521
:103E2F0030326C780A004F757470757420307825B5
:103E3F0030326C780A00466561747572652030788F
:103E4F002530326C780A005265706F727420736976
:103E5F007A6520256C750A005265706F727420495F
:103E6F004420256C750A005265706F727420636F61
:103E7F00756E7420256C750A00556E6B6E6F776EBC
:103E8F0020484944207265706F7274206964656EB2
:103E9F007469666965723A20307825303278202847
:103EAF0025692062797465732920646174613A20F1
:103EBF0030782530326C780A0052657175657374ED
:103ECF00696E67207265706F72742066726F6D20F5
:103EDF00696E746572666163652025690A00496EB3
:103EEF00746572666163652025640A002020436C47
:103EFF006173732025640A00202053756220436C80
:103F0F006173732025640A002020496E7465726600
:103F1F006163652050726F746F636F6C2025640A44
:103F2F000048494420617420496E7465726661636C
:103F3F00652025640A0020205553422025642E2534
:103F4F006425640A002020436F756E7472792063B4
:103F5F006F6465203078253032580A00202054795C
:103F6F00706558203078253032580A004661696CE8
:103F7F00656420746F20656E61626C6520726F6F6F
:103F8F00742068756220706F72742025690A007240
:103F9F006F6F742068756220706F727420256920AE
:103FAF00656E61626C65640A0044657669636520BD
:103FBF00636C6173732025690A004D61782070610D
:103FCF00636B65742073697A652025690A004465FF
:103FDF007669636520537472696E673A2025730A98
:103FEF0000436F6E66696775726174696F6E2076D4
:103FFF00616C75653A2025640A00496E74657266B6
:10400F0061636520636F756E743A2025640A0049F9
:10401F006E7465726661636520646573637269703F
:10402F00746F7220666F756E640A00456E64706FF0
:10403F00696E742064657363726970746F72206641
:10404F006F756E640A00436F6E6E656374656420EE
:10405F0064657669636520617420706F7369746934
:10406F006F6E3A2025690A00476F7420656E647081
:10407F006F696E7420666F722074686520484944BA
:10408F00646576696365203078253032780A004898
:10409F0049442064657363726970746F7220666F30
:1040AF00756E640A00436C61737320737065636986
:1040BF006669632068656164657220646573637205
:1040CF006970746F7220666F756E640A00436C615D
:1040DF00737320737065636966696320656E6470BE
:1040EF006F696E742064657363726970746F722088
:1040FF00666F756E640A00556E65787065637465DA
:10410F00642064657363726970746F722074797060
:10411F00653A20253032580A004572726F72203D81
:10412F0020253032580A0044657669636520617432
:10413F0020726F6F742068756220256920636F6E1F
:10414F006E65637465640A00446576696365206112
:10415F007420726F6F7420687562202569206469FE
:0C416F0073636F6E6E65637465640A0014
:01419000002E
:102C630010980122900B88E024E3F582E4340AF5FE
:102C730083E599F0900B88E0FF24E3F582E4340ABE
:102C8300F583E0FEBE0A028008BF40005003022D18
:102C9300047E00900B88E0FDC3EE9D502EEE24E3EE
:102CA300F582E4340AF583E0FD7C00C006C005C06C
:102CB30004747BC0E07441C0E07480C0E01230BD96
:102CC300E58124FBF581D0060E80C87483C0E074CF
:102CD30041C0E07480C0E01230BD158115811581BB
:102CE300900AE3E0FEBE6B11900AE4E0FEBE6209C7
:102CF300850882850983120006900B88E4F0022C74
:102D030063900B88EF04F0022C63E582900B23F0B1
:102D1300E0FFBFC0028005BFDB1A800C7582DB12A7
:102D2300022B7582DC02022B7582DB12022B758269
:102D3300DD02022B8F8202022BE582900B2BF09097
:102D43000B24E0FEA3E0FF8E058D82C007C00612B0
:102D53002D0DD006D0078F058D82C007C006122D1A
:102D63000D900B2BE0F582122D0D900B26E0F582D2
:102D7300122D0D900B27E0F582122D0D900B28E0FC
:102D8300F582122D0D758200122D0D758200122D04
:102D93000D758200122D0D758200122D0DD006D0F7
:102DA30007900B29E0FCA3E0FD7A007B00C3EA9EB9
:102DB300EB9F502DEA2CF582EB3DF583E0F582C0C5
:102DC30007C006C005C004C003C002122D0DD00207
:102DD300D003D004D005D006D0070ABA00CF0B80A9
:102DE300CC7582C002022BE582900B37F0900B2C3E
:102DF300E0FEA3E0FF8E058D82C007C006122D0DF5
:102E0300D006D0078F058D82C007C006122D0D9006
:102E13000B37E0F582122D0D900B2EE0F582122D6B
:102E23000D900B2FE0F582122D0D900B30E0F58203
:102E3300122D0D900B33E0F582122D0D900B34E023
:102E4300F582122D0D900B35E0F582122D0D900BAE
:102E530036E0F582122D0DD006D007900B31E0FC41
:102E6300A3E0FD7A007B00C3EA9EEB9F502DEA2C82
:102E7300F582EB3DF583E0F582C007C006C005C0CF
:102E830004C003C002122D0DD002D003D004D0051C
:102E9300D006D0070ABA00CF0B80CC7582C00202DD
:012EA3002B03
:0A417B0030782530325820000A0089
:01419100002D
:102EA400AF82AE83ADF0FC900B3CEFF0EEA3F0EDFF
:102EB400A3F0ECA3F0900B3CE0FCA3E0FDA3E0FE48
:102EC400A3E0FF30E70FC3E49CF8E49DF9E49EFA25
:102ED400E49FFB80088C008D018E028F03900B38D9
:102EE400E0FCA3E0FDA3E0FEA3E0FF33E433F53E02
:102EF4006013C3E49CF53FE49DF540E49EF541E492
:102F04009FF54280088C3F8D408E418F42900B404C
:102F1400E53FF0E540A3F0E541A3F0E542A3F088E6
:102F24008289838AF0EB122F60AC82AD83AEF0FF0E
:102F3400900B3CE0A3E0A3E0A3E033E433653E6000
:102F440013C3E49CF8E49DF9E49EFAE49F88828923
:102F5400838AF0228C828D838EF0EF22AF82AE833F
:102F6400ADF0FC900B44EFF0EEA3F0EDA3F0ECA376
:102F7400F0900B48E4F0A3F0A3F0A3F0900B40E032
:102F8400FCA3E0FDA3E0FEA3E0FF7B20C003900BC5
:102F940044E0F8A3E0F9A3E0FAA3E0FB900B4C2390
:102FA4005401F0E828F8E933F9EA33FAEB33FB90FB
:102FB4000B44E8F0E9A3F0EAA3F0EBA3F0900B488C
:102FC400E0F8A3E0F9A3E0FAA3E0FBE828F8E9338A
:102FD400F9EA33FAEB33FB900B48E8F0E9A3F0EAA3
:102FE400A3F0EBA3F0D003900B4CE06008900B48E7
:102FF400E043E001F0900B48E0F54EA3E0F54FA369
:10300400E0F550A3E0F551C3E54E9CE54F9DE55036
:103014009EE5519F401F900B48E54EC39CF0E54F41
:103024009DA3F0E5509EA3F0E5519FA3F0900B44BF
:10303400E043E001F01BEB6003022F90900B44E0AF
:10304400FCA3E0FDA3E0FEA3E08C828D838EF0223E
:06003700E478FFF6D8FD9D
:100015007902E94400601B7A01904190788775A0C8
:100025000BE493F2A308B8000205A0D9F4DAF2753F
:02003500A0FF2A
:1030540020F71130F6138883A88220F509F6A88397
:0B3064007583002280FEF280F5F02250
:10003D007800E84400600A790075A006E4F309D859
:10004D00FC7887E84405600C7906900600E4F0A37F
:04005D00D8FCD9FAF8
:02000600E473A1
:10306F00C04D85814D7E008E83120649D04D22AF13
:10307F00F0AE83E582900B4FF0EEA3F0EFA3F0904C
:10308F000B4FE0FDA3E0FEA3E0FF900B4EE0FC90A2
:10309F000B63E4F0A3F0A3F0900B66EDF0EEA3F05A
:1030AF00EFA3F0900B69ECF090306F0231C6C04D7A
:1030BF00E581F54D24FBFF900B63E4F0A3F0A3F043
:1030CF00E54D24FBF8900B66E6F008E6A3F008E662
:1030DF00A3F0900B69EFF090306F1231C6D04D22F4
:1030EF00E582900B5FF0E0FF900B55E0C0E0A3E0AE
:1030FF00C0E0A3E0C0E012310A800D900B53E0C096
:10310F00E0A3E0C0E08F8222158115811581900B1D
:10311F005DE02401F0A3E03400F022E582900B6023
:10312F00F0E02430FF24C6500D74072FFF900B5290
:10313F00E060034307208F820230EFE582900B613E
:10314F00F0E0FFC4540FF582C00712312AD00753A5
:10315F00070F8F8202312AE582900B62F0900B5895
:10316F00E0FCA3E0FDA3E0FEA3E0FF900B5CE0FB1F
:10317F00754E20900B62E0F98B00E828F8EF23548E
:10318F000148FBEC2CFCED33FDEE33FEEF33FFC3B8
:10319F00EB994007EBC399FB430401E54E14FA8A00
:1031AF004E70D5900B58ECF0EDA3F0EEA3F0EFA31B
:1031BF00F0900B5CEBF022AF83E582900B6AF0EF9F
:1031CF00A3F0900B6AE0FEA3E0FF900B53EEF0EF3D
:1031DF00A3F0900B63E0FDA3E0FEA3E0FF900B557F
:1031EF00EDF0EEA3F0EFA3F0900B5DE4F0A3F09001
:1031FF000B66E0FDA3E0FEA3E0FF8D828E838FF0D0
:10320F00123AFFFC900B6674012DF0E43EA3F0EF31
:10321F00A3F0EC7003023ABBBC25028003023AB361
:10322F00900B6CE4F0900B6DF0900B6EF0900B6FB9
:10323F00F0900B70F0900B71F0900B72F0900B738D
:10324F00F0900B75F0900B76F0A3F0900B7814F0D4
:10325F00A3F0900B66E0FDA3E0FEA3E0FF8D828E4E
:10326F00838FF0123AFFFBA3AD82AE83900B66ED16
:10327F00F0EEA3F0EFA3F0900B7CEBF0BB25088BE7
:10328F00821230EF0231FEBB3000500302335FEB8E
:10329F0024C6500302335F900B78E0F543A3E0F5AB
:1032AF004474FFB54363B54460C005C006C00790C2
:1032BF000B76E0FAA3E0FF900B85EAF0EFA3F09016
:1032CF00000AC005C003123ADFAE82AF83D003D02D
:1032DF00058B027D00EA2EFEED3FFFEE24D0FEEFC0
:1032EF0034FFFF900B76EEF0EFA3F0D007D006D0AF
:1032FF0005900B76E0F5F0A3E045F0600302326C29
:10330F00900B6D7401F002326CC005C006C00790BF
:10331F000B85E543F0E544A3F090000AC006C00515
:10332F00C003123ADFAA82AF83D003D005D0067E46
:10333F0000EB2AFAEE3FFFEA24D0FAEF34FFFF90BA
:10334F000B78EAF0EFA3F0D007D006D00502326C6D
:10335F00900B7CE0FBBB2E2FC005C006C007900B67
:10336F0078E0FAA3E0FFBAFF05BFFF028009D0079C
:10337F00D006D00502326CD007D006D005900B785E
:10338F00E4F0A3F002326CBB61004014EB248540E3
:10339F000F900B7C74DF5BF0900B527401F0800583
:1033AF00900B52E4F0900B7CE0FBBB20028075BBCE
:1033BF002B028067BB2D028059BB4202806FBB433B
:1033CF0002807CBB4403023656BB460302367CBBED
:1033DF00480302326CBB4903023656BB4A03023222
:1033EF006CBB4C028050BB4F03023664BB500302D0
:1033FF0035C4BB53028077BB540302326CBB5503F9
:10340F0002366CBB5803023674BB5A0302326C028D
:10341F003684900B6C7401F002326C900B6E740159
:10342F00F002326C900B6F7401F002326C900B71E2
:10343F007401F002326C900B727401F002326C90D6
:10344F000B71E0600E900B69E014F9F0900B7CE7C4
:10345F00F0800F900B69E024FEFFF08F01900B7C42
:10346F00E7F0900B7CE0F5821230EF023693900B71
:10347F0069E024FDFFF08F0187050987060987079B
:10348F001919900B58EDF0EEA3F0EFA3F08D828E8B
:10349F00838FF0123AC7858243858344900B78E07F
:1034AF00FAA3E0FDBAFF0DBDFF0A900B78E543F0DC
:1034BF00E544A3F0900B6CE0704B900B76E0FAA311
:1034CF00E0FDC3E5439AE5449D503A900B76EAC37D
:1034DF009543F0ED9544A3F0900B76E0FAA3E0FD51
:1034EF008A068D071ABAFF011DEE4F6010758220F4
:1034FF00C005C0021230EFD002D00580E3900B76EA
:10350F00EAF0EDA3F0900B78E0F546A3E0F54790D5
:10351F000B58E0FAA3E0FDA3E0FF8A828D838FF0C2
:10352F00123AFFF545603CC3E4954674808547F039
:10353F0063F08095F0502C154674FFB54602154781
:10354F008545821230EF900B58E0FAA3E0FDA3E01F
:10355F00FF0ABA00010D900B58EAF0EDA3F0EFA3AC
:10356F00F080AC900B6CE07003023693900B76E01A
:10357F00FEA3E0FFC3E5439EE5449F40030236935D
:10358F00900B76EEC39543F0EF9544A3F0900B7636
:10359F00E0FEA3E0FF8E028F051EBEFF011FEA4D66
:1035AF00700302368B758220C007C0061230EFD031
:1035BF0006D00780E0900B69E024FDFDF08D0187B8
:1035CF004809874909874A1919900B58E548F0E5CA
:1035DF0049A3F0E54AA3F0900B5AE0FDBD800040EF
:1035EF0008900B7C7443F08020BD60004008900B66
:1035FF007C7450F08013BD40004008900B7C7449E0
:10360F00F08006900B7C7458F0900B7CE0FDF582F7
:10361F00C0051230EF75823A1230EF7582301230DA
:10362F00EF7582781230EFD005BD4902800EBD5084
:10363F00028009900B59E0F58212314A900B58E045
:10364F00F58212314A803D900B707401F0900B752A
:10365F00740AF0802F900B757408F08027900B750B
:10366F00740AF0801F900B757410F08017900B7315
:10367F007401F0800F8B821230EF8008900B76EE82
:10368F00F0EFA3F0900B73E06071900B69E024FCF6
:10369F00FFF08F0187030987050987060987071937
:1036AF001919900B58EBF0EDA3F0EEA3F0EFA3F088
:1036BF00900B587485F07441A3F07480A3F0900BB5
:1036CF0058E0F548A3E0F549A3E0F54A7401254811
:1036DF00FAE43549FBAF4A900B58EAF0EBA3F0EF51
:1036EF00A3F0854882854983854AF0123AFFFF701F
:1036FF00030231FE8F821230EF80C3900B75E070A2
:10370F00030231FE900B71E06047900B69E014F9F2
:10371F00F087077E007D007B00900B58EFF0EEA343
:10372F00F0EDA3F0EBA3F0900B70E060030237D63F
:10373F00900B58E0FBA3E0A3E0A3E07D007E007FA9
:10374F0000900B58EBF0EDA3F0EEA3F0EFA3F08099
:10375F0076900B72E06028900B69E024FCFFF08FED
:10376F000187030987050987060987071919199022
:10377F000B58EBF0EDA3F0EEA3F0EFA3F080489021
:10378F000B69E024FEFFF08F01870609870719EF09
:10379F003395E0FDFB900B58EEF0EFA3F0EDA3F0A7
:1037AF00EBA3F0900B70E0701E900B58E0FBA3E0C2
:1037BF00FDA3E0A3E07E007F00900B58EBF0EDA39C
:1037CF00F0EEA3F0EFA3F0900B70E06041900B5878
:1037DF00E0FBA3E0FDA3E0FEA3E0FF30E72B900B9F
:1037EF0058E0FBA3E0FDA3E0FEA3E0FFC3E49BFBD7
:1037FF00E49DFDE49EFEE49FFF900B58EBF0EDA3DC
:10380F00F0EEA3F0EFA3F08005900B70E4F0900BB7
:10381F00747401F0900B75E0F546754B82754C0B87
:10382F00E4F543F544900B5CE4F085468212316673
:10383F00900B74E07026900B5CE0C4F548854B82CA
:10384F00854C83E0FFE5484207854B82854C83EF2B
:10385F00F0154B74FFB54B02154C800C900B5CE0D0
:10386F00FF854B82854C83F00543E4B54302054445
:10387F00900B74E0B40100E433F0900B58E0FAA31E
:10388F00E0FBA3E0FEA3E0FFEA4B4E4F7097900BD7
:10389F0083E54BF0E54CA3F0900B7AE543F0E5445C
:1038AF00A3F0900B76E0F5F0A3E045F07009900BD4
:1038BF00767401F0E4A3F0900B6DE0FFE070479099
:1038CF000B6CE0704185434B85444C900B76E0FACE
:1038DF00A3E0FBC007AF4B0F8F067F00C3EE9AEF3D
:1038EF009BD0075019758220C007C003C002123049
:1038FF00EFD002D003D0071ABAFF011B80D5900B6F
:10390F0076EAF0EBA3F0900B70E0602075822DC08B
:10391F00071230EFD007900B76E024FFFDA3E034C1
:10392F00FFFE900B76EDF0EEA3F08056900B7AE051
:10393F00F5F0A3E045F0604A900B6EE060207582D1
:10394F002BC0071230EFD007900B76E024FFFDA3BA
:10395F00E034FFFE900B76EDF0EEA3F08024900B99
:10396F006FE0601E758220C0071230EFD007900BFA
:10397F0076E024FFFDA3E034FFFE900B76EDF0EE32
:10398F00A3F0900B6CE07048900B7AE0F54BA3E03E
:10399F00F54C900B76E0FAA3E0FBC0078A068B0785
:1039AF001ABAFF011BC3E54B9EE54C9FD00750533E
:1039BF00EF60067D307E0080047D207E008D82C00A
:1039CF0007C003C0021230EFD002D003D00780CA65
:1039DF00900B76E0FEA3E0FF900B7AE0F54BA3E0AF
:1039EF00F54CC3E54B9EE54C9F500F900B76EEC305
:1039FF00954BF0EF954CA3F08011900B76E4F0A36C
:103A0F00F08008900B76EAF0EBA3F0900B83E0FECA
:103A1F00A3E0FF900B7AE0F54BA3E0F54CAA4BAD7A
:103A2F004C154B74FFB54B02154CEA4D6045900B8E
:103A3F0074E0B40100E433F0900B74E070140EBE28
:103A4F0000010F8E828F83E0C4540FFD900B5CF04A
:103A5F00800E8E828F83E0FD53050F900B5CEDF08F
:103A6F00900B5CE0F582C007C00612312AD006D059
:103A7F000780AA900B6CE070030231FE900B76E08A
:103A8F00FEA3E0FF8E038F051EBEFF011FEB4D70DF
:103A9F00030231FE758220C007C0061230EFD00638
:103AAF00D00780E08C821230EF0231FE900B5DE088
:083ABF00FEA3E08E82F58322D4
:0B4185003C4E4F20464C4F41543E0082
:103AC700AA82AB83123AFF6003A380F8C3E5829A08
:103AD700F582E5839BF58322AA83AB828BF0900B5B
:103AE70085E0A4F8A9F08AF0E0A429F98BF0A3E017
:083AF700A429F5838882222234
:0D000800758151123B1BE58260030200036D
:103AFF0020F71430F6148883A88220F507E6A883F0
:103B0F0075830022E280F7E49322E022758200227F
:00000001FF
