:03000000020008F3
:0300670002000391
:0300030002006A8E
:10006A001200FE9006007401F0E4A3F090C200753D
:10007A00F001E412012B90C20075F001E41201C9EB
:10008A00743DC0E0743BC0E07480C0E01230DB1500
:10009A0081158115817582001212997582011212D9
:1000AA00991207497446C0E0743BC0E07480C0E00E
:1000BA001230DB158115811581900B24E4F0A3F031
:1000CA00900B26F0900B27F0900B28F0900B29F05C
:1000DA00A3F0758208122D5AE5C120E60C1201160A
:1000EA00850882850983120006122C70122ADC12F6
:0400FA00134180E44A
:103B3D00537461727475700A0052656164790A007C
:060061007508007509F4AA
:1000FE0075A15575A1AA53B3E043B30675B2D87571
:10010E00A1FF9000070206D875A15575A1AA75B377
:10011E009875B2D875A1FF9000070206D8AF82AECF
:10012E0083ADF0FC900602EFF0EEA3F0EDA3F0EC41
:10013E00A3F0900600E0F5F0A3E045F0600C43C696
:10014E000143C40843C50C43CE10C29FD29EC29D2C
:10015E00D29C438780900602E0FCA3E0FDA3E0FE64
:10016E00A3E0FF900B40ECF0EDA3F0EEA3F0EFA3B5
:10017E00F0908D8075F05BE4122F7EAC82AD830C17
:10018E00BC00010DEDC313CC13CC740F5589442064
:10019E00F58943C9A0C3E49CFC8C8DD28ED29922E2
:1001AE0010980280FB85998222E582900606F01057
:1001BE00990280FB900606E0F59922AF82AE83ADE0
:1001CE00F0FC900607EFF0EEA3F0EDA3F0ECA3F039
:1001DE00759300759120759380759701900B38E596
:1001EE0097F0E4A3F0A3F0A3F0908D8075F05BE49C
:1001FE00122EC2AC82AD83AEF0FF900607E0F8A3DC
:10020E00E0F9A3E0FAA3E0FB900B40E8F0E9A3F0DD
:10021E00EAA3F0EBA3F08C828D838EF0EF122F7E8B
:10022E00AC82AD838C9A8D9175920175930322E504
:10023E009530E0FB859A8222E58290060BF0E595DB
:10024E0030E5FB90060BE0F59A22E58290060EF063
:10025E0090060F74C4F07400A3F07440A3F09006DF
:10026E001274BAF07400A3F07440A3F090061574E3
:10027E00BCF07400A3F07440A3F090061874BEF0A6
:10028E007400A3F07440A3F090061B74C5F07400C4
:10029E00A3F07440A3F090061E74BBF07400A3F09C
:1002AE007440A3F090062174BDF07400A3F0744066
:1002BE00A3F090062474BFF07400A3F07440A3F072
:1002CE0090060DE0FF24F9500122EF2F2F9002DF50
:1002DE00730202F40203770203FC0204570204D9EC
:1002EE0002055F0205E390060EE0FFFE8EF005F0BC
:1002FE007401800225E0D5F0FBF4ADC65DF5C6EFC6
:10030E0075F003A4FFAEF0240FF582EE3406F583EC
:10031E00E0FBA3E0FCA3E0FD8B828C838DF0123B0F
:10032E001DFA90060CE0F989F005F07401800225A3
:10033E00E0D5F0FBF4F952028B828C838DF0EA1239
:10034E003072EF241BF582EE3406F583E0FDA3E058
:10035E00FEA3E0FF8D828E838FF0123B1D52018D26
:10036E00828E838FF0E902307290060EE0FFFE8ED1
:10037E00F005F07401800225E0D5F0FBF4ADC65D0A
:10038E00F5C6EF75F003A4FFAEF0240FF582EE3440
:10039E0006F583E0FBA3E0FCA3E0FD8B828C838D4E
:1003AE00F0123B1DFA90060CE0F989F005F074018D
:1003BE00800225E0D5F0FBF9F4F8EA52008B828C2E
:1003CE00838DF0E8123072EF241BF582EE3406F5C1
:1003DE0083E0FDA3E0FEA3E0FF8D828E838FF012FB
:1003EE003B1D42018D828E838FF0E90230729006A2
:1003FE000EE0FFFE8EF005F07401800225E0D5F0D0
:10040E00FBF4ADC65DF5C6EF75F003A4240FF582BF
:10041E00740635F0F583E0FDA3E0FEA3E0FF8D82C8
:10042E008E838FF0123B1DFC90060CE0FB8BF005CB
:10043E00F07401800225E0D5F0FBF4FBEC42038D55
:10044E00828E838FF0EB02307290060EE0FFFE8EEE
:10045E00F005F07401800225E0D5F0FBADC64DF538
:10046E00C6EF75F003A4FFAEF0240FF582EE34064E
:10047E00F583E0FBA3E0FCA3E0FD8B828C838DF083
:10048E00123B1DFA90060CE0F989F005F07401801C
:10049E000225E0D5F0FBF4F952028B828C838DF0AD
:1004AE00EA123072EF241BF582EE3406F583E0FD7E
:1004BE00A3E0FEA3E0FF8D828E838FF0123B1D52D0
:1004CE00018D828E838FF0E902307290060EE0FF6E
:1004DE00FE8EF005F07401800225E0D5F0FBADC66E
:1004EE004DF5C6EF75F003A4FFAEF0240FF582EEC6
:1004FE003406F583E0FBA3E0FCA3E0FD8B828C8346
:10050E008DF0123B1DFA90060CE0F989F005F0749F
:10051E0001800225E0D5F0FBF942028B828C838D9F
:10052E00F0EA123072EF241BF582EE3406F583E00A
:10053E00FDA3E0FEA3E0FF8D828E838FF0123B1DA4
:10054E00FCE9F4F9EC52018D828E838FF0E90230D2
:10055E007290060EE0FFFE8EF005F074018002250B
:10056E00E0D5F0FBADC64DF5C6EF75F003A4FFAEBA
:10057E00F0240FF582EE3406F583E0FBA3E0FCA336
:10058E00E0FD8B828C838DF0123B1DFA90060CE001
:10059E00F989F005F07401800225E0D5F0FBF9F43D
:1005AE00F8EA52008B828C838DF0E8123072EF24C1
:1005BE001BF582EE3406F583E0FDA3E0FEA3E0FF1B
:1005CE008D828E838FF0123B1D42018D828E838F22
:1005DE00F0E902307290060EE0FFFE8EF005F07428
:1005EE0001800225E0D5F0FBADC64DF5C6EF75F0E6
:1005FE0003A4FFAEF0240FF582EE3406F583E0FB84
:10060E00A3E0FCA3E0FD8B828C838DF0123B1DFAE0
:10061E0090060CE0F989F005F07401800225E0D512
:10062E00F0FBF942028B828C838DF0EA123072EF6E
:10063E00241BF582EE3406F583E0FDA3E0FEA3E075
:10064E00FF8D828E838FF0123B1D42018D828E8331
:10065E008FF0E9023072AF83E582900627F0EFA3A8
:10066E00F0900627E0FEA3E08E8202024612023DC3
:10067E007E008E8322AF83E582900629F0EFA3F0F1
:10068E00900629E0FEA3E0FFEE4F603505A105A11F
:10069E0005A105A105A105A105A105A105A105A11C
:1006AE0005A105A105A105A105A105A105A105A10C
:1006BE0005A11EBEFF011F900629EEF0EFA3F080EC
:1006CE00C7900629EEF0EFA3F022AF83E5829006E5
:1006DE002BF0EFA3F090062BE0FEA3E0FFEE4F60B1
:1006EE001D9003E8C007C006120683D006D0071E71
:1006FE00BEFF011F90062BEEF0EFA3F080DF9006F9
:10070E002BEEF0EFA3F022E582900834F0E0FF75B7
:10071E00F003A4FDAEF0242EF582EE3408F583E44A
:10072E00F0ED242EFDEE3408FE8D828E83A3E4F0D0
:10073E00EF600475E5002275E40022C2EA75E280DE
:10074E0075E3009024477448F090244CE4F0A3F035
:10075E0090244E04F0E4A3F0F5D4F5D675E2897535
:10076E00D24075D8FF7582001207157582011207E7
:10077E001575E10322E582900835F0E5E35480FF1C
:10078E00E0547F4FF5E322E582900836F0E06007F3
:10079E0053E2BF53D27F2243E24022E582900837D4
:1007AE00F090062D7408F075820012078375820191
:1007BE00120795900837E0FFE0701374FB55E44480
:1007CE0002F5E490000F1206D853E4FD8014BF0129
:1007DE001174FB55E54402F5E590000F1206D8534F
:1007EE00E5FD9000FA120683C2D822E58290083801
:1007FE00F0E075F003A4242EFE740835F0FF8E820F
:10080E008F83E0FDBD010050078E828F837401F04F
:10081E00900838E0FF7049E5DB20E3030208B7E5F6
:10082E00E420E035E5DB30E21AEF75F003A4242E68
:10083E00FD740835F0FE8D828E83A3A3E4F043E4AD
:10084E00048016EF75F003A4242EFD740835F0FE17
:10085E008D828E83A3A37401F043E401758200227E
:10086E00BF0146E5DB30E741E5E520E035E5DB306D
:10087E00E61AEF75F003A4242EFD740835F0FE8DF4
:10088E00828E83A3A3E4F043E5048016EF75F00394
:10089E00A4242EFE740835F0FF8E828F83A3A374DA
:1008AE0001F043E5017582002275821622E58290E1
:1008BE00083AF0E075F003A4242EFE740835F0FF1C
:1008CE008E828F83A3E0F582C007C006120783D005
:1008DE0006D0078E828F83A3A3E0F582020795E5EB
:1008EE008290083EF090083BE0FF8FD48FD69008A0
:1008FE003FE4F0A3F090083EE0FEC4540FFDBD01AE
:10090E0003ED8001E4F50DE4BD090104F50E900838
:10091E003CE0F9A3E0FA8ED5C2D9750AC8750B0072
:10092E00E50A450B602820D925900001C007C006B6
:10093E00C005C002C001120683D001D002D005D07E
:10094E0006D007150A74FFB50A02150B80D275D5AD
:10095E000020D9047582FE2220D903020A6530DEFA
:10096E000475820022E5D9540FF50C740EB50C04F3
:10097E0074018001E4F50A60077420450CF58222AB
:10098E00740AB50C0474018001E4F86033E94A700E
:10099E000A7420450CF50D850D8222C3E994FFEAF9
:1009AE0094FF500519B9FF011A90083FE024FFFB90
:1009BE00A3E034FFFC90083FEBF0ECA3F0020A68D2
:1009CE00E50D700CE50E7034BD0D028003020A6158
:1009DE0030DE04758200227402B50C04758200228A
:1009EE00E50A7003E860077420450CF58222E50CD9
:1009FE007003020A687420450CF5822230DE0475FD
:100A0E00820022EF6011740BB50C0474018001E4B6
:100A1E0024FFE433FC80107403B50C0474018001D0
:100A2E00E4FB24FFE433FCEC600475820022E50A4B
:100A3E007003E860077420450CF582227403B50C30
:100A4E0007740BB50C028012E50C600E7420450C79
:100A5E00F582227582FE2275D8FF90000FC007C066
:100A6E0006C005C002C001120683D001D002D00517
:100A7E00D006D00790083FE02401F0A3E03400F048
:100A8E0090083FE0FBA3E0FCC3EB94C8EC9400504D
:100A9E000302092475822022AF83E582900846F076
:100AAE00EFA3F0748DC0E0743BC0E07480C0E01220
:100ABE0030DB158115811581900846E0FEA3E0FF1D
:100ACE0090084AEEF0EFA3F0900841E0FBA3E0FCA3
:100ADE00A3E0FD9000C8C007C006C005C004C00357
:100AEE00120683D003D004D005D006D007EB4C609D
:100AFE000E8B828C838DF0E4123072A312307275DD
:100B0E00D70890083BE4F090083C7410F07427A3CB
:100B1E00F07582D0C007C006C005C004C00312081D
:100B2E00EDAA82D003D004D005D006D007EA600328
:100B3E008A8222C006C00775D6D075D4D075D7016B
:100B4E00900107E0FA7900900106E0F87F0049F580
:100B5E000FEF4AF510900848E50FF0E510A3F0D01E
:100B6E0007D006E50F45107003020E31EE4F7003ED
:100B7E00020E31900100E0FF20E703020CC9C00510
:100B8E00C004C003C00FC010749FC0E0743BC0E02F
:100B9E007480C0E01230DBE58124FBF581D003D0F8
:100BAE0004D005900848E0FEA3E0FF4E7003020C4F
:100BBE00C390012CC007C006C005C004C0031206B6
:100BCE008390083BE5D4F090083C7410F07427A392
:100BDE00F07582901208EDAA82D003D004D005D011
:100BEE0006D007EA60038A8222A9D17A00C3E99E61
:100BFE00EA9F5006A9D17A0080048E018F028906E1
:100C0E007F00900848E0F8A3E0FA900848E8C39EF9
:100C1E00F0EA9FA3F0EB4C60248B828C838DF01254
:100C2E003B1DF8A3123B1DFAEE28FEEF3AFF8B8216
:100C3E008C838DF0EE123072A3EF12307290084A50
:100C4E00E0FEA3E0FF7A00C3EA99501CC001EA2E31
:100C5E00F511E43FF5128A82758300E085118285D5
:100C6E001283F00AD00180DF90084AE0FEA3E0FF75
:100C7E0090084AE92EF0E43FA3F0AED17F00C00504
:100C8E00C004C003C006C00774BBC0E0743BC0E024
:100C9E007480C0E01230DBE58124FBF581D003D0F7
:100CAE0004D005E5D1600E90062DE0FFC3E5D19F7F
:100CBE004003020BB175D700020E31C005C004C04F
:100CCE0003C00FC01074CEC0E0743BC0E07480C08F
:100CDE00E01230DBE58124FBF581D003D004D00592
:100CEE00900848E0FEA3E0FF4E7003020E31900024
:100CFE00C8C007C006C005C004C003120683D003D7
:100D0E00D004D005D006D00790062DE0F97A00C3A6
:100D1E00EE99EF9A50048E018F0289D790084AE01F
:100D2E00FEA3E0FFE5D72EFEE43FFF90084AEEF06B
:100D3E00EFA3F08E828F83A3E0FABA0956900B8749
:100D4E00E0F97A007401697003EA600679017A00AD
:100D5E00800479007A00900B87E9F08E828F83E908
:100D6E00F0900B87E0FF7E007A00C005C004C00340
:100D7E00C007C006C001C00274EAC0E0743BC0E008
:100D8E007480C0E01230DBE58124F9F581D003D008
:100D9E0004D005AED77F00C005C004C003C006C096
:100DAE00077400C0E0743CC0E07480C0E01230DB19
:100DBE00E58124FBF58190083BE5D6F090083C7464
:100DCE0010F07427A3F07582101208EDAF82D003D5
:100DDE00D004D005EF60038F8222AED77F0090083B
:100DEE0048E0F9A3E0FA900848E9C39EF0EA9FA311
:100DFE00F0EB4C7003020CEE8B828C838DF0123B69
:100E0E001DFEA3123B1DFFA9D77A00E92EFEEA3F75
:100E1E00FF8B828C838DF0EE123072A3EF12307244
:100E2E00020CEE9000C8120683E5D760047F908016
:100E3E00027F1090083B74C0F090083C7410F07460
:100E4E0027A3F08F821208EDE582FF60038F8222C6
:100E5E00E5D77003F58222E5D17003F58222758203
:100E6E001722AF83E58290084DF0EFA3F090084C67
:100E7E00E0FFFD7E00C007C006C005C005C00674B9
:100E8E0012C0E0743CC0E07480C0E01230DBE5813B
:100E9E0024FBF581D005D006D00790084DE0FBA3CA
:100EAE00E0FC7A00C3EA9F501EC005C0068A007996
:100EBE0001EA2BF582E43CF583E49388828983F082
:100ECE000AD006D00580DDC005C0067429C0E074C6
:100EDE003CC0E07480C0E01230DBE58124FBF5817C
:100EEE002290062D7408F0743CC0E0743CC0E0748F
:100EFE0080C0E01230DB15811581158190084C748D
:100F0E0008F0903B4D120E70900841744FF074082B
:100F1E00A3F0E4A3F0900844F07402A3F090062E20
:100F2E00120AA6E582FF60038F82227451C0E0741C
:100F3E003CC0E07480C0E01230DB15811581158154
:100F4E00900635E090062DF0903B53E493FF900809
:100F5E004FE0FDA3E0FE7C00C3ED9FEE9C501974A4
:100F6E007EC0E0743CC0E07480C0E01230DB1581BE
:100F7E00158115817582172275820022E5829008EF
:100F8E0051F090084C7408F0903B65120E7090086A
:100F9E0051E0FF900102F0900841E4F0A3F0A3F0BD
:100FAE00900844F0A3F0900000C007120AA6AE828B
:100FBE00D007EE60038E82228F057E00C007C0052B
:100FCE00C00674A8C0E0743CC0E07480C0E012306B
:100FDE00DBE58124FBF581D0078F82120783900019
:100FEE00641206D875820022E582900852F09008AD
:100FFE004C7408F0903B75120E70900852E0900100
:10100E0002F0900841E4F0A3F0A3F0900844F0A39E
:10101E00F0900000020AA690084C7408F0903B6D08
:10102E00120E70900841E4F0A3F0A3F0900844F083
:10103E007402A3F090062E020AA6AF83E5829008F2
:10104E0058F0EFA3F0900858E0FEA3E0FF8E828FD9
:10105E0083E07C0024FEFDEC34FFA2E713CD13CD1C
:10106E008E828F83A3E0FCBC030280047582002273
:10107E00900855E0FBA3E0FCEB24FFF515EC34FFE4
:10108E00F516900853E0F517A3E0F51885171385AC
:10109E0018147800C3E89D5063C00588047D00C312
:1010AE00EC9515ED9516D0055052C00588037C00C1
:1010BE00EB2BFBEC33FC74032BFAE43CFDEA2EFA2B
:1010CE00ED3FFD8A828D83E0D005600FE82513F594
:1010DE0082E43514F583743FF0801EE82517F9E499
:1010EE003518FA74022BFBE43CFCEB2EF582EC3F38
:1010FE00F583E0FC89828A83F0088098E82517F54D
:10110E0082E43518F583E4F07F00900857E0FE0E78
:10111E00900B24EDF0EFA3F0900B26EEF0900B2742
:10112E007434F0900B287456F0900B29E517F0E507
:10113E0018A3F0758205122D5A75820122AF83E530
:10114E008290085AF0EFA3F090085AE0FEA3E0FF59
:10115E007C007D008E828F83E0FB7A00C3EC9BEDDA
:10116E0064808AF063F08095F0503CEC2EF582EDB1
:10117E003FF583E0FB7A00C007C006C005C004C07F
:10118E0003C00274B8C0E0743CC0E07480C0E012CA
:10119E0030DBE58124FBF581D004D005D006D007E5
:1011AE000CBC00B00D80AD74C0C0E0743CC0E074E7
:1011BE0080C0E01230DB1581158115812290084C1C
:1011CE007408F0903B55120E70900841745CF074E8
:1011DE0008A3F0E4A3F0900844F07402A3F0900684
:1011EE002E120AA6E582FF60038F8222903B5BE4FB
:1011FE0093FF90085CE0FDA3E0FE7C00C3ED9FEE44
:10120E009C500475821722900630E0FF7E009006F7
:10121E0031E0FCE42FFFEC3EFE90084C7408F09099
:10122E003B55C007C006120E70D006D0078F048E35
:10123E0005900106ECF08E07900107EFF090084143
:10124E00745CF07408A3F0E4A3F0900844F0740208
:10125E00A3F090062E120AA6E582FF60038F82226B
:10126E007582002290084C7408F0903B5D120E704F
:10127E00900841745EF07408A3F0E4A3F090084463
:10128E00F07402A3F090062E020AA6E5829008C022
:10129E00F0E0FF75F010A4FDAEF024A0F582EE3460
:1012AE0008F583E4F0A3F0A3F0A3F0ED24A0FDEE87
:1012BE003408FE8D828E83A3A3A3A3E4F0A3F0A330
:1012CE00F0A3F074082DF582E43EF583E4F0A3F06C
:1012DE00A3F0A3F0740C2DF582E43EF583E4F0A3A5
:1012EE00F0A3F0A3F07E00EE75F008A42460FC7469
:1012FE000835F0FD74012CFAE43DFB8A828B83E005
:10130E00B507298C828D83E4F08A828B83F08C82E0
:10131E008D83A3A3F08C828D83A3A3A3F08C828DE7
:10132E0083A3A3A3A3F0A3F0A3F0A3F00EBE080023
:10133E0040B5227F00EF75F008A4FDAEF02460FBEF
:10134E00EE3408FC8B828C83E070030214EEED24E5
:10135E0060FDEE3408FE8D828E83A3E0FC9008398A
:10136E00E4F08C82C007C006C0051208BBD005D0C1
:10137E0006D0078D828E83A3A3A3E0FE747F5E4406
:10138E0090FDEE30E7067CC07E0080047C007E007F
:10139E0090083BECF090083CE4F0A3F08D82C0077F
:1013AE001208EDE582D00760030214EEEF75F00827
:1013BE00A42460F520740835F0F52174032520FB74
:1013CE00E43521FC8B828C83E0F97A006301808BFB
:1013DE00828C83E9F09008C1E5D1F0E0F519E07058
:1013EE00030214EEB2968B828C83E0F87900747F40
:1013FE0058F51A891B8F1C891D74042520F51EE4CF
:10140E003521F51F851E82851F83E0F8A3E0F9A321
:10141E00E0FAA3E0FEC007C004C003C01AC01BC0A0
:10142E001CC01DC000C001C002C00674C2C0E07462
:10143E003CC0E07480C0E01230DBE58124F5F5811C
:10144E00D003D004D007AA197E00851E82851F8383
:10145E00E0FD8B828C83E0FB53037F852082852108
:10146E0083A3E075F010A4F9ACF024A0F582EC345F
:10147E0008F583E0F520E924A0F9EC3408FC898214
:10148E008C83A3A3A3A3E0F51E740829F582E43C84
:10149E00F583E0F8740C29F582E43CF583E0FC90CA
:1014AE000B2CEAF0EEA3F0900B2EEDF0900B2FEF3D
:1014BE00F0900B30EBF0900B317400F07400A3F051
:1014CE00900B33E520F0900B34E51EF0900B35E8D1
:1014DE00F0900B36ECF0758204C007122E08D00780
:1014EE000FBF0800500302134322AF83E58290081A
:1014FE00C5F0EFA3F09008C7E4F0A3F09008C9F090
:10150E009008CAF09008C4E075F008A42460FE7438
:10151E000835F0FF9008C5E0F528A3E0F529AA28C4
:10152E00AB299008C2E0F526A3E0F5279008C7E0A6
:10153E00F522A3E0F523C3E5229526E52395274062
:10154E000122C006C007E5222528F582E5233529AC
:10155E00F583E0FF9008CB74FC5FF074035FF52217
:10156E009008CCF09008CDE4F0A3F0A3F0A3F074B3
:10157E0003B522028006D007D006800BD007D00616
:10158E009008CCE52204F0C006C0079008C7E0FE24
:10159E00A3E0FF74012EF522E43FF5239008CCE082
:1015AE00F524752500D007D006C3E52595245054A3
:1015BE00C006C007AE257F00EE2522FEEF3523FFC5
:1015CE00EE2AF582EF3BF583E0F8E4F9FEFFE52520
:1015DE00C40354F8FD8DF005F0800CE828F8E933CB
:1015EE00F9EE33FEEF33FFD5F0F19008CDE048F081
:1015FE00A3E049F0A3E04EF0A3E04FF00525D0079D
:10160E00D00680A59008C9E0FD9008CBE0FCE4BCB4
:10161E00C00104F52579008D22752300E5256008AB
:10162E00752A01752B008005E4F52AF52BC006C03E
:10163E0007E522C3952AF8E523952BFF89047E0042
:10164E00C3EC98EE64808FF063F08095F0D007D0F5
:10165E00065030C007C006C005C003C002C00174EA
:10166E00D9C0E0743CC0E07480C0E01230DB15815C
:10167E0015811581D001D002D003D005D006D00738
:10168E000980949008CBE0FDBD04028063BD080381
:10169E000218DEBD1403021C68BD1803021D50BDE6
:1016AE002403021CA2BD2803021D8ABD3403021CA2
:1016BE00DCBD4403021D16BD6403021E45BD74034A
:1016CE00021F2DBD8003021E7FBD8403021F67BD56
:1016DE009003021EB9BD9403021FA1BDA003021DFB
:1016EE00C4BDB003021EF3BDC003021E05021FDA05
:1016FE009008CDE0F52CA3E0F52DA3E0F52EA3E0A8
:10170E00F52FC3E52D94FFE52E9400E52F940040B0
:10171E000AE4F52C752DFFF52EF52FC007C006C077
:10172E0003C00274DEC0E0743CC0E07480C0E012FE
:10173E0030DB158115811581D002D003D006D0077C
:10174E007401B52C0D14B52D09B52E06B52F030257
:10175E00181F7407B52C0CE4B52D08B52E05B52F42
:10176E0002805E7408B52C0CE4B52D08B52E05B5B7
:10177E002F0280257409B52C0CE4B52D08B52E0565
:10178E00B52F028064E4B52C0DB52E0AB52F07F4E3
:10179E00B52D0302184602187FC007C006C003C04D
:1017AE000274EAC0E0743CC0E07480C0E01230DB2A
:1017BE00158115811581D002D003D006D0070218ED
:1017CE00B6C007C006C003C00274EFC0E0743CC0D0
:1017DE00E07480C0E01230DB158115811581D002D6
:1017EE00D003D006D0070218B6C007C006C003C08B
:1017FE000274FFC0E0743CC0E07480C0E01230DBC5
:10180E00158115811581D002D003D006D00702189C
:10181E00B6C007C006C003C0027406C0E0743DC067
:10182E00E07480C0E01230DB158115811581D00285
:10183E00D003D006D0078070C007C006C003C00218
:10184E009008CDE0C0E0A3E0C0E0A3E0C0E0A3E0DC
:10185E00C0E0741FC0E0743DC0E07480C0E0123080
:10186E00DBE58124F9F581D002D003D006D00780C4
:10187E0037C007C006C003C0029008CDE0C0E0A389
:10188E00E0C0E0A3E0C0E0A3E0C0E07436C0E074C6
:10189E003DC0E07480C0E01230DBE58124F9F581B3
:1018AE00D002D003D006D007C007C006C003C002C6
:1018BE0074C0C0E0743CC0E07480C0E01230DB1530
:1018CE008115811581D002D003D006D007022021C8
:1018DE009008CAE07036C002C00374042EF52CE4E2
:1018EE003FF52D9008CDE0F8A3E0FAA3E0FBA3E0CE
:1018FE00FC852C82852D83E8F0EAA3F0EBA3F0ECB7
:10190E00A3F09008CA7401F0D003D002C007C0063D
:10191E00C003C0027446C0E0743DC0E07480C0E0F5
:10192E001230DB158115811581D002D003D006D07F
:10193E00079008CDE0F52CA3E0F52DA3E0F52EA33E
:10194E00E0F52FC37438952CE4952DE4952EE4958F
:10195E002F5003021C13E52C240B83F582E52C2457
:10196E003D83F583E473E60E365E86AED6FE264ED6
:10197E001313131313131313131313131313131329
:10198E001313131313131313131313131313131319
:10199E00131313131313769EC51313131313EC198A
:1019AE001A1A1A1A1A1A1A1B1B1C1C1C1C1C1C1C79
:1019BE001C1C1C1C1C1C1C1C1C1C1C1C1C1C1C1C59
:1019CE001C1C1C1C1C1C1C1C1C1C1C1C1C1C1C1B4A
:1019DE001B1B1C1C1C1C1C1BC007C006C003C0020A
:1019EE00744DC0E0743DC0E07480C0E01230DB1571
:1019FE008115811581D002D003D006D007021C407C
:101A0E00C007C006C003C0027455C0E0743DC0E0FC
:101A1E007480C0E01230DB158115811581D002D0A3
:101A2E0003D006D007021C40C007C006C003C00288
:101A3E00745DC0E0743DC0E07480C0E01230DB1510
:101A4E008115811581D002D003D006D007021C402B
:101A5E00C007C006C003C0027463C0E0743DC0E09E
:101A6E007480C0E01230DB158115811581D002D053
:101A7E0003D006D007021C40C007C006C003C00238
:101A8E00746CC0E0743DC0E07480C0E01230DB15B1
:101A9E008115811581D002D003D006D007021C40DB
:101AAE00C007C006C003C0027475C0E0743DC0E03C
:101ABE007480C0E01230DB158115811581D002D003
:101ACE0003D006D007021C40C007C006C003C002E8
:101ADE00747DC0E0743DC0E07480C0E01230DB1550
:101AEE008115811581D002D003D006D007021C408B
:101AFE00C007C006C003C0027486C0E0743DC0E0DB
:101B0E007480C0E01230DB158115811581D002D0B2
:101B1E0003D006D007021C40C007C006C003C00297
:101B2E00748DC0E0743DC0E07480C0E01230DB15EF
:101B3E008115811581D002D003D006D007021C403A
:101B4E00C007C006C003C00274A3C0E0743DC0E06D
:101B5E007480C0E01230DB158115811581D002D062
:101B6E0003D006D007021C40C007C006C003C00247
:101B7E0074BAC0E0743DC0E07480C0E01230DB1572
:101B8E008115811581D002D003D006D007021C40EA
:101B9E00C007C006C003C00274BCC0E0743DC0E004
:101BAE007480C0E01230DB158115811581D002D012
:101BBE0003D006D007807BC007C006C003C00274E6
:101BCE00BEC0E0743DC0E07480C0E01230DB158111
:101BDE0015811581D002D003D006D0078054C007DE
:101BEE00C006C003C00274C0C0E0743DC0E0748083
:101BFE00C0E01230DB158115811581D002D003D0E3
:101C0E0006D007802DC007C006C003C002C02CC07E
:101C1E002DC02EC02F7436C0E0743DC0E07480C05D
:101C2E00E01230DBE58124F9F581D002D003D00635
:101C3E00D007C007C006C003C00274C0C0E0743C29
:101C4E00C0E07480C0E01230DB158115811581D0A3
:101C5E0002D003D006D007022021C007C006C00361
:101C6E00C0029008CDE0C0E0A3E0C0E0A3E0C0E079
:101C7E00A3E0C0E074C6C0E0743DC0E07480C0E074
:101C8E001230DBE58124F9F581D002D003D006D0E5
:101C9E0007022021C007C006C003C0029008CDE095
:101CAE00C0E0A3E0C0E0A3E0C0E0A3E0C0E074D7D2
:101CBE00C0E0743DC0E07480C0E01230DBE58124EA
:101CCE00F9F581D002D003D006D007022021C0073B
:101CDE00C006C003C0029008CDE0C0E0A3E0C0E0A3
:101CEE00A3E0C0E0A3E0C0E074E8C0E0743DC0E053
:101CFE007480C0E01230DBE58124F9F581D002D08A
:101D0E0003D006D007022021C007C006C003C002C0
:101D1E009008CDE0C0E0A3E0C0E0A3E0C0E0A3E007
:101D2E00C0E074FAC0E0743DC0E07480C0E01230D0
:101D3E00DBE58124F9F581D002D003D006D007026D
:101D4E002021C007C006C003C0029008CDE0C0E04D
:101D5E00A3E0C0E0A3E0C0E0A3E0C0E074E8C0E010
:101D6E00743DC0E07480C0E01230DBE58124F9F5EB
:101D7E0081D002D003D006D007022021C007C006B2
:101D8E00C003C0029008CDE0C0E0A3E0C0E0A3E035
:101D9E00C0E0A3E0C0E074FAC0E0743DC0E074801F
:101DAE00C0E01230DBE58124F9F581D002D003D0FA
:101DBE0006D007022021C007C006C003C00290084B
:101DCE00CDE0C0E0A3E0C0E0A3E0C0E0A3E0C0E04F
:101DDE00740CC0E0743EC0E07480C0E01230DBE5ED
:101DEE008124F9F581D002D003D006D0079008C91E
:101DFE00E02401F0022021C007C006C003C00290FB
:101E0E0008CDE0C0E0A3E0C0E0A3E0C0E0A3E0C0E6
:101E1E00E07422C0E0743EC0E07480C0E01230DB9B
:101E2E00E58124F9F581D002D003D006D0079008C1
:101E3E00C9E014F0022021C007C006C003C0029002
:101E4E0008CDE0C0E0A3E0C0E0A3E0C0E0A3E0C0A6
:101E5E00E07436C0E0743EC0E07480C0E01230DB47
:101E6E00E58124F9F581D002D003D006D0070220F7
:101E7E0021C007C006C003C0029008CDE0C0E0A399
:101E8E00E0C0E0A3E0C0E0A3E0C0E07444C0E074B2
:101E9E003EC0E07480C0E01230DBE58124F9F581AC
:101EAE00D002D003D006D007022021C007C006C042
:101EBE0003C0029008CDE0C0E0A3E0C0E0A3E0C004
:101ECE00E0A3E0C0E07453C0E0743EC0E07480C094
:101EDE00E01230DBE58124F9F581D002D003D00683
:101EEE00D007022021C007C006C003C0029008CD53
:101EFE00E0C0E0A3E0C0E0A3E0C0E0A3E0C0E07477
:101F0E0063C0E0743EC0E07480C0E01230DBE58157
:101F1E0024F9F581D002D003D006D007022021C0CB
:101F2E0007C006C003C0029008CDE0C0E0A3E0C029
:101F3E00E0A3E0C0E0A3E0C0E07474C0E0743EC073
:101F4E00E07480C0E01230DBE58124F9F581D00227
:101F5E00D003D006D007022021C007C006C003C0A0
:101F6E00029008CDE0C0E0A3E0C0E0A3E0C0E0A393
:101F7E00E0C0E07485C0E0743EC0E07480C0E01242
:101F8E0030DBE58124F9F581D002D003D006D007ED
:101F9E00022021C007C006C003C0029008CDE0C0D9
:101FAE00E0A3E0C0E0A3E0C0E0A3E0C0E07494C012
:101FBE00E0743EC0E07480C0E01230DBE58124F9AD
:101FCE00F581D002D003D006D0078047A9247C002B
:101FDE008D007D00C007C006C003C0029008CDE092
:101FEE00C0E0A3E0C0E0A3E0C0E0A3E0C0E0C00119
:101FFE00C004C000C00574A6C0E0743EC0E074808A
:10200E00C0E01230DBE58124F5F581D002D003D09B
:10201E0006D0079008CCE0FD7C000DBD00010C90B1
:10202E0008C7E0F8A3E0F99008C7ED28F0EC39A353
:10203E00F002153AE5829008D1F0E075F008A4247C
:10204E0060FE740835F0FF74022EFEE43FFF8E82B0
:10205E008F83E0FD7C00C007C006C005C00474E697
:10206E00C0E0743EC0E07480C0E01230DBE5812435
:10207E00FBF58190084C7408F0903B7D120E70D0E9
:10208E0006D0078E828F83E0900104F09008417491
:10209E00D2F07408A3F0E4A3F0900844F0A3F090FB
:1020AE00062EC007C006120AA690084C7408F090BF
:1020BE003B85120E70D006D0078E828F83E0900182
:1020CE0004F0900106E4F09001077402F0900841CC
:1020DE0074D2F07408A3F0E4A3F0900844F07402F4
:1020EE00A3F090062E120AA6E582FF60038F8222CD
:1020FE007E007F009008D2E0FCA3E0FDC3EE9CEFD3
:10210E009D5036EE242EF582EF3406F583E0FD7CED
:10211E0000C007C006C005C00474B8C0E0743CC05F
:10212E00E07480C0E01230DBE58124FBF581D0063F
:10213E00D0070EBE00BE0F80BB74C0C0E0743CC0A2
:10214E00E07480C0E01230DB158115811581900896
:10215E00D2E0FEA3E0FF9008D1E0FD75F008A424C4
:10216E0060FB740835F0FC8B828C83A3A3E0FA8BA2
:10217E00828C83A3E0FC900B24EEF0EFA3F0900B87
:10218E0026EDF0900B27EAF0900B28ECF0900B293F
:10219E00742EF07406A3F0758207C005122D5AD066
:1021AE00059008D2E0FEA3E0FF9008C2EEF0EFA388
:1021BE00F09008C4EDF090062E1214F875820022ED
:1021CE009008D4E0FEA3E0FF8E828F83A3A3E0FDF0
:1021DE007C00C007C006C005C004740BC0E0743F8D
:1021EE00C0E07480C0E01230DBE58124FBF581D0C5
:1021FE0006D0078E828F83A3A3A3A3A3E0FD7C004A
:10220E00C007C006C005C0047419C0E0743FC0E02A
:10221E007480C0E01230DBE58124FBF581D006D05E
:10222E000774062EF582E43FF583E0FD7C00C007BF
:10223E00C006C005C0047425C0E0743FC0E07480C1
:10224E00C0E01230DBE58124FBF581D006D00774A7
:10225E00072EF582E43FF583E0FF7E00C007C0063F
:10226E007435C0E0743FC0E07480C0E01230DBE52E
:10227E008124FBF58122AF83E5829008D8F0EFA38D
:10228E00F09008D8E0FEA3E0FF8E828F83A3A3E038
:10229E00FF7E00C007C006744EC0E0743FC0E074FD
:1022AE0080C0E01230DBE58124FBF5819008D6E09A
:1022BE00FEA3E0FF8E828F83A3A3E0FDFB53030FEB
:1022CE007C00EDC4540FFD7A008E828F83A3A3A3EE
:1022DE00E0F853000F7900C007C006C003C004C069
:1022EE0005C002C000C0017463C0E0743FC0E0745A
:1022FE0080C0E01230DBE58124F7F581D006D007EF
:10230E008E828F83A3A3A3A3E0FD7C00C007C0062B
:10231E00C005C0047472C0E0743FC0E07480C0E0B9
:10232E001230DBE58124FBF581D006D00774062E32
:10233E00F582E43FF583E0FF7E00C007C006748996
:10234E00C0E0743FC0E07480C0E01230DBE5812451
:10235E00FBF5812222E5829008DAF09008DBE4F0AA
:10236E009008DAE0FFFEFD75F003A4F53085F0313C
:10237E008F35753400900064C007C006C005120684
:10238E00D89000641206D88535821212998535824E
:10239E001207A9D005D006D0077800900001C0071B
:1023AE00C006C005C0001206D8D000D005D006D099
:1023BE00078F82C007C006C005C0001207F9E5826C
:1023CE00D000D005D006D007600608B8640040CB18
:1023DE00B86441C0058F82C007C006C0051207153C
:1023EE00D005D006D0078F007D00C007C006C005FF
:1023FE00C000C0057499C0E0743FC0E07480C0E0B6
:10240E001230DBE58124FBF581D005D006D007D054
:10241E0005022ACAC005900839E4F08E82C007C0B2
:10242E0006C0051208BBD005D0068E007D00C00682
:10243E00C005C000C00574BCC0E0743FC0E074802D
:10244E00C0E01230DBE58124FBF581D005120EEFE2
:10245E00AD82D006D0079008DBEDF0EDD00560031D
:10246E00022A59C005900632E0F87D00C007C0066A
:10247E00C005C000C00574D6C0E0743FC0E07480D3
:10248E00C0E01230DBE58124FBF581D005900635E6
:10249E00E0F87D00C005C000C00574E7C0E0743FE1
:1024AE00C0E07480C0E01230DBE58124FBF581D002
:1024BE0005D006EE75F010A4F8ADF024A0F532EDBF
:1024CE003408F533900636E0F97A007B007C0085FF
:1024DE003282853383E9F0EAA3F0EBA3F0ECA3F0AC
:1024EE00E824A0F8ED3408FD740428F532E43DF537
:1024FE0033900637E0F97A007B007C0085328285C6
:10250E003383E9F0EAA3F0EBA3F0ECA3F074082810
:10251E00F532E43DF533900638E0F97A007B007C25
:10252E0000853282853383E9F0EAA3F0EBA3F0EC69
:10253E00A3F0740C28F8E43DFD900639E0F97A001A
:10254E007B007C0088828D83E9F0EAA3F0EBA3F098
:10255E00ECA3F090062EC006C00512114BD005D08C
:10256E0006903B67E4932EF532853282C006120F39
:10257E008AAD82D006D0079008DBEDF0EDD0056075
:10258E0003022A59EE75F003A4242EFB740835F0CD
:10259E00FC8B828C83A3E532F0C007C006C0051207
:1025AE00102590062E12114BD005D00690085374AC
:1025BE002EF07406A3F0900855E4F07402A3F09088
:1025CE000857EEF090062EC006C005121048E582A0
:1025DE00D005D006D007602CC007C006C005742EEB
:1025EE00C0E07406C0E0E4C0E074FBC0E0743FC01D
:1025FE00E07480C0E01230DBE58124FAF581D0056D
:10260E00D006D007C007C006C0051211CBAC82D0D1
:10261E0005D006D0079008DBECF0EC6003022A59D7
:10262E00900630E0FC7B00900631E0FAE42CFCEAE8
:10263E003BFB9008DAE0FA0A900B24ECF0EBA3F0E7
:10264E00900B26E532F0900B27EAF0900B2874AA37
:10265E00F0900B29742EF07406A3F0758206122DDD
:10266E005A900ADEE4F0A3F07B007C00900630E086
:10267E00FA8A32753300900631E0FAE42532F8EA30
:10268E003533FAC3EB98EC9A5036EB242EF582ECE8
:10269E003406F583E0F97A00C004C003C001C0021D
:1026AE0074B8C0E0743CC0E07480C0E01230DBE56A
:1026BE008124FBF581D003D0040BBB00AF0C80ACA2
:1026CE0074C0C0E0743CC0E07480C0E01230DB1512
:1026DE008115811581900633E0FCFA7B00C004C0A1
:1026EE0002C003740EC0E07440C0E07480C0E012FB
:1026FE0030DBE58124FBF581900632E0FB7A00C0E9
:10270E0003C0027427C0E07440C0E07480C0E012C1
:10271E0030DBE58124FBF581D0048C82120FF6901C
:10272E000630E0FC7B00900631E0FAE42CFCEA3B3C
:10273E00FB8C018B02E4F532F533C3E53299E533B8
:10274E009A502EC004C003E53224DEF8E533340877
:10275E00FCE532242EF582E5333406F583E08882DB
:10276E008C83F00532E4B532020533D003D00480F9
:10277E00C990062EE0FA9008DCF0E4A3F09008DA97
:10278E00E0F539A9398C368B379008DCE0F532A3A9
:10279E00E0F533C3E5329536E53395374003022A2B
:1027AE0055E53224DEF532E5333408F533900AE090
:1027BE00E532F0E533A3F0853282853383A3E0F86A
:1027CE00B80402801AB805028056B8210302295AAD
:1027DE00B824030229B0B825030229DC022A08888E
:1027EE00037C00C001C003C004743CC0E07440C050
:1027FE00E07480C0E01230DBE58124FBF581D0016E
:10280E00AB32AC33900ADEEBF0ECA3F09008D4EBD5
:10281E00F0ECA3F08982C0011221CED001022A3041
:10282E00C00188017C00C001C001C0047458C0E022
:10283E007440C0E07480C0E01230DBE58124FBF50B
:10284E008185328285338312114BD001900ADEE0EE
:10285E00FBA3E0FC8B828C83A3A3A3A3A3E0FCBC0D
:10286E0003028005D001022A30AB32AC3374022B46
:10287E00F53AE43CF53B853A82853B83E0D0012076
:10288E00E703022A30753800C001E53875F008A458
:10289E002460F9740835F0FA89828A83E0D00160E9
:1028AE0008053874F8253850DFC001A9387A00C001
:1028BE0001C001C0027473C0E07440C0E07480C0F7
:1028CE00E01230DBE58124FBF581D001E53875F0AF
:1028DE0008A42460F9740835F0FA740329F53CE471
:1028EE003AF53D853A82853B83E0F53A853C828513
:1028FE003D83F089828A837401F00429F53CE43A21
:10290E00F53D900ADEE0FBA3E0FC8B828C83A3A353
:10291E00E0853C82853D83F089828A83A3E539F088
:10292E00AB3A7C00C001C003C0047495C0E0744093
:10293E00C0E07480C0E01230DBE58124FBF58185B8
:10294E003882122042D001D001022A3088037C0046
:10295E00C001C003C00474BCC0E07440C0E0748009
:10296E00C0E01230DBE58124FBF581D001900ADE58
:10297E00E0FBA3E0FC900ADEE0F5F0A3E045F0708A
:10298E0003022A30C001A932AA339008D6E9F0EA30
:10299E00A3F08B828C83C001122284D001D001025D
:1029AE002A3088037C00C001C003C00474D2C0E08A
:1029BE007440C0E07480C0E01230DBE58124FBF58A
:1029CE008185328285338312114BD0018054880366
:1029DE007C00C001C003C00474FAC0E07440C0E0C3
:1029EE007480C0E01230DBE58124FBF581853282F4
:1029FE0085338312114BD00180287C00C001C000AA
:102A0E00C0047424C0E07441C0E07480C0E0123091
:102A1E00DBE58124FBF58185328285338312114BF0
:102A2E00D001900AE0E0FBA3E0FC8B828C83E0FBFC
:102A3E007C009008DCE0F8A3E0FA9008DCEB28F0CC
:102A4E00EC3AA3F0022797758200229008DBE0FC97
:102A5E00FA7B00C007C006C005C004C002C00374E4
:102A6E0046C0E07441C0E07480C0E01230DBE58106
:102A7E0024FBF581D004D0058D030B900B24E4F0DC
:102A8E00A3F0900B26EBF0900B27ECF0900B287434
:102A9E00EEF0900B29E4F0A3F0758203C005122D21
:102AAE005AE530242EF582E5313408F5837402F0B0
:102ABE00758201120795D005D006D007053474F63D
:102ACE00253440030223839008DBE0F58222900A2E
:102ADE00E2E4F010D803022C69E5DB30E3639008E2
:102AEE002EE06008E5E430E003022BA675820012AA
:102AFE00071590082E7401F0E4C0E0C0E07454C0D5
:102B0E00E07441C0E07480C0E01230DBE58124FB4C
:102B1E00F581900B24E4F0A3F0900B2604F0900BBB
:102B2E0027F0900B28F0900B29E4F0A3F0758201AA
:102B3E00122D5A758200122363E582900AE2F0800C
:102B4E005790082EE0FFBF0100404D758200121213
:102B5E0099758200120715E4C0E0C0E07475C0E0FC
:102B6E007441C0E07480C0E01230DBE58124FBF5D7
:102B7E0081900B24E4F0A3F0900B2604F0900B2729
:102B8E00F0900B28F0900B29E4F0A3F0758202125E
:102B9E002D5A900AE27416F0E5DB30E764900831A6
:102BAE00E06008E5E530E003022C6975820112074A
:102BBE00159008317401F0C0E0E4C0E07454C0E038
:102BCE007441C0E07480C0E01230DBE58124FBF577
:102BDE0081900B24E4F0A3F0900B267402F0900B7E
:102BEE0027F0900B28F0900B29E4F0A3F0758201EA
:102BFE00122D5A758201122363E582900AE2F0804B
:102C0E005A900831E0FFBF01004050758201121248
:102C1E00997582011207157401C0E0E4C0E0747565
:102C2E00C0E07441C0E07480C0E01230DBE5812466
:102C3E00FBF581900B24E4F0A3F0900B267402F0C8
:102C4E00900B27F0900B28F0900B29E4F0A3F07571
:102C5E008202122D5A900AE27416F0900AE2E0F502
:022C6E008222C0
:103B4D008006000100001200800600020000120035
:103B5D0081060004000009000005020000000000BD
:103B6D0080060203090402040009000000000000A1
:103B7D00210A000000000000810600220000FF0065
:103B8D00686F73744374726C5472616E7366657290
:103B9D000A0052656D61696E696E672062797465A0
:103BAD007320746F20726561642025640A0052656C
:103BBD006365697665642025692062797465730A89
:103BCD000052656D61696E696E6720627974657307
:103BDD0020746F20777269746520256900534554F0
:103BED005F504F525420202530325820202530323E
:103BFD0058200053656E64696E67202569206279CF
:103C0D007465730A0066696C6C54784275666665F6
:103C1D00722025692062797465730A0066696C6C7F
:103C2D00547842756666657220646F6E650A00672A
:103C3D006574446576696365446573637269707410
:103C4D006F720A00446576696365206465736372FB
:103C5D006970746F72207265717565737420736508
:103C6D006E74207375636365737366756C6C790A16
:103C7D00005265636569766564207061636B657478
:103C8D0020697320736D616C6C6572207468616E50
:103C9D002065787065637465640A005365744164CA
:103CAD0064726573733A2025690A003078253032C5
:103CBD005820000A0048494420256C752C202569A0
:103CCD002064617461202569203A20002020202085
:103CDD00005573616765207061676520004C454430
:103CED0073004B6579626F6172642F4B65797061FA
:103CFD006400427574746F6E0067656E65726963FA
:103D0D00206465736B746F7020636F6E74726F6C6B
:103D1D00730076656E646F7220646566696E6564A6
:103D2D002030782530346C7800756E6B6E6F776E41
:103D3D002030782530326C7800557361676520002E
:103D4D00556E6B6E6F776E00506F696E7465720095
:103D5D004D6F757365005265736572766564004AC3
:103D6D006F79737469636B0047616D657061640091
:103D7D004B6579626F617264004B657970616400A7
:103D8D004D756C74692D4178697320636F6E747213
:103D9D006F6C6C6572005461626C6574207379731D
:103DAD0074656D20636F6E74726F6C73005800597B
:103DBD00005A00576865656C004C6F676963616CEC
:103DCD00206D696E20256C750A004C6F6769636103
:103DDD006C206D617820256C750A005068797369C7
:103DED0063616C206D696E20256C750A00506879D1
:103DFD00736963616C206D617820256C750A0043D1
:103E0D006F6C6C656374696F6E207374617274206E
:103E1D00256C750A00436F6C6C656374696F6E2059
:103E2D00656E6420256C750A00556E6974203078B6
:103E3D002530326C780A00496E7075742030782503
:103E4D0030326C780A004F75747075742030782597
:103E5D0030326C780A004665617475726520307871
:103E6D002530326C780A005265706F727420736958
:103E7D007A6520256C750A005265706F7274204941
:103E8D004420256C750A005265706F727420636F43
:103E9D00756E7420256C750A00556E6B6E6F776E9E
:103EAD0020484944207265706F7274206964656E94
:103EBD007469666965723A20307825303278202829
:103ECD0025692062797465732920646174613A20D3
:103EDD0030782530326C780A0052657175657374CF
:103EED00696E67207265706F72742066726F6D20D7
:103EFD00696E746572666163652025690A00496E95
:103F0D00746572666163652025640A002020436C28
:103F1D006173732025640A00202053756220436C61
:103F2D006173732025640A002020496E74657266E2
:103F3D006163652050726F746F636F6C2025640A26
:103F4D000048494420617420496E7465726661634E
:103F5D00652025640A0020205553422025642E2516
:103F6D006425640A002020436F756E747279206396
:103F7D006F6465203078253032580A00202054793E
:103F8D00706558203078253032580A004661696CCA
:103F9D00656420746F20656E61626C6520726F6F51
:103FAD00742068756220706F72742025690A007222
:103FBD006F6F742068756220706F72742025692090
:103FCD00656E61626C65640A00446576696365209F
:103FDD00636C6173732025690A004D6178207061EF
:103FED00636B65742073697A652025690A004465E1
:103FFD007669636520537472696E673A2025730A7A
:10400D0000436F6E66696775726174696F6E2076B5
:10401D00616C75653A2025640A00496E7465726697
:10402D0061636520636F756E743A2025640A0049DB
:10403D006E74657266616365206465736372697021
:10404D00746F7220666F756E640A00456E64706FD2
:10405D00696E742064657363726970746F72206623
:10406D006F756E640A00436F6E6E656374656420D0
:10407D0064657669636520617420706F7369746916
:10408D006F6E3A2025690A00476F7420656E647063
:10409D006F696E7420666F7220746865204849449C
:1040AD00646576696365203078253032780A00487A
:1040BD0049442064657363726970746F7220666F12
:1040CD00756E640A00436C61737320737065636968
:1040DD0066696320686561646572206465736372E7
:1040ED006970746F7220666F756E640A00436C613F
:1040FD00737320737065636966696320656E6470A0
:10410D006F696E742064657363726970746F722069
:10411D00666F756E640A00556E65787065637465BB
:10412D00642064657363726970746F722074797042
:10413D00653A20253032580A004572726F72203D63
:10414D0020253032580A0044657669636520617414
:10415D0020726F6F742068756220256920636F6E01
:10416D006E65637465640A004465766963652061F4
:10417D007420726F6F7420687562202569206469E0
:0C418D0073636F6E6E65637465640A00F6
:0141AE000010
:102C700010980122900B88E024E3F582E4340AF5F1
:102C800083E599F0900B88E0FF24E3F582E4340AB1
:102C9000F583E0FEBE0A028008BF40005003022D0B
:102CA000227E00900B88E0FDC3EE9D502EEE24E3C3
:102CB000F582E4340AF583E0FD7C00C006C005C05F
:102CC000047499C0E07441C0E07480C0E01230DB4D
:102CD000E58124FBF581D0060E80C874A1C0E074A4
:102CE00041C0E07480C0E01230DB15811581158190
:102CF000900AE3E0FEBE6B22900AE4E0FEBE620EA4
:102D0000120116850882850983120006800CBE72A6
:102D10000975A15575A1AA43B110900B88E4F00282
:102D20002C70900B88EF04F0022C70E582900B233E
:102D3000F0E0FFBFC0028005BFDB1A800C7582DBAC
:102D40001201B77582DC0201B77582DB1201B7751B
:102D500082DD0201B78F820201B7E582900B2BF072
:102D6000900B24E0FEA3E0FF8E058D82C007C00615
:102D7000122D2BD006D0078F058D82C007C00612FA
:102D80002D2B900B2BE0F582122D2B900B26E0F5CE
:102D900082122D2B900B27E0F582122D2B900B2801
:102DA000E0F582122D2B758200122D2B75820012F8
:102DB0002D2B758200122D2B758200122D2BD00623
:102DC000D007900B29E0FCA3E0FD7A007B00C3EA6A
:102DD0009EEB9F502DEA2CF582EB3DF583E0F582CA
:102DE000C007C006C005C004C003C002122D2BD00E
:102DF00002D003D004D005D006D0070ABA00CF0B0A
:102E000080CC7582C00201B7E582900B37F0900B41
:102E10002CE0FEA3E0FF8E058D82C007C006122DB8
:102E20002BD006D0078F058D82C007C006122D2B30
:102E3000900B37E0F582122D2B900B2EE0F58212CD
:102E40002D2B900B2FE0F582122D2B900B30E0F5FF
:102E500082122D2B900B33E0F582122D2B900B3428
:102E6000E0F582122D2B900B35E0F582122D2B9080
:102E70000B36E0F582122D2BD006D007900B31E0F7
:102E8000FCA3E0FD7A007B00C3EA9EEB9F502DEA95
:102E90002CF582EB3DF583E0F582C007C006C00546
:102EA000C004C003C002122D2BD002D003D004D026
:102EB00005D006D0070ABA00CF0B80CC7582C002BD
:022EC00001B758
:0A41990030782530325820000A006B
:0141AF00000F
:102EC200AF82AE83ADF0FC900B3CEFF0EEA3F0EDE1
:102ED200A3F0ECA3F0900B3CE0FCA3E0FDA3E0FE2A
:102EE200A3E0FF30E70FC3E49CF8E49DF9E49EFA07
:102EF200E49FFB80088C008D018E028F03900B38BB
:102F0200E0FCA3E0FDA3E0FEA3E0FF33E433F53EE3
:102F12006013C3E49CF53FE49DF540E49EF541E473
:102F22009FF54280088C3F8D408E418F42900B402E
:102F3200E53FF0E540A3F0E541A3F0E542A3F088C8
:102F42008289838AF0EB122F7EAC82AD83AEF0FFD2
:102F5200900B3CE0A3E0A3E0A3E033E433653E60E2
:102F620013C3E49CF8E49DF9E49EFAE49F88828905
:102F7200838AF0228C828D838EF0EF22AF82AE8321
:102F8200ADF0FC900B44EFF0EEA3F0EDA3F0ECA358
:102F9200F0900B48E4F0A3F0A3F0A3F0900B40E014
:102FA200FCA3E0FDA3E0FEA3E0FF7B20C003900BA7
:102FB20044E0F8A3E0F9A3E0FAA3E0FB900B4C2372
:102FC2005401F0E828F8E933F9EA33FAEB33FB90DD
:102FD2000B44E8F0E9A3F0EAA3F0EBA3F0900B486E
:102FE200E0F8A3E0F9A3E0FAA3E0FBE828F8E9336C
:102FF200F9EA33FAEB33FB900B48E8F0E9A3F0EA85
:10300200A3F0EBA3F0D003900B4CE06008900B48C8
:10301200E043E001F0900B48E0F54EA3E0F54FA34A
:10302200E0F550A3E0F551C3E54E9CE54F9DE55018
:103032009EE5519F401F900B48E54EC39CF0E54F23
:103042009DA3F0E5509EA3F0E5519FA3F0900B44A1
:10305200E043E001F01BEB6003022FAE900B44E073
:10306200FCA3E0FDA3E0FEA3E08C828D838EF02220
:06003700E478FFF6D8FD9D
:100015007902E94400601B7A019041AE788775A0AA
:100025000BE493F2A308B8000205A0D9F4DAF2753F
:02003500A0FF2A
:1030720020F71130F6138883A88220F509F6A88379
:0B3082007583002280FEF280F5F02232
:10003D007800E84400600A790075A006E4F309D859
:10004D00FC7887E84405600C7906900600E4F0A37F
:04005D00D8FCD9FAF8
:02000600E473A1
:10308D00C04D85814D7E008E83120664D04D22AFDA
:10309D00F0AE83E582900B4FF0EEA3F0EFA3F0902E
:1030AD000B4FE0FDA3E0FEA3E0FF900B4EE0FC9084
:1030BD000B63E4F0A3F0A3F0900B66EDF0EEA3F03C
:1030CD00EFA3F0900B69ECF090308D0231E4C04D20
:1030DD00E581F54D24FBFF900B63E4F0A3F0A3F025
:1030ED00E54D24FBF8900B66E6F008E6A3F008E644
:1030FD00A3F0900B69EFF090308D1231E4D04D229A
:10310D00E582900B5FF0E0FF900B55E0C0E0A3E08F
:10311D00C0E0A3E0C0E0123128800D900B53E0C059
:10312D00E0A3E0C0E08F8222158115811581900BFF
:10313D005DE02401F0A3E03400F022E582900B6005
:10314D00F0E02430FF24C6500D74072FFF900B5272
:10315D00E060034307208F8202310DE582900B6101
:10316D00F0E0FFC4540FF582C007123148D0075369
:10317D00070F8F82023148E582900B62F0900B5859
:10318D00E0FCA3E0FDA3E0FEA3E0FF900B5CE0FB01
:10319D00754E20900B62E0F98B00E828F8EF235470
:1031AD000148FBEC2CFCED33FDEE33FEEF33FFC39A
:1031BD00EB994007EBC399FB430401E54E14FA8AE2
:1031CD004E70D5900B58ECF0EDA3F0EEA3F0EFA3FD
:1031DD00F0900B5CEBF022AF83E582900B6AF0EF81
:1031ED00A3F0900B6AE0FEA3E0FF900B53EEF0EF1F
:1031FD00A3F0900B63E0FDA3E0FEA3E0FF900B5561
:10320D00EDF0EEA3F0EFA3F0900B5DE4F0A3F090E2
:10321D000B66E0FDA3E0FEA3E0FF8D828E838FF0B1
:10322D00123B1DFC900B6674012DF0E43EA3F0EFF4
:10323D00A3F0EC7003023AD9BC25028003023AD107
:10324D00900B6CE4F0900B6DF0900B6EF0900B6F9B
:10325D00F0900B70F0900B71F0900B72F0900B736F
:10326D00F0900B75F0900B76F0A3F0900B7814F0B6
:10327D00A3F0900B66E0FDA3E0FEA3E0FF8D828E30
:10328D00838FF0123B1DFBA3AD82AE83900B66EDD9
:10329D00F0EEA3F0EFA3F0900B7CEBF0BB25088BC9
:1032AD008212310D02321CBB3000500302337DEB14
:1032BD0024C6500302337D900B78E0F543A3E0F56F
:1032CD004474FFB54363B54460C005C006C00790A4
:1032DD000B76E0FAA3E0FF900B85EAF0EFA3F090F8
:1032ED00000AC005C003123AFDAE82AF83D003D0F1
:1032FD00058B027D00EA2EFEED3FFFEE24D0FEEFA2
:10330D0034FFFF900B76EEF0EFA3F0D007D006D090
:10331D0005900B76E0F5F0A3E045F0600302328AEC
:10332D00900B6D7401F002328AC005C006C0079083
:10333D000B85E543F0E544A3F090000AC006C005F7
:10334D00C003123AFDAA82AF83D003D005D0067E0A
:10335D0000EB2AFAEE3FFFEA24D0FAEF34FFFF909C
:10336D000B78EAF0EFA3F0D007D006D00502328A31
:10337D00900B7CE0FBBB2E2FC005C006C007900B49
:10338D0078E0FAA3E0FFBAFF05BFFF028009D0077E
:10339D00D006D00502328AD007D006D005900B7822
:1033AD00E4F0A3F002328ABB61004014EB248540A7
:1033BD000F900B7C74DF5BF0900B527401F0800565
:1033CD00900B52E4F0900B7CE0FBBB20028075BBB0
:1033DD002B028067BB2D028059BB4202806FBB431D
:1033ED0002807CBB4403023674BB460302369ABB93
:1033FD00480302328ABB4903023674BB4A030232C8
:10340D008ABB4C028050BB4F03023682BB50030275
:10341D0035E2BB53028077BB540302328ABB55039E
:10342D0002368ABB5803023692BB5A0302328A0215
:10343D0036A2900B6C7401F002328A900B6E7401FF
:10344D00F002328A900B6F7401F002328A900B7188
:10345D007401F002328A900B727401F002328A907C
:10346D000B71E0600E900B69E014F9F0900B7CE7A6
:10347D00F0800F900B69E024FEFFF08F01900B7C24
:10348D00E7F0900B7CE0F58212310D0236B1900B16
:10349D0069E024FDFFF08F0187050987060987077D
:1034AD001919900B58EDF0EEA3F0EFA3F08D828E6D
:1034BD00838FF0123AE5858243858344900B78E043
:1034CD00FAA3E0FDBAFF0DBDFF0A900B78E543F0BE
:1034DD00E544A3F0900B6CE0704B900B76E0FAA3F3
:1034ED00E0FDC3E5439AE5449D503A900B76EAC35F
:1034FD009543F0ED9544A3F0900B76E0FAA3E0FD33
:10350D008A068D071ABAFF011DEE4F6010758220D5
:10351D00C005C00212310DD002D00580E3900B76AC
:10352D00EAF0EDA3F0900B78E0F546A3E0F54790B7
:10353D000B58E0FAA3E0FDA3E0FF8A828D838FF0A4
:10354D00123B1DF545603CC3E4954674808547F0FC
:10355D0063F08095F0502C154674FFB54602154763
:10356D0085458212310D900B58E0FAA3E0FDA3E0E2
:10357D00FF0ABA00010D900B58EAF0EDA3F0EFA38E
:10358D00F080AC900B6CE070030236B1900B76E0DE
:10359D00FEA3E0FFC3E5439EE5449F40030236B121
:1035AD00900B76EEC39543F0EF9544A3F0900B7618
:1035BD00E0FEA3E0FF8E028F051EBEFF011FEA4D48
:1035CD0070030236A9758220C007C00612310DD0D6
:1035DD0006D00780E0900B69E024FDFDF08D01879A
:1035ED004809874909874A1919900B58E548F0E5AC
:1035FD0049A3F0E54AA3F0900B5AE0FDBD800040D1
:10360D0008900B7C7443F08020BD60004008900B47
:10361D007C7450F08013BD40004008900B7C7449C1
:10362D00F08006900B7C7458F0900B7CE0FDF582D9
:10363D00C00512310D75823A12310D75823012317D
:10364D000D75827812310DD005BD4902800EBD5029
:10365D00028009900B59E0F582123168900B58E009
:10366D00F582123168803D900B707401F0900B75EE
:10367D00740AF0802F900B757408F08027900B75ED
:10368D00740AF0801F900B757410F08017900B73F7
:10369D007401F0800F8B8212310D8008900B76EE45
:1036AD00F0EFA3F0900B73E06071900B69E024FCD8
:1036BD00FFF08F0187030987050987060987071919
:1036CD001919900B58EBF0EDA3F0EEA3F0EFA3F06A
:1036DD00900B5874A3F07441A3F07480A3F0900B79
:1036ED0058E0F548A3E0F549A3E0F54A74012548F3
:1036FD00FAE43549FBAF4A900B58EAF0EBA3F0EF33
:10370D00A3F0854882854983854AF0123B1DFF70E1
:10371D000302321C8F8212310D80C3900B75E07045
:10372D000302321C900B71E06047900B69E014F9B5
:10373D00F087077E007D007B00900B58EFF0EEA325
:10374D00F0EDA3F0EBA3F0900B70E060030237F403
:10375D00900B58E0FBA3E0A3E0A3E07D007E007F8B
:10376D0000900B58EBF0EDA3F0EEA3F0EFA3F0807B
:10377D0076900B72E06028900B69E024FCFFF08FCF
:10378D000187030987050987060987071919199004
:10379D000B58EBF0EDA3F0EEA3F0EFA3F080489003
:1037AD000B69E024FEFFF08F01870609870719EFEB
:1037BD003395E0FDFB900B58EEF0EFA3F0EDA3F089
:1037CD00EBA3F0900B70E0701E900B58E0FBA3E0A4
:1037DD00FDA3E0A3E07E007F00900B58EBF0EDA37E
:1037ED00F0EEA3F0EFA3F0900B70E06041900B585A
:1037FD00E0FBA3E0FDA3E0FEA3E0FF30E72B900B81
:10380D0058E0FBA3E0FDA3E0FEA3E0FFC3E49BFBB8
:10381D00E49DFDE49EFEE49FFF900B58EBF0EDA3BD
:10382D00F0EEA3F0EFA3F08005900B70E4F0900B99
:10383D00747401F0900B75E0F546754B82754C0B69
:10384D00E4F543F544900B5CE4F085468212318437
:10385D00900B74E07026900B5CE0C4F548854B82AC
:10386D00854C83E0FFE5484207854B82854C83EF0D
:10387D00F0154B74FFB54B02154C800C900B5CE0B2
:10388D00FF854B82854C83F00543E4B54302054427
:10389D00900B74E0B40100E433F0900B58E0FAA300
:1038AD00E0FBA3E0FEA3E0FFEA4B4E4F7097900BB9
:1038BD0083E54BF0E54CA3F0900B7AE543F0E5443E
:1038CD00A3F0900B76E0F5F0A3E045F07009900BB6
:1038DD00767401F0E4A3F0900B6DE0FFE07047907B
:1038ED000B6CE0704185434B85444C900B76E0FAB0
:1038FD00A3E0FBC007AF4B0F8F067F00C3EE9AEF1F
:10390D009BD0075019758220C007C003C002123129
:10391D000DD002D003D0071ABAFF011B80D5900B32
:10392D0076EAF0EBA3F0900B70E0602075822DC06D
:10393D000712310DD007900B76E024FFFDA3E03484
:10394D00FFFE900B76EDF0EEA3F08056900B7AE033
:10395D00F5F0A3E045F0604A900B6EE060207582B3
:10396D002BC00712310DD007900B76E024FFFDA37D
:10397D00E034FFFE900B76EDF0EEA3F08024900B7B
:10398D006FE0601E758220C00712310DD007900BBD
:10399D0076E024FFFDA3E034FFFE900B76EDF0EE14
:1039AD00A3F0900B6CE07048900B7AE0F54BA3E020
:1039BD00F54C900B76E0FAA3E0FBC0078A068B0767
:1039CD001ABAFF011BC3E54B9EE54C9FD007505320
:1039DD00EF60067D307E0080047D207E008D82C0EC
:1039ED0007C003C00212310DD002D003D00780CA28
:1039FD00900B76E0FEA3E0FF900B7AE0F54BA3E091
:103A0D00F54CC3E54B9EE54C9F500F900B76EEC3E6
:103A1D00954BF0EF954CA3F08011900B76E4F0A34D
:103A2D00F08008900B76EAF0EBA3F0900B83E0FEAC
:103A3D00A3E0FF900B7AE0F54BA3E0F54CAA4BAD5C
:103A4D004C154B74FFB54B02154CEA4D6045900B70
:103A5D0074E0B40100E433F0900B74E070140EBE0A
:103A6D0000010F8E828F83E0C4540FFD900B5CF02C
:103A7D00800E8E828F83E0FD53050F900B5CEDF071
:103A8D00900B5CE0F582C007C006123148D006D01D
:103A9D000780AA900B6CE0700302321C900B76E04D
:103AAD00FEA3E0FF8E038F051EBEFF011FEB4D70C1
:103ABD000302321C758220C007C00612310DD006DC
:103ACD00D00780E08C8212310D02321C900B5DE02C
:083ADD00FEA3E08E82F58322B6
:0B41A3003C4E4F20464C4F41543E0064
:103AE500AA82AB83123B1D6003A380F8C3E5829ACB
:103AF500F582E5839BF58322AA83AB828BF0900B3D
:103B050085E0A4F8A9F08AF0E0A429F98BF0A3E0F8
:083B1500A429F5838882222215
:0D000800758151123B39E58260030200034F
:103B1D0020F71430F6148883A88220F507E6A883D1
:103B2D0075830022E280F7E49322E0227582002261
:00000001FF
