:03000000020008F3
:0300670002000391
:0300030002006A8E
:10006A001200FB9006007401F0E4A3F09042407580
:10007A00F00FE412011390C20075F001E41201AE10
:10008A007401C0E0743BC0E07480C0E012309F1578
:10009A0081158115817582001212917582011212E1
:1000AA0091120741740AC0E0743BC0E07480C0E05A
:1000BA0012309F158115811581900B23E4F0A3F06E
:1000CA00900B25F0900B26F0900B27F0900B28F060
:1000DA00A3F0758208122D12E5C120E6098508826F
:1000EA00850983120006122C68122AD41213398049
:0100FA00E71E
:103B0100537461727475700A0052656164790A00B8
:060061007508007509F4AA
:1000FB0075A15575A1AA53B3E043B30675B2D87574
:10010B00A1FF9000070206D0AF82AE83ADF0FC904A
:10011B000602EFF0EEA3F0EDA3F0ECA3F0900600D7
:10012B00E0F5F0A3E045F0600C43C60143C408437F
:10013B00C50C43CE10C29FD29EC29DD29C438780DA
:10014B00900602E0FCA3E0FDA3E0FEA3E0FF900B12
:10015B003FECF0EDA3F0EEA3F0EFA3F0908D8075E4
:10016B00F05BE4122F42AC82AD830CBC00010DEDB1
:10017B00C313CC13CC740F55894420F58943C9A004
:10018B00C3E49CFC8C8DD28ED2992210980280FBFA
:10019B0085998222E582900606F0E0F5993099FD6B
:1001AB00D29922AF82AE83ADF0FC900607EFF0EE52
:1001BB00A3F0EDA3F0ECA3F075930075912075936C
:1001CB0080759704900B37E597F0E4A3F0A3F0A3A9
:1001DB00F0908D8075F05BE4122E86AC82AD83AE11
:1001EB00F0FF900607E0F8A3E0F9A3E0FAA3E0FB29
:1001FB00900B3FE8F0E9A3F0EAA3F0EBA3F08C82BD
:10020B008D838EF0EF122F42AC82AD830CBC0001BC
:10021B000D8C9A8D9175920175930322E59530E0C3
:10022B00FB859A8222E58290060BF0E59530E5FB83
:10023B0090060BE0F59A22E58290060EF090060FE1
:10024B0074C4F07400A3F07440A3F090061274BA57
:10025B00F07400A3F07440A3F090061574BCF07416
:10026B0000A3F07440A3F090061874BEF07400A3C2
:10027B00F07440A3F090061B74C5F07400A3F074E7
:10028B0040A3F090061E74BBF07400A3F07440A35F
:10029B00F090062174BDF07400A3F07440A3F090AD
:1002AB00062474BFF07400A3F07440A3F090060D05
:1002BB00E0FF24F9500122EF2F2F9002C9730202A5
:1002CB00DE0203610203E60204410204C302054994
:1002DB000205CD90060EE0FFFE8EF005F074018056
:1002EB000225E0D5F0FBF4ADC65DF5C6EF75F00366
:1002FB00A4FFAEF0240FF582EE3406F583E0FBA3EA
:10030B00E0FCA3E0FD8B828C838DF0123AE1FA9036
:10031B00060CE0F989F005F07401800225E0D5F0B8
:10032B00FBF4F952028B828C838DF0EA123036EF9C
:10033B00241BF582EE3406F583E0FDA3E0FEA3E07B
:10034B00FF8D828E838FF0123AE152018D828E8364
:10035B008FF0E902303690060EE0FFFE8EF005F0CE
:10036B007401800225E0D5F0FBF4ADC65DF5C6EF58
:10037B0075F003A4FFAEF0240FF582EE3406F5837F
:10038B00E0FBA3E0FCA3E0FD8B828C838DF0123AA3
:10039B00E1FA90060CE0F989F005F0740180022572
:1003AB00E0D5F0FBF9F4F8EA52008B828C838DF0E8
:1003BB00E8123036EF241BF582EE3406F583E0FDB0
:1003CB00A3E0FEA3E0FF8D828E838FF0123AE14211
:1003DB00018D828E838FF0E902303690060EE0FF9E
:1003EB00FE8EF005F07401800225E0D5F0FBF4AD34
:1003FB00C65DF5C6EF75F003A4240FF582740635C0
:10040B00F0F583E0FDA3E0FEA3E0FF8D828E838FEA
:10041B00F0123AE1FC90060CE0FB8BF005F0740156
:10042B00800225E0D5F0FBF4FBEC42038D828E833A
:10043B008FF0EB02303690060EE0FFFE8EF005F0EB
:10044B007401800225E0D5F0FBADC64DF5C6EF7506
:10045B00F003A4FFAEF0240FF582EE3406F583E033
:10046B00FBA3E0FCA3E0FD8B828C838DF0123AE1C1
:10047B00FA90060CE0F989F005F07401800225E092
:10048B00D5F0FBF4F952028B828C838DF0EA12309B
:10049B0036EF241BF582EE3406F583E0FDA3E0FE78
:1004AB00A3E0FF8D828E838FF0123AE152018D8291
:1004BB008E838FF0E902303690060EE0FFFE8EF051
:1004CB0005F07401800225E0D5F0FBADC64DF5C6F5
:1004DB00EF75F003A4FFAEF0240FF582EE3406F5B2
:1004EB0083E0FBA3E0FCA3E0FD8B828C838DF012F9
:1004FB003AE1FA90060CE0F989F005F074018002FC
:10050B0025E0D5F0FBF942028B828C838DF0EA1249
:10051B003036EF241BF582EE3406F583E0FDA3E0C5
:10052B00FEA3E0FF8D828E838FF0123AE1FCE9F49B
:10053B00F9EC52018D828E838FF0E90230369006F2
:10054B000EE0FFFE8EF005F07401800225E0D5F081
:10055B00FBADC64DF5C6EF75F003A4FFAEF0240F4F
:10056B00F582EE3406F583E0FBA3E0FCA3E0FD8B04
:10057B00828C838DF0123AE1FA90060CE0F989F047
:10058B0005F07401800225E0D5F0FBF9F4F8EA528E
:10059B00008B828C838DF0E8123036EF241BF582B2
:1005AB00EE3406F583E0FDA3E0FEA3E0FF8D828E23
:1005BB00838FF0123AE142018D828E838FF0E90234
:1005CB00303690060EE0FFFE8EF005F074018002CF
:1005DB0025E0D5F0FBADC64DF5C6EF75F003A4FFD6
:1005EB00AEF0240FF582EE3406F583E0FBA3E0FCBE
:1005FB00A3E0FD8B828C838DF0123AE1FA90060C0E
:10060B00E0F989F005F07401800225E0D5F0FBF9E3
:10061B0042028B828C838DF0EA123036EF241BF56D
:10062B0082EE3406F583E0FDA3E0FEA3E0FF8D82AE
:10063B008E838FF0123AE142018D828E838FF0E927
:10064B00023036AF83E582900627F0EFA3F01099C6
:10065B000280FB900627E0FEA3E0FF8E998E828F2F
:10066B00832210980280FBAE997F008E828F8322AB
:10067B00AF83E582900629F0EFA3F0900629E0FE08
:10068B00A3E0FFEE4F603505A105A105A105A1056E
:10069B00A105A105A105A105A105A105A105A1051F
:1006AB00A105A105A105A105A105A105A11EBEFFDF
:1006BB00011F900629EEF0EFA3F080C7900629EEFC
:1006CB00F0EFA3F022AF83E58290062BF0EFA3F0BF
:1006DB0090062BE0FEA3E0FFEE4F601D9003E8C0F9
:1006EB0007C00612067BD006D0071EBEFF011F9067
:1006FB00062BEEF0EFA3F080DF90062BEEF0EFA3CE
:10070B00F022E582900834F0E0FF75F003A4FDAE13
:10071B00F0242EF582EE3408F583E4F0ED242EFD63
:10072B00EE3408FE8D828E83A3E4F0EF600475E552
:10073B00002275E40022C2EA75E28075E300902482
:10074B00477448F090244CE4F0A3F090244E04F04E
:10075B00E4A3F0F5D4F5D675E28975D24075D8FFD0
:10076B0075820012070D75820112070D75E10322C8
:10077B00E582900835F0E5E35480FFE0547F4FF5B8
:10078B00E322E582900836F0E0600753E2BF53D2D4
:10079B007F2243E24022E582900837F090062D74C9
:1007AB0008F075820012077B75820112078D900885
:1007BB0037E0FFE0701374FB55E44402F5E490005E
:1007CB000F1206D053E4FD8014BF011174FB55E5E5
:1007DB004402F5E590000F1206D053E5FD9000FAA8
:1007EB0012067BC2D822E582900838F0E075F00340
:1007FB00A4242EFE740835F0FF8E828F83E0FDBD9E
:10080B00010050078E828F837401F0900838E0FF4F
:10081B007049E5DB20E3030208AFE5E420E035E5B2
:10082B00DB30E21AEF75F003A4242EFD740835F0CB
:10083B00FE8D828E83A3A3E4F043E4048016EF7550
:10084B00F003A4242EFD740835F0FE8D828E83A355
:10085B00A37401F043E40175820022BF0146E5DB7E
:10086B0030E741E5E520E035E5DB30E61AEF75F0E2
:10087B0003A4242EFD740835F0FE8D828E83A3A372
:10088B00E4F043E5048016EF75F003A4242EFE7408
:10089B000835F0FF8E828F83A3A37401F043E5012B
:1008AB007582002275821622E58290083AF0E07577
:1008BB00F003A4242EFE740835F0FF8E828F83A3E1
:1008CB00E0F582C007C00612077BD006D0078E82E8
:1008DB008F83A3A3E0F58202078DE58290083EF09B
:1008EB0090083BE0FF8FD48FD690083FE4F0A3F045
:1008FB0090083EE0FEC4540FFDBD0103ED8001E402
:10090B00F50DE4BD090104F50E90083CE0F9A3E0F8
:10091B00FA8ED5C2D9750AC8750B00E50A450B606E
:10092B002820D925900001C007C006C005C002C011
:10093B000112067BD001D002D005D006D007150AD4
:10094B0074FFB50A02150B80D275D50020D904753A
:10095B0082FE2220D903020A5D30DE04758200225A
:10096B00E5D9540FF50C740EB50C0474018001E439
:10097B00F50A60077420450CF58222740AB50C0445
:10098B0074018001E4F86033E94A700A7420450C65
:10099B00F50D850D8222C3E994FFEA94FF500519EA
:1009AB00B9FF011A90083FE024FFFBA3E034FFFCE2
:1009BB0090083FEBF0ECA3F0020A60E50D700CE53C
:1009CB000E7034BD0D028003020A5930DE047582AD
:1009DB0000227402B50C0475820022E50A7003E84C
:1009EB0060077420450CF58222E50C7003020A6047
:1009FB007420450CF5822230DE0475820022EF60F4
:100A0B0011740BB50C0474018001E424FFE433FC76
:100A1B0080107403B50C0474018001E4FB24FFE423
:100A2B0033FCEC600475820022E50A7003E8600772
:100A3B007420450CF582227403B50C07740BB50CAE
:100A4B00028012E50C600E7420450CF58222758233
:100A5B00FE2275D8FF90000FC007C006C005C0026C
:100A6B00C00112067BD001D002D005D006D0079072
:100A7B00083FE02401F0A3E03400F090083FE0FBD6
:100A8B00A3E0FCC3EB94C8EC9400500302091C7563
:100A9B00822022AF83E582900846F0EFA3F07451D9
:100AAB00C0E0743BC0E07480C0E012309F1581152C
:100ABB00811581900846E0FEA3E0FF90084AEEF016
:100ACB00EFA3F0900841E0FBA3E0FCA3E0FD900056
:100ADB00C8C007C006C005C004C00312067BD00304
:100AEB00D004D005D006D007EB4C600E8B828C83E4
:100AFB008DF0E4123036A312303675D70890083BD0
:100B0B00E4F090083C7410F07427A3F07582D0C009
:100B1B0007C006C005C004C0031208E5AA82D003B3
:100B2B00D004D005D006D007EA60038A8222C00623
:100B3B00C00775D6D075D4D075D701900107E0FAF0
:100B4B007900900106E0F87F0049F50FEF4AF510A8
:100B5B00900848E50FF0E510A3F0D007D006E50F9D
:100B6B0045107003020E29EE4F7003020E299001FF
:100B7B0000E0FF20E703020CC1C005C004C003C0A6
:100B8B000FC0107463C0E0743BC0E07480C0E0120F
:100B9B00309FE58124FBF581D003D004D00590086C
:100BAB0048E0FEA3E0FF4E7003020CBB90012CC08B
:100BBB0007C006C005C004C00312067B90083BE5C6
:100BCB00D4F090083C7410F07427A3F07582901247
:100BDB0008E5AA82D003D004D005D006D007EA607E
:100BEB00038A8222A9D17A00C3E99EEA9F5006A903
:100BFB00D17A0080048E018F0289067F009008480D
:100C0B00E0F8A3E0FA900848E8C39EF0EA9FA3F04F
:100C1B00EB4C60248B828C838DF0123AE1F8A3129B
:100C2B003AE1FAEE28FEEF3AFF8B828C838DF0EEE1
:100C3B00123036A3EF12303690084AE0FEA3E0FFE5
:100C4B007A00C3EA99501CC001EA2EF511E43FF576
:100C5B00128A82758300E0851182851283F00AD097
:100C6B000180DF90084AE0FEA3E0FF90084AE92EDE
:100C7B00F0E43FA3F0AED17F00C005C004C003C0B9
:100C8B0006C007747FC0E0743BC0E07480C0E01204
:100C9B00309FE58124FBF581D003D004D005E5D14D
:100CAB00600E90062DE0FFC3E5D19F4003020BA918
:100CBB0075D700020E29C005C004C003C00FC010B9
:100CCB007492C0E0743BC0E07480C0E012309FE5CA
:100CDB008124FBF581D003D004D005900848E0FEB9
:100CEB00A3E0FF4E7003020E299000C8C007C00698
:100CFB00C005C004C00312067BD003D004D005D0BE
:100D0B0006D00790062DE0F97A00C3EE99EF9A50C2
:100D1B00048E018F0289D790084AE0FEA3E0FFE51D
:100D2B00D72EFEE43FFF90084AEEF0EFA3F08E8241
:100D3B008F83A3E0FABA0956900B86E0F97A007418
:100D4B0001697003EA600679017A00800479007A00
:100D5B0000900B86E9F08E828F83E9F0900B86E092
:100D6B00FF7E007A00C005C004C003C007C006C0E8
:100D7B0001C00274AEC0E0743BC0E07480C0E012EE
:100D8B00309FE58124F9F581D003D004D005AED78F
:100D9B007F00C005C004C003C006C00774C4C0E018
:100DAB00743BC0E07480C0E012309FE58124FBF5FA
:100DBB008190083BE5D6F090083C7410F07427A3A3
:100DCB00F07582101208E5AF82D003D004D005EF86
:100DDB0060038F8222AED77F00900848E0F9A3E032
:100DEB00FA900848E9C39EF0EA9FA3F0EB4C70031E
:100DFB00020CE68B828C838DF0123AE1FEA3123A41
:100E0B00E1FFA9D77A00E92EFEEA3FFF8B828C83A4
:100E1B008DF0EE123036A3EF123036020CE6900056
:100E2B00C812067BE5D760047F9080027F10900884
:100E3B003B74C0F090083C7410F07427A3F08F82C1
:100E4B001208E5E582FF60038F8222E5D77003F578
:100E5B008222E5D17003F5822275821722AF83E5DA
:100E6B008290084DF0EFA3F090084CE0FFFD7E0060
:100E7B00C007C006C005C005C00674D6C0E0743BF1
:100E8B00C0E07480C0E012309FE58124FBF581D077
:100E9B0005D006D00790084DE0FBA3E0FC7A00C319
:100EAB00EA9F501EC005C0068A007901EA2BF58225
:100EBB00E43CF583E49388828983F00AD006D0055D
:100ECB0080DDC005C00674EDC0E0743BC0E07480EB
:100EDB00C0E012309FE58124FBF5812290062D7432
:100EEB0008F07400C0E0743CC0E07480C0E01230C5
:100EFB009F15811581158190084C7408F0903B115A
:100F0B00120E68900841744FF07408A3F0E4A3F03C
:100F1B00900844F07402A3F090062E120A9EE5820C
:100F2B00FF60038F82227415C0E0743CC0E07480B4
:100F3B00C0E012309F158115811581900635E09028
:100F4B00062DF0903B17E493FF90084FE0FDA3E0D4
:100F5B00FE7C00C3ED9FEE9C50197442C0E0743CC4
:100F6B00C0E07480C0E012309F158115811581752A
:100F7B0082172275820022E582900851F090084C6E
:100F8B007408F0903B29120E68900851E0FF900115
:100F9B0002F0900841E4F0A3F0A3F0900844F0A312
:100FAB00F0900000C007120A9EAE82D007EE6003DD
:100FBB008E82228F057E00C007C005C006746CC0F0
:100FCB00E0743CC0E07480C0E012309FE58124FBEC
:100FDB00F581D0078F8212077B9000641206D075C3
:100FEB00820022E582900852F090084C7408F09031
:100FFB003B39120E68900852E0900102F0900841C4
:10100B00E4F0A3F0A3F0900844F0A3F090000002EA
:10101B000A9E90084C7408F0903B31120E689008B1
:10102B0041E4F0A3F0A3F0900844F07402A3F09015
:10103B00062E020A9EAF83E582900858F0EFA3F0CC
:10104B00900858E0FEA3E0FF8E828F83E07C0024A3
:10105B00FEFDEC34FFA2E713CD13CD8E828F83A35D
:10106B00E0FCBC0302800475820022900855E0FB73
:10107B00A3E0FCEB24FFF515EC34FFF516900853B9
:10108B00E0F517A3E0F5188517138518147800C33E
:10109B00E89D5063C00588047D00C3EC9515ED9564
:1010AB0016D0055052C00588037C00EB2BFBEC33AC
:1010BB00FC74032BFAE43CFDEA2EFAED3FFD8A8229
:1010CB008D83E0D005600FE82513F582E43514F528
:1010DB0083743FF0801EE82517F9E43518FA740283
:1010EB002BFBE43CFCEB2EF582EC3FF583E0FC891B
:1010FB00828A83F0088098E82517F582E43518F585
:10110B0083E4F07F00900857E0FE0E900B23EDF088
:10111B00EFA3F0900B25EEF0900B267434F0900BB0
:10112B00277456F0900B28E517F0E518A3F075829D
:10113B0005122D1275820122AF83E58290085AF0B9
:10114B00EFA3F090085AE0FEA3E0FF7C007D008E39
:10115B00828F83E0FB7A00C3EC9BED64808AF063A3
:10116B00F08095F0503CEC2EF582ED3FF583E0FBE3
:10117B007A00C007C006C005C004C003C002747C5F
:10118B00C0E0743CC0E07480C0E012309FE5812465
:10119B00FBF581D004D005D006D0070CBC00B00DF8
:1011AB0080AD7484C0E0743CC0E07480C0E0123049
:1011BB009F1581158115812290084C7408F0903B86
:1011CB0019120E68900841745CF07408A3F0E4A344
:1011DB00F0900844F07402A3F090062E120A9EE5DC
:1011EB0082FF60038F8222903B1FE493FF90085C89
:1011FB00E0FDA3E0FE7C00C3ED9FEE9C50047582E6
:10120B001722900630E0FF7E00900631E0FCE42FC1
:10121B00FFEC3EFE90084C7408F0903B19C007C0E1
:10122B0006120E68D006D0078F048E05900106ECCF
:10123B00F08E07900107EFF0900841745CF0740892
:10124B00A3F0E4A3F0900844F07402A3F090062EF0
:10125B00120A9EE582FF60038F8222758200229024
:10126B00084C7408F0903B21120E68900841745E94
:10127B00F07408A3F0E4A3F0900844F07402A3F018
:10128B0090062E020A9EE5829008C0F0E0FF75F0F2
:10129B0010A4FDAEF024A0F582EE3408F583E4F043
:1012AB00A3F0A3F0A3F0ED24A0FDEE3408FE8D8295
:1012BB008E83A3A3A3A3E4F0A3F0A3F0A3F074087D
:1012CB002DF582E43EF583E4F0A3F0A3F0A3F074D4
:1012DB000C2DF582E43EF583E4F0A3F0A3F0A3F02C
:1012EB007E00EE75F008A42460FC740835F0FD74E4
:1012FB00012CFAE43DFB8A828B83E0B507298C82B3
:10130B008D83E4F08A828B83F08C828D83A3A3F090
:10131B008C828D83A3A3A3F08C828D83A3A3A3A321
:10132B00F0A3F0A3F0A3F00EBE080040B5227F009F
:10133B00EF75F008A4FDAEF02460FBEE3408FC8BD7
:10134B00828C83E070030214E6ED2460FDEE34081A
:10135B00FE8D828E83A3E0FC900839E4F08C82C072
:10136B0007C006C0051208B3D005D006D0078D8282
:10137B008E83A3A3A3E0FE747F5E4490FDEE30E763
:10138B00067CC07E0080047C007E0090083BECF065
:10139B0090083CE4F0A3F08D82C0071208E5E582CB
:1013AB00D00760030214E6EF75F008A42460F52063
:1013BB00740835F0F52174032520FBE43521FC8BF3
:1013CB00828C83E0F97A006301808B828C83E9F055
:1013DB009008C1E5D1F0E0F519E070030214E6B214
:1013EB00968B828C83E0F87900747F58F51A891BF1
:1013FB008F1C891D74042520F51EE43521F51F85EE
:10140B001E82851F83E0F8A3E0F9A3E0FAA3E0FEB8
:10141B00C007C004C003C01AC01BC01CC01DC00045
:10142B00C001C002C0067486C0E0743CC0E074808A
:10143B00C0E012309FE58124F5F581D003D004D0B4
:10144B0007AA197E00851E82851F83E0FD8B828C87
:10145B0083E0FB53037F852082852183A3E075F016
:10146B0010A4F9ACF024A0F582EC3408F583E0F578
:10147B0020E924A0F9EC3408FC89828C83A3A3A374
:10148B00A3E0F51E740829F582E43CF583E0F874BB
:10149B000C29F582E43CF583E0FC900B2BEAF0EE93
:1014AB00A3F0900B2DEDF0900B2EEFF0900B2FEB9C
:1014BB00F0900B307400F07400A3F0900B32E52029
:1014CB00F0900B33E51EF0900B34E8F0900B35ECFD
:1014DB00F0758204C007122DC6D0070FBF0800504D
:1014EB000302133B22AF83E5829008C5F0EFA3F014
:1014FB009008C7E4F0A3F09008C9F09008CAF090E8
:10150B0008C4E075F008A42460FE740835F0FF9061
:10151B0008C5E0F528A3E0F529AA28AB299008C255
:10152B00E0F526A3E0F5279008C7E0F522A3E0F548
:10153B0023C3E5229526E5239527400122C006C04B
:10154B0007E5222528F582E5233529F583E0FF9071
:10155B0008CB74FC5FF074035FF5229008CCF0901D
:10156B0008CDE4F0A3F0A3F0A3F07403B52202803E
:10157B0006D007D006800BD007D0069008CCE5220A
:10158B0004F0C006C0079008C7E0FEA3E0FF74019B
:10159B002EF522E43FF5239008CCE0F524752500C9
:1015AB00D007D006C3E52595245054C006C007AE1E
:1015BB00257F00EE2522FEEF3523FFEE2AF582EF85
:1015CB003BF583E0F8E4F9FEFFE525C40354F8FD91
:1015DB008DF005F0800CE828F8E933F9EE33FEEFD7
:1015EB0033FFD5F0F19008CDE048F0A3E049F0A32C
:1015FB00E04EF0A3E04FF00525D007D00680A59074
:10160B0008C9E0FD9008CBE0FCE4BCC00104F52563
:10161B0079008D22752300E5256008752A01752B4D
:10162B00008005E4F52AF52BC006C007E522C3951B
:10163B002AF8E523952BFF89047E00C3EC98EE6412
:10164B00808FF063F08095F0D007D0065030C00744
:10165B00C006C005C003C002C001749DC0E0743C4D
:10166B00C0E07480C0E012309F158115811581D0C8
:10167B0001D002D003D005D006D007098094900882
:10168B00CBE0FDBD04028063BD08030218D6BD1478
:10169B0003021C60BD1803021D48BD2403021C9AE3
:1016AB00BD2803021D82BD3403021CD4BD440302BA
:1016BB001D0EBD6403021E3DBD7403021F25BD80BC
:1016CB0003021E77BD8403021F5FBD9003021EB190
:1016DB00BD9403021F99BDA003021DBCBDB0030244
:1016EB001EEBBDC003021DFD021FD29008CDE0F51D
:1016FB002CA3E0F52DA3E0F52EA3E0F52FC3E52DEC
:10170B0094FFE52E9400E52F9400400AE4F52C7528
:10171B002DFFF52EF52FC007C006C003C00274A223
:10172B00C0E0743CC0E07480C0E012309F1581159E
:10173B00811581D002D003D006D0077401B52C0DD2
:10174B0014B52D09B52E06B52F030218177407B55E
:10175B002C0CE4B52D08B52E05B52F02805E740850
:10176B00B52C0CE4B52D08B52E05B52F02802574CC
:10177B0009B52C0CE4B52D08B52E05B52F028064E8
:10178B00E4B52C0DB52E0AB52F07F4B52D030218B1
:10179B003E021877C007C006C003C00274AEC0E09B
:1017AB00743CC0E07480C0E012309F158115811528
:1017BB0081D002D003D006D0070218AEC007C006F6
:1017CB00C003C00274B3C0E0743CC0E07480C0E0DE
:1017DB0012309F158115811581D002D003D006D010
:1017EB00070218AEC007C006C003C00274C3C0E036
:1017FB00743CC0E07480C0E012309F1581158115D8
:10180B0081D002D003D006D0070218AEC007C006A5
:10181B00C003C00274CAC0E0743CC0E07480C0E076
:10182B0012309F158115811581D002D003D006D0BF
:10183B00078070C007C006C003C0029008CDE0C08F
:10184B00E0A3E0C0E0A3E0C0E0A3E0C0E074E3C02D
:10185B00E0743CC0E07480C0E012309FE58124F955
:10186B00F581D002D003D006D0078037C007C00661
:10187B00C003C0029008CDE0C0E0A3E0C0E0A3E04D
:10188B00C0E0A3E0C0E074FAC0E0743CC0E0748038
:10189B00C0E012309FE58124F9F581D002D003D04E
:1018AB0006D007C007C006C003C0027484C0E07432
:1018BB003CC0E07480C0E012309F1581158115810A
:1018CB00D002D003D006D0070220199008CAE070CE
:1018DB0036C002C00374042EF52CE43FF52D90089E
:1018EB00CDE0F8A3E0FAA3E0FBA3E0FC852C828516
:1018FB002D83E8F0EAA3F0EBA3F0ECA3F09008CA79
:10190B007401F0D003D002C007C006C003C002743C
:10191B000AC0E0743DC0E07480C0E012309F1581B6
:10192B0015811581D002D003D006D0079008CDE0E9
:10193B00F52CA3E0F52DA3E0F52EA3E0F52FC37452
:10194B0038952CE4952DE4952EE4952F5003021C2D
:10195B000BE52C240B83F582E52C243D83F583E4E6
:10196B0073DE062E567EA6CEF61E460B0B0B0B0B0E
:10197B000B0B0B0B0B0B0B0B0B0B0B0B0B0B0B0BAC
:10198B000B0B0B0B0B0B0B0B0B0B0B0B0B0B0B0B9C
:10199B000B6E96BD0B0B0B0B0BE4191A1A1A1A1ABA
:1019AB001A1A1B1B1C1C1C1C1C1C1C1C1C1C1C1C72
:1019BB001C1C1C1C1C1C1C1C1C1C1C1C1C1C1C1C5C
:1019CB001C1C1C1C1C1C1C1C1C1C1B1B1B1C1C1C4F
:1019DB001C1C1BC007C006C003C0027411C0E074FE
:1019EB003DC0E07480C0E012309F158115811581D8
:1019FB00D002D003D006D007021C38C007C006C0E7
:101A0B0003C0027419C0E0743DC0E07480C0E012E2
:101A1B00309F158115811581D002D003D006D007D8
:101A2B00021C38C007C006C003C0027421C0E0749A
:101A3B003DC0E07480C0E012309F15811581158187
:101A4B00D002D003D006D007021C38C007C006C096
:101A5B0003C0027427C0E0743DC0E07480C0E01284
:101A6B00309F158115811581D002D003D006D00788
:101A7B00021C38C007C006C003C0027430C0E0743B
:101A8B003DC0E07480C0E012309F15811581158137
:101A9B00D002D003D006D007021C38C007C006C046
:101AAB0003C0027439C0E0743DC0E07480C0E01222
:101ABB00309F158115811581D002D003D006D00738
:101ACB00021C38C007C006C003C0027441C0E074DA
:101ADB003DC0E07480C0E012309F158115811581E7
:101AEB00D002D003D006D007021C38C007C006C0F6
:101AFB0003C002744AC0E0743DC0E07480C0E012C1
:101B0B00309F158115811581D002D003D006D007E7
:101B1B00021C38C007C006C003C0027451C0E07479
:101B2B003DC0E07480C0E012309F15811581158196
:101B3B00D002D003D006D007021C38C007C006C0A5
:101B4B0003C0027467C0E0743DC0E07480C0E01253
:101B5B00309F158115811581D002D003D006D00797
:101B6B00021C38C007C006C003C002747EC0E074FC
:101B7B003DC0E07480C0E012309F15811581158146
:101B8B00D002D003D006D007021C38C007C006C055
:101B9B0003C0027480C0E0743DC0E07480C0E012EA
:101BAB00309F158115811581D002D003D006D00747
:101BBB00807BC007C006C003C0027482C0E0743DC6
:101BCB00C0E07480C0E012309F158115811581D063
:101BDB0002D003D006D0078054C007C006C003C094
:101BEB00027484C0E0743DC0E07480C0E012309F8A
:101BFB00158115811581D002D003D006D007802D19
:101C0B00C007C006C003C002C02CC02DC02EC02F01
:101C1B0074FAC0E0743CC0E07480C0E012309FE501
:101C2B008124F9F581D002D003D006D007C007C0BC
:101C3B0006C003C0027484C0E0743CC0E07480C072
:101C4B00E012309F158115811581D002D003D0068B
:101C5B00D007022019C007C006C003C0029008CDF0
:101C6B00E0C0E0A3E0C0E0A3E0C0E0A3E0C0E0740C
:101C7B008AC0E0743DC0E07480C0E012309FE58103
:101C8B0024F9F581D002D003D006D007022019C069
:101C9B0007C006C003C0029008CDE0C0E0A3E0C0BF
:101CAB00E0A3E0C0E0A3E0C0E0749BC0E0743DC0E3
:101CBB00E07480C0E012309FE58124F9F581D002F9
:101CCB00D003D006D007022019C007C006C003C03E
:101CDB00029008CDE0C0E0A3E0C0E0A3E0C0E0A329
:101CEB00E0C0E074ACC0E0743DC0E07480C0E012B2
:101CFB00309FE58124F9F581D002D003D006D007BF
:101D0B00022019C007C006C003C0029008CDE0C076
:101D1B00E0A3E0C0E0A3E0C0E0A3E0C0E074BEC07D
:101D2B00E0743DC0E07480C0E012309FE58124F97F
:101D3B00F581D002D003D006D007022019C007C00E
:101D4B0006C003C0029008CDE0C0E0A3E0C0E0A352
:101D5B00E0C0E0A3E0C0E074ACC0E0743DC0E07450
:101D6B0080C0E012309FE58124F9F581D002D003C9
:101D7B00D006D007022019C007C006C003C00290CE
:101D8B0008CDE0C0E0A3E0C0E0A3E0C0E0A3E0C06A
:101D9B00E074BEC0E0743DC0E07480C0E012309FC0
:101DAB00E58124F9F581D002D003D006D0070220BB
:101DBB0019C007C006C003C0029008CDE0C0E0A365
:101DCB00E0C0E0A3E0C0E0A3E0C0E074D0C0E074EA
:101DDB003DC0E07480C0E012309FE58124F9F581AD
:101DEB00D002D003D006D0079008C9E02401F0023E
:101DFB002019C007C006C003C0029008CDE0C0E0A8
:101E0B00A3E0C0E0A3E0C0E0A3E0C0E074E6C0E064
:101E1B00743DC0E07480C0E012309FE58124F9F579
:101E2B0081D002D003D006D0079008C9E014F0028D
:101E3B002019C007C006C003C0029008CDE0C0E067
:101E4B00A3E0C0E0A3E0C0E0A3E0C0E074FAC0E010
:101E5B00743DC0E07480C0E012309FE58124F9F539
:101E6B0081D002D003D006D007022019C007C006CC
:101E7B00C003C0029008CDE0C0E0A3E0C0E0A3E047
:101E8B00C0E0A3E0C0E07408C0E0743EC0E0748022
:101E9B00C0E012309FE58124F9F581D002D003D048
:101EAB0006D007022019C007C006C003C002900865
:101EBB00CDE0C0E0A3E0C0E0A3E0C0E0A3E0C0E061
:101ECB007417C0E0743EC0E07480C0E012309FE530
:101EDB008124F9F581D002D003D006D00702201956
:101EEB00C007C006C003C0029008CDE0C0E0A3E06D
:101EFB00C0E0A3E0C0E0A3E0C0E07427C0E0743E04
:101F0B00C0E07480C0E012309FE58124F9F581D0E8
:101F1B0002D003D006D007022019C007C006C003A9
:101F2B00C0029008CDE0C0E0A3E0C0E0A3E0C0E0B9
:101F3B00A3E0C0E07438C0E0743EC0E07480C0E041
:101F4B0012309FE58124F9F581D002D003D006D061
:101F5B0007022019C007C006C003C0029008CDE0DD
:101F6B00C0E0A3E0C0E0A3E0C0E0A3E0C0E07449A0
:101F7B00C0E0743EC0E07480C0E012309FE5812465
:101F8B00F9F581D002D003D006D007022019C00783
:101F9B00C006C003C0029008CDE0C0E0A3E0C0E0E3
:101FAB00A3E0C0E0A3E0C0E07458C0E0743EC0E022
:101FBB007480C0E012309FE58124F9F581D002D006
:101FCB0003D006D0078047A9247C008D007D00C07C
:101FDB0007C006C003C0029008CDE0C0E0A3E0C07C
:101FEB00E0A3E0C0E0A3E0C0E0C001C004C000C0BB
:101FFB0005746AC0E0743EC0E07480C0E012309F8C
:10200B00E58124F5F581D002D003D006D0079008E6
:10201B00CCE0FD7C000DBD00010C9008C7E0F8A3DF
:10202B00E0F99008C7ED28F0EC39A3F0021532E582
:10203B00829008D1F0E075F008A42460FE74083596
:10204B00F0FF74022EFEE43FFF8E828F83E0FD7C57
:10205B0000C007C006C005C00474AAC0E0743EC02F
:10206B00E07480C0E012309FE58124FBF58190087D
:10207B004C7408F0903B41120E68D006D0078E824C
:10208B008F83E0900104F090084174D2F07408A3A0
:10209B00F0E4A3F0900844F0A3F090062EC007C024
:1020AB0006120A9E90084C7408F0903B49120E6879
:1020BB00D006D0078E828F83E0900104F09001064A
:1020CB00E4F09001077402F090084174D2F07408A8
:1020DB00A3F0E4A3F0900844F07402A3F090062E52
:1020EB00120A9EE582FF60038F82227E007F0090A2
:1020FB0008D2E0FCA3E0FDC3EE9CEF9D5036EE242E
:10210B002EF582EF3406F583E0FD7C00C007C00698
:10211B00C005C004747CC0E0743CC0E07480C0E0B7
:10212B0012309FE58124FBF581D006D0070EBE004F
:10213B00BE0F80BB7484C0E0743CC0E07480C0E010
:10214B0012309F1581158115819008D2E0FEA3E016
:10215B00FF9008D1E0FD75F008A42460FB740835EE
:10216B00F0FC8B828C83A3A3E0FA8B828C83A3E09D
:10217B00FC900B23EEF0EFA3F0900B25EDF0900B02
:10218B0026EAF0900B27ECF0900B28742EF07406D7
:10219B00A3F0758207C005122D12D0059008D2E06E
:1021AB00FEA3E0FF9008C2EEF0EFA3F09008C4EDA1
:1021BB00F090062E1214F0758200229008D4E0FEE7
:1021CB00A3E0FF8E828F83A3A3E0FD7C00C007C03A
:1021DB0006C005C00474CFC0E0743EC0E07480C07C
:1021EB00E012309FE58124FBF581D006D0078E826B
:1021FB008F83A3A3A3A3A3E0FD7C00C007C006C0ED
:10220B0005C00474DDC0E0743EC0E07480C0E01211
:10221B00309FE58124FBF581D006D00774062EF59F
:10222B0082E43FF583E0FD7C00C007C006C005C01B
:10223B000474E9C0E0743EC0E07480C0E012309FCB
:10224B00E58124FBF581D006D00774072EF582E4D7
:10225B003FF583E0FF7E00C007C00674F9C0E07451
:10226B003EC0E07480C0E012309FE58124FBF58115
:10227B0022AF83E5829008D8F0EFA3F09008D8E066
:10228B00FEA3E0FF8E828F83A3A3E0FF7E00C00737
:10229B00C0067412C0E0743FC0E07480C0E012301E
:1022AB009FE58124FBF5819008D6E0FEA3E0FF8E2D
:1022BB00828F83A3A3E0FDFB53030F7C00EDC4547B
:1022CB000FFD7A008E828F83A3A3A3E0F853000F38
:1022DB007900C007C006C003C004C005C002C0001F
:1022EB00C0017427C0E0743FC0E07480C0E01230BE
:1022FB009FE58124F7F581D006D0078E828F83A3CB
:10230B00A3A3A3E0FD7C00C007C006C005C00474F6
:10231B0036C0E0743FC0E07480C0E012309FE581AE
:10232B0024FBF581D006D00774062EF582E43FF529
:10233B0083E0FF7E00C007C006744DC0E0743FC051
:10234B00E07480C0E012309FE58124FBF5812222EE
:10235B00E5829008DAF09008DBE4F09008DAE0FF11
:10236B00FEFD75F003A4F53085F0318F3575340023
:10237B00900064C007C006C0051206D0900064121E
:10238B0006D08535821212918535821207A1D005B0
:10239B00D006D0077800900001C007C006C005C06A
:1023AB00001206D0D000D005D006D0078F82C00710
:1023BB00C006C005C0001207F1E582D000D005D0E1
:1023CB0006D007600608B8640040CBB86441C0056E
:1023DB008F82C007C006C00512070DD005D006D0EE
:1023EB00078F007D00C007C006C005C000C0057484
:1023FB005DC0E0743FC0E07480C0E012309FE581A7
:10240B0024FBF581D005D006D007D005022AC2C027
:10241B0005900839E4F08E82C007C006C00512088B
:10242B00B3D005D0068E007D00C006C005C000C02D
:10243B00057480C0E0743FC0E07480C0E012309F30
:10244B00E58124FBF581D005120EE7AD82D006D0D5
:10245B00079008DBEDF0EDD0056003022A51C005B3
:10246B00900632E0F87D00C007C006C005C000C072
:10247B0005749AC0E0743FC0E07480C0E012309FD6
:10248B00E58124FBF581D005900635E0F87D00C091
:10249B0005C000C00574ABC0E0743FC0E07480C0E1
:1024AB00E012309FE58124FBF581D005D006EE7557
:1024BB00F010A4F8ADF024A0F532ED3408F533900C
:1024CB000636E0F97A007B007C0085328285338307
:1024DB00E9F0EAA3F0EBA3F0ECA3F0E824A0F8ED0D
:1024EB003408FD740428F532E43DF533900637E0EB
:1024FB00F97A007B007C00853282853383E9F0EA30
:10250B00A3F0EBA3F0ECA3F0740828F532E43DF54F
:10251B0033900638E0F97A007B007C0085328285A7
:10252B003383E9F0EAA3F0EBA3F0ECA3F0740C28EF
:10253B00F8E43DFD900639E0F97A007B007C0088D9
:10254B00828D83E9F0EAA3F0EBA3F0ECA3F0900605
:10255B002EC006C005121143D005D006903B2BE4CC
:10256B00932EF532853282C006120F82AD82D006D1
:10257B00D0079008DBEDF0EDD0056003022A51EE99
:10258B0075F003A4242EFB740835F0FC8B828C832E
:10259B00A3E532F0C007C006C00512101D90062E31
:1025AB00121143D005D006900853742EF07406A375
:1025BB00F0900855E4F07402A3F0900857EEF090F9
:1025CB00062EC006C005121040E582D005D006D0FD
:1025DB0007602CC007C006C005742EC0E07406C08F
:1025EB00E0E4C0E074BFC0E0743FC0E07480C0E0C2
:1025FB0012309FE58124FAF581D005D006D007C0B3
:10260B0007C006C0051211C3AC82D005D006D00797
:10261B009008DBECF0EC6003022A51900630E0FCF2
:10262B007B00900631E0FAE42CFCEA3BFB9008DAE5
:10263B00E0FA0A900B23ECF0EBA3F0900B25E532BC
:10264B00F0900B26EAF0900B2774AAF0900B2874ED
:10265B002EF07406A3F0758206122D12900ADEE49A
:10266B00F0A3F07B007C00900630E0FA8A327533E1
:10267B0000900631E0FAE42532F8EA3533FAC3EB81
:10268B0098EC9A5036EB242EF582EC3406F583E069
:10269B00F97A00C004C003C001C002747CC0E074AE
:1026AB003CC0E07480C0E012309FE58124FBF581D3
:1026BB00D003D0040BBB00AF0C80AC7484C0E074AF
:1026CB003CC0E07480C0E012309F158115811581EC
:1026DB00900633E0FCFA7B00C004C002C00374D246
:1026EB00C0E0743FC0E07480C0E012309FE58124ED
:1026FB00FBF581900632E0FB7A00C003C00274EB5D
:10270B00C0E0743FC0E07480C0E012309FE58124CC
:10271B00FBF581D0048C82120FEE900630E0FC7B2F
:10272B0000900631E0FAE42CFCEA3BFB8C018B02B7
:10273B00E4F532F533C3E53299E5339A502EC004F4
:10274B00C003E53224DEF8E5333408FCE532242EF1
:10275B00F582E5333406F583E088828C83F005320D
:10276B00E4B532020533D003D00480C990062EE0C5
:10277B00FA9008DCF0E4A3F09008DAE0F539A93917
:10278B008C368B379008DCE0F532A3E0F533C3E5EC
:10279B00329536E53395374003022A4DE53224DE78
:1027AB00F532E5333408F533900AE0E532F0E533E2
:1027BB00A3F0853282853383A3E0F8B80402801A34
:1027CB00B805028056B82103022952B82403022906
:1027DB00A8B825030229D4022A0088037C00C00173
:1027EB00C003C0047400C0E07440C0E07480C0E05B
:1027FB0012309FE58124FBF581D001AB32AC3390D5
:10280B000ADEEBF0ECA3F09008D4EBF0ECA3F0892C
:10281B0082C0011221C6D001022A28C00188017C86
:10282B0000C001C001C004741CC0E07440C0E0745F
:10283B0080C0E012309FE58124FBF58185328285D3
:10284B003383121143D001900ADEE0FBA3E0FC8B33
:10285B00828C83A3A3A3A3A3E0FCBC03028005D0BB
:10286B0001022A28AB32AC3374022BF53AE43CF567
:10287B003B853A82853B83E0D00120E703022A287F
:10288B00753800C001E53875F008A42460F97408A8
:10289B0035F0FA89828A83E0D0016008053874F834
:1028AB00253850DFC001A9387A00C001C001C00231
:1028BB007437C0E07440C0E07480C0E012309FE514
:1028CB008124FBF581D001E53875F008A42460F96B
:1028DB00740835F0FA740329F53CE43AF53D853A72
:1028EB0082853B83E0F53A853C82853D83F0898286
:1028FB008A837401F00429F53CE43AF53D900ADE35
:10290B00E0FBA3E0FC8B828C83A3A3E0853C828558
:10291B003D83F089828A83A3E539F0AB3A7C00C012
:10292B0001C003C0047459C0E07440C0E07480C09F
:10293B00E012309FE58124FBF58185388212203A25
:10294B00D001D001022A2888037C00C001C003C03B
:10295B00047480C0E07440C0E07480C0E012309F0B
:10296B00E58124FBF581D001900ADEE0FBA3E0FCBE
:10297B00900ADEE0F5F0A3E045F07003022A28C0D0
:10298B0001A932AA339008D6E9F0EAA3F08B828C26
:10299B0083C00112227CD001D001022A2888037C3B
:1029AB0000C001C003C0047496C0E07440C0E07462
:1029BB0080C0E012309FE58124FBF5818532828552
:1029CB003383121143D001805488037C00C001C0B3
:1029DB0003C00474BEC0E07440C0E07480C0E01259
:1029EB00309FE58124FBF58185328285338312117B
:1029FB0043D00180287C00C001C000C00474E8C033
:102A0B00E07440C0E07480C0E012309FE58124FB8D
:102A1B00F581853282853383121143D001900AE010
:102A2B00E0FBA3E0FC8B828C83E0FB7C009008DC5A
:102A3B00E0F8A3E0FA9008DCEB28F0EC3AA3F00204
:102A4B00278F758200229008DBE0FCFA7B00C00721
:102A5B00C006C005C004C002C003740AC0E07441C4
:102A6B00C0E07480C0E012309FE58124FBF581D07B
:102A7B0004D0058D030B900B23E4F0A3F0900B25F2
:102A8B00EBF0900B26ECF0900B2774EEF0900B28EC
:102A9B00E4F0A3F0758203C005122D12E530242E4D
:102AAB00F582E5313408F5837402F0758201120763
:102ABB008DD005D006D007053474F62534400302BB
:102ACB00237B9008DBE0F58222900AE2E4F010D839
:102ADB0003022C61E5DB30E36390082EE06008E530
:102AEB00E430E003022B9E75820012070D90082E36
:102AFB007401F0E4C0E0C0E07418C0E07441C0E0C1
:102B0B007480C0E012309FE58124FBF581900B238C
:102B1B00E4F0A3F0900B2504F0900B26F0900B271C
:102B2B00F0900B28E4F0A3F0758201122D12758240
:102B3B000012235BE582900AE2F0805790082EE0AA
:102B4B00FFBF0100404D7582001212917582001279
:102B5B00070DE4C0E0C0E07439C0E07441C0E0741C
:102B6B0080C0E012309FE58124FBF581900B23E4BC
:102B7B00F0A3F0900B2504F0900B26F0900B27F0B0
:102B8B00900B28E4F0A3F0758202122D12900AE24A
:102B9B007416F0E5DB30E764900831E06008E5E59A
:102BAB0030E003022C6175820112070D900831741D
:102BBB0001F0C0E0E4C0E07418C0E07441C0E07400
:102BCB0080C0E012309FE58124FBF581900B23E45C
:102BDB00F0A3F0900B257402F0900B26F0900B27CE
:102BEB00F0900B28E4F0A3F0758201122D12758280
:102BFB000112235BE582900AE2F0805A900831E0E3
:102C0B00FFBF0100405075820112129175820112B3
:102C1B00070D7401C0E0E4C0E07439C0E07441C03A
:102C2B00E07480C0E012309FE58124FBF581900BAE
:102C3B0023E4F0A3F0900B257402F0900B26F09098
:102C4B000B27F0900B28E4F0A3F0758202122D12E3
:0D2C5B00900AE27416F0900AE2E0F5822281
:103B11008006000100001200800600020000120071
:103B210081060004000009000005020000000000F9
:103B310080060203090402040009000000000000DD
:103B4100210A000000000000810600220000FF00A1
:103B5100686F73744374726C5472616E73666572CC
:103B61000A0052656D61696E696E672062797465DC
:103B71007320746F20726561642025640A005265A8
:103B81006365697665642025692062797465730AC5
:103B91000052656D61696E696E6720627974657343
:103BA10020746F207772697465202569005345542C
:103BB1005F504F525420202530325820202530327A
:103BC10058200053656E64696E672025692062790B
:103BD1007465730A0066696C6C5478427566666533
:103BE100722025692062797465730A0066696C6CBC
:103BF100547842756666657220646F6E650A006767
:103C0100657444657669636544657363726970744C
:103C11006F720A0044657669636520646573637237
:103C21006970746F72207265717565737420736544
:103C31006E74207375636365737366756C6C790A52
:103C4100005265636569766564207061636B6574B4
:103C510020697320736D616C6C6572207468616E8C
:103C61002065787065637465640A00536574416406
:103C710064726573733A2025690A00307825303201
:103C81005820000A0048494420256C752C202569DC
:103C91002064617461202569203A200020202020C1
:103CA100005573616765207061676520004C45446C
:103CB10073004B6579626F6172642F4B6579706136
:103CC1006400427574746F6E0067656E6572696336
:103CD100206465736B746F7020636F6E74726F6CA8
:103CE100730076656E646F7220646566696E6564E3
:103CF1002030782530346C7800756E6B6E6F776E7E
:103D01002030782530326C7800557361676520006A
:103D1100556E6B6E6F776E00506F696E74657200D1
:103D21004D6F757365005265736572766564004AFF
:103D31006F79737469636B0047616D6570616400CD
:103D41004B6579626F617264004B657970616400E3
:103D51004D756C74692D4178697320636F6E74724F
:103D61006F6C6C6572005461626C65742073797359
:103D710074656D20636F6E74726F6C7300580059B7
:103D8100005A00576865656C004C6F676963616C28
:103D9100206D696E20256C750A004C6F676963613F
:103DA1006C206D617820256C750A00506879736903
:103DB10063616C206D696E20256C750A005068790D
:103DC100736963616C206D617820256C750A00430D
:103DD1006F6C6C656374696F6E20737461727420AB
:103DE100256C750A00436F6C6C656374696F6E2096
:103DF100656E6420256C750A00556E6974203078F3
:103E01002530326C780A00496E707574203078253F
:103E110030326C780A004F757470757420307825D3
:103E210030326C780A0046656174757265203078AD
:103E31002530326C780A005265706F727420736994
:103E41007A6520256C750A005265706F727420497D
:103E51004420256C750A005265706F727420636F7F
:103E6100756E7420256C750A00556E6B6E6F776EDA
:103E710020484944207265706F7274206964656ED0
:103E81007469666965723A20307825303278202865
:103E910025692062797465732920646174613A200F
:103EA10030782530326C780A00526571756573740B
:103EB100696E67207265706F72742066726F6D2013
:103EC100696E746572666163652025690A00496ED1
:103ED100746572666163652025640A002020436C65
:103EE1006173732025640A00202053756220436C9E
:103EF1006173732025640A002020496E746572661F
:103F01006163652050726F746F636F6C2025640A62
:103F11000048494420617420496E7465726661638A
:103F2100652025640A0020205553422025642E2552
:103F31006425640A002020436F756E7472792063D2
:103F41006F6465203078253032580A00202054797A
:103F5100706558203078253032580A004661696C06
:103F6100656420746F20656E61626C6520726F6F8D
:103F7100742068756220706F72742025690A00725E
:103F81006F6F742068756220706F727420256920CC
:103F9100656E61626C65640A0044657669636520DB
:103FA100636C6173732025690A004D61782070612B
:103FB100636B65742073697A652025690A0044651D
:103FC1007669636520537472696E673A2025730AB6
:103FD10000436F6E66696775726174696F6E2076F2
:103FE100616C75653A2025640A00496E74657266D4
:103FF10061636520636F756E743A2025640A004918
:104001006E7465726661636520646573637269705D
:10401100746F7220666F756E640A00456E64706F0E
:10402100696E742064657363726970746F7220665F
:104031006F756E640A00436F6E6E6563746564200C
:1040410064657669636520617420706F7369746952
:104051006F6E3A2025690A00476F7420656E64709F
:104061006F696E7420666F722074686520484944D8
:10407100646576696365203078253032780A0048B6
:1040810049442064657363726970746F7220666F4E
:10409100756E640A00436C617373207370656369A4
:1040A1006669632068656164657220646573637223
:1040B1006970746F7220666F756E640A00436C617B
:1040C100737320737065636966696320656E6470DC
:1040D1006F696E742064657363726970746F7220A6
:1040E100666F756E640A00556E65787065637465F8
:1040F100642064657363726970746F72207479707F
:10410100653A20253032580A004572726F72203D9F
:1041110020253032580A0044657669636520617450
:1041210020726F6F742068756220256920636F6E3D
:104131006E65637465640A00446576696365206130
:104141007420726F6F74206875622025692064691C
:0C41510073636F6E6E65637465640A0032
:01417200004C
:102C680010980122900B87E024E3F582E4340AF5FA
:102C780083E599F0900B87E0FF24E3F582E4340ABA
:102C8800F583E0FEBE0A028008BF40005003022D13
:102C9800097E00900B87E0FDC3EE9D502EEE24E3E5
:102CA800F582E4340AF583E0FD7C00C006C005C067
:102CB80004745DC0E07441C0E07480C0E012309FCD
:102CC800E58124FBF581D0060E80C87465C0E074E8
:102CD80041C0E07480C0E012309F158115811581D4
:102CE800900AE3E0FEBE6B11900AE4E0FEBE6209C2
:102CF800850882850983120006900B87E4F0022C70
:102D080068900B87EF04F0022C68E582900B2AF09C
:102D18007582FE120230900B23E0FEA3E0FF8E05C1
:102D28008D82C007C006120230D006D0078F058DED
:102D380082C007C006120230900B2AE0F582120208
:102D480030900B25E0F582120230900B26E0F582D8
:102D5800120230900B27E0F58212023075820012C1
:102D680002307582001202307582001202307582BC
:102D780000120230D006D007900B28E0FCA3E0FD3B
:102D88007A007B00C3EA9EEB9F502DEA2CF582EB7C
:102D98003DF583E0F582C007C006C005C004C00346
:102DA800C002120230D002D003D004D005D006D021
:102DB800070ABA00CF0B80CC75820A020230E5827E
:102DC800900B36F07582FE120230900B2BE0FEA3BA
:102DD800E0FF8E058D82C007C006120230D006D0F3
:102DE800078F058D82C007C006120230900B36E0AF
:102DF800F582120230900B2DE0F582120230900B12
:102E08002EE0F582120230900B2FE0F5821202308C
:102E1800900B32E0F582120230900B33E0F582120B
:102E28000230900B34E0F582120230900B35E0F559
:102E380082120230D006D007900B30E0FCA3E0FDF0
:102E48007A007B00C3EA9EEB9F502DEA2CF582EBBB
:102E58003DF583E0F582C007C006C005C004C00385
:102E6800C002120230D002D003D004D005D006D060
:0E2E7800070ABA00CF0B80CC75820A02023026
:0A415D0030782530325820000A00A7
:01417300004B
:102E8600AF82AE83ADF0FC900B3BEFF0EEA3F0ED1E
:102E9600A3F0ECA3F0900B3BE0FCA3E0FDA3E0FE67
:102EA600A3E0FF30E70FC3E49CF8E49DF9E49EFA43
:102EB600E49FFB80088C008D018E028F03900B37F8
:102EC600E0FCA3E0FDA3E0FEA3E0FF33E433F53E20
:102ED6006013C3E49CF53FE49DF540E49EF541E4B0
:102EE6009FF54280088C3F8D408E418F42900B3F6C
:102EF600E53FF0E540A3F0E541A3F0E542A3F08805
:102F06008289838AF0EB122F42AC82AD83AEF0FF4A
:102F1600900B3BE0A3E0A3E0A3E033E433653E601F
:102F260013C3E49CF8E49DF9E49EFAE49F88828941
:102F3600838AF0228C828D838EF0EF22AF82AE835D
:102F4600ADF0FC900B43EFF0EEA3F0EDA3F0ECA395
:102F5600F0900B47E4F0A3F0A3F0A3F0900B3FE052
:102F6600FCA3E0FDA3E0FEA3E0FF7B20C003900BE3
:102F760043E0F8A3E0F9A3E0FAA3E0FB900B4B23B0
:102F86005401F0E828F8E933F9EA33FAEB33FB9019
:102F96000B43E8F0E9A3F0EAA3F0EBA3F0900B47AC
:102FA600E0F8A3E0F9A3E0FAA3E0FBE828F8E933A8
:102FB600F9EA33FAEB33FB900B47E8F0E9A3F0EAC2
:102FC600A3F0EBA3F0D003900B4BE06008900B4707
:102FD600E043E001F0900B47E0F54EA3E0F54FA388
:102FE600E0F550A3E0F551C3E54E9CE54F9DE55055
:102FF6009EE5519F401F900B47E54EC39CF0E54F61
:103006009DA3F0E5509EA3F0E5519FA3F0900B43DE
:10301600E043E001F01BEB6003022F72900B43E0EC
:10302600FCA3E0FDA3E0FEA3E08C828D838EF0225C
:06003700E478FFF6D8FD9D
:100015007902E94400601B7A01904172788675A0E7
:100025000BE493F2A308B8000205A0D9F4DAF2753F
:02003500A0FF2A
:1030360020F71130F6138883A88220F509F6A883B5
:0B3046007583002280FEF280F5F0226E
:10003D007800E84400600A790075A006E4F309D859
:10004D00FC7886E84405600C7906900600E4F0A380
:04005D00D8FCD9FAF8
:02000600E473A1
:10305100C04D85814D7E008E8312064ED04D22AF2C
:10306100F0AE83E582900B4EF0EEA3F0EFA3F0906B
:103071000B4EE0FDA3E0FEA3E0FF900B4DE0FC90C2
:103081000B62E4F0A3F0A3F0900B65EDF0EEA3F07A
:10309100EFA3F0900B68ECF09030510231A8C04DD5
:1030A100E581F54D24FBFF900B62E4F0A3F0A3F062
:1030B100E54D24FBF8900B65E6F008E6A3F008E681
:1030C100A3F0900B68EFF09030511231A8D04D224F
:1030D100E582900B5EF0E0FF900B54E0C0E0A3E0CE
:1030E100C0E0A3E0C0E01230EC800D900B52E0C0D4
:1030F100E0A3E0C0E08F8222158115811581900B3C
:103101005CE02401F0A3E03400F022E582900B5F43
:10311100F0E02430FF24C6500D74072FFF900B51AF
:10312100E060034307208F820230D1E582900B607B
:10313100F0E0FFC4540FF582C00712310CD00753E1
:10314100070F8F8202310CE582900B61F0900B57D3
:10315100E0FCA3E0FDA3E0FEA3E0FF900B5BE0FB3E
:10316100754E20900B61E0F98B00E828F8EF2354AD
:103171000148FBEC2CFCED33FDEE33FEEF33FFC3D6
:10318100EB994007EBC399FB430401E54E14FA8A1E
:103191004E70D5900B57ECF0EDA3F0EEA3F0EFA33A
:1031A100F0900B5BEBF022AF83E582900B69F0EFBF
:1031B100A3F0900B69E0FEA3E0FF900B52EEF0EF5D
:1031C100A3F0900B62E0FDA3E0FEA3E0FF900B549F
:1031D100EDF0EEA3F0EFA3F0900B5CE4F0A3F09020
:1031E1000B65E0FDA3E0FEA3E0FF8D828E838FF0EF
:1031F100123AE1FC900B6574012DF0E43EA3F0EF6F
:10320100A3F0EC7003023A9DBC25028003023A95BB
:10321100900B6BE4F0900B6CF0900B6DF0900B6EDB
:10322100F0900B6FF0900B70F0900B71F0900B72AF
:10323100F0900B74F0900B75F0A3F0900B7714F0F5
:10324100A3F0900B65E0FDA3E0FEA3E0FF8D828E6D
:10325100838FF0123AE1FBA3AD82AE83900B65ED53
:10326100F0EEA3F0EFA3F0900B7BEBF0BB25088B06
:10327100821230D10231E0BB30005003023341EB06
:1032810024C65003023341900B77E0F543A3E0F5E8
:103291004474FFB54363B54460C005C006C00790E0
:1032A1000B75E0FAA3E0FF900B84EAF0EFA3F09036
:1032B100000AC005C003123AC1AE82AF83D003D069
:1032C100058B027D00EA2EFEED3FFFEE24D0FEEFDE
:1032D10034FFFF900B75EEF0EFA3F0D007D006D0CE
:1032E10005900B75E0F5F0A3E045F0600302324E66
:1032F100900B6C7401F002324EC005C006C00790FD
:103301000B84E543F0E544A3F090000AC006C00534
:10331100C003123AC1AA82AF83D003D005D0067E82
:1033210000EB2AFAEE3FFFEA24D0FAEF34FFFF90D8
:103331000B77EAF0EFA3F0D007D006D00502324EAA
:10334100900B7BE0FBBB2E2FC005C006C007900B86
:1033510077E0FAA3E0FFBAFF05BFFF028009D007BB
:10336100D006D00502324ED007D006D005900B779B
:10337100E4F0A3F002324EBB61004014EB2485401F
:103381000F900B7B74DF5BF0900B517401F08005A3
:10339100900B51E4F0900B7BE0FBBB20028075BBEE
:1033A1002B028067BB2D028059BB4202806FBB4359
:1033B10002807CBB4403023638BB460302365EBB47
:1033C100480302324EBB4903023638BB4A0302327C
:1033D1004EBB4C028050BB4F03023646BB5003022A
:1033E10035A6BB53028077BB540302324EBB550353
:1033F10002364EBB5803023656BB5A0302324E0206
:103401003666900B6B7401F002324E900B6D7401B5
:10341100F002324E900B6E7401F002324E900B703E
:103421007401F002324E900B717401F002324E9031
:103431000B70E0600E900B68E014F9F0900B7BE7E5
:10344100F0800F900B68E024FEFFF08F01900B7B62
:10345100E7F0900B7BE0F5821230D1023675900BCC
:1034610068E024FDFFF08F018705098706098707BA
:103471001919900B57EDF0EEA3F0EFA3F08D828EAA
:10348100838FF0123AA9858243858344900B77E0BC
:10349100FAA3E0FDBAFF0DBDFF0A900B77E543F0FB
:1034A100E544A3F0900B6BE0704B900B75E0FAA331
:1034B100E0FDC3E5439AE5449D503A900B75EAC39C
:1034C1009543F0ED9544A3F0900B75E0FAA3E0FD70
:1034D1008A068D071ABAFF011DEE4F601075822012
:1034E100C005C0021230D1D002D00580E3900B7527
:1034F100EAF0EDA3F0900B77E0F546A3E0F54790F5
:103501000B57E0FAA3E0FDA3E0FF8A828D838FF0E1
:10351100123AE1F545603CC3E4954674808547F075
:1035210063F08095F0502C154674FFB5460215479F
:103531008545821230D1900B57E0FAA3E0FDA3E05C
:10354100FF0ABA00010D900B57EAF0EDA3F0EFA3CB
:10355100F080AC900B6BE07003023675900B75E058
:10356100FEA3E0FFC3E5439EE5449F400302367599
:10357100900B75EEC39543F0EF9544A3F0900B7556
:10358100E0FEA3E0FF8E028F051EBEFF011FEA4D84
:10359100700302366D758220C007C0061230D1D08B
:1035A10006D00780E0900B68E024FDFDF08D0187D7
:1035B1004809874909874A1919900B57E548F0E5E9
:1035C10049A3F0E54AA3F0900B59E0FDBD8000400E
:1035D10008900B7B7443F08020BD60004008900B85
:1035E1007B7450F08013BD40004008900B7B744900
:1035F100F08006900B7B7458F0900B7BE0FDF58218
:10360100C0051230D175823A1230D1758230123034
:10361100D17582781230D1D005BD4902800EBD50DE
:10362100028009900B58E0F58212312C900B57E083
:10363100F58212312C803D900B6F7401F0900B7468
:10364100740AF0802F900B747408F08027900B742B
:10365100740AF0801F900B747410F08017900B7235
:103661007401F0800F8B821230D18008900B75EEBF
:10367100F0EFA3F0900B72E06071900B68E024FC16
:10368100FFF08F0187030987050987060987071955
:103691001919900B57EBF0EDA3F0EEA3F0EFA3F0A7
:1036A100900B577467F07441A3F07480A3F0900BF2
:1036B10057E0F548A3E0F549A3E0F54A7401254830
:1036C100FAE43549FBAF4A900B57EAF0EBA3F0EF70
:1036D100A3F0854882854983854AF0123AE1FF705B
:1036E100030231E08F821230D180C3900B74E070FD
:1036F100030231E0900B70E06047900B68E014F931
:10370100F087077E007D007B00900B57EFF0EEA362
:10371100F0EDA3F0EBA3F0900B6FE060030237B87C
:10372100900B57E0FBA3E0A3E0A3E07D007E007FC8
:1037310000900B57EBF0EDA3F0EEA3F0EFA3F080B8
:1037410076900B71E06028900B68E024FCFFF08F0D
:103751000187030987050987060987071919199040
:103761000B57EBF0EDA3F0EEA3F0EFA3F080489040
:103771000B68E024FEFFF08F01870609870719EF28
:103781003395E0FDFB900B57EEF0EFA3F0EDA3F0C6
:10379100EBA3F0900B6FE0701E900B57E0FBA3E0E2
:1037A100FDA3E0A3E07E007F00900B57EBF0EDA3BB
:1037B100F0EEA3F0EFA3F0900B6FE06041900B5798
:1037C100E0FBA3E0FDA3E0FEA3E0FF30E72B900BBD
:1037D10057E0FBA3E0FDA3E0FEA3E0FFC3E49BFBF6
:1037E100E49DFDE49EFEE49FFF900B57EBF0EDA3FB
:1037F100F0EEA3F0EFA3F08005900B6FE4F0900BD7
:10380100737401F0900B74E0F546754B81754C0BA8
:10381100E4F543F544900B5BE4F0854682123148B0
:10382100900B73E07026900B5BE0C4F548854B82EA
:10383100854C83E0FFE5484207854B82854C83EF49
:10384100F0154B74FFB54B02154C800C900B5BE0EF
:10385100FF854B82854C83F00543E4B54302054463
:10386100900B73E0B40100E433F0900B57E0FAA33E
:10387100E0FBA3E0FEA3E0FFEA4B4E4F7097900BF5
:1038810082E54BF0E54CA3F0900B79E543F0E5447C
:10389100A3F0900B75E0F5F0A3E045F07009900BF3
:1038A100757401F0E4A3F0900B6CE0FFE0704790B9
:1038B1000B6BE0704185434B85444C900B75E0FAEE
:1038C100A3E0FBC007AF4B0F8F067F00C3EE9AEF5B
:1038D1009BD0075019758220C007C003C002123067
:1038E100D1D002D003D0071ABAFF011B80D5900BAB
:1038F10075EAF0EBA3F0900B6FE0602075822DC0AC
:10390100071230D1D007900B75E024FFFDA3E034FE
:10391100FFFE900B75EDF0EEA3F08056900B79E071
:10392100F5F0A3E045F0604A900B6DE060207582F0
:103931002BC0071230D1D007900B75E024FFFDA3F7
:10394100E034FFFE900B75EDF0EEA3F08024900BB8
:103951006EE0601E758220C0071230D1D007900B37
:1039610075E024FFFDA3E034FFFE900B75EDF0EE52
:10397100A3F0900B6BE07048900B79E0F54BA3E05E
:10398100F54C900B75E0FAA3E0FBC0078A068B07A4
:103991001ABAFF011BC3E54B9EE54C9FD00750535C
:1039A100EF60067D307E0080047D207E008D82C028
:1039B10007C003C0021230D1D002D003D00780CAA1
:1039C100900B75E0FEA3E0FF900B79E0F54BA3E0CF
:1039D100F54CC3E54B9EE54C9F500F900B75EEC324
:1039E100954BF0EF954CA3F08011900B75E4F0A38B
:1039F100F08008900B75EAF0EBA3F0900B82E0FEEB
:103A0100A3E0FF900B79E0F54BA3E0F54CAA4BAD99
:103A11004C154B74FFB54B02154CEA4D6045900BAC
:103A210073E0B40100E433F0900B73E070140EBE48
:103A310000010F8E828F83E0C4540FFD900B5BF069
:103A4100800E8E828F83E0FD53050F900B5BEDF0AE
:103A5100900B5BE0F582C007C00612310CD006D096
:103A61000780AA900B6BE070030231E0900B75E0C8
:103A7100FEA3E0FF8E038F051EBEFF011FEB4D70FD
:103A8100030231E0758220C007C0061230D1D00692
:103A9100D00780E08C821230D10231E0900B5CE0E3
:083AA100FEA3E08E82F58322F2
:0B4167003C4E4F20464C4F41543E00A0
:103AA900AA82AB83123AE16003A380F8C3E5829A44
:103AB900F582E5839BF58322AA83AB828BF0900B79
:103AC90084E0A4F8A9F08AF0E0A429F98BF0A3E036
:083AD900A429F5838882222252
:0D000800758151123AFDE58260030200038C
:103AE10020F71430F6148883A88220F507E6A8830E
:103AF10075830022E280F7E49322E022758200229E
:00000001FF
