:040000000200433285
:01000B0032C2
:0100130032BA
:01001B0032B2
:03002300023C019B
:01002B0032A2
:01003300329A
:03003B00020A15A1
:0300A20002003E1B
:03003E00020114A8
:1000A500AE82AF83C3EE9432EF940050078E828FF9
:1000B50083020BE7900634E0FCA3E0FD900634EEE6
:1000C5002CF0EF3DA3F0900BBDEEF0EFA3F0900008
:1000D500051240C7E5828583F02410FEE435F0C49F
:1000E50003CEC40354076ECE5407CE6ECEFF8E8268
:1000F5008F83020BAB75A15575A1AA53EAF775A1BC
:10010500FF2275A15575A1AA43EA0875A1FF221220
:1001150009AA53BFDF120368120559900634E0FEA1
:10012500A3E0FF90063474322EF0E43FA3F0900074
:1001350008120BAB75A15575A1AA43EA5E43EA20E7
:1001450075A1FF7582001217857582011217851238
:100155000CF2900634E0FEA3E0FF90063474322ED4
:10016500F0E43FA3F0900008120BAB900600740179
:10017500F043890153C9EFD28C900064120C1D75B0
:100185008C00758A00900634E4F0A3F0E5C730E1F1
:100195000F1209AA1203F9851882851983120041E5
:1001A50075A15575A1AA53EAF775A1FF900602E45A
:1001B500F0A3F0C294900001120BE712058DAF82F7
:1001C500900601EFF0BFFF028046123EC490060084
:1001D500E0606D900B8CE4F0A3F0900B8E04F09032
:1001E5000B8FF0900B90E4F0900B91F0A3F07582DB
:1001F50008123C79900600E4F0900001120BE7909C
:10020500060174FFF0900602E4F0A3F0D294800892
:10021500D294900001120BE7900602E02401F0A3AE
:10022500E03400F0900602E0FEA3E0FFC3EE948800
:10023500EF9413500B900601E0FFBFFF030201B8D6
:10024500900601E0FFBFFF03020184120B82123A00
:1002550095121869900001120BE7D29475A1557596
:10026500A1AA43EA0875A1FFAF8C7E00AC8A7D0088
:10027500EC4206ED4207EFC313CE13CEC313CE13E4
:10028500CEFF900634E0FCA3E0FDEC2EFEED3FFF33
:10029500C3EE9498EF940340030201847498C39EBF
:1002A500FE74039FFFC3EE9432EF9400500A8E82D2
:1002B5008F83120BE7020184900634EE2CF0EF3D9C
:1002C500A3F0900BBDEEF0EFA3F09000051240C730
:1002D500E5828583F02410FEE435F0C403CEC40323
:1002E50054076ECE5407CE6ECEFF8E828F83120BCF
:0402F500AB020184D3
:06009C007518007519F44F
:1002F900AE82AF83C3EE9432EF940050078E828FA3
:1003090083020BE7900634E0FCA3E0FD900634EE8F
:100319002CF0EF3DA3F0900BBDEEF0EFA3F09000B1
:10032900051240C7E5828583F02410FEE435F0C448
:1003390003CEC40354076ECE5407CE6ECEFF8E8211
:100349008F83020BAB75A15575A1AA53EAF775A165
:10035900FF2275A15575A1AA43EA0875A1FF227567
:10036900A15575A1AA43B3407E007F00C3EE940A4C
:10037900EF6480948050159003E8C007C006120B03
:10038900E7D006D0070EBE00E30F80E075A15575D2
:10039900A1AA53B37F7E007F00C3EE940AEF648065
:1003A900948050159003E8C007C006120BE7D006E9
:1003B900D0070EBE00E30F80E075A15575A1AA53C1
:1003C900B3E043B30575B2B475A1FF7E007F00C3E6
:1003D900EE9407EF6480948050159003E8C007C03D
:1003E90006120BE7D006D0070EBE00E30F80E0220D
:1003F90075A15575A1AA75B39875B2D875A1FF7E77
:10040900007F00C3EE9407EF648094805015900339
:10041900E8C007C006120BE7D006D0070EBE00E3FE
:100429000F80E022AF82AE83ADF0FC900606EFF0BC
:10043900EEA3F0EDA3F0ECA3F0900604E0F5F0A331
:10044900E045F0600C43C60143C40843C50C43CEE4
:1004590010C29FD29EC29DD29C438780900606E01F
:10046900FCA3E0FDA3E0FEA3E0FF900BAFECF0EDF1
:10047900A3F0EEA3F0EFA3F0908D8075F05BE4128A
:100489003FB8AC82AD830CBC00010DEDC313CC1396
:10049900CC740F55894420F58943C9A0C3E49CFC59
:1004A9008C8DD28ED299D2ACD2AF2210980280FB19
:1004B90085998222E58290060AF0E0F5993099FD46
:1004C90022AF82AE83ADF0FC90060BEFF0EEA3F005
:1004D900EDA3F0ECA3F075930075912075938075E9
:1004E9009701900BA7E597F0E4A3F0A3F0A3F09090
:1004F9008D8075F05BE4123EFCAC82AD83AEF0FFFB
:1005090090060BE0F8A3E0F9A3E0FAA3E0FB900B57
:10051900AFE8F0E9A3F0EAA3F0EBA3F08C828D83B6
:100529008EF0EF123FB8AC82AD838C9A8D917592A3
:100539000175930322E59530E0FB859A8222E582D5
:1005490090060FF0E59530E5FB90060FE0F59A224D
:1005590075A15575A1AA53EAF775A1FF53C6FD43C5
:10056900BAB043B94053FC7743FA6853FAEB75FBC9
:100579000653FAFDD29422E582900610F0E0F5F9CF
:1005890030FBFD2275F9C030FBFD85F98222E58239
:10059900900613F090061474C4F07400A3F074402C
:1005A900A3F090061774BAF07400A3F07440A3F096
:1005B90090061A74BCF07400A3F07440A3F090067E
:1005C9001D74BEF07400A3F07440A3F0900620746B
:1005D900C5F07400A3F07440A3F090062374BBF037
:1005E9007400A3F07440A3F090062674BDF0740063
:1005F900A3F07440A3F090062974BFF07400A3F02F
:100609007440A3F0900612E0FF24F9500122EF2F65
:100619002F90061E730206330206B602073B020735
:100629009602081802089E020922900613E0FFFEAE
:100639008EF005F07401800225E0D5F0FBF4ADC61B
:100649005DF5C6EF75F003A4FFAEF02414F582EE54
:100659003406F583E0FBA3E0FCA3E0FD8B828C83E9
:100669008DF01240E7FA900611E0F989F005F0746F
:1006790001800225E0D5F0FBF4F952028B828C83CC
:100689008DF0EA1240ACEF2420F582EE3406F583B2
:10069900E0FDA3E0FEA3E0FF8D828E838FF0124080
:1006A900E752018D828E838FF0E90240AC900613E8
:1006B900E0FFFE8EF005F07401800225E0D5F0FB25
:1006C900F4ADC65DF5C6EF75F003A4FFAEF02414D2
:1006D900F582EE3406F583E0FBA3E0FCA3E0FD8B95
:1006E900828C838DF01240E7FA900611E0F989F0C7
:1006F90005F07401800225E0D5F0FBF9F4F8EA521F
:10070900008B828C838DF0E81240ACEF2420F582B7
:10071900EE3406F583E0FDA3E0FEA3E0FF8D828EB3
:10072900838FF01240E742018D828E838FF0E902B8
:1007390040AC900613E0FFFE8EF005F074018002D4
:1007490025E0D5F0FBF4ADC65DF5C6EF75F003A461
:100759002414F582740635F0F583E0FDA3E0FEA3C9
:10076900E0FF8D828E838FF01240E7FC900611E046
:10077900FB8BF005F07401800225E0D5F0FBF4FB5A
:10078900EC42038D828E838FF0EB0240AC9006130E
:10079900E0FFFE8EF005F07401800225E0D5F0FB44
:1007A900ADC64DF5C6EF75F003A4FFAEF02414F500
:1007B90082EE3406F583E0FBA3E0FCA3E0FD8B8227
:1007C9008C838DF01240E7FA900611E0F989F00563
:1007D900F07401800225E0D5F0FBF4F952028B8216
:1007E9008C838DF0EA1240ACEF2420F582EE3406BA
:1007F900F583E0FDA3E0FEA3E0FF8D828E838FF0F9
:100809001240E752018D828E838FF0E90240AC904D
:100819000613E0FFFE8EF005F07401800225E0D595
:10082900F0FBADC64DF5C6EF75F003A4FFAEF0249D
:1008390014F582EE3406F583E0FBA3E0FCA3E0FDAA
:100849008B828C838DF01240E7FA900611E0F989CA
:10085900F005F07401800225E0D5F0FBF942028B26
:10086900828C838DF0EA1240ACEF2420F582EE34BD
:1008790006F583E0FDA3E0FEA3E0FF8D828E838F62
:10088900F01240E7FCE9F4F9EC52018D828E838F76
:10089900F0E90240AC900613E0FFFE8EF005F0741B
:1008A90001800225E0D5F0FBADC64DF5C6EF75F028
:1008B90003A4FFAEF02414F582EE3406F583E0FBC1
:1008C900A3E0FCA3E0FD8B828C838DF01240E7FA54
:1008D900900611E0F989F005F07401800225E0D550
:1008E900F0FBF9F4F8EA52008B828C838DF0E81260
:1008F90040ACEF2420F582EE3406F583E0FDA3E059
:10090900FEA3E0FF8D828E838FF01240E742018DB6
:10091900828E838FF0E90240AC900613E0FFFE8ED1
:10092900F005F07401800225E0D5F0FBADC64DF568
:10093900C6EF75F003A4FFAEF02414F582EE340679
:10094900F583E0FBA3E0FCA3E0FD8B828C838DF0B3
:100959001240E7FA900611E0F989F005F074018078
:100969000225E0D5F0FBF942028B828C838DF0EAF7
:100979001240ACEF2420F582EE3406F583E0FDA3A6
:10098900E0FEA3E0FF8D828E838FF01240E74201E3
:100999008D828E838FF0E90240AC53C0DF43C220C1
:1009A9002253C3DF53C2DF2275A15575A1AA43EAB9
:1009B9000475A1FF2275A15575A1AA53EAFB75A17A
:1009C900FF22AF83E58290062CF0EFA3F043A30149
:1009D90090062CE0FEA3E0FF8EA48FA553A3FE2270
:1009E9001209BE9001E01209CB53AAFB53AAFE4398
:1009F900AA0253AAFD75A60F75A72743A9F043A319
:100A09008043E902D2E9D2AF43AA0422C020C0E060
:100A1900C0F0C082C083C007C006C005C004C003BF
:100A2900C002C001C000C0D075D01053AAFB43A9B1
:100A39001090062EE024FFFEA3E034FFFF90062E5F
:100A4900EEF0EFA3F090062EE0FEA3E0FF90063053
:100A5900E0FD7C00EEB5150FEFB5140B75D0001253
:100A690009AA75D0108014EE4F7010C2E943AA028A
:100A790075D0001209B175D010800343AA04D0D0F3
:100A8900D000D001D002D003D004D005D006D007C1
:100A9900D083D082D0F0D0E0D02032E582900631E8
:100AA900F090062EE0F5F0A3E045F06001229006F3
:100AB90031E0249B50069006317464F0900631E0D1
:100AC900FFFD7E00ED2DFDEE33FE90062EEDF0EEDE
:100AD900A3F08D038E04900630EBC39FF0ED4E60BA
:100AE900351209E91209A390062EE0FEA3E090064B
:100AF90030E0FF900B8CE4F0A3F0900B8E04F090A3
:100B09000B8FEEF0900B90EFF0900B91E4F0A3F0C7
:100B1900758209023C79900B8CE4F0A3F0900B8E5E
:100B2900F0900B8FF0900B90F0900B91F0A3F07573
:100B39008209023C79AF83E582900632F0EFA3F097
:100B4900900632E0FEA3E08E8202054712053E7E42
:100B5900008E832290004B1209CB75A15575A1AA6D
:100B690053B3E075A1FF2275A15575A1AA43B30539
:100B790075A1FF9001E00209CBC2DB90004B12097D
:100B8900CB75A15575A1AA53B3E075A1FF30DBFD63
:100B990075A15575A1AA43B30575A1FF9001E0029E
:100BA90009CBAE82AF83C28C90004BC007C006123E
:100BB90009CBD006D00775A15575A1AA53B3E07525
:100BC900A1FF8E828F83120BE775A15575A1AA43E8
:100BD900B30575A1FF9001E01209CBD28C22AE8238
:100BE900AF83EE4F602D05A105A105A105A105A1C2
:100BF90005A105A105A105A105A105A105A105A1BC
:100C090005A105A105A105A105A105A11EBEFF011B
:100C19001F80CF22AE82AF83EE4F6029900634E069
:100C2900FCA3E0FD90063474E82CF074033DA3F0B6
:100C390090009CC007C006120BABD006D0071EBEA1
:100C4900FF011F80D322AE82AF83C3EE9432EF94AB
:100C59000050078E828F83020BE7900634E0FCA3D5
:100C6900E0FD900634EE2CF0EF3DA3F0900BBDEEC5
:100C7900F0EFA3F09000051240C7E5828583F024C8
:100C890010FEE435F0C403CEC40354076ECE5407F6
:100C9900CE6ECEFF8E828F83020BAB75A15575A1E7
:100CA900AA53EAF775A1FF2275A15575A1AA43EACE
:100CB9000875A1FF22E582900869F0E0FF75F0054B
:100CC900A4FDAEF02437F582EE3408F583E4F0EDA7
:100CD9002437FDEE3408FE8D828E83A3E4F0EF60A5
:100CE9000475E5002275E40022C2EA75E28075E325
:100CF900009024477448F090244CE4F0A3F0902429
:100D09004E04F0E4A3F0F5D4F5D675E28975D24026
:100D190075D8FF758200120CBE758201120CBE7562
:100D2900E10B22E58290086AF0E5E35480FFE05484
:100D39007F4FF5E322E58290086BF0E0600753E20C
:100D4900BF53D27F2243E24022E58290086CF090A3
:100D590006367408F0758200120D2C758201120D89
:100D69003E90086CE0FFE0701374FB55E44402F513
:100D7900E490000F120C1D53E4FD8014BF0111749F
:100D8900FB55E54402F5E590000F120C1D53E5FDF6
:100D9900900634E0FEA3E0FF90063474FA2EF0E4E6
:100DA9003FA3F0900027120BABC2D822E58290082E
:100DB9006DF0E075F005A42437FE740835F0FF8E58
:100DC900828F83E0FDBD010050078E828F837401FD
:100DD900F090086DE0FF7049E5DB20E303020E7334
:100DE900E5E420E035E5DB30E21AEF75F005A424EF
:100DF90037FD740835F0FE8D828E83A3A3E4F0439A
:100E0900E4048016EF75F005A42437FD740835F065
:100E1900FE8D828E83A3A37401F043E401758200E1
:100E290022BF0146E5DB30E741E5E520E035E5DBBA
:100E390030E61AEF75F005A42437FD740835F0FE85
:100E49008D828E83A3A3E4F043E5048016EF75F049
:100E590005A42437FE740835F0FF8E828F83A3A37F
:100E69007401F043E5017582002275821622E5823C
:100E790090086FF090086EE0FFBFFF2F90086FE0B9
:100E890075F005A42437FD740835F0FE8D828E8334
:100E9900A3E0F582C006C005120D2CD005D0068D41
:100EA900828E83A3A3E0F582020D3E90086FE07560
:100EB900F014A42441FD740835F0FEEF75F005A483
:100EC900FF2DFDE43EFE8D828E83A3E0F582C007EF
:100ED900C006C005120D2CD005D006D00774022D0E
:100EE900FDE43EFE8D828E83E0700343D28090083C
:100EF9006FE075F014A42441FD740835F0FEEF2D60
:100F0900FFE43EFC8F828C83A3A3E0F582020D3EB1
:100F1900E582900873F0900870E0FF8FD48FD69027
:100F29000874E4F0A3F0900873E0FEC4540FFDBD0B
:100F39000103ED8001E4F524E4BD090104F52590E0
:100F49000871E0F9A3E0FA8ED5C2D97521C87522D6
:100F590000E5214522602820D925900001C007C05D
:100F690006C005C002C001120BE7D001D002D005AE
:100F7900D006D007152174FFB52102152280D2753C
:100F8900D50020D9047582FE2220D90302109130A0
:100F9900DE0475820022E5D9540FF523740EB523BA
:100FA9000474018001E4F521600774204523F5826A
:100FB90022740AB5230474018001E4F86033E94A14
:100FC900700A74204523F52485248222C3E994FFFD
:100FD900EA94FF500519B9FF011A900874E024FF3B
:100FE900FBA3E034FFFC900874EBF0ECA3F00210D3
:100FF90094E524700CE5257034BD0D0280030210C0
:101009008D30DE04758200227402B52304758200D6
:1010190022E5217003E8600774204523F58222E563
:1010290023700302109474204523F5822230DE04D4
:1010390075820022EF6011740BB5230474018001DD
:10104900E424FFE433FC80107403B52304740180A5
:1010590001E4FB24FFE433FCEC600475820022E523
:10106900217003E8600774204523F582227403B5D3
:101079002307740BB523028012E523600E74204503
:1010890023F582227582FE2275D8FF90000FC007D2
:10109900C006C005C002C001120BE7D001D002D0C2
:1010A90005D006D007900874E02401F0A3E03400CD
:1010B900F0900874E0FBA3E0FCC3EB9401EC94000E
:1010C9005003020F5075822022AF83E58290087B7E
:1010D900F0EFA3F090087BE0FEA3E0FF90087FEE1D
:1010E900F0EFA3F0900876E0FBA3E0FCA3E0FDEBB2
:1010F9004C600E8B828C838DF0E41240ACA31240BD
:10110900AC75D708900870E4F09008717410F07409
:1011190027A3F07582D0C007C006C005C004C0036C
:10112900120F19AA82D003D004D005D006D007EA3D
:1011390060038A8222C006C00775D6D075D4D075DF
:10114900D701900107E0FA7900900106E0F87F00E5
:101159004201EF420290087DE9F0EAA3F0D007D0FE
:1011690006E94A7003021366EE4F70030213669094
:101179000100E0FF20E70302127290087DE0FEA360
:10118900E0FF4E700302126C900003C007C006C056
:1011990005C004C003120BE7900870E5D4F090086D
:1011A900717410F07427A3F0758290120F19AA8236
:1011B900D003D004D005D006D007EA60038A822282
:1011C900A9D17A00C3E99EEA9F5006A9D17A008085
:1011D900048E018F0289067F0090087DE0F8A3E064
:1011E900FA90087DE8C39EF0EA9FA3F0EB4C6024D7
:1011F9008B828C838DF01240E7F8A31240E7FAEE58
:1012090028FEEF3AFF8B828C838DF0EE1240ACA35F
:10121900EF1240AC90087FE0FEA3E0FF7A00C3EA3A
:1012290099501CC001EA2EF526E43FF5278A8275FC
:101239008300E0852682852783F00AD00180DF902C
:10124900087FE0FEA3E0FF90087FE92EF0E43FA3CA
:10125900F0E5D1600E900636E0FFC3E5D19F40036B
:1012690002118375D70002136690087DE0FEA3E0A2
:10127900FF4E7003021366900002C007C006C00546
:10128900C004C003120BE7D003D004D005D006D0A8
:1012990007900636E0F97A00C3EE99EF9A50048E6A
:1012A900018F0289D790087FE0FEA3E0FFE5D72EE2
:1012B900FEE43FFF90087FEEF0EFA3F08E828F836C
:1012C900A3E0FABA0924900BBFE0F97A0074016926
:1012D9007003EA600679017A00800479007A009047
:1012E9000BBFE9F08E828F83E9F0900870E5D6F0A4
:1012F9009008717410F07427A3F0758210C005C0AE
:1013090004C003120F19AF82D003D004D005EF60D7
:10131900038F8222AED77F0090087DE0F9A3E0FA1F
:1013290090087DE9C39EF0EA9FA3F0EB4C7003029D
:1013390012728B828C838DF01240E7FEA31240E774
:10134900FFA9D77A00E92EFEEA3FFF8B828C838DB5
:10135900F0EE1240ACA3EF1240AC02127290000200
:10136900120BE7E5D760047F9080027F1090087028
:1013790074C0F09008717410F07427A3F08F821272
:101389000F19E582FF60038F8222E5D77003F5828A
:1013990022E5D17003F5822275821722AF83E58297
:1013A900900882F0EFA3F0900882E0FEA3E0FF909E
:1013B9000881E0FD7C00C3EC9D50178C027B01EC99
:1013C9002EF582E43FF583E493F98A828B83F00C4E
:1013D90080E4229006367408F0900634E0FEA3E01B
:1013E900FF90063474322EF0E43FA3F09000081207
:1013F9000BAB9008817408F09041071213A590086F
:10140900767484F07408A3F0E4A3F0900879F0747A
:1014190002A3F09006371210D2E582FF60038F8293
:1014290022900634E0FEA3E0FF90063474322EF0D9
:10143900E43FA3F0900008120BAB90063EE0900643
:1014490036F090410DE493FF900884E0FDA3E0FE9F
:101459007C00C3ED9FEE9C501D900634E0FEA3E096
:10146900FF90063474322EF0E43FA3F09000081286
:101479000BAB7582172275820022E582900886F0EF
:101489009008817408F090411F1213A5900886E016
:10149900FF900102F0900876E4F0A3F0A3F0900821
:1014A90079F0A3F0900000C0071210D2AE82D007E5
:1014B900EE60038E8222900634E0FDA3E0FE9006E2
:1014C9003474322DF0E43EA3F0900008C007120BEB
:1014D900ABD0078F82120D2C900064120C1D7582FF
:1014E9000022E582900887F09008817408F0904105
:1014F9002F1213A5900887E0900102F0900876E476
:10150900F0A3F0A3F0900879F0A3F0900000021086
:10151900D29008817408F09041271213A59008769B
:10152900E4F0A3F0A3F0900879F07402A3F0900618
:10153900370210D2AF83E58290088DF0EFA3F090C7
:10154900088DE0FEA3E0FF8E828F83E07C0024FEFD
:10155900FDEC34FFA2E713CD13CD8E828F83A3E078
:10156900FCBC030280047582002290088AE0FBA378
:10157900E0FCEB24FFF52AEC34FFF52B900888E01A
:10158900F52CA3E0F52D852C28852D297800C3E8B5
:101599009D5063C00588047D00C3EC952AED952B09
:1015A900D0055052C00588037C00EB2BFBEC33FCC3
:1015B90074032BFAE43CFDEA2EFAED3FFD8A828D95
:1015C90083E0D005600FE82528F582E43529F58305
:1015D900743FF0801EE8252CF9E4352DFA74022BAE
:1015E900FBE43CFCEB2EF582EC3FF583E0FC8982C1
:1015F9008A83F0088098E8252CF582E4352DF58357
:10160900E4F07F0090088CE0FE0E900B8CEDF0EF7B
:10161900A3F0900B8EEEF0900B8F7434F0900B903A
:101629007456F0900B91E52CF0E52DA3F075820529
:10163900123C7975820122AF83E58290088FF0EF21
:10164900A3F090088FE0FEA3E0FF7C007D008E826E
:101659008F83E0FB7A00C3EC9BED64808AF063F032
:101669008095F05030900634E0FAA3E0FB90063400
:1016790074322AF0E43BA3F0900008C007C006C00A
:1016890005C004120BABD004D005D006D0070CBCA2
:1016990000BC0D80B9900634E0FEA3E0FF9006344B
:1016A90074322EF0E43FA3F0900008020BAB9008CF
:1016B900817408F090410F1213A59008767491F087
:1016C9007408A3F0E4A3F0900879F07402A3F090F1
:1016D90006371210D2E582FF60038F8222904115EE
:1016E900E493FF900891E0FDA3E0FE7C00C3ED9F29
:1016F900EE9C500475821722900639E0FF7E009017
:10170900063AE0FCE42FFFEC3EFE9008817408F0F5
:1017190090410FC007C0061213A5D006D0078F0449
:101729008E05900106ECF08E07900107EFF0900806
:10173900767491F07408A3F0E4A3F0900879F0743A
:1017490002A3F09006371210D2E582FF60038F8260
:1017590022758200229008817408F09041171213B3
:10176900A59008767493F07408A3F0E4A3F09008A8
:1017790079F07402A3F09006370210D2E58290093D
:1017890005F0E0FF75F010A4FDAEF024E5F582EE5A
:101799003408F583E4F0A3F0A3F0A3F0ED24E5FD0C
:1017A900EE3408FE8D828E83A3A3A3A3E4F0A3F0F5
:1017B900A3F0A3F074082DF582E43EF583E4F0A3C9
:1017C900F0A3F0A3F0740C2DF582E43EF583E4F068
:1017D900A3F0A3F0A3F07E00EE75F00AA42495FC13
:1017E900740835F0FD74012CFAE43DFB8A828B8381
:1017F900E0B507378C828D83E4F08A828B83F08C85
:10180900828D83A3A3A3A3F08C828D83A3A3A3A317
:10181900A3F074062CF582E43DF583E4F0A3F0A36C
:10182900F0A3F08C828D83A3A3A3F00EBE08004021
:10183900A7900905E075F014A42441FE740835F059
:10184900FF7D00ED75F005A42EFBE43FFC8B828C37
:1018590083A3E4F08B828C83F00DBD040040E42265
:101869007F00EF75F00AA4FDAEF02495FBEE340875
:10187900FC8B828C83E070030219E9ED2495FDEE5F
:101889003408FE8D828E83A3E0FC8D828E83A3A310
:10189900E090086EF08C82C007C006C005120E7772
:1018A900D005D006D0078D828E83A3A3A3A3A3E07E
:1018B900FE747F5E4490FDEE30E7067CC07E0080BA
:1018C900047C007E00900870ECF0900871E4F0A3AD
:1018D900F08D82C007120F19E582D0076003021943
:1018E900E9EF75F00AA42495FD740835F0FE740536
:1018F9002DFBE43EFC8B828C83E0F96301808B82B3
:101909008C83E9F0900906E5D1F0E0FAE070030272
:1019190019E9B296900634E0F8A3E0F99006347418
:101929003228F0E439A3F0900008C007C006C005CA
:10193900C004C003C002120BABD002D003D004D044
:1019490005D006D0078A017A0074062DF582E43E97
:10195900F583E0F88B828C83E0FB53037F8D828EC5
:1019690083A3E075F010A4FEADF024E5F582ED3413
:1019790008F583E0F52EEE24E5FEED3408FD8E82B0
:101989008D83A3A3A3A3E0F52F74082EF582E43D6C
:10199900F583E0FC740C2EF582E43DF583E0FE90BE
:1019A9000B94E9F0EAA3F0900B96E8F0900B97EF0F
:1019B900F0900B98EBF0900B997400F07400A3F081
:1019C900900B9BE52EF0900B9CE52FF0900B9DEC76
:1019D900F0900B9EEEF0758204C007123D24D007EB
:1019E9000FBF0800500302186B22E582900908F026
:1019F900E075F00AA4FEAFF02495FCEF3408FD8CE5
:101A0900828D83E06037EE2495FEEF3408FF74037E
:101A19002EFCE43FFD8C828D83E060218E828F83D2
:101A2900A3E0FD8E828F83A3A3E090086EF08D82E0
:101A3900C007C006120E77D006D007800122900891
:101A4900817408F0904147C007C0061213A5D0065B
:101A5900D0078E828F83A3A3A3A3E0900104F09003
:101A690001067401F075D708900870E4F0900871C8
:101A79007410F07427A3F07582D0120F19E58260F3
:101A89000122900907E0900100F075D6D075D4D0F5
:101A990075D701900870E5D6F09008717410F0744C
:101AA90027A3F0758210020F19AF83E58290090C04
:101AB900F0EFA3F090090EE4F0A3F0900910F09074
:101AC9000911F090090BE075F00AA42495F5367414
:101AD9000835F0F537AC36AD3790090CE0F538A389
:101AE900E0F539A838A939900909E0F530A3E0F5FE
:101AF9003190090EE0F532A3E0F533C3E5329530B4
:101B0900E5339531400122C004C005E5322538F599
:101B190082E5333539F583E0FD90091274FC5DF0F7
:101B290074035DF532900913F0900914E4F0A3F001
:101B3900A3F0A3F07403B532028006D005D0048067
:101B49000BD005D004900913E53204F0C004C00598
:101B590090090EE0FCA3E0FD74012CF532E43DF59B
:101B690033900913E0F534753500D005D004C3E589
:101B79003595345054C004C005AC357D00EC253290
:101B8900FCED3533FDEC28F582ED39F583E0FCE415
:101B9900FDFEFFE535C40354F8FB8BF005F0800C1E
:101BA900EC2CFCED33FDEE33FEEF33FFD5F0F19075
:101BB9000914E04CF0A3E04DF0A3E04EF0A3E04F90
:101BC900F00535D005D00480A5900910E0FF9009F3
:101BD90012E0FEE4BEC00104F5357B008F32753397
:101BE90000E5356008753A01753B008005E4F53A72
:101BF900F53BC004C005E532C3953AFAE533953B98
:101C0900FD8B047E00C3EC9AEE64808DF063F08056
:101C190095F0D005D0045034900634E0FAA3E0FEE4
:101C290090063474322AF0E43EA3F0900008C0070D
:101C3900C005C004C003C001C000120BABD000D066
:101C490001D003D004D005D0070B8090900912E091
:101C5900FFBF04028063BF0803021EAFBF14030263
:101C69002268BF1803022318BF2403022294BF2845
:101C790003022344BF34030222C0BF44030222ECFF
:101C8900BF64030223D5BF7403022485BF80030206
:101C99002401BF84030224B1BF900302242DBF9401
:101CA900030224DCBFA003022370BFB0030224593E
:101CB900BFC0030223A3022507900914E0FAA3E099
:101CC900FBA3E0FEA3E0FFC3EB94FFEE9400EF94C7
:101CD9000040087A007BFF7E007F00C004C00590A9
:101CE9000634E0FCA3E0FD90063474322CF0E43DA8
:101CF900A3F0900008C007C006C005C004C003C017
:101D090002C001C000120BABD000D001D002D00339
:101D1900D004D005D006D007BA0110BB000DBE0013
:101D29000ABF0007D005D004021E04D005D004BAAA
:101D3900070BBB0008BE0005BF00028066BA080B8E
:101D4900BB0008BE0005BF00028020BA090BBB001A
:101D590008BE0005BF00028076BA000CBBFF09BEB1
:101D69000006BF0003021E2F021E5A900634E0FE31
:101D7900A3E0FF90063474322EF0E43FA3F0900004
:101D890008C005C004C001C000120BABD000D001CF
:101D9900D004D005853682853783A3A3A37401F0C7
:101DA900021E83900634E0FEA3E0FF9006347432ED
:101DB9002EF0E43FA3F0900008C005C004C001C0A4
:101DC90000120BABD000D001D004D005021E8390C5
:101DD9000634E0FEA3E0FF90063474322EF0E43FAF
:101DE900A3F0900008C005C004C001C000120BABED
:101DF900D000D001D004D005021E83900634E0FE45
:101E0900A3E0FF90063474322EF0E43FA3F0900073
:101E190008C005C004C001C000120BABD000D0013E
:101E2900D004D0058054900634E0FEA3E0FF90066C
:101E39003474322EF0E43FA3F0900008C005C004CA
:101E4900C001C000120BABD000D001D004D0058076
:101E590029900634E0FEA3E0FF90063474322EF098
:101E6900E43FA3F0900008C005C004C001C00012FF
:101E79000BABD000D001D004D005900634E0FEA30E
:101E8900E0FF90063474322EF0E43FA3F09000088E
:101E9900C005C004C001C000120BABD000D001D0F6
:101EA90004D005022530900911E07032C000C0014C
:101EB90074062CFEE43DFF900914E0F8A3E0F9A3B1
:101EC900E0FAA3E0FB8E828F83E8F0E9A3F0EAA3AE
:101ED900F0EBA3F09009117401F0D001D000900645
:101EE90034E0FEA3E0FF90063474322EF0E43FA301
:101EF900F0900008C005C004C001C000120BABD0AF
:101F090000D001D004D005900914E0FAA3E0FBA3A6
:101F1900E0FEA3E0FFC374389AE49BE49EE49F507B
:101F290003022213EA240A83F582EA243D83F58316
:101F3900E473ADD905315D89B5E10D391313131377
:101F49001313131313131313131313131313131358
:101F59001313131313131313131313131313131348
:101F690013136591BD1313131313E81F1F202020AA
:101F79002020202121222222222222222222222240
:101F89002222222222222222222222222222222228
:101F9900222222222222222222222221212122221B
:101FA90022222221900634E0FEA3E0FF9006347439
:101FB900322EF0E43FA3F0900008C005C004C00130
:101FC900C000120BABD000D001D004D00502223CD6
:101FD900900634E0FEA3E0FF90063474322EF0E45C
:101FE9003FA3F0900008C005C004C001C000120B57
:101FF900ABD000D001D004D00502223C900634E0D9
:10200900FEA3E0FF90063474322EF0E43FA3F09073
:102019000008C005C004C001C000120BABD000D03D
:1020290001D004D00502223C900634E0FEA3E0FF73
:1020390090063474322EF0E43FA3F0900008C005F6
:10204900C004C001C000120BABD000D001D004D035
:102059000502223C900634E0FEA3E0FF90063474AA
:10206900322EF0E43FA3F0900008C005C004C0017F
:10207900C000120BABD000D001D004D00502223C25
:10208900900634E0FEA3E0FF90063474322EF0E4AB
:102099003FA3F0900008C005C004C001C000120BA6
:1020A900ABD000D001D004D00502223C900634E028
:1020B900FEA3E0FF90063474322EF0E43FA3F090C3
:1020C9000008C005C004C001C000120BABD000D08D
:1020D90001D004D00502223C900634E0FEA3E0FFC3
:1020E90090063474322EF0E43FA3F0900008C00546
:1020F900C004C001C000120BABD000D001D004D085
:102109000502223C900634E0FEA3E0FF90063474F9
:10211900322EF0E43FA3F0900008C005C004C001CE
:10212900C000120BABD000D001D004D00502223C74
:10213900900634E0FEA3E0FF90063474322EF0E4FA
:102149003FA3F0900008C005C004C001C000120BF5
:10215900ABD000D001D004D00502223C900634E077
:10216900FEA3E0FF90063474322EF0E43FA3F09012
:102179000008C005C004C001C000120BABD000D0DC
:1021890001D004D00502223C900634E0FEA3E0FF12
:1021990090063474322EF0E43FA3F0900008C00595
:1021A900C004C001C000120BABD000D001D004D0D4
:1021B9000502223C900634E0FEA3E0FF9006347449
:1021C900322EF0E43FA3F0900008C005C004C0011E
:1021D900C000120BABD000D001D004D005805490C0
:1021E9000634E0FEA3E0FF90063474322EF0E43F9B
:1021F900A3F0900008C005C004C001C000120BABD9
:10220900D000D001D004D0058029900634E0FEA387
:10221900E0FF90063474322EF0E43FA3F0900008FA
:10222900C005C004C001C000120BABD000D001D062
:1022390004D005900634E0FEA3E0FF900634743222
:102249002EF0E43FA3F0900008C005C004C001C00F
:1022590000120BABD000D001D004D005022530907C
:102269000634E0FEA3E0FF90063474322EF0E43F1A
:10227900A3F0900008C005C004C001C000120BAB58
:10228900D000D001D004D005022530900634E0FEFC
:10229900A3E0FF90063474322EF0E43FA3F09000DF
:1022A90008C005C004C001C000120BABD000D001AA
:1022B900D004D005022530900634E0FEA3E0FF905B
:1022C900063474322EF0E43FA3F0900008C005C034
:1022D90004C001C000120BABD000D001D004D0055E
:1022E900022530900634E0FEA3E0FF9006347432F4
:1022F9002EF0E43FA3F0900008C005C004C001C05F
:1023090000120BABD000D001D004D00502253090CB
:102319000634E0FEA3E0FF90063474322EF0E43F69
:10232900A3F0900008C005C004C001C000120BABA7
:10233900D000D001D004D005022530900634E0FE4B
:10234900A3E0FF90063474322EF0E43FA3F090002E
:1023590008C005C004C001C000120BABD000D001F9
:10236900D004D005022530900634E0FEA3E0FF90AA
:10237900063474322EF0E43FA3F0900008C005C083
:1023890004C001C000120BABD000D001D004D005AD
:10239900900910E02401F0022530900634E0FEA3F4
:1023A900E0FF90063474322EF0E43FA3F090000869
:1023B900C005C004C001C000120BABD000D001D0D1
:1023C90004D005900910E014F0022530900634E09D
:1023D900FEA3E0FF90063474322EF0E43FA3F090A0
:1023E9000008C005C004C001C000120BABD000D06A
:1023F90001D004D005022530900634E0FEA3E0FFA9
:1024090090063474322EF0E43FA3F0900008C00522
:10241900C004C001C000120BABD000D001D004D061
:1024290005022530900634E0FEA3E0FF90063474DF
:10243900322EF0E43FA3F0900008C005C004C001AB
:10244900C000120BABD000D001D004D0050225305A
:10245900900634E0FEA3E0FF90063474322EF0E4D7
:102469003FA3F0900008C005C004C001C000120BD2
:10247900ABD000D001D004D005022530900634E05D
:10248900FEA3E0FF90063474322EF0E43FA3F090EF
:102499000008C005C004C001C000120BABD000D0B9
:1024A90001D004D005022530900634E0FEA3E0FFF8
:1024B90090063474322EF0E43FA3F0900008C00572
:1024C900C004C001C000120BABD000D001D004D0B1
:1024D900058054900634E0FEA3E0FF900634743280
:1024E9002EF0E43FA3F0900008C005C004C001C06D
:1024F90000120BABD000D001D004D0058029900682
:1025090034E0FEA3E0FF90063474322EF0E43FA3DA
:10251900F0900008C005C004C001C000120BABD088
:1025290000D001D004D005900913E0FF7E000FBF51
:1025390000010E90090EE0FAA3E0FB90090EEF2AC4
:10254900F0EE3BA3F0021AFAE582900918F0900622
:1025590034E0FEA3E0FF90063474322EF0E43FA38A
:10256900F0900008120BAB9008817408F090413785
:102579001213A5900918E075F00AA42495FE7408B1
:1025890035F0FF74042EFEE43FFF8E828F83E090C6
:102599000104F09008767419F07409A3F0E4A3F02B
:1025A900900879F0A3F0900637C007C0061210D240
:1025B9009008817408F090413F1213A5D006D00706
:1025C9008E828F83E0900104F0900106E4F090017F
:1025D900077402F09008767419F07409A3F0E4A363
:1025E900F0900879F07402A3F09006371210D2E542
:1025F90082FF60038F82227E007F00900919E0FC30
:10260900A3E0FDC3EE9CEF9D5028900634E0FCA3A7
:10261900E0FD90063474322CF0E43DA3F0900008FC
:10262900C007C006120BABD006D0070EBE00CC0FF8
:1026390080C9900634E0FEA3E0FF90063474322E80
:10264900F0E43FA3F0900008120BAB900919E0FEEB
:10265900A3E0FF900918E0FD75F00AA42495FB7426
:102669000835F0FC8B828C83A3A3A3A3E0FA8B82A9
:102679008C83A3E0FC900B8CEEF0EFA3F0900B8E13
:10268900EDF0900B8FEAF0900B90ECF0900B9174B9
:1026990037F07406A3F0758207C005123C79D0059E
:1026A900900919E0FEA3E0FF900909EEF0EFA3F00D
:1026B90090090BEDF0900637121AB275820022903C
:1026C9000634E0FEA3E0FF90063474322EF0E43FB6
:1026D900A3F0900008120BAB900634E0FEA3E0FFD4
:1026E90090063474322EF0E43FA3F0900008120BE8
:1026F900AB900634E0FEA3E0FF90063474322EF06E
:10270900E43FA3F0900008120BAB900634E0FEA35F
:10271900E0FF90063474322EF0E43FA3F0900008F5
:10272900020BAB900634E0FEA3E0FF90063474324E
:102739002EF0E43FA3F0900008120BAB900634E0B2
:10274900FEA3E0FF90063474322EF0E43FA3F0902C
:102759000008120BAB900634E0FEA3E0FF900634AC
:1027690074322EF0E43FA3F0900008120BAB9006F0
:1027790034E0FEA3E0FF90063474322EF0E43FA368
:10278900F0900008020BABE58290091FF0900881D8
:102799007408F09041571213A590091FE075F00ACB
:1027A900A42495FE740835F0FF8E828F83A3A3A31A
:1027B900A3E0900104F09008767420F07409A3F066
:1027C900E4A3F0900879F07402A3F0900637121090
:1027D900D2E582FF60038F82227F00900920E0FD0D
:1027E900A3E0FE8F037C00C3EB9DEC9E5020900676
:1027F90034E0FDA3E0FE90063474322DF0E43EA3EC
:10280900F0900008C007120BABD0070F80CD9006DF
:1028190034E0FEA3E0FF90063474322EF0E43FA3C7
:10282900F0900008120BAB75820022E58290092214
:10283900F09008817408F090414F1213A59001029D
:10284900E4F0900922E075F00AA42495FE74083595
:10285900F0FF8E828F83A3A3A3A3E0900104F090DD
:1028690008767423F07409A3F0E4A3F0900879F0D2
:102879007402A3F09006371210D2E582FF60038F2D
:102889008222900634E0FEA3E0FF90063474322ED3
:10289900F0E43FA3F0900008120BAB7582002222EE
:1028A900E582900926F0900925E0FFBFFF0F900906
:1028B90026E0030354C0FE43063F8E822290092678
:1028C900E0030354C042070F8F8222E58290092852
:1028D900F0900927E0FFBFFF19900928E075F0057E
:1028E900A42437FD740835F0FE7C008D828E838C1C
:1028F900F022900928E075F014A42441FD740835EC
:10290900F0FEEF75F005A42DFDE43EFE7F008D82FB
:102919008E838FF022E58290092AF0E0FF90092941
:10292900E0FE90086EF08F82C007C006120E779005
:102939000634E0FCA3E0FD90063474322CF0E43D4B
:10294900A3F0900008120BAB120B821213DCAD82BC
:10295900D006D00790092BEDF0ED60030230D0903E
:102969000927EEF08F82C007C0061228D4AB82ACCB
:1029790083ADF090063BE0FA900634E0F8A3E0F965
:10298900900634743228F0E439A3F0900008C005A9
:10299900C004C003C002120BABD002D003D004D0D4
:1029A90005D00674032BF8E43CF98D0788828983E6
:1029B9008FF0EA1240AC900634E0FAA3E0FF9006EB
:1029C9003474322AF0E43FA3F0900008C007C0062F
:1029D900C005C004C003120BABD003D004D005D08E
:1029E90006D007BEFF028005D007022AA4D007C07F
:1029F90003C004C005EF75F010A4FFAAF024E5F5A3
:102A09003CEA3408F53D90063FE0FB79007C007D07
:102A190000853C82853D83EBF0E9A3F0ECA3F0ED62
:102A2900A3F0EF24E5FFEA3408FA74042FF53CE437
:102A39003AF53D900640E0F879007B007D00853C41
:102A490082853D83E8F0E9A3F0EBA3F0EDA3F074F0
:102A5900082FF53CE43AF53D900641E0F879007B12
:102A6900007D00853C82853D83E8F0E9A3F0EBA376
:102A7900F0EDA3F0740C2FFFE43AFA900642E0F966
:102A89007B007C007D008F828A83E9F0EBA3F0EC68
:102A9900A3F0EDA3F0D005D004D003900637C0060B
:102AA900C005C004C003121640D003D004D005D01D
:102AB9000690092AE0FF900925EEF08F82C007C031
:102AC90006C005C004C0031228A9AA82C0021214B4
:102AD90083A982D002D003D004D005D006D00790B4
:102AE900092BE9F0E960030230D00BBB00010C8B24
:102AF900828C838DF0EA1240AC900637C007C0067D
:102B0900C002121640D002D006D007900888743748
:102B1900F07406A3F090088AE4F07402A3F0900818
:102B29008CEFF0900637C006C00212153DE582D041
:102B390002D0066021900634E0FDA3E0FF90063440
:102B490074322DF0E43FA3F0900008C006C00212D1
:102B59000BABD002D006C006C002120B821216B708
:102B6900AF82D002D00690092BEFF0EF600302305C
:102B7900D0900639E0FF7D0090063AE0FBE42FFF94
:102B8900EB3DFD90092AE0FC0C900B8CEFF0EDA3D6
:102B9900F0900B8EEAF0900B8FECF0900B9074AAEA
:102BA900F0900B917437F07406A3F0758206C00695
:102BB900123C79D006900B2EE4F0A3F07D007F0043
:102BC900900639E0FC7B0090063AE0FAE42CFCEA36
:102BD9003BFBC3ED9CEF9B502C900634E0FBA3E03C
:102BE900FC90063474322BF0E43CA3F0900008C04A
:102BF90007C006C005120BABD005D006D0070DBD26
:102C090000BE0F80BB900634E0FDA3E0FF900634C0
:102C190074322DF0E43FA3F0900008C006120BAB0C
:102C2900D00690063CE0FF900634E0FCA3E0FD905E
:102C3900063474322CF0E43DA3F0900008C007C0BC
:102C490006120BAB900634E0FCA3E0FD9006347449
:102C5900322CF0E43DA3F0900008120BABD006D063
:102C6900078F82C0061214EBD006900639E0FF7D6B
:102C79000090063AE0FBE42FFFEB3DFD8F038D0446
:102C890079007A00C3E99BEA9C5027C007C005E98F
:102C9900242EF8EA3409FFE92437F582EA3406F5E7
:102CA90083E088828F83F009B900010AD005D00733
:102CB90080D2900637E0FC90092CF0E4A3F090094B
:102CC9002AE0F541854145AA418F3E8D3F90092C67
:102CD900E0F8A3E0F9C3E8953EE9953F40030230E7
:102CE900CCE8242EF8E93409F9900B30E8F0E9A38F
:102CF900F088828983A3E0F53C7404B53C02802204
:102D09007405B53C0280647421B53C03022FB57487
:102D190024B53C030230137425B53C030230450247
:102D29003077900634E0FDA3E0FF90063474322D2D
:102D3900F0E43FA3F0900008C006C002C001C00043
:102D4900120BABD000D001D00288058907900B2E59
:102D5900EDF0EFA3F090091BEDF0EFA3F08A82C02C
:102D6900021226C8D002D0060230A7C0029006344B
:102D7900E0FAA3E0FF90063474322AF0E43FA3F0AE
:102D8900900008C006C002C001C000120BABD00001
:102D9900D00188828983C001C000121640D000D0BA
:102DA90001D002D006900B2EE0F53CA3E0F53D855D
:102DB9003C82853D83A3A3A3A3A3E0FFBF030280B5
:102DC90005D0020230A78805890774022DFDE43F6A
:102DD900FF8D828F83E0D00220E7030230A7900B9A
:102DE90032E4F07402253CF53CE4353DF53D75408F
:102DF90000C002E54075F00AA42495FA740835F07C
:102E0900FC8A428C43754400900B33E542F0E5435C
:102E1900A3F0E544A3F074052542FAE43543FBAC7D
:102E2900448A828B838CF01240E7FA8D828F83E08B
:102E3900FCEAB504028004D002806374042542FAD6
:102E4900E43543FBAC448A828B838CF01240E7FA69
:102E5900853C82853D83E0FCEAB504028004D0020A
:102E6900803C74012542FAE43543FBAC448A828BE9
:102E7900838CF01240E7FAB545028004D002801E27
:102E890074022542FAE43543FBAC448A828B838C75
:102E9900F01240E7B50605D0020230A7D002900B28
:102EA90033E0F542A3E0F543A3E0F544854282858A
:102EB90043838544F01240E76003022FA1C00290CA
:102EC9000634E0FBA3E0FC90063474322BF0E43CBA
:102ED900A3F0900008C007C006C005C002120BABE2
:102EE900D002D005D006D00774052542F546E43551
:102EF90043F5478544488D828F83E085468285471F
:102F0900838548F01240AC8542828543838544F02D
:102F190074011240AC74042542F546E43543F54783
:102F2900854448900B2EE0FBA3E0FC8B828C83A3A5
:102F3900A3E08546828547838548F01240AC740139
:102F49002542FAE43543FBAC448A828B838CF0E555
:102F5900411240AC74022542FAE43543FBAC448A81
:102F6900828B838CF0EE1240AC900634E0FBA3E038
:102F7900FC90063474322BF0E43CA3F0900008C0B6
:102F890006C002120BAB900B32E0F582122551D02C
:102F990002D006D0020230A70540900B32E540F07E
:102FA90074F825404003022DFA0230A7900634E058
:102FB900FDA3E0FF90063474322DF0E43FA3F090B6
:102FC9000008C006C002C001C000120BABD000D07F
:102FD90001D002D006900B2EE0FDA3E0FF900B2E4E
:102FE900E0F5F0A3E045F070030230A788038904F7
:102FF90090091DEBF0ECA3F08D828F83C006C0020F
:1030090012272CD002D0060230A7900634E0FDA387
:10301900E0FF90063474322DF0E43FA3F0900008ED
:10302900C006C002C001C000120BABD000D001889D
:10303900828983121640D002D0068062900634E05D
:10304900FDA3E0FF90063474322DF0E43FA3F09025
:103059000008C006C002C001C000120BABD000D0EE
:103069000188828983121640D002D00680309006EA
:1030790034E0FDA3E0FF90063474322DF0E43FA361
:10308900F0900008C006C002C001C000120BABD00E
:1030990000D00188828983121640D002D006900B95
:1030A90030E0FDA3E0FF8D828F83E0FD7F00900972
:1030B9002CE0FBA3E0FC90092CED2BF0EF3CA3F0F6
:1030C900022CD67582002290092BE0F58222E58236
:1030D900900B36F0E0FF7E00C3EE9F50249006343B
:1030E900E0FCA3E0FD90063474322CF0E43DA3F03B
:1030F900900008C007C006120BABD006D0070E809F
:10310900D7900634E0FEA3E0FF90063474322EF027
:10311900E43FA3F0900008020BABE582900B38F076
:103129009008817408F090416F1213A5900B38E054
:10313900FF0F900104EFF0900B37E0900102F0903F
:1031490008767439F0740BA3F0E4A3F0900879F0D1
:103159007402A3F09006370210D2E582900B3BF07F
:103169009008817408F09041771213A5900B3BE009
:10317900FF0F900104EFF0900B3AE0900102F090FC
:103189000876743CF0740BA3F0E4A3F0900879F08E
:103199007402A3F09006370210D2E582900B3DF03D
:1031A9009008817408F09041671213A5900B3DE0D7
:1031B900FF0F900104EFF0900876743EF0740BA3B2
:1031C900F0E4A3F0900879F07402A3F090063702B6
:1031D90010D2E582900B40F0900634E0FEA3E0FFA8
:1031E90090063474322EF0E43FA3F0900008120BDD
:1031F900AB120B82900B3FE0FF900B377404F08FFA
:1032090082C007123123AE82D007EE60038E82227C
:10321900900634E0FDA3E0FE90063474322DF0E40C
:103229003EA3F0900008C007120BABD0078F82C0F5
:10323900071231A3AE82758204C0061230D7D006B8
:10324900D007EE60038E8222900001C007120C1D88
:10325900D007900000E020E4D4900001E030E1497B
:10326900900634E0FDA3E0FE90063474322DF0E4BC
:103279003EA3F0900008C007120BABD007900B409B
:10328900E0FE900927EFF08E82C0071228D4AC82A5
:10329900AD83AEF0D00774022CFCE43DFD8C828D29
:1032A900838EF0E41240AC8048900634E0FDA3E040
:1032B900FE90063474322DF0E43EA3F0900008C06D
:1032C90007120BABD007900B40E0FE900927EFF0F7
:1032D9008E82C0071228D4AC82AD83AEF0D00774B9
:1032E900022CFCE43DFD8C828D838EF0740112402A
:1032F900AC900002E030E44D900634E0FDA3E0FE1E
:1033090090063474322DF0E43EA3F0900008C00713
:10331900120BAB900634E0FDA3E0FE900634743244
:103329002DF0E43EA3F0900008120BABD007900BF0
:103339003A7414F08F82C007123163AE82D007EE5F
:1033490060208E8222900634E0FDA3E0FE900634D0
:1033590074322DF0E43EA3F0900008120BAB758295
:10336900FE22900634E0FDA3E0FE90063474322D6F
:10337900F0E43EA3F0900008C007120BABD0079011
:103389000B3A7412F08F82C007123163AE82D007F4
:10339900EE60038E82229001F4C007120C1D900684
:1033A90034E0FDA3E0FE90063474322DF0E43EA330
:1033B900F0900008120BABD007900B40E0FE90098B
:1033C90029EFF08E82C007C00612291EAD82D006F1
:1033D900D007ED701F900927EFF08E82C0051228E3
:1033E900D4AC82AE83AFF0D0058C828E838FF0741B
:1033F900011240AC8D8222E582900B41F0900B4284
:10340900E4F0900B41E0FF90092774FFF08F82C030
:10341900071228D4AC82AD83AEF0D00774042CFC1B
:10342900E43DFD8C828D838EF01240E7FE7D00C362
:10343900ED9E40030235FB900B41E0FC90086E7451
:10344900FFF08C82C007C006C005C004120E77D0F9
:1034590004D0058D82C005C0041231A3AB82D0040B
:10346900D005D006D007900B42EBF0EB60038B82BE
:1034790022900002E0FB20E0030235F7900000E013
:1034890030E047900634E0FAA3E0FB90063474324A
:103499002AF0E43BA3F0900008C007C006C005C0AD
:1034A90004120BABD004D005900B3A7410F08D8246
:1034B900C005C004123163AB82D004D005D006D058
:1034C90007EB70030235838B8222900634E0FAA35E
:1034D900E0FB90063474322AF0E43BA3F090000834
:1034E900C007C006C005C004120BABD004D00590BC
:1034F9000B3A7410F08D82C005C004123163AB829F
:10350900D004D005D006D007900B42EBF0EB600356
:103519008B8222EC75F014A42441FA740835F0FB6F
:10352900ED75F005A42AFAE43BFB8A828B83A3E4B8
:10353900F08A828B83F08D037A00C006EA75F00A5F
:10354900A42495F8740835F0F988828983A3E0FEEC
:10355900B507028004D006801988828983A3A3E075
:10356900FEB503028004D0068008D00688828983CC
:10357900E4F00ABA080040C28074900927EDF08C83
:1035890082C007C006C005C0041228D4A982AA8334
:10359900ABF0D004D005D006D00709B900010A89DB
:1035A900828A838BF0E41240AC900B3FEDF08C8261
:1035B900C007C006C0051231DBAC82D005D006D0E9
:1035C90007900B42ECF0EC6025900634E0FBA3E099
:1035D900FC90063474322BF0E43CA3F0900008C050
:1035E90007C006C005120BABD005D006D0070D02E7
:1035F9003438900B42E0F58222E582900B43F0903B
:103609000634E0FEA3E0FF90063474322EF0E43F66
:10361900A3F0900008120BAB9008817408F0904158
:103629005F1213A59008767446F0740BA3F0E4A317
:10363900F0900879F07402A3F09006371210D2AF17
:1036490082900B44EFF0EF60038F8222900B46E0EB
:10365900FEA3E08E821230D7900639E0FF900B4529
:10366900F0900B43E0FE90092774FFF08E82C007AB
:103679001228D4AC82AD83AEF0D00774042CFCE4DC
:103689003DFD8C828D838EF0EF1240AC24FB501FE0
:10369900900634E0FEA3E0FF90063474322EF0E485
:1036A9003FA3F0900008120BAB900B457404F09007
:1036B9000634E0FEA3E0FF90063474322EF0E43FB6
:1036C900A3F0900008120BAB900B45E0FF7E00C3FE
:1036D900EE9F5040900634E0FCA3E0FD9006347460
:1036E900322CF0E43DA3F0900008C007C006120B8D
:1036F900ABD006900B377408F08E82C006123123C6
:10370900AD82D006D007900B44EDF0ED60038D82B9
:10371900220E80BB900634E0FEA3E0FF90063474CD
:10372900322EF0E43FA3F0900008120BAB900B454A
:10373900E0FF7E00C3EE9F5040900634E0FCA3E01A
:10374900FD90063474322CF0E43DA3F0900008C0DB
:1037590007C006120BABD006900B3A7410F08E829C
:10376900C006123163AD82D006D007900B44EDF04C
:10377900ED60038D82220E80BB9001F4120C1D9026
:103789000B45E0FF7E00C3EE9F400302388E900B8D
:1037990043E0FD900927EEF08D82C007C006C00501
:1037A9001228D474021240AC900634E0FBA3E0FC6A
:1037B90090063474322BF0E43CA3F0900008120B0D
:1037C900AB900032120C1DD00590086E74FFF08D7D
:1037D90082C005120E77120B82D005D0068E82C0E8
:1037E90006C0051231A3AC82900B44ECF07582043B
:1037F900C0041230D7D004D005D006D007EC60033E
:103809008C8222900000E030E027900634E0FBA390
:10381900E0FC90063474322BF0E43CA3F0900008ED
:10382900C007C006C005120BABD005D006D0078073
:1038390023900634E0FBA3E0FC90063474322BF0AD
:10384900E43CA3F0900008C007C006120BABD006F9
:10385900D007802D900064C007C006C005120C1D5A
:10386900D005D006900B3FEEF08D82C0061231DBF9
:10387900AD82D006D007900B44EDF0ED60038D8248
:10388900220E02378F900B44E0F58222E582900BDD
:1038990048F0900B49E4F0900B48E0FFFEFD75F00D
:1038A90005A4F54985F04A8F0279008A82C007C0CC
:1038B90006C005C002C001121785D001D0028A8254
:1038C900C002C001120D52D001D002D005D006D0DD
:1038D900077800900001C007C006C005C002C001FA
:1038E900C000120C1DD000D001D002D005D006D0E6
:1038F900078F82C007C006C005C002C001C0001200
:103909000DB5E582D000D001D002D005D006D00790
:10391900600608B8640040BBB86445C0058F82C022
:1039290007C006C005C002C001120CBED001D002FA
:10393900D005900634E0F8A3E0FD900634743228EF
:10394900F0E43DA3F0900008C005C002C001120BCD
:10395900ABD001D002D005D006D007D005023A85F8
:103969009001F4C007C006C005C002C001120C1DB9
:10397900D001D002D005D00690092974FFF08E82BB
:10398900C006C005C002C00112291EA882D001D0FC
:1039990002D005D006D007900B49E8F0E87069C05D
:1039A9000590092774FFF08E82C007C006C002C0C7
:1039B900011228D4A882AC83ADF0D001D002D00680
:1039C900D007740328F8E43CFC88828C838DF012BC
:1039D90040E7F8B809028004D0058021D0058E821D
:1039E900C007C006C005C002C001123602E582D078
:1039F90001D002D005D006D007900B49F0900B49B1
:103A0900E0FCE070038C8222900634E0FBA3E0FC2A
:103A190090063474322BF0E43CA3F0900008C00700
:103A2900C006C005C002C001120BABD001D002D044
:103A3900058D040C900B49E0FB900B8CE4F0A3F08E
:103A4900900B8EECF0900B8FEBF0900B9074EEF0E6
:103A5900900B91E4F0A3F0758203C005C002C00188
:103A6900123C79D001D002D005D006D007E549240F
:103A790037F582E54A3408F5837402F009B90A007A
:103A890050030238B4900B49E0F58222900B4AE4C6
:103A9900F010D803023B5FE5DB30E76390083CE0B8
:103AA9006008E5E530E003023B5F758201120CBE58
:103AB90090083C7401F0900634E0FEA3E0FF900604
:103AC9003474322EF0E43FA3F0900008120BAB904F
:103AD9000B8CE4F0A3F0900B8E7402F0900B8FF036
:103AE900900B90F0900B91E4F0A3F0758201123CD9
:103AF90079758201123895E582900B4AF0805790CA
:103B0900083CE0FFBF0100404D7582011217857521
:103B19008201120CBE900634E0FEA3E0FF90063449
:103B290074322EF0E43FA3F0900008120BAB900B17
:103B39008CE4F0A3F0900B8E7402F0900B8FF09050
:103B49000B90F0900B91E4F0A3F0758202123C798E
:103B5900900B4A7416F0900837E0FFBF010E9008E9
:103B69003AE0FFBF090675820012340090083CE074
:103B7900FFBF010E90083FE0FFBF090675820112E1
:093B89003400900B4AE0F58222A1
:104107008006000100001200800600020000120075
:1041170081060004000009000005020000000000FD
:1041270080060203090402040009000000000000E1
:10413700210A000000000000810600220000FF00A5
:104147002109000200000000210B00000000000010
:10415700A103000000000100A006002900001200D2
:10416700A30000000000040023030000000000007B
:094177002301000000000000001B
:103B9200AE82AF83C3EE9432EF940050078E828FD1
:103BA20083020BE7900634E0FCA3E0FD900634EEBE
:103BB2002CF0EF3DA3F0900BBDEEF0EFA3F09000E0
:103BC200051240C7E5828583F02410FEE435F0C477
:103BD20003CEC40354076ECE5407CE6ECEFF8E8240
:103BE2008F83020BAB75A15575A1AA53EAF775A194
:103BF200FF2275A15575A1AA43EA0875A1FF22C04B
:103C0200E0C082C083C0D075D00810980280259091
:103C12000BC0E0244BF582E4340BF583E599F09078
:103C22000BC0E02401F0E0FFBF400040DD900BC07C
:103C3200E4F080D61099028000D0D0D083D082D018
:103C4200E032E582900B8BF0E0FFBFC0028005BF3F
:103C5200DB1A800C7582DB1205807582DC0205801E
:103C62007582DB1205807582DD0205808F82020576
:103C7200807582C0020580E582900B93F0900B8CD8
:103C8200E0FEA3E0FF8E058D82C007C006123C4411
:103C9200D006D0078F058D82C007C006123C449023
:103CA2000B93E0F582123C44900B8EE0F582123CBD
:103CB20044900B8FE0F582123C44900B90E0F58229
:103CC200123C44758200123C44758200123C4475D9
:103CD2008200123C44758200123C44D006D0079008
:103CE2000B91E0FCA3E0FD7A007B00C3EA9EEB9F10
:103CF200502DEA2CF582EB3DF583E0F582C007C03A
:103D020006C005C004C003C002123C44D002D00366
:103D1200D004D005D006D0070ABA00CF0B80CC025F
:103D22003C73E582900B9FF0900B94E0FEA3E0FFC2
:103D32008E058D82C007C006123C44D006D0078F84
:103D4200058D82C007C006123C44900B9FE0F582AD
:103D5200123C44900B96E0F582123C44900B97E0A3
:103D6200F582123C44900B98E0F582123C44900B91
:103D72009BE0F582123C44900B9CE0F582123C449D
:103D8200900B9DE0F582123C44900B9EE0F582126E
:103D92003C44D006D007900B99E0FCA3E0FD7A00EA
:103DA2007B00C3EA9EEB9F502DEA2CF582EB3DF59A
:103DB20083E0F582C007C006C005C004C003C0028C
:103DC200123C44D002D003D004D005D006D0070A5A
:103DD200BA00CF0B80CC023C73AFF0AE83E5829089
:103DE2000BA1F0EEA3F0EFA3F0900BA1E0FDA3E096
:103DF200FEA3E0FF8D828E838FF01240E7FCBC6B46
:103E02003274012DF9E43EFA8F0389828A838BF0A2
:103E12001240E7FBBB620F1209AA1203F98518824E
:103E2200851983020041BB726675A15575A1AA432B
:103E3200B11022BC6C1C900BA0E0FC24FD50130DB1
:103E4200BD00010E8D828E838FF01240E7F5820253
:103E52000AA4900BA1E0FDA3E0FEA3E0FF8D828EF9
:103E6200838FF01240E7FF30E7258F05530560E4AA
:103E7200C403CDC40354076DCD5407CD6DCD30E2DC
:103E82000244F8900907741F5FF08D820219F32231
:103E9200900BC0E0FF602A8F061EEE3395E0FDEE28
:103EA200244BF582ED340BF583E0FEBE0A13900B32
:103EB200A0EFF0900B4B75F000123DDB900BC0E4CD
:103EC200F02212058DAF82900BA4EFF012058DAF98
:103ED20082900BA5EFF012058DAF82900BA6EFF04A
:103EE200900BA4E0FFBFFE00500F900BA07403F0F4
:0A3EF200900BA475F000023DDB22E6
:01418000003E
:103EFC00AF82AE83ADF0FC900BABEFF0EEA3F0ED28
:103F0C00A3F0ECA3F0900BABE0FCA3E0FDA3E0FE70
:103F1C00A3E0FF30E70FC3E49CF8E49DF9E49EFABC
:103F2C00E49FFB80088C008D018E028F03900BA701
:103F3C00E0FCA3E0FDA3E0FEA3E0FF33E433F51ABD
:103F4C006013C3E49CF51BE49DF51CE49EF51DE495
:103F5C009FF51E80088C1B8D1C8E1D8F1E900BAF29
:103F6C00E51BF0E51CA3F0E51DA3F0E51EA3F0880E
:103F7C008289838AF0EB123FB8AC82AD83AEF0FF3E
:103F8C00900BABE0A3E0A3E0A3E033E433651A604D
:103F9C0013C3E49CF8E49DF9E49EFAE49F888289BB
:103FAC00838AF0228C828D838EF0EF22AF82AE83D7
:103FBC00ADF0FC900BB3EFF0EEA3F0EDA3F0ECA39F
:103FCC00F0900BB7E4F0A3F0A3F0A3F0900BAFE0EC
:103FDC00FCA3E0FDA3E0FEA3E0FF7B20C003900B5D
:103FEC00B3E0F8A3E0F9A3E0FAA3E0FB900BBB234A
:103FFC005401F0E828F8E933F9EA33FAEB33FB9093
:10400C000BB3E8F0E9A3F0EAA3F0EBA3F0900BB745
:10401C00E0F8A3E0F9A3E0FAA3E0FBE828F8E93321
:10402C00F9EA33FAEB33FB900BB7E8F0E9A3F0EACB
:10403C00A3F0EBA3F0D003900BBBE06008900BB7A0
:10404C00E043E001F0900BB7E0F54BA3E0F54CA397
:10405C00E0F54DA3E0F54EC3E54B9CE54C9DE54DDD
:10406C009EE54E9F401F900BB7E54BC39CF0E54C73
:10407C009DA3F0E54D9EA3F0E54E9FA3F0900BB3EE
:10408C00E043E001F01BEB6003023FE8900BB3E070
:10409C00FCA3E0FDA3E0FEA3E08C828D838EF022D6
:06007200E478FFF6D8FD62
:100050007902E94400601B7A0190417F78BF75A066
:100060000BE493F2A308B8000205A0D9F4DAF27504
:02007000A0FFEF
:1040AC0020F71130F6138883A88220F509F6A8832F
:1040BC007583002280FEF280F5F022AA83AB828BFE
:1040CC00F0900BBDE0A4F8A9F08AF0E0A429F98BDC
:0B40DC00F0A3E0A429F58388822222D3
:100078007800E84400600A790075A006E4F309D81E
:10008800FC78BFE84405600C7906900600E4F0A30C
:04009800D8FCD9FABD
:0F004100E47375814E124103E582600302003EB5
:1040E70020F71430F6148883A88220F507E6A88302
:1040F70075830022E280F7E49322E0227582002292
:00000001FF
