:0400000002002B329D
:01000B0032C2
:0100130032BA
:01001B0032B2
:030023000238366A
:03008A000200264B
:0300260002008D48
:10008D001201219006007401F0E4A3F090C20075F6
:10009D00F001E412014E90C20075F001E41201F07E
:1000AD0074FFC0E07446C0E07480C0E0123C9D1542
:1000BD00811581158175820012120B758201121244
:1000CD000B1207707408C0E07447C0E07480C0E084
:1000DD00123C9D158115811581900B79E4F0A3F0EB
:1000ED00900B7BF0900B7CF0900B7DF0900B7EF0E5
:1000FD00A3F07582081238A9E5C120E60C1201396A
:10010D00851082851183120029123A0B1236761250
:04011D0012E480E484
:1046FF00537461727475700A0052656164790A00AF
:060084007510007511F477
:1001210075A15575A1AA53B3E043B30675B2D8754D
:10013100A1FF9000070206FF75A15575A1AA75B32D
:100141009875B2D875A1FF9000070206FFAF82AE85
:1001510083ADF0FC900602EFF0EEA3F0EDA3F0EC1E
:10016100A3F0900600E0F5F0A3E045F0600C43C673
:100171000143C40843C50C43CE10C29FD29EC29D09
:10018100D29C438780900602E0FCA3E0FDA3E0FE41
:10019100A3E0FF900B95ECF0EDA3F0EEA3F0EFA33D
:1001A100F0908D8075F05BE4123B40AC82AD830C26
:1001B100BC00010DEDC313CC13CC740F5589442041
:1001C100F58943C9A0C3E49CFC8C8DD28ED299D20F
:1001D100ACD2AF2210980280FB85998222E58290F1
:1001E1000606F010990280FB900606E0F59922AF11
:1001F10082AE83ADF0FC900607EFF0EEA3F0EDA325
:10020100F0ECA3F0759300759120759380759701BB
:10021100900B8DE597F0E4A3F0A3F0A3F0908D800F
:1002210075F05BE4123A84AC82AD83AEF0FF9006C8
:1002310007E0F8A3E0F9A3E0FAA3E0FB900B95E84F
:10024100F0E9A3F0EAA3F0EBA3F08C828D838EF0AA
:10025100EF123B40AC82AD838C9A8D917592017502
:10026100930322E59530E0FB859A8222E582900690
:100271000BF0E59530E5FB90060BE0F59A22E5825F
:1002810090060EF090060F74C4F07400A3F0744051
:10029100A3F090061274BAF07400A3F07440A3F0B6
:1002A10090061574BCF07400A3F07440A3F090069E
:1002B1001874BEF07400A3F07440A3F090061B7490
:1002C100C5F07400A3F07440A3F090061E74BBF057
:1002D1007400A3F07440A3F090062174BDF0740083
:1002E100A3F07440A3F090062474BFF07400A3F04F
:1002F1007440A3F090060DE0FF24F9500122EF2F86
:100301002F9003067302031B02039E0204230204BF
:100311007E02050002058602060A90060EE0FFFE37
:100321008EF005F07401800225E0D5F0FBF4ADC636
:100331005DF5C6EF75F003A4FFAEF0240FF582EE74
:100341003406F583E0FBA3E0FCA3E0FD8B828C8304
:100351008DF01246DFFA90060CE0F989F005F07491
:1003610001800225E0D5F0FBF4F952028B828C83E7
:100371008DF0EA123C34EF241BF582EE3406F5834E
:10038100E0FDA3E0FEA3E0FF8D828E838FF0124695
:10039100DF52018D828E838FF0E9023C3490060E8C
:1003A100E0FFFE8EF005F07401800225E0D5F0FB40
:1003B100F4ADC65DF5C6EF75F003A4FFAEF0240FF2
:1003C100F582EE3406F583E0FBA3E0FCA3E0FD8BB0
:1003D100828C838DF01246DFFA90060CE0F989F0E9
:1003E10005F07401800225E0D5F0FBF9F4F8EA523A
:1003F100008B828C838DF0E8123C34EF241BF58254
:10040100EE3406F583E0FDA3E0FEA3E0FF8D828ECE
:10041100838FF01246DF42018D828E838FF0E902D5
:100421003C3490060EE0FFFE8EF005F07401800270
:1004310025E0D5F0FBF4ADC65DF5C6EF75F003A47C
:10044100240FF582740635F0F583E0FDA3E0FEA3E9
:10045100E0FF8D828E838FF01246DFFC90060CE068
:10046100FB8BF005F07401800225E0D5F0FBF4FB75
:10047100EC42038D828E838FF0EB023C3490060EAA
:10048100E0FFFE8EF005F07401800225E0D5F0FB5F
:10049100ADC64DF5C6EF75F003A4FFAEF0240FF520
:1004A10082EE3406F583E0FBA3E0FCA3E0FD8B8242
:1004B1008C838DF01246DFFA90060CE0F989F00585
:1004C100F07401800225E0D5F0FBF4F952028B8231
:1004D1008C838DF0EA123C34EF241BF582EE340656
:1004E100F583E0FDA3E0FEA3E0FF8D828E838FF014
:1004F1001246DF52018D828E838FF0E9023C3490E7
:10050100060EE0FFFE8EF005F07401800225E0D5B5
:10051100F0FBADC64DF5C6EF75F003A4FFAEF024B8
:100521000FF582EE3406F583E0FBA3E0FCA3E0FDCA
:100531008B828C838DF01246DFFA90060CE0F989EC
:10054100F005F07401800225E0D5F0FBF942028B41
:10055100828C838DF0EA123C34EF241BF582EE3459
:1005610006F583E0FDA3E0FEA3E0FF8D828E838F7D
:10057100F01246DFFCE9F4F9EC52018D828E838F93
:10058100F0E9023C3490060EE0FFFE8EF005F074B7
:1005910001800225E0D5F0FBADC64DF5C6EF75F043
:1005A10003A4FFAEF0240FF582EE3406F583E0FBE1
:1005B100A3E0FCA3E0FD8B828C838DF01246DFFA71
:1005C10090060CE0F989F005F07401800225E0D570
:1005D100F0FBF9F4F8EA52008B828C838DF0E8127B
:1005E1003C34EF241BF582EE3406F583E0FDA3E0F5
:1005F100FEA3E0FF8D828E838FF01246DF42018DD4
:10060100828E838FF0E9023C3490060EE0FFFE8E6D
:10061100F005F07401800225E0D5F0FBADC64DF583
:10062100C6EF75F003A4FFAEF0240FF582EE340699
:10063100F583E0FBA3E0FCA3E0FD8B828C838DF0CE
:100641001246DFFA90060CE0F989F005F07401809A
:100651000225E0D5F0FBF942028B828C838DF0EA12
:10066100123C34EF241BF582EE3406F583E0FDA342
:10067100E0FEA3E0FF8D828E838FF01246DF420100
:100681008D828E838FF0E9023C34AF83E582900640
:1006910027F0EFA3F0900627E0FEA3E08E8202028E
:1006A1006D1202647E008E8322AF83E5829006295B
:1006B100F0EFA3F0900629E0FEA3E0FFEE4F6035D6
:1006C10005A105A105A105A105A105A105A105A1F9
:1006D10005A105A105A105A105A105A105A105A1E9
:1006E10005A105A105A11EBEFF011F900629EEF07F
:1006F100EFA3F080C7900629EEF0EFA3F022AF83BD
:10070100E58290062BF0EFA3F090062BE0FEA3E02C
:10071100FFEE4F601D9003E8C007C0061206AAD085
:1007210006D0071EBEFF011F90062BEEF0EFA3F0CF
:1007310080DF90062BEEF0EFA3F022E582900860B7
:10074100F0E0FF75F005A4FDAEF0242EF582EE3445
:1007510008F583E4F0ED242EFDEE3408FE8D828E43
:1007610083A3E4F0EF600475E5002275E40022C282
:10077100EA75E28075E3009024477448F090244CB8
:10078100E4F0A3F090244E04F0E4A3F0F5D4F5D600
:1007910075E28975D24075D8FF75820012073C75E4
:1007A100820112073C75E10322E582900861F0E5C0
:1007B100E35480FFE0547F4FF5E322E58290086225
:1007C100F0E0600753E2BF53D27F2243E24022E5CB
:1007D10082900863F090062D7408F075820012076C
:1007E100AA7582011207BC900863E0FFE0701374E0
:1007F100FB55E44402F5E490000F1206FF53E4FDBB
:100801008014BF011174FB55E54402F5E590000F1A
:100811001206FF53E5FD9000FA1206AAC2D822E59E
:1008210082900864F0E075F005A4242EFE7408356A
:10083100F0FF8E828F83E0FDBD010050078E828F15
:10084100837401F0900864E0FF7049E5DB20E30365
:100851000208DEE5E420E035E5DB30E21AEF75F071
:1008610005A4242EFD740835F0FE8D828E83A3A38A
:10087100E4F043E4048016EF75F005A4242EFD7422
:100881000835F0FE8D828E83A3A37401F043E40149
:1008910075820022BF0146E5DB30E741E5E520E056
:1008A10035E5DB30E61AEF75F005A4242EFD74085A
:1008B10035F0FE8D828E83A3A3E4F043E504801618
:1008C100EF75F005A4242EFE740835F0FF8E828F9B
:1008D10083A3A37401F043E501758200227582169A
:1008E10022E582900866F0900865E0FFBFFF2F9037
:1008F1000866E075F005A4242EFD740835F0FE8D20
:10090100828E83A3E0F582C006C0051207AAD00536
:10091100D0068D828E83A3A3E0F5820207BC9008E6
:1009210066E075F014A42438FD740835F0FEEF7507
:10093100F005A4FF2DFDE43EFE8D828E83A3E0F53C
:1009410082C007C006C0051207AAD005D006D0078D
:1009510074022DFDE43EFE8D828E83E0700343D24E
:1009610080900866E075F014A42438FD740835F011
:10097100FEEF2DFFE43EFC8F828C83A3A3E0F58282
:100981000207BCE58290086AF0900867E0FF8FD407
:100991008FD690086BE4F0A3F090086AE0FEC4548F
:1009A1000FFDBD0103ED8001E4F515E4BD0901046E
:1009B100F516900868E0F9A3E0FA8ED5C2D9751250
:1009C100C8751300E5124513602820D92590000150
:1009D100C007C006C005C002C0011206AAD001D0DE
:1009E10002D005D006D007151274FFB512021513F7
:1009F10080D275D50020D9047582FE2220D9030248
:100A01000AFC30DE0475820022E5D9540FF5147416
:100A11000EB5140474018001E4F5126007742045D9
:100A210014F58222740AB5140474018001E4F8609B
:100A310033E94A700A74204514F51585158222C3DD
:100A4100E994FFEA94FF500519B9FF011A90086B68
:100A5100E024FFFBA3E034FFFC90086BEBF0ECA378
:100A6100F0020AFFE515700CE5167034BD0D028029
:100A710003020AF830DE04758200227402B5140400
:100A810075820022E5127003E8600774204514F5B1
:100A91008222E5147003020AFF74204514F58222B4
:100AA10030DE0475820022EF6011740BB5140474FA
:100AB100018001E424FFE433FC80107403B51404C5
:100AC10074018001E4FB24FFE433FCEC60047582D3
:100AD1000022E5127003E8600774204514F58222B4
:100AE1007403B51407740BB514028012E514600E7B
:100AF10074204514F582227582FE2275D8FF90007C
:100B01000FC007C006C005C002C0011206AAD0016D
:100B1100D002D005D006D00790086BE02401F0A3E5
:100B2100E03400F090086BE0FBA3E0FCC3EB94C859
:100B3100EC940050030209BB75822022AF83E58249
:100B4100900872F0EFA3F0900872E0FEA3E0FF902E
:100B51000876EEF0EFA3F090086DE0FBA3E0FCA3B4
:100B6100E0FD9000C8C007C006C005C004C0031264
:100B710006AAD003D004D005D006D007EB4C600EF6
:100B81008B828C838DF0E4123C34A3123C3475D7F4
:100B910008900867E4F09008687410F07427A3F0D7
:100BA1007582D0C007C006C005C004C00312098405
:100BB100AA82D003D004D005D006D007EA60038A08
:100BC1008222C006C00775D6D075D4D075D70190E2
:100BD1000107E0FA7900900106E0F87F004201EF99
:100BE1004202900874E9F0EAA3F0D007D006E94A7E
:100BF1007003020DEBEE4F7003020DEB900100E06C
:100C0100FF20E703020CF7900874E0FEA3E0FF4E1B
:100C11007003020CF190012CC007C006C005C0048E
:100C2100C0031206AA900867E5D4F0900868741012
:100C3100F07427A3F0758290120984AA82D003D0A0
:100C410004D005D006D007EA60038A8222A9D17AAE
:100C510000C3E99EEA9F5006A9D17A0080048E0163
:100C61008F0289067F00900874E0F8A3E0FA9008EB
:100C710074E8C39EF0EA9FA3F0EB4C60248B828C56
:100C8100838DF01246DFF8A31246DFFAEE28FEEF5D
:100C91003AFF8B828C838DF0EE123C34A3EF123C31
:100CA10034900876E0FEA3E0FF7A00C3EA99501C75
:100CB100C001EA2EF517E43FF5188A82758300E03A
:100CC100851782851883F00AD00180DF900876E0CD
:100CD100FEA3E0FF900876E92EF0E43FA3F0E5D112
:100CE100600E90062DE0FFC3E5D19F4003020C0882
:100CF10075D700020DEB900874E0FEA3E0FF4E7083
:100D010003020DEB9000C8C007C006C005C004C0B7
:100D1100031206AAD003D004D005D006D00790064E
:100D21002DE0F97A00C3EE99EF9A50048E018F02FB
:100D310089D7900876E0FEA3E0FFE5D72EFEE43FD9
:100D4100FF900876EEF0EFA3F08E828F83A3E0FA96
:100D5100BA0924900BDCE0F97A007401697003EAA6
:100D6100600679017A00800479007A00900BDCE951
:100D7100F08E828F83E9F0900867E5D6F0900868DD
:100D81007410F07427A3F0758210C005C004C0036D
:100D9100120984AF82D003D004D005EF60038F82A3
:100DA10022AED77F00900874E0F9A3E0FA900874AE
:100DB100E9C39EF0EA9FA3F0EB4C7003020CF78BA2
:100DC100828C838DF01246DFFEA31246DFFFA9D786
:100DD1007A00E92EFEEA3FFF8B828C838DF0EE12C2
:100DE1003C34A3EF123C34020CF79000C81206AA5F
:100DF100E5D760047F9080027F1090086774C0F08F
:100E01009008687410F07427A3F08F82120984E5AA
:100E110082FF60038F8222E5D77003F58222E5D13C
:100E21007003F5822275821722AF83E582900879DB
:100E3100F0EFA3F0900879E0FEA3E0FF900878E0DE
:100E4100FD7C00C3EC9D50178C027B01EC2EF582DA
:100E5100E43FF583E493F98A828B83F00C80E422EA
:100E610090062D7408F07487C0E07447C0E0748068
:100E7100C0E0123C9D158115811581900878740898
:100E8100F090470F120E2A90086D747BF07408A33E
:100E9100F0E4A3F0900870F07402A3F090062E1213
:100EA1000B3DE582FF60038F8222749CC0E0744792
:100EB100C0E07480C0E0123C9D15811581158190C0
:100EC1000635E090062DF0904715E493FF90087BDE
:100ED100E0FDA3E0FE7C00C3ED9FEE9C501974C9B8
:100EE100C0E07447C0E07480C0E0123C9D158115DC
:100EF1008115817582172275820022E58290087D15
:100F0100F09008787408F0904727120E2A90087D17
:100F1100E0FF900102F090086DE4F0A3F0A3F090DF
:100F21000870F0A3F0900000C007120B3DAE82D014
:100F310007EE60038E82228F057E00C007C005C0C8
:100F41000674F3C0E07447C0E07480C0E0123C9DB9
:100F5100E58124FBF581D0078F821207AA900064F6
:100F61001206FF75820022E58290087EF0900878D3
:100F71007408F0904737120E2A90087EE090010223
:100F8100F090086DE4F0A3F0A3F0900870F0A3F0E6
:100F9100900000020B3D9008787408F090472F12E2
:100FA1000E2A90086DE4F0A3F0A3F0900870F0749D
:100FB10002A3F090062E020B3DAF83E582900884D8
:100FC100F0EFA3F0900884E0FEA3E0FF8E828F8310
:100FD100E07C0024FEFDEC34FFA2E713CD13CD8E9F
:100FE100828F83A3E0FCBC030280047582002290FF
:100FF1000881E0FBA3E0FCEB24FFF51BEC34FFF5DB
:101001001C90087FE0F51DA3E0F51E851D19851EC6
:101011001A7800C3E89D5063C00588047D00C3ECC5
:10102100951BED951CD0055052C00588037C00EB43
:101031002BFBEC33FC74032BFAE43CFDEA2EFAEDB6
:101041003FFD8A828D83E0D005600FE82519F58286
:10105100E4351AF583743FF0801EE8251DF9E43567
:101061001EFA74022BFBE43CFCEB2EF582EC3FF5FF
:1010710083E0FC89828A83F0088098E8251DF58247
:10108100E4351EF583E4F07F00900883E0FE0E90C6
:101091000B79EDF0EFA3F0900B7BEEF0900B7C74ED
:1010A10034F0900B7D7456F0900B7EE51DF0E51E3B
:1010B100A3F07582051238A975820122AF83E582FA
:1010C100900886F0EFA3F0900886E0FEA3E0FF7C95
:1010D100007D008E828F83E0FB7A00C3EC9BED6480
:1010E100808AF063F08095F0503CEC2EF582ED3F64
:1010F100F583E0FB7A00C007C006C005C004C00349
:10110100C0027403C0E07448C0E07480C0E0123CC7
:101111009DE58124FBF581D004D005D006D0070CD4
:10112100BC00B00D80AD740BC0E07448C0E07480A9
:10113100C0E0123C9D1581158115812290087874BB
:1011410008F0904717120E2A90086D7488F0740801
:10115100A3F0E4A3F0900870F07402A3F090062EBF
:10116100120B3DE582FF60038F822290471DE493BD
:10117100FF900888E0FDA3E0FE7C00C3ED9FEE9C9C
:10118100500475821722900630E0FF7E00900631F0
:10119100E0FCE42FFFEC3EFE9008787408F09047E5
:1011A10017C007C006120E2AD006D0078F048E057D
:1011B100900106ECF08E07900107EFF090086D7436
:1011C10088F07408A3F0E4A3F0900870F07402A30F
:1011D100F090062E120B3DE582FF60038F8222758F
:1011E1008200229008787408F090471F120E2A900E
:1011F100086D748AF07408A3F0E4A3F0900870F00D
:101201007402A3F090062E020B3DE5829008F4F0E3
:10121100E0FF75F010A4FDAEF024D4F582EE3408A1
:10122100F583E4F0A3F0A3F0A3F0ED24D4FDEE34B4
:1012310008FE8D828E83A3A3A3A3E4F0A3F0A3F001
:10124100A3F074082DF582E43EF583E4F0A3F0A346
:10125100F0A3F0740C2DF582E43EF583E4F0A3F0E5
:10126100A3F0A3F07E00EE75F009A4248CFC7408B1
:1012710035F0FD74012CFAE43DFB8A828B83E0B5E5
:10128100072C8C828D83E4F08A828B83F08C828D93
:1012910083A3A3A3F08C828D83A3A3A3A3F08C8249
:1012A1008D83A3A3A3A3A3F0A3F0A3F0A3F00EBE89
:1012B100080040B29008F4E075F014A42438FE74DC
:1012C1000835F0FF7D00ED75F005A42EFBE43FFC31
:1012D1008B828C83A3E4F08B828C83F00DBD0400A0
:1012E10040E4227F00EF75F009A4FDAEF0248CFBF1
:1012F100EE3408FC8B828C83E070030214A4ED248D
:101301008CFDEE3408FE8D828E83A3E0FC8D828EEF
:1013110083A3A3E0900865F08C82C007C006C005D6
:101321001208E2D005D006D0078D828E83A3A3A335
:10133100A3E0FE747F5E4490FDEE30E7067CC07E44
:101341000080047C007E00900867ECF0900868E45F
:10135100F0A3F08D82C007120984E582D0076003F3
:1013610002149AEF75F009A4248CF526740835F05F
:10137100F52774042526FBE43527FC8B828C83E05A
:10138100F97A006301808B828C83E9F09008F5E59E
:10139100D1F0E0F51FE070030214A4B2968B828CA9
:1013A10083E0F87900747F58F52089218F22892301
:1013B10074052526F524E43527F525852482852520
:1013C10083E0F8A3E0F9A3E0FAA3E0FEC007C004BC
:1013D100C003C020C021C022C023C000C001C00280
:1013E100C006740DC0E07448C0E07480C0E0123CD7
:1013F1009DE58124F5F581D003D004D007AA1F7E95
:1014010000852482852583E0FD8B828C83E0FB535C
:10141100037F852682852783A3E075F010A4F9ACAC
:10142100F024D4F582EC3408F583E0F526E924D4E0
:10143100F9EC3408FC89828C83A3A3A3A3E0F524EF
:10144100740829F582E43CF583E0F8740C29F582EF
:10145100E43CF583E0FC900B81EAF0EEA3F0900B05
:1014610083EDF0900B84EFF0900B85EBF0900B8601
:101471007400F07400A3F0900B88E526F0900B89BE
:10148100E524F0900B8AE8F0900B8BECF075820468
:10149100C007123954D007800A900064C0071206B1
:1014A100AAD0070FBF080050030212E622E582907E
:1014B10008F7F0E075F009A4FEAFF0248CFCEF34DE
:1014C10008FD8C828D83E06029EE248CFEEF3408C8
:1014D100FF8E828F83A3E0FD8E828F83A3A3E09092
:1014E1000865F08D82C007C0061208E2D006D00759
:1014F1008001229008787408F090474FC007C00619
:10150100120E2AD006D0078E828F83A3A3A3E09068
:101511000104F09001067401F075D708900867E4A2
:10152100F09008687410F07427A3F07582D0120946
:1015310084E5826001229008F6E0900100F075D602
:10154100D075D4D075D701900867E5D6F0900868BA
:101551007410F07427A3F0758210020984AF83E53B
:10156100829008FBF0EFA3F09008FDE4F0A3F09067
:1015710008FFF0900900F09008FAE075F009A42442
:101581008CFE740835F0FF9008FBE0F52EA3E0F522
:101591002FAA2EAB2F9008F8E0F52CA3E0F52D90A3
:1015A10008FDE0F528A3E0F529C3E528952CE529F8
:1015B100952D400122C006C007E528252EF582E5BC
:1015C10029352FF583E0FF90090174FC5FF0740366
:1015D1005FF528900902F0900903E4F0A3F0A3F06D
:1015E100A3F07403B528028006D007D006800BD083
:1015F10007D006900902E52804F0C006C00790084C
:10160100FDE0FEA3E0FF74012EF528E43FF52990EB
:101611000902E0F52A752B00D007D006C3E52B950A
:101621002A5054C006C007AE2B7F00EE2528FEEFDE
:101631003529FFEE2AF582EF3BF583E0F8E4F9FE68
:10164100FFE52BC40354F8FD8DF005F0800CE8286C
:10165100F8E933F9EE33FEEF33FFD5F0F1900903EA
:10166100E048F0A3E049F0A3E04EF0A3E04FF0051D
:101671002BD007D00680A59008FFE0FD900901E07E
:10168100FCE4BCC00104F52B79008D28752900E527
:101691002B60087530017531008005E4F530F531B6
:1016A100C006C007E528C39530F8E5299531FF89C3
:1016B100047E00C3EC98EE64808FF063F08095F0B7
:1016C100D007D0065030C007C006C005C003C00215
:1016D100C0017425C0E07448C0E07480C0E0123CD1
:1016E1009D158115811581D001D002D003D005D07F
:1016F10006D007098094900901E0FDBD04028063D2
:10170100BD0803021944BD1403021CCEBD18030217
:101711001DB6BD2403021D08BD2803021DF0BD3402
:1017210003021D42BD4403021D7CBD6403021EABC6
:10173100BD7403021F93BD8003021EE5BD84030235
:101741001FCDBD9003021F1FBD9403022007BDA042
:1017510003021E2ABDB003021F59BDC003021E6B46
:10176100022040900903E0F532A3E0F533A3E0F550
:1017710034A3E0F535C3E53394FFE5349400E53552
:101781009400400AE4F5327533FFF534F535C007AE
:10179100C006C003C002742AC0E07448C0E074806F
:1017A100C0E0123C9D158115811581D002D003D076
:1017B10006D0077401B5320D14B53309B53406B539
:1017C10035030218857407B5320CE4B53308B53416
:1017D10005B53502805E7408B5320CE4B53308B541
:1017E1003405B5350280257409B5320CE4B53308EA
:1017F100B53405B535028064E4B5320DB5340AB5AA
:101801003507F4B533030218AC0218E5C007C0066A
:10181100C003C0027436C0E07448C0E07480C0E008
:10182100123C9D158115811581D002D003D006D0BF
:101831000702191CC007C006C003C002743BC0E008
:101841007448C0E07480C0E0123C9D15811581157B
:1018510081D002D003D006D00702191CC007C006F0
:10186100C003C002744BC0E07448C0E07480C0E0A3
:10187100123C9D158115811581D002D003D006D06F
:101881000702191CC007C006C003C0027452C0E0A1
:101891007448C0E07480C0E0123C9D15811581152B
:1018A10081D002D003D006D0078070C007C006C027
:1018B10003C002900903E0C0E0A3E0C0E0A3E0C0E0
:1018C100E0A3E0C0E0746BC0E07448C0E07480C085
:1018D100E0123C9DE58124F9F581D002D003D006C8
:1018E100D0078037C007C006C003C002900903E0DB
:1018F100C0E0A3E0C0E0A3E0C0E0A3E0C0E07482E8
:10190100C0E07448C0E07480C0E0123C9DE58124D1
:10191100F9F581D002D003D006D007C007C006C0B8
:1019210003C002740BC0E07448C0E07480C0E012D0
:101931003C9D158115811581D002D003D006D007B9
:10194100022087900900E07036C002C00374052EA2
:10195100F532E43FF533900903E0F8A3E0FAA3E0A0
:10196100FBA3E0FC853282853383E8F0EAA3F0EB48
:10197100A3F0ECA3F09009007401F0D003D002C0F1
:1019810007C006C003C0027492C0E07448C0E0748E
:1019910080C0E0123C9D158115811581D002D003D4
:1019A100D006D007900903E0F532A3E0F533A3E0B8
:1019B100F534A3E0F535C374389532E49533E495F5
:1019C10034E495355003021C79E532240B83F5820A
:1019D100E532243D83F583E4734C749CC4EC143CE0
:1019E100648CB4797979797979797979797979792D
:1019F1007979797979797979797979797979797956
:101A0100797979797979797979DC042B79797979A5
:101A110079521A1A1A1A1A1B1B1B1B1B1C1C1C1C81
:101A21001C1C1C1C1C1C1C1C1C1C1C1C1C1C1C1CF5
:101A31001C1C1C1C1C1C1C1C1C1C1C1C1C1C1C1CE5
:101A41001C1C1B1C1C1C1C1C1C1C1CC007C006C015
:101A510003C0027499C0E07448C0E07480C0E01211
:101A61003C9D158115811581D002D003D006D00788
:101A7100021CA6C007C006C003C00274A1C0E07466
:101A810048C0E07480C0E0123C9D1581158115812C
:101A9100D002D003D006D007021CA6C007C006C0E2
:101AA10003C00274A9C0E07448C0E07480C0E012B1
:101AB1003C9D158115811581D002D003D006D00738
:101AC100021CA6C007C006C003C00274AFC0E07408
:101AD10048C0E07480C0E0123C9D158115811581DC
:101AE100D002D003D006D007021CA6C007C006C092
:101AF10003C00274B8C0E07448C0E07480C0E01252
:101B01003C9D158115811581D002D003D006D007E7
:101B1100021CA6C007C006C003C00274C1C0E074A5
:101B210048C0E07480C0E0123C9D1581158115818B
:101B3100D002D003D006D007021CA6C007C006C041
:101B410003C00274C9C0E07448C0E07480C0E012F0
:101B51003C9D158115811581D002D003D006D00797
:101B6100021CA6C007C006C003C00274D2C0E07444
:101B710048C0E07480C0E0123C9D1581158115813B
:101B8100D002D003D006D007021CA6C007C006C0F1
:101B910003C00274D9C0E07448C0E07480C0E01290
:101BA1003C9D158115811581D002D003D006D00747
:101BB100021CA6C007C006C003C00274EFC0E074D7
:101BC10048C0E07480C0E0123C9D158115811581EB
:101BD100D002D003D006D007021CA6C007C006C0A1
:101BE10003C0027406C0E07449C0E07480C0E01212
:101BF1003C9D158115811581D002D003D006D007F7
:101C0100021CA6C007C006C003C0027408C0E0746D
:101C110049C0E07480C0E0123C9D15811581158199
:101C2100D002D003D006D007807BC007C006C00316
:101C3100C002740AC0E07449C0E07480C0E0123C84
:101C41009D158115811581D002D003D006D0078062
:101C510054C007C006C003C002740CC0E07449C080
:101C6100E07480C0E0123C9D158115811581D00280
:101C7100D003D006D007802DC007C006C003C00224
:101C8100C032C033C034C0357482C0E07448C0E093
:101C91007480C0E0123C9DE58124F9F581D002D029
:101CA10003D006D007C007C006C003C002740BC032
:101CB100E07448C0E07480C0E0123C9D158115813C
:101CC1001581D002D003D006D007022087C007C0FB
:101CD10006C003C002900903E0C0E0A3E0C0E0A396
:101CE100E0C0E0A3E0C0E07412C0E07449C0E07459
:101CF10080C0E0123C9DE58124F9F581D002D0033A
:101D0100D006D007022087C007C006C003C00290DA
:101D11000903E0C0E0A3E0C0E0A3E0C0E0A3E0C0AD
:101D2100E07423C0E07449C0E07480C0E0123C9DBF
:101D3100E58124F9F581D002D003D006D007022035
:101D410087C007C006C003C002900903E0C0E0A33A
:101D5100E0C0E0A3E0C0E0A3E0C0E07434C0E07400
:101D610049C0E07480C0E0123C9DE58124F9F58111
:101D7100D002D003D006D007022087C007C006C01A
:101D810003C002900903E0C0E0A3E0C0E0A3E0C00B
:101D9100E0A3E0C0E07446C0E07449C0E07480C0D4
:101DA100E0123C9DE58124F9F581D002D003D006F3
:101DB100D007022087C007C006C003C002900903F4
:101DC100E0C0E0A3E0C0E0A3E0C0E0A3E0C0E074B5
:101DD10034C0E07449C0E07480C0E0123C9DE581EC
:101DE10024F9F581D002D003D006D007022087C0A4
:101DF10007C006C003C002900903E0C0E0A3E0C031
:101E0100E0A3E0C0E0A3E0C0E07446C0E07449C0D4
:101E1100E07480C0E0123C9DE58124F9F581D00297
:101E2100D003D006D007022087C007C006C003C078
:101E310002900903E0C0E0A3E0C0E0A3E0C0E0A39A
:101E4100E0C0E07458C0E07449C0E07480C0E012A2
:101E51003C9DE58124F9F581D002D003D006D0075D
:101E61009008FFE02401F0022087C007C006C003EC
:101E7100C002900903E0C0E0A3E0C0E0A3E0C0E03D
:101E8100A3E0C0E0746EC0E07449C0E07480C0E0BB
:101E9100123C9DE58124F9F581D002D003D006D012
:101EA100079008FFE014F0022087C007C006C003B6
:101EB100C002900903E0C0E0A3E0C0E0A3E0C0E0FD
:101EC100A3E0C0E07482C0E07449C0E07480C0E067
:101ED100123C9DE58124F9F581D002D003D006D0D2
:101EE10007022087C007C006C003C002900903E0B3
:101EF100C0E0A3E0C0E0A3E0C0E0A3E0C0E07490D4
:101F0100C0E07449C0E07480C0E0123C9DE58124CA
:101F1100F9F581D002D003D006D007022087C0078F
:101F2100C006C003C002900903E0C0E0A3E0C0E026
:101F3100A3E0C0E0A3E0C0E0749FC0E07449C0E04A
:101F41007480C0E0123C9DE58124F9F581D002D076
:101F510003D006D007022087C007C006C003C00215
:101F6100900903E0C0E0A3E0C0E0A3E0C0E0A3E08B
:101F7100C0E074AFC0E07449C0E07480C0E0123CBE
:101F81009DE58124F9F581D002D003D006D0070266
:101F91002087C007C006C003C002900903E0C0E06B
:101FA100A3E0C0E0A3E0C0E0A3E0C0E074C0C0E0F3
:101FB1007449C0E07480C0E0123C9DE58124F9F5CC
:101FC10081D002D003D006D007022087C007C00607
:101FD100C003C002900903E0C0E0A3E0C0E0A3E0B9
:101FE100C0E0A3E0C0E074D1C0E07449C0E07480F7
:101FF100C0E0123C9DE58124F9F581D002D003D0E7
:1020010006D007022087C007C006C003C00290099E
:1020110003E0C0E0A3E0C0E0A3E0C0E0A3E0C0E0D3
:1020210074E0C0E07449C0E07480C0E0123C9DE5FA
:102031008124F9F581D002D003D006D0078047A9C9
:102041002A7C008D007D00C007C006C003C002903D
:102051000903E0C0E0A3E0C0E0A3E0C0E0A3E0C06A
:10206100E0C001C004C000C00574F2C0E07449C002
:10207100E07480C0E0123C9DE58124F5F581D00239
:10208100D003D006D007900902E0FD7C000DBD0011
:10209100010C9008FDE0F8A3E0F99008FDED28F0AF
:1020A100EC39A3F00215A0E582900907F0E075F084
:1020B10009A4248CFE740835F0FF74032EFEE43F5E
:1020C100FF8E828F83E0FD7C00C007C006C005C083
:1020D100047432C0E0744AC0E07480C0E0123C9DD8
:1020E100E58124FBF5819008787408F090473F1250
:1020F1000E2AD006D0078E828F83E0900104F090E3
:10210100086D7408F07409A3F0E4A3F0900870F06E
:10211100A3F090062EC007C006120B3D90087874FC
:1021210008F0904747120E2AD006D0078E828F837F
:10213100E0900104F0900106E4F09001077402F0D0
:1021410090086D7408F07409A3F0E4A3F09008708E
:10215100F07402A3F090062E120B3DE582FF60039E
:102161008F82227E007F00900908E0FCA3E0FDC37E
:10217100EE9CEF9D5036EE242EF582EF3406F5836A
:10218100E0FD7C00C007C006C005C0047403C0E0C8
:102191007448C0E07480C0E0123C9DE58124FBF5E9
:1021A10081D006D0070EBE00BE0F80BB740BC0E00D
:1021B1007448C0E07480C0E0123C9D158115811502
:1021C10081900908E0FEA3E0FF900907E0FD75F0AA
:1021D10009A4248CFB740835F0FC8B828C83A3A3A7
:1021E100A3E0FA8B828C83A3E0FC900B79EEF0EFF5
:1021F100A3F0900B7BEDF0900B7CEAF0900B7DEC63
:10220100F0900B7E742EF07406A3F0758207C00562
:102211001238A9D005900908E0FEA3E0FF9008F864
:10222100EEF0EFA3F09008FAEDF090062E12155E95
:102231007582002290090AE0FEA3E0FF8E828F835F
:10224100A3A3E0FD7C00C007C006C005C00474570D
:10225100C0E0744AC0E07480C0E0123C9DE5812476
:10226100FBF581D006D0078E828F83A3A3A3A3A3FE
:10227100E0FD7C00C007C006C005C0047465C0E075
:10228100744AC0E07480C0E0123C9DE58124FBF5F6
:1022910081D006D00774062EF582E43FF583E0FD78
:1022A1007C00C007C006C005C0047471C0E0744A58
:1022B100C0E07480C0E0123C9DE58124FBF581D033
:1022C10006D00774072EF582E43FF583E0FF7E0018
:1022D100C007C0067481C0E0744AC0E07480C0E0E9
:1022E100123C9DE58124FBF58122AF83E5829009B3
:1022F1000EF0EFA3F090090EE0FEA3E0FF8E828FB7
:1023010083A3A3E0FF7E00C007C006749AC0E074F7
:102311004AC0E07480C0E0123C9DE58124FBF58158
:1023210090090CE0FEA3E0FF8E828F83A3A3E0FD62
:10233100FB53030F7C00EDC4540FFD7A008E828F96
:1023410083A3A3A3E0F853000F7900C007C006C020
:1023510003C004C005C002C000C00174AFC0E07476
:102361004AC0E07480C0E0123C9DE58124F7F5810C
:10237100D006D0078E828F83A3A3A3A3E0FD7C00A8
:10238100C007C006C005C00474BEC0E0744AC0E006
:102391007480C0E0123C9DE58124FBF581D006D01C
:1023A1000774062EF582E43FF583E0FF7E00C00747
:1023B100C00674D5C0E0744AC0E07480C0E0123C2D
:1023C1009DE58124FBF58122E582900910F09008BA
:1023D100787408F090475F120E2A900910E075F0AA
:1023E10009A4248CFE740835F0FF8E828F83A3A389
:1023F100A3E0900104F090086D7411F07409A3F04A
:10240100E4A3F0900870F07402A3F090062E120B72
:102411003DE582FF60038F82227F00900911E0FD7C
:10242100A3E0FE8F037C00C3EB9DEC9E502EEF24B6
:102431002EF582E43406F583E0FE7D00C007C00678
:10244100C0057403C0E07448C0E07480C0E0123C71
:102451009DE58124FBF581D0070F80BF740BC0E09F
:102461007448C0E07480C0E0123C9D15811581154F
:102471008175820022E582900913F0900878740832
:10248100F0904757120E2A900102E4F0900913E0F0
:1024910075F009A4248CFE740835F0FF8E828F83B9
:1024A100A3A3A3E0900104F090086D7414F07409E3
:1024B100A3F0E4A3F0900870F07402A3F090062E4C
:1024C100120B3DE582FF60038F822274E5C0E07448
:1024D1004AC0E07480C0E0123C9D158115811581D0
:1024E1007582002222E582900917F0900916E0FF1B
:1024F100BFFF0E900917E0035480FE43067F8E82D2
:1025010022900917E003548042070F8F8222E5824F
:10251100900919F0900918E0FFBFFF19900919E01F
:1025210075F005A4242EFD740835F0FE7C008D8223
:102531008E838CF022900919E075F014A42438FDE3
:10254100740835F0FEEF75F005A42DFDE43EFE7F25
:10255100008D828E838FF022E58290091BF0E0FFCF
:1025610090091AE0FE900865F08F82C007C006123C
:1025710008E2D006D007900918EEF08F82C007C09C
:102581000612250FAB82AC83ADF0D006D0070BBB92
:1025910000010C8B828C838DF01246DFFB7D008E57
:1025A100027C008F007900C007C006C003C005C0CF
:1025B10002C004C000C00174FCC0E0744AC0E074F1
:1025C10080C0E0123C9DE58124F7F581120E61ADDA
:1025D10082D006D00790091CEDF0ED6003022C813A
:1025E100900918EEF08F82C007C00612250FAB824A
:1025F100AC83ADF0900632E0FAF87900C005C00472
:10260100C003C002C000C001741DC0E0744BC0E033
:102611007480C0E0123C9DE58124FBF581D002D09D
:1026210003D004D005D00674032BF8E43CF98D07E0
:10263100888289838FF0EA123C34900635E0FF7A74
:1026410000C007C006C005C004C003C007C00274B3
:102651002EC0E0744BC0E07480C0E0123C9DE58167
:1026610024FBF581D003D004D005D006D007BEFFEE
:10267100028005D007022727D007C003C004C00588
:10268100EF75F010A4FFAAF024D4F536EA3408F56A
:1026910037900636E0FB79007C007D008536828527
:1026A1003783EBF0E9A3F0ECA3F0EDA3F0EF24D432
:1026B100FFEA3408FA74042FF536E43AF537900648
:1026C10037E0F879007B007D00853682853783E825
:1026D100F0E9A3F0EBA3F0EDA3F074082FF536E4D5
:1026E1003AF537900638E0F879007B007D008536B1
:1026F10082853783E8F0E9A3F0EBA3F0EDA3F07452
:102701000C2FFFE43AFA900639E0F97B007C007D5A
:10271100008F828A83E9F0EBA3F0ECA3F0EDA3F044
:10272100D005D004D00390062EC006C005C004C059
:10273100031210BDD003D004D005D00690091BE0D0
:10274100FF900916EEF08F82C007C006C005C004D5
:10275100C0031224E6AA82C002120EFCA982D00292
:10276100D003D004D005D006D00790091CE9F0E9C8
:102771006003022C810BBB00010C8B828C838DF0DA
:10278100EA123C3490062EC007C006C0021210BDEA
:10279100D002D006D00790087F742EF07406A3F003
:1027A100900881E4F07402A3F0900883EFF09006A2
:1027B1002EC006C002120FBAE582D002D0066028F0
:1027C100C006C002742EC0E07406C0E0E4C0E0742C
:1027D10042C0E0744BC0E07480C0E0123C9DE581D2
:1027E10024FAF581D002D006C006C00212113DAF15
:1027F10082D002D00690091CEFF0EF6003022C8119
:10280100900630E0FF7D00900631E0FBE42FFFEB06
:102811003DFD90091BE0FC0C900B79EFF0EDA3F06E
:10282100900B7BEAF0900B7CECF0900B7D74AAF09E
:10283100900B7E742EF07406A3F0758206C006120A
:1028410038A9D006900B1FE4F0A3F07D007F009023
:102851000630E0FC7B00900631E0FAE42CFCEA3B18
:10286100FBC3ED9CEF9B503AED242EF582EF34062D
:10287100F583E0FC7B00C007C006C005C004C003AF
:102881007403C0E07448C0E07480C0E0123C9DE570
:102891008124FBF581D005D006D0070DBD00B00F16
:1028A10080ADC006740BC0E07448C0E07480C0E025
:1028B100123C9D158115811581D006900633E0FFEC
:1028C100FC7D00C007C006C004C0057455C0E0749B
:1028D1004BC0E07480C0E0123C9DE58124FBF58192
:1028E100900632E0FD7C00C005C004746EC0E07447
:1028F1004BC0E07480C0E0123C9DE58124FBF58172
:10290100D006D0078F82C006120F68D0069006301D
:10291100E0FF7D00900631E0FBE42FFFEB3DFD8FF2
:10292100038D0479007A00C3E99BEA9C5027C00714
:10293100C005E9241FF8EA3409FFE9242EF582EAEB
:102941003406F583E088828F83F009B900010AD04B
:1029510005D00780D290062EE0FC90091DF0E4A37B
:10296100F090091BE0F539AB398F368D3790091D91
:10297100E0F9A3E0FAC3E99536EA95374003022C62
:102981007DE9241FF9EA3409FA900B21E9F0EAA361
:10299100F089828A83A3E0F8B80402801AB805029C
:1029A1008062B82103022B54B82403022BBAB82544
:1029B10003022BF0022C2688057F00C006C003C04D
:1029C10002C001C005C0077483C0E0744BC0E0744D
:1029D10080C0E0123C9DE58124FBF581D001D0024D
:1029E100D00389058A07900B1FEDF0EFA3F0900942
:1029F1000AEDF0EFA3F08B82C003122235D003D091
:102A010006022C58C00388037F00C006C003C00221
:102A1100C001C003C007749FC0E0744BC0E0748064
:102A2100C0E0123C9DE58124FBF581D001D00289F3
:102A3100828A83C002C0011210BDD001D002D0032E
:102A4100D006900B1FE0FDA3E0FF8D828F83A3A32F
:102A5100A3A3A3E0FFBF03028005D003022C588982
:102A6100058A0774022DF53AE43FF53B853A8285E4
:102A71003B83E0D00320E703022C58753800C003E4
:102A8100E53875F009A4248CFB740835F0FC8B82C1
:102A91008C83E0D0036008053874F8253850DFC016
:102AA10003AB387C00C006C003C003C00474BAC0C5
:102AB100E0744BC0E07480C0E0123C9DE58124FBD2
:102AC100F581D003D006E53875F009A4248CFB7498
:102AD1000835F0FC74042BF53CE43CF53D853A8265
:102AE100853B83E0F53A853C82853D83F08B828C82
:102AF100837401F074032BF53CE43CF53D900B1F0E
:102B0100E0FDA3E0FF8D828F83A3A3E0853C828556
:102B11003D83F08B828C83A3E539F08B828C83A378
:102B2100A3EEF0AD3A7F00C006C003C005C0077434
:102B3100DCC0E0744BC0E07480C0E0123C9DE581D4
:102B410024FBF5818538821220A8D003D006D0035A
:102B5100022C5888057F00C006C003C002C001C016
:102B610005C0077403C0E0744CC0E07480C0E0127B
:102B71003C9DE58124FBF581D001D002D003D00634
:102B8100900B1FE0FDA3E0FF900B1FE0F5F0A3E029
:102B910045F07003022C58C00389038A0490090C84
:102BA100EBF0ECA3F08D828F83C006C0031222EB01
:102BB100D003D006D003022C5888057F00C006C080
:102BC10003C002C001C005C0077419C0E0744CC045
:102BD100E07480C0E0123C9DE58124FBF581D001C9
:102BE100D00289828A831210BDD003D00680688802
:102BF100057F00C006C003C002C001C005C0077444
:102C010041C0E0744CC0E07480C0E0123C9DE5819D
:102C110024FBF581D001D00289828A831210BDD0B4
:102C210003D00680327F00C006C003C002C001C0CD
:102C310000C007746BC0E0744CC0E07480C0E01247
:102C41003C9DE58124FBF581D001D00289828A83F4
:102C51001210BDD003D006900B21E0FDA3E0FF8D43
:102C6100828F83E0FD7F0090091DE0FAA3E0FC90D4
:102C7100091DED2AF0EF3CA3F002296E75820022B6
:102C810090091CE0F58222E582900B23F0E0FF7EA3
:102C910000C3EE9F5032EE242EF582E43406F58314
:102CA100E0FD7C00C007C006C005C0047403C0E09D
:102CB1007448C0E07480C0E0123C9DE58124FBF5BE
:102CC10081D006D0070E80C9740BC0E07448C0E003
:102CD1007480C0E0123C9D15811581158122E58229
:102CE100900B25F09008787408F0904777120E2A1F
:102CF100900B25E0FF0F900104EFF0900B24E09082
:102D01000102F090086D7426F0740BA3F0E4A3F0B7
:102D1100900870F07402A3F090062E020B3DE5823C
:102D2100900B28F09008787408F090477F120E2AD3
:102D3100900B28E0FF0F900104EFF0900B27E0903B
:102D41000102F090086D7429F0740BA3F0E4A3F074
:102D5100900870F07402A3F090062E020B3DE582FC
:102D6100900B2AF09008787408F090476F120E2AA1
:102D7100900B2AE0FF0F900104EFF090086D742B87
:102D8100F0740BA3F0E4A3F0900870F07402A3F0C8
:102D910090062E020B3DE582900B2DF0748DC0E064
:102DA100744CC0E07480C0E0123C9D158115811502
:102DB10081900B2CE0FF900B247404F08F82C007EC
:102DC100122CDFAE82D007EE60038E8222C0077420
:102DD100A3C0E0744CC0E07480C0E0123C9D15813A
:102DE10015811581D0078F82C007122D5FAE8275C4
:102DF1008204C006122C88D006D007EE60038E82B2
:102E010022900001C0071206FFD007900000E020C9
:102E1100E4D4900001E030E145C00774BBC0E07428
:102E21004CC0E07480C0E0123C9D15811581158174
:102E3100D007900B2DE0FE900918EFF08E82C007AD
:102E410012250FAC82AD83AEF0D00774022CFCE4E6
:102E51003DFD8C828D838EF0E4123C348044C007AA
:102E610074D6C0E0744CC0E07480C0E0123C9D1583
:102E71008115811581D007900B2DE0FE900918EF87
:102E8100F08E82C00712250FAC82AD83AEF0D00761
:102E910074022CFCE43DFD8C828D838EF074011252
:102EA1003C34900002E030E445C00774F2C0E074A5
:102EB1004CC0E07480C0E0123C9D158115811581E4
:102EC1007402C0E0744DC0E07480C0E0123C9D15F6
:102ED1008115811581D007900B277414F08F82C062
:102EE10007122D1FAE82D007EE601C8E822274194C
:102EF100C0E0744DC0E07480C0E0123C9D158115A6
:102F01008115817582FE22C0077427C0E0744DC00F
:102F1100E07480C0E0123C9D158115811581D007B8
:102F2100900B277412F08F82C007122D1FAE82D032
:102F310007EE60038E8222900064C0071206FF74C0
:102F410047C0E0744DC0E07480C0E0123C9D158123
:102F510015811581D007900B2DE0FE90091AEFF035
:102F61008E82C007C006122559AD82D006D007ED6A
:102F7100701F900918EFF08E82C00512250FAC82E8
:102F8100AE83AFF0D0058C828E838FF07401123C3A
:102F9100348D8222E582900B2EF0900B2FE4F0907D
:102FA1000B2EE0FF90091874FFF08F82C0071225E5
:102FB1000FAC82AD83AEF0D00774042CFCE43DFD70
:102FC1008C828D838EF01246DFFE7D00C3ED9E4024
:102FD100030231B9900B2EE0FC90086574FFF08C70
:102FE10082C007C006C005C0041208E2D004D005A3
:102FF1008D82C005C004122D5FAB82D004D005D0F4
:1030010006D007900B2FEBF0EB60038B8222900030
:1030110002E0FB20E0030231B5900000E030E05314
:103021008D027B008C007900C007C006C005C0047A
:10303100C002C003C000C0017463C0E0744DC0E0B1
:103041007480C0E0123C9DE58124F9F581D004D063
:1030510005900B277410F08D82C005C004122D1F3E
:10306100AB82D004D005D006D007EB70030231311A
:103071008B82228D027B008C007900C007C006C0C4
:1030810005C004C002C003C000C0017488C0E07460
:103091004DC0E07480C0E0123C9DE58124F9F581CA
:1030A100D004D005900B277410F08D82C005C004A8
:1030B100122D1FAB82D004D005D006D007900B2F64
:1030C100EBF0EB60038B8222EC75F014A42438FA48
:1030D100740835F0FBED75F005A42AFAE43BFB8A90
:1030E100828B83A3E4F08A828B83F08D037A00C004
:1030F10006EA75F009A4248CF8740835F0F9888281
:103101008983A3E0FEB507028004D0068019888276
:103111008983A3A3E0FEB503028004D0068008D012
:103121000688828983E4F00ABA080040C20231B5F8
:10313100900064C007C006C005C0041206FFD00499
:10314100D005900918EDF08C82C005C00412250F3E
:10315100A982AA83ABF0D004D005D006D00709B963
:1031610000010A89828A838BF0E4123C34900B2C93
:10317100EDF08C82C007C006C005122D97AC82D03D
:1031810005D006D007900B2FECF0EC60277B00C038
:1031910007C006C005C004C00374A8C0E0744DC0D8
:1031A100E07480C0E0123C9DE58124FBF581D005EF
:1031B100D006D0070D022FCD900B2FE0F58222E52E
:1031C10082900B30F074C3C0E0744DC0E07480C0D5
:1031D100E0123C9D1581158115819008787408F0E5
:1031E100904767120E2A90086D7433F0740BA3F0A8
:1031F100E4A3F0900870F07402A3F090062E120B75
:103201003DAF82900B31EFF0EF60038F8222900B84
:1032110033E0FEA3E08E82122C88900630E0FF900E
:103221000B32F0900B30E0FE90091874FFF08E82A3
:10323100C00712250FAC82AD83AEF0D00774042C09
:10324100FCE43DFD8C828D838EF0EF123C3424FB37
:1032510050287E007404C0E0E4C0E0C007C00674DA
:10326100E1C0E0744DC0E07480C0E0123C9DE58196
:1032710024F9F581900B327404F07401C0E0744EAE
:10328100C0E07480C0E0123C9D15811581158190CC
:103291000B32E0FF7E00C3EE9F50448E047D00C0E0
:1032A10007C006C004C005741AC0E0744EC0E074C3
:1032B10080C0E0123C9DE58124FBF581D006900B96
:1032C100247408F08E82C006122CDFAD82D006D0A5
:1032D10007900B31EDF0ED60038D82220E80B77403
:1032E10023C0E0744EC0E07480C0E0123C9D1581A3
:1032F10015811581900B32E0FF7E00C3EE9F504493
:103301008E047D00C007C006C004C005741AC0E069
:10331100744EC0E07480C0E0123C9DE58124FBF551
:1033210081D006900B277410F08E82C006122D1FDB
:10333100AD82D006D007900B31EDF0ED60038D82A8
:10334100220E80B7900B32E0FF7E00C3EE9F400358
:10335100023458900B30E0FD900918EEF08D82C0D8
:1033610007C006C00512250FAA82AB83ACF0D005B9
:10337100D0068A828B838CF07402123C348E037CDB
:1033810000C006C005C003C0047449C0E0744EC04B
:10339100E07480C0E0123C9DE58124FBF581900042
:1033A100321206FFD00590086574FFF08D82C005CA
:1033B1001208E2D005D0068E82C006C005122D5F2C
:1033C100AC82900B31ECF0758204C004122C88D0D1
:1033D10004D005D006D007EC60038C822290000057
:1033E100E030E023C007C006C0057466C0E0744E3B
:1033F100C0E07480C0E0123C9D158115811581D01B
:1034010005D006D007801FC007C0067482C0E074D3
:103411004EC0E07480C0E0123C9D1581158115817C
:10342100D006D007802D900064C007C006C00512E9
:1034310006FFD005D006900B2CEEF08D82C006124F
:103441002D97AD82D006D007900B31EDF0ED6003E2
:103451008D82220E02334C900B31E0F58222E582FF
:10346100900B35F0900B36E4F0900B35E0FFFEFD4C
:1034710075F005A4F53E85F03F8F02790090006458
:10348100C007C006C005C002C0011206FF9000645B
:103491001206FFD001D0028A82C002C00112120BB3
:1034A100D001D0028A82C002C0011207D0D001D05F
:1034B10002D005D006D0077800900001C007C006F1
:1034C100C005C002C001C0001206FFD000D001D06B
:1034D10002D005D006D0078F82C007C006C005C044
:1034E10002C001C000120820E582D000D001D00244
:1034F100D005D006D007600608B8640040BBB864A8
:1035010051C0058F82C007C006C005C002C00112AC
:10351100073CD001D002D005D006D0078F007D0036
:10352100C007C006C005C002C001C000C005749B31
:10353100C0E0744EC0E07480C0E0123C9DE581247F
:10354100FBF581D001D002D005D006D007D005020D
:10355100366690091A74FFF08E82C007C006C00556
:10356100C002C001122559A882D001D002D005D0D5
:1035710006D007900B36E8F0E87069C0059009188D
:1035810074FFF08E82C007C006C002C00112250F71
:10359100A882AC83ADF0D001D002D006D00774036D
:1035A10028F8E43CFC88828C838DF01246DFF8B861
:1035B10009028004D0058021D0058E82C007C00693
:1035C100C005C002C0011231C0E582D001D002D0D5
:1035D10005D006D007900B36F0900B36E0FCE0707A
:1035E100038C8222900B36E0FCF87B00C007C006FA
:1035F100C005C004C002C001C000C00374BEC0E069
:10360100744EC0E07480C0E0123C9DE58124FBF55E
:1036110081D001D002D004D0058D030B900B79E449
:10362100F0A3F0900B7BEBF0900B7CECF0900B7D1A
:1036310074EEF0900B7EE4F0A3F0758203C005C038
:1036410002C0011238A9E53E242EF582E53F340877
:10365100F5837402F07582011207BCD001D002D04B
:1036610005D006D00709B90A00500302347E900B39
:1036710036E0F58222900B37E4F010D803023803CC
:10368100E5DB30E36390082EE06008E5E430E00319
:1036910002374075820012073C90082E7401F0E455
:1036A100C0E0C0E074CCC0E0744EC0E07480C0E003
:1036B100123C9DE58124FBF581900B79E4F0A3F0A8
:1036C100900B7B04F0900B7CF0900B7DF0900B7EC7
:1036D100E4F0A3F07582011238A975820012345FFB
:1036E100E582900B37F0805790082EE0FFBF010074
:1036F100404D75820012120B75820012073CE4C026
:10370100E0C0E074EDC0E0744EC0E07480C0E0122F
:103711003C9DE58124FBF581900B79E4F0A3F090C9
:103721000B7B04F0900B7CF0900B7DF0900B7EE412
:10373100F0A3F07582021238A9900B377416F0E5E8
:10374100DB30E764900833E06008E5E530E0030230
:10375100380375820112073C9008337401F0C0E010
:10376100E4C0E074CCC0E0744EC0E07480C0E012EC
:103771003C9DE58124FBF581900B79E4F0A3F09069
:103781000B7B7402F0900B7CF0900B7DF0900B7E24
:10379100E4F0A3F07582011238A975820112345F39
:1037A100E582900B37F0805A900833E0FFBF0100AB
:1037B100405075820112120B75820112073C74018F
:1037C100C0E0E4C0E074EDC0E0744EC0E07480C0BD
:1037D100E0123C9DE58124FBF581900B79E4F0A397
:1037E100F0900B7B7402F0900B7CF0900B7DF090CD
:1037F1000B7EE4F0A3F07582021238A9900B3774A6
:1038010016F090082EE0FFBF010E900831E0FFBFD7
:103811000906758200122F95900833E0FFBF010E53
:10382100900836E0FFBF0906758201122F95900BB3
:0538310037E0F58222E2
:10470F008006000100001200800600020000120067
:10471F0081060004000009000005020000000000EF
:10472F0080060203090402040009000000000000D3
:10473F00210A000000000000810600220000FF0097
:10474F002109000200000000210B00000000000002
:10475F00A103000000000100A006002900001200C4
:10476F00A30000000000040023030000000000006D
:10477F0023010000000000006765744465766963DB
:10478F006544657363726970746F720A004465766D
:10479F006963652064657363726970746F722072E8
:1047AF006571756573742073656E742073756363BB
:1047BF0065737366756C6C790A005265636569760B
:1047CF006564207061636B657420697320736D611C
:1047DF006C6C6572207468616E20657870656374A7
:1047EF0065640A00536574416464726573733A209B
:1047FF0025690A0030782530325820000A004849D0
:10480F004420256C752C2025692064617461202556
:10481F0069203A200A002020202000557361676527
:10482F00207061676520004C454473004B657962C9
:10483F006F6172642F4B6579706164004275747497
:10484F006F6E0067656E65726963206465736B7464
:10485F006F7020636F6E74726F6C730076656E6429
:10486F006F7220646566696E656420307825303418
:10487F006C7800756E6B6E6F776E203078253032E6
:10488F006C780055736167652000556E6B6E6F779E
:10489F006E00506F696E746572004D6F75736500B1
:1048AF005265736572766564004A6F7973746963D4
:1048BF006B0047616D65706164004B6579626F6174
:1048CF007264004B6579706164004D756C74692D6D
:1048DF004178697320636F6E74726F6C6C657200D0
:1048EF005461626C65742073797374656D20636FA6
:1048FF006E74726F6C7300580059005A00576865D8
:10490F00656C004C6F676963616C206D696E202563
:10491F006C750A004C6F676963616C206D6178205C
:10492F00256C750A00506879736963616C206D6935
:10493F006E20256C750A00506879736963616C206D
:10494F006D617820256C750A00436F6C6C6563741C
:10495F00696F6E20737461727420256C750A004341
:10496F006F6C6C656374696F6E20656E6420256C67
:10497F00750A00556E69742030782530326C780ACC
:10498F0000496E7075742030782530326C780A00CB
:10499F004F75747075742030782530326C780A003A
:1049AF00466561747572652030782530326C780AEF
:1049BF00005265706F72742073697A6520256C756B
:1049CF000A005265706F727420494420256C750A75
:1049DF00005265706F727420636F756E7420256C52
:1049EF00750A00556E6B6E6F776E204849442072C2
:1049FF0065706F7274206964656E7469666965723B
:104A0F003A20307825303278202825692062797451
:104A1F0065732920646174613A2030782530326CD7
:104A2F00780A0052657175657374696E67207265D7
:104A3F00706F72742066726F6D20696E7465726626
:104A4F006163652025690A00496E7465726661634A
:104A5F00652025640A002020436C61737320256450
:104A6F000A00202053756220436C61737320256404
:104A7F000A002020496E746572666163652050726A
:104A8F006F746F636F6C2025640A0048494420617E
:104A9F007420496E746572666163652025640A002F
:104AAF0020205553422025642E256425640A0020BA
:104ABF0020436F756E74727920636F646520307850
:104ACF00253032580A0020205479706558203078EC
:104ADF00253032580A0053657420484944205072DB
:104AEF006F746F636F6C20746F20300A00726F6F7A
:104AFF00742068756220706F72742025692D256986
:104B0F002028256429656E61626C65640A0044651E
:104B1F007669636520636C6173732025690A004DA4
:104B2F006178207061636B65742073697A652025E5
:104B3F00690A0044657669636520537472696E670C
:104B4F003A2025730A00436F6E6669677572617448
:104B5F00696F6E2076616C75653A2025640A00498D
:104B6F006E7465726661636520636F756E743A204B
:104B7F0025640A00496E7465726661636520646519
:104B8F007363726970746F7220666F756E640A005A
:104B9F00456E64706F696E742064657363726970BB
:104BAF00746F7220666F756E640A00436F6E6E6568
:104BBF006374656420646576696365206174207031
:104BCF006F736974696F6E3A2025690A00476F74B5
:104BDF0020656E64706F696E7420666F72207468E2
:104BEF0065204849446465766963652030782530CF
:104BFF0032780A004849442064657363726970749F
:104C0F006F7220666F756E640A00436C6173732058
:104C1F007370656369666963206865616465722096
:104C2F0064657363726970746F7220666F756E64FA
:104C3F000A00436C617373207370656369666963FF
:104C4F0020656E64706F696E74206465736372693A
:104C5F0070746F7220666F756E640A00556E65789A
:104C6F007065637465642064657363726970746FD3
:104C7F007220747970653A20253032580A002D2D34
:104C8F002D2D2D526573657420706F72742D2D2D1F
:104C9F002D2D0A002D2D2D2D2D417373657274202E
:104CAF0052657365742D2D2D2D2D0A004C6F7720B5
:104CBF007370656564206465766963652069732028
:104CCF00666F756E640A0046756C6C20737065654F
:104CDF00642064657669636520697320666F756EFD
:104CEF00640A00526573657420636F6D706C657430
:104CFF00650A002D2D2D2D2D436C65617220726577
:104D0F007365742D2D2D2D2D0A005265736574203A
:104D1F006661696C65640A002D2D2D2D2D57616B11
:104D2F00652075702066726F6D2073757370656E78
:104D3F00642D2D2D2D2D0A002D2D2D2D2D456E750C
:104D4F006D6572617465206465766963652D2D2DBF
:104D5F002D2D0A004E6577204465766963652069BD
:104D6F0073206465746563746564206F6E20706F63
:104D7F00727425642D25640A004465766963652085
:104D8F00646973636F6E6E65637465642E20706FF4
:104D9F00727425642D25640A0048756220706F6C4B
:104DAF006C696E67206661696C65643A307825308E
:104DBF0032580A002D2D2D2D2D4765742048554250
:104DCF002064657363726970746F722D2D2D2D2D94
:104DDF000A00506F7274206E756D28256429206546
:104DEF00786365656473206C696D6974282564291F
:104DFF000A002D2D2D2D2D5475726E206F6E207083
:104E0F006F7274732D2D2D2D2D0A00706F72743AE1
:104E1F0025640A002D2D2D2D2D436C656172207098
:104E2F006F727420636F6E6E656374696F6E204965
:104E3F006E666F2D2D2D2D2D0A002D2D2D2D2D470D
:104E4F00657420706F727425642073746174757348
:104E5F002D2D2D2D2D0A00446576697665206973F9
:104E6F00206465746563746564206F6E20706F7263
:104E7F00740A004E6F20646576696365206973203C
:104E8F00636F6E6E6563746F65640A004661696C6B
:104E9F00656420746F20656E61626C6520726F6F40
:104EAF00742068756220706F72742025690A00453E
:104EBF0072726F72203D20253032580A0044657699
:104ECF0069636520617420726F6F7420687562204A
:104EDF00256920636F6E6E65637465640A004465AF
:104EEF007669636520617420726F6F7420687562D4
:104EFF0020256920646973636F6E6E6563746564E2
:024F0F000A0096
:014F1C000094
:10383600C0E0C082C083C0D075D008109802802531
:10384600900BDDE02438F582E4340BF583E599F03E
:10385600900BDDE02401F0E0FFBF400040DD900B5F
:10386600DDE4F080D6D0D0D083D082D0E032E582BD
:10387600900B78F0E0FFBFC0028005BFDB1A800C1A
:103886007582DB1201DE7582DC0201DE7582DB12D7
:1038960001DE7582DD0201DE8F820201DE7582C0E5
:1038A6000201DEE582900B80F0900B79E0FEA3E04A
:1038B600FF8E058D82C007C006123874D006D00769
:1038C6008F058D82C007C006123874900B80E0F514
:1038D60082123874900B7BE0F582123874900B7C60
:1038E600E0F582123874900B7DE0F582123874751B
:1038F600820012387475820012387475820012388C
:1039060074758200123874D006D007900B7EE0FCE6
:10391600A3E0FD7A007B00C3EA9EEB9F502DEA2CC4
:10392600F582EB3DF583E0F582C007C006C005C011
:1039360004C003C002123874D002D003D004D005EC
:10394600D006D0070ABA00CF0B80CC0238A3E58296
:10395600900B8CF0900B81E0FEA3E0FF8E058D822C
:10396600C007C006123874D006D0078F058D82C0F6
:1039760007C006123874900B8CE0F58212387490EA
:103986000B83E0F582123874900B84E0F5821238CE
:1039960074900B85E0F582123874900B88E0F582FE
:1039A600123874900B89E0F582123874900B8AE015
:1039B600F582123874900B8BE0F582123874D006BB
:1039C600D007900B86E0FCA3E0FD7A007B00C3EAFB
:1039D6009EEB9F502DEA2CF582EB3DF583E0F582B8
:1039E600C007C006C005C004C003C002123874D0A8
:1039F60002D003D004D005D006D0070ABA00CF0BF8
:103A060080CC0238A3900BDDE0FFE07001221FEFAF
:103A16003395E0FEEF2438F582EE340BF583E0FFB4
:103A2600BF0A5A900B38E0FFBF6B24900B39E0FEBB
:103A3600BE620E120139851082851183120029801B
:103A460037BE723475A15575A1AA43B1108029EF0E
:103A560030E7258F05530560E4C423CDC423541FE6
:103A66006DCD541FCD6DCD30E40244E09008F67460
:0E3A76001F5FF08D821214AE900BDDE4F02283
:014F1D000093
:103A8400AF82AE83ADF0FC900B91EFF0EEA3F0EDBE
:103A9400A3F0ECA3F0900B91E0FCA3E0FDA3E0FE07
:103AA400A3E0FF30E70FC3E49CF8E49DF9E49EFA39
:103AB400E49FFB80088C008D018E028F03900B8D98
:103AC400E0FCA3E0FDA3E0FEA3E0FF33E433F54014
:103AD4006013C3E49CF541E49DF542E49EF543E4A0
:103AE4009FF54480088C418D428E438F44900B9502
:103AF400E541F0E542A3F0E543A3F0E544A3F088F3
:103B04008289838AF0EB123B40AC82AD83AEF0FF36
:103B1400900B91E0A3E0A3E0A3E033E433654060BD
:103B240013C3E49CF8E49DF9E49EFAE49F88828937
:103B3400838AF0228C828D838EF0EF22AF82AE8353
:103B4400ADF0FC900B99EFF0EEA3F0EDA3F0ECA335
:103B5400F0900B9DE4F0A3F0A3F0A3F0900B95E09C
:103B6400FCA3E0FDA3E0FEA3E0FF7B20C003900BD9
:103B740099E0F8A3E0F9A3E0FAA3E0FB900BA123FA
:103B84005401F0E828F8E933F9EA33FAEB33FB900F
:103B94000B99E8F0E9A3F0EAA3F0EBA3F0900B9DF6
:103BA400E0F8A3E0F9A3E0FAA3E0FBE828F8E9339E
:103BB400F9EA33FAEB33FB900B9DE8F0E9A3F0EA62
:103BC400A3F0EBA3F0D003900BA1E06008900B9D51
:103BD400E043E001F0900B9DE0F550A3E0F551A324
:103BE400E0F552A3E0F553C3E5509CE5519DE55241
:103BF4009EE5539F401F900B9DE550C39CF0E551FB
:103C04009DA3F0E5529EA3F0E5539FA3F0900B997A
:103C1400E043E001F01BEB6003023B70900B99E082
:103C2400FCA3E0FDA3E0FEA3E08C828D838EF02252
:06005A00E478FFF6D8FD7A
:100038007902E94400601B7A01904F1C78DC75A0B6
:100048000BE493F2A308B8000205A0D9F4DAF2751C
:02005800A0FF07
:103C340020F71130F6138883A88220F509F6A883AB
:0B3C44007583002280FEF280F5F02264
:100060007800E84400600A790075A006E4F309D836
:10007000FC78DCE84405600C7906900600E4F0A307
:04008000D8FCD9FAD5
:02002900E4737E
:103C4F00C04F85814F7E008E8312068BD04F22AFDF
:103C5F00F0AE83E582900BA4F0EEA3F0EFA3F0900B
:103C6F000BA4E0FDA3E0FEA3E0FF900BA3E0FC900C
:103C7F000BB8E4F0A3F0A3F0900BBBEDF0EEA3F0C4
:103C8F00EFA3F0900BBEECF0903C4F023DA6C04F5F
:103C9F00E581F54F24FBFF900BB8E4F0A3F0A3F000
:103CAF00E54F24FBF8900BBBE6F008E6A3F008E61F
:103CBF00A3F0900BBEEFF0903C4F123DA6D04F22D9
:103CCF00E582900BB4F0E0FF900BAAE0C0E0A3E018
:103CDF00C0E0A3E0C0E0123CEA800D900BA8E0C06A
:103CEF00E0A3E0C0E08F8222158115811581900B32
:103CFF00B2E02401F0A3E03400F022E582900BB58E
:103D0F00F0E02430FF24C6500D74072FFF900BA74F
:103D1F00E060034307208F82023CCFE582900BB611
:103D2F00F0E0FFC4540FF582C007123D0AD00753CD
:103D3F00070F8F82023D0AE582900BB7F0900BAD13
:103D4F00E0FCA3E0FDA3E0FEA3E0FF900BB1E0FBDE
:103D5F00755020900BB7E0F98B00E828F8EF23544B
:103D6F000148FBEC2CFCED33FDEE33FEEF33FFC3CC
:103D7F00EB994007EBC399FB430401E55014FA8A12
:103D8F005070D5900BADECF0EDA3F0EEA3F0EFA3D8
:103D9F00F0900BB1EBF022AF83E582900BBFF0EF09
:103DAF00A3F0900BBFE0FEA3E0FF900BA8EEF0EFA7
:103DBF00A3F0900BB8E0FDA3E0FEA3E0FF900BAAE9
:103DCF00EDF0EEA3F0EFA3F0900BB2E4F0A3F090C0
:103DDF000BBBE0FDA3E0FEA3E0FF8D828E838FF08F
:103DEF001246DFFC900BBB74012DF0E43EA3F0EF05
:103DFF00A3F0EC700302469BBC250280030246939E
:103E0F00900BC1E4F0900BC2F0900BC3F0900BC479
:103E1F00F0900BC5F0900BC6F0900BC7F0900BC84D
:103E2F00F0900BCAF0900BCBF0A3F0900BCD14F0E9
:103E3F00A3F0900BBBE0FDA3E0FEA3E0FF8D828E0D
:103E4F00838FF01246DFFBA3AD82AE83900BBBEDE9
:103E5F00F0EEA3F0EFA3F0900BD1EBF0BB25088BA6
:103E6F0082123CCF023DDEBB30005003023F3FEBDE
:103E7F0024C65003023F3F900BCDE0F545A3E0F57C
:103E8F004674FFB54563B54660C005C006C00790D0
:103E9F000BCBE0FAA3E0FF900BDAEAF0EFA3F09080
:103EAF00000AC005C0031246BFAE82AF83D003D055
:103EBF00058B027D00EA2EFEED3FFFEE24D0FEEFD4
:103ECF0034FFFF900BCBEEF0EFA3F0D007D006D06E
:103EDF0005900BCBE0F5F0A3E045F06003023E4CFC
:103EEF00900BC27401F0023E4CC005C006C0079093
:103EFF000BDAE545F0E546A3F090000AC006C005D1
:103F0F00C0031246BFAA82AF83D003D005D0067E6E
:103F1F0000EB2AFAEE3FFFEA24D0FAEF34FFFF90CE
:103F2F000BCDEAF0EFA3F0D007D006D005023E4C40
:103F3F00900BD1E0FBBB2E2FC005C006C007900B26
:103F4F00CDE0FAA3E0FFBAFF05BFFF028009D0075B
:103F5F00D006D005023E4CD007D006D005900BCD31
:103F6F00E4F0A3F0023E4CBB61004014EB2485400B
:103F7F000F900BD174DF5BF0900BA77401F08005ED
:103F8F00900BA7E4F0900BD1E0FBBB20028075BB38
:103F9F002B028067BB2D028059BB4202806FBB434F
:103FAF0002807CBB4403024236BB460302425CBB29
:103FBF004803023E4CBB4903024236BB4A03023E52
:103FCF004CBB4C028050BB4F03024244BB50030218
:103FDF0041A4BB53028077BB5403023E4CBB550335
:103FEF0002424CBB5803024254BB5A03023E4C02DE
:103FFF004264900BC17401F0023E4C900BC37401EC
:10400F00F0023E4C900BC47401F0023E4C900BC674
:10401F007401F0023E4C900BC77401F0023E4C90BD
:10402F000BC6E0600E900BBEE014F9F0900BD1E7D9
:10403F00F0800F900BBEE024FEFFF08F01900BD1AC
:10404F00E7F0900BD1E0F582123CCF024273900B58
:10405F00BEE024FDFFF08F0187050987060987075A
:10406F001919900BADEDF0EEA3F0EFA3F08D828E4A
:10407F00838FF01246A7858245858346900BCDE04E
:10408F00FAA3E0FDBAFF0DBDFF0A900BCDE545F099
:10409F00E546A3F0900BC1E0704B900BCBE0FAA379
:1040AF00E0FDC3E5459AE5469D503A900BCBEAC338
:1040BF009545F0ED9546A3F0900BCBE0FAA3E0FD0C
:1040CF008A068D071ABAFF011DEE4F601075822008
:1040DF00C005C002123CCFD002D00580E3900BCBBD
:1040EF00EAF0EDA3F0900BCDE0F548A3E0F5499091
:1040FF000BADE0FAA3E0FDA3E0FF8A828D838FF082
:10410F001246DFF547603CC3E4954874808549F05B
:10411F0063F08095F0502C154874FFB5480215498F
:10412F00854782123CCF900BADE0FAA3E0FDA3E0F0
:10413F00FF0ABA00010D900BADEAF0EDA3F0EFA36B
:10414F00F080AC900BC1E07003024273900BCBE098
:10415F00FEA3E0FFC3E5459EE5469F400302427381
:10416F00900BCBEEC39545F0EF9546A3F0900BCB9C
:10417F00E0FEA3E0FF8E028F051EBEFF011FEA4D7A
:10418F00700302426B758220C007C006123CCFD06D
:10419F0006D00780E0900BBEE024FDFDF08D018777
:1041AF004A09874B09874C1919900BADE54AF0E581
:1041BF004BA3F0E54CA3F0900BAFE0FDBD800040AA
:1041CF0008900BD17443F08020BD60004008900B25
:1041DF00D17450F08013BD40004008900BD174494A
:1041EF00F08006900BD17458F0900BD1E0FDF58262
:1041FF00C005123CCF75823A123CCF758230123C0B
:10420F00CF758278123CCFD005BD4902800EBD50CC
:10421F00028009900BAEE0F582123D2A900BADE0C3
:10422F00F582123D2A803D900BC57401F0900BCAA8
:10423F00740AF0802F900BCA7408F08027900BCA75
:10424F00740AF0801F900BCA7410F08017900BC87F
:10425F007401F0800F8B82123CCF8008900BCBEE55
:10426F00F0EFA3F0900BC8E06071900BBEE024FC60
:10427F00FFF08F018703098705098706098707194B
:10428F001919900BADEBF0EDA3F0EEA3F0EFA3F047
:10429F00900BAD7411F0744FA3F07480A3F0900BDA
:1042AF00ADE0F54AA3E0F54BA3E0F54C7401254AC8
:1042BF00FAE4354BFBAF4C900BADEAF0EBA3F0EF0C
:1042CF00A3F0854A82854B83854CF01246DFFF7041
:1042DF0003023DDE8F82123CCF80C3900BCAE07089
:1042EF0003023DDE900BC6E06047900BBEE014F971
:1042FF00F087077E007D007B00900BADEFF0EEA303
:10430F00F0EDA3F0EBA3F0900BC5E060030243B612
:10431F00900BADE0FBA3E0A3E0A3E07D007E007F68
:10432F0000900BADEBF0EDA3F0EEA3F0EFA3F08058
:10433F0076900BC7E06028900BBEE024FCFFF08F57
:10434F000187030987050987060987071919199036
:10435F000BADEBF0EDA3F0EEA3F0EFA3F0804890E0
:10436F000BBEE024FEFFF08F01870609870719EFC8
:10437F003395E0FDFB900BADEEF0EFA3F0EDA3F066
:10438F00EBA3F0900BC5E0701E900BADE0FBA3E02C
:10439F00FDA3E0A3E07E007F00900BADEBF0EDA35B
:1043AF00F0EEA3F0EFA3F0900BC5E06041900BADE2
:1043BF00E0FBA3E0FDA3E0FEA3E0FF30E72B900BB3
:1043CF00ADE0FBA3E0FDA3E0FEA3E0FFC3E49BFB96
:1043DF00E49DFDE49EFEE49FFF900BADEBF0EDA39B
:1043EF00F0EEA3F0EFA3F08005900BC5E4F0900B77
:1043FF00C97401F0900BCAE0F548754DD7754E0B97
:10440F00E4F545F546900BB1E4F0854882123D4640
:10441F00900BC9E07026900BB1E0C4F54A854D8230
:10442F00854E83E0FFE54A4207854D82854E83EF37
:10443F00F0154D74FFB54D02154E800C900BB1E089
:10444F00FF854D82854E83F00545E4B5450205464F
:10445F00900BC9E0B40100E433F0900BADE0FAA388
:10446F00E0FBA3E0FEA3E0FFEA4B4E4F7097900BEB
:10447F00D8E54DF0E54EA3F0900BCFE545F0E546BE
:10448F00A3F0900BCBE0F5F0A3E045F07009900B93
:10449F00CB7401F0E4A3F0900BC2E0FFE070479003
:1044AF000BC1E0704185454D85464E900BCBE0FA30
:1044BF00A3E0FBC007AF4D0F8F067F00C3EE9AEF4F
:1044CF009BD0075019758220C007C003C002123C51
:1044DF00CFD002D003D0071ABAFF011B80D5900BA3
:1044EF00CBEAF0EBA3F0900BC5E0602075822DC0F6
:1044FF0007123CCFD007900BCBE024FFFDA3E03495
:10450F00FFFE900BCBEDF0EEA3F08056900BCFE0BB
:10451F00F5F0A3E045F0604A900BC3E06020758290
:10452F002BC007123CCFD007900BCBE024FFFDA38D
:10453F00E034FFFE900BCBEDF0EEA3F08024900B58
:10454F00C4E0601E758220C007123CCFD007900BCD
:10455F00CBE024FFFDA3E034FFFE900BCBEDF0EE9C
:10456F00A3F0900BC1E07048900BCFE0F54DA3E0A6
:10457F00F54E900BCBE0FAA3E0FBC0078A068B0742
:10458F001ABAFF011BC3E54D9EE54E9FD00750534E
:10459F00EF60067D307E0080047D207E008D82C01E
:1045AF0007C003C002123CCFD002D003D00780CA8D
:1045BF00900BCBE0FEA3E0FF900BCFE0F54DA3E017
:1045CF00F54EC3E54D9EE54E9F500F900BCBEEC3BE
:1045DF00954DF0EF954EA3F08011900BCBE4F0A327
:1045EF00F08008900BCBEAF0EBA3F0900BD8E0FE35
:1045FF00A3E0FF900BCFE0F54DA3E0F54EAA4DAD34
:10460F004E154D74FFB54D02154EEA4D6045900B9A
:10461F00C9E0B40100E433F0900BC9E070140EBE92
:10462F0000010F8E828F83E0C4540FFD900BB1F009
:10463F00800E8E828F83E0FD53050F900BB1EDF04E
:10464F00900BB1E0F582C007C006123D0AD006D02C
:10465F000780AA900BC1E07003023DDE900BCBE008
:10466F00FEA3E0FF8E038F051EBEFF011FEB4D70F3
:10467F0003023DDE758220C007C006123CCFD00674
:10468F00D00780E08C82123CCF023DDE900BB2E06F
:08469F00FEA3E08E82F58322E8
:0B4F11003C4E4F20464C4F41543E00E8
:1046A700AA82AB831246DF6003A380F8C3E5829A30
:1046B700F582E5839BF58322AA83AB828BF0900B6F
:1046C700DAE0A4F8A9F08AF0E0A429F98BF0A3E0D6
:0846D700A429F5838882222248
:0D002B007581531246FBE58260030200263A
:1046DF0020F71430F6148883A88220F507E6A88304
:1046EF0075830022E280F7E49322E0227582002294
:00000001FF
