:03000000020008F3
:0300670002000391
:0300030002006A8E
:10006A001200FE9006007401F0E4A3F090C200753D
:10007A00F001E412012B90C20075F001E41201C9EB
:10008A0074B5C0E07446C0E07480C0E0123C5315F9
:10009A0081158115817582001211E4758201121190
:1000AA00E412074974BEC0E07446C0E07480C0E040
:1000BA00123C53158115811581900B79E4F0A3F058
:1000CA00900B7BF0900B7CF0900B7DF0900B7EF008
:1000DA00A3F07582081238D2E5C120E60C12011687
:1000EA0085088285098312000612380F12364F12CC
:0400FA0012BD80E4CF
:1046B500537461727475700A0052656164790A00F9
:060061007508007509F4AA
:1000FE0075A15575A1AA53B3E043B30675B2D87571
:10010E00A1FF9000070206D875A15575A1AA75B377
:10011E009875B2D875A1FF9000070206D8AF82AECF
:10012E0083ADF0FC900602EFF0EEA3F0EDA3F0EC41
:10013E00A3F0900600E0F5F0A3E045F0600C43C696
:10014E000143C40843C50C43CE10C29FD29EC29D2C
:10015E00D29C438780900602E0FCA3E0FDA3E0FE64
:10016E00A3E0FF900B95ECF0EDA3F0EEA3F0EFA360
:10017E00F0908D8075F05BE4123AF6AC82AD830C94
:10018E00BC00010DEDC313CC13CC740F5589442064
:10019E00F58943C9A0C3E49CFC8C8DD28ED29922E2
:1001AE0010980280FB85998222E582900606F01057
:1001BE00990280FB900606E0F59922AF82AE83ADE0
:1001CE00F0FC900607EFF0EEA3F0EDA3F0ECA3F039
:1001DE00759300759120759380759701900B8DE541
:1001EE0097F0E4A3F0A3F0A3F0908D8075F05BE49C
:1001FE00123A3AAC82AD83AEF0FF900607E0F8A358
:10020E00E0F9A3E0FAA3E0FB900B95E8F0E9A3F088
:10021E00EAA3F0EBA3F08C828D838EF0EF123AF608
:10022E00AC82AD838C9A8D9175920175930322E504
:10023E009530E0FB859A8222E58290060BF0E595DB
:10024E0030E5FB90060BE0F59A22E58290060EF063
:10025E0090060F74C4F07400A3F07440A3F09006DF
:10026E001274BAF07400A3F07440A3F090061574E3
:10027E00BCF07400A3F07440A3F090061874BEF0A6
:10028E007400A3F07440A3F090061B74C5F07400C4
:10029E00A3F07440A3F090061E74BBF07400A3F09C
:1002AE007440A3F090062174BDF07400A3F0744066
:1002BE00A3F090062474BFF07400A3F07440A3F072
:1002CE0090060DE0FF24F9500122EF2F2F9002DF50
:1002DE00730202F40203770203FC0204570204D9EC
:1002EE0002055F0205E390060EE0FFFE8EF005F0BC
:1002FE007401800225E0D5F0FBF4ADC65DF5C6EFC6
:10030E0075F003A4FFAEF0240FF582EE3406F583EC
:10031E00E0FBA3E0FCA3E0FD8B828C838DF0124604
:10032E0095FA90060CE0F989F005F074018002252B
:10033E00E0D5F0FBF4F952028B828C838DF0EA1239
:10034E003BEAEF241BF582EE3406F583E0FDA3E0D5
:10035E00FEA3E0FF8D828E838FF012469552018DA3
:10036E00828E838FF0E9023BEA90060EE0FFFE8E4E
:10037E00F005F07401800225E0D5F0FBF4ADC65D0A
:10038E00F5C6EF75F003A4FFAEF0240FF582EE3440
:10039E0006F583E0FBA3E0FCA3E0FD8B828C838D4E
:1003AE00F0124695FA90060CE0F989F005F074010A
:1003BE00800225E0D5F0FBF9F4F8EA52008B828C2E
:1003CE00838DF0E8123BEAEF241BF582EE3406F53E
:1003DE0083E0FDA3E0FEA3E0FF8D828E838FF012FB
:1003EE00469542018D828E838FF0E9023BEA90069C
:1003FE000EE0FFFE8EF005F07401800225E0D5F0D0
:10040E00FBF4ADC65DF5C6EF75F003A4240FF582BF
:10041E00740635F0F583E0FDA3E0FEA3E0FF8D82C8
:10042E008E838FF0124695FC90060CE0FB8BF00548
:10043E00F07401800225E0D5F0FBF4FBEC42038D55
:10044E00828E838FF0EB023BEA90060EE0FFFE8E6B
:10045E00F005F07401800225E0D5F0FBADC64DF538
:10046E00C6EF75F003A4FFAEF0240FF582EE34064E
:10047E00F583E0FBA3E0FCA3E0FD8B828C838DF083
:10048E00124695FA90060CE0F989F005F074018099
:10049E000225E0D5F0FBF4F952028B828C838DF0AD
:1004AE00EA123BEAEF241BF582EE3406F583E0FDFB
:1004BE00A3E0FEA3E0FF8D828E838FF0124695524D
:1004CE00018D828E838FF0E9023BEA90060EE0FFEB
:1004DE00FE8EF005F07401800225E0D5F0FBADC66E
:1004EE004DF5C6EF75F003A4FFAEF0240FF582EEC6
:1004FE003406F583E0FBA3E0FCA3E0FD8B828C8346
:10050E008DF0124695FA90060CE0F989F005F0741C
:10051E0001800225E0D5F0FBF942028B828C838D9F
:10052E00F0EA123BEAEF241BF582EE3406F583E087
:10053E00FDA3E0FEA3E0FF8D828E838FF012469521
:10054E00FCE9F4F9EC52018D828E838FF0E9023BC7
:10055E00EA90060EE0FFFE8EF005F0740180022593
:10056E00E0D5F0FBADC64DF5C6EF75F003A4FFAEBA
:10057E00F0240FF582EE3406F583E0FBA3E0FCA336
:10058E00E0FD8B828C838DF0124695FA90060CE07E
:10059E00F989F005F07401800225E0D5F0FBF9F43D
:1005AE00F8EA52008B828C838DF0E8123BEAEF243E
:1005BE001BF582EE3406F583E0FDA3E0FEA3E0FF1B
:1005CE008D828E838FF012469542018D828E838F9F
:1005DE00F0E9023BEA90060EE0FFFE8EF005F074A5
:1005EE0001800225E0D5F0FBADC64DF5C6EF75F0E6
:1005FE0003A4FFAEF0240FF582EE3406F583E0FB84
:10060E00A3E0FCA3E0FD8B828C838DF0124695FA5D
:10061E0090060CE0F989F005F07401800225E0D512
:10062E00F0FBF942028B828C838DF0EA123BEAEFEB
:10063E00241BF582EE3406F583E0FDA3E0FEA3E075
:10064E00FF8D828E838FF012469542018D828E83AE
:10065E008FF0E9023BEAAF83E582900627F0EFA325
:10066E00F0900627E0FEA3E08E8202024612023DC3
:10067E007E008E8322AF83E582900629F0EFA3F0F1
:10068E00900629E0FEA3E0FFEE4F603505A105A11F
:10069E0005A105A105A105A105A105A105A105A11C
:1006AE0005A105A105A105A105A105A105A105A10C
:1006BE0005A11EBEFF011F900629EEF0EFA3F080EC
:1006CE00C7900629EEF0EFA3F022AF83E5829006E5
:1006DE002BF0EFA3F090062BE0FEA3E0FFEE4F60B1
:1006EE001D9003E8C007C006120683D006D0071E71
:1006FE00BEFF011F90062BEEF0EFA3F080DF9006F9
:10070E002BEEF0EFA3F022E582900860F0E0FF758B
:10071E00F005A4FDAEF0242EF582EE3408F583E448
:10072E00F0ED242EFDEE3408FE8D828E83A3E4F0D0
:10073E00EF600475E5002275E40022C2EA75E280DE
:10074E0075E3009024477448F090244CE4F0A3F035
:10075E0090244E04F0E4A3F0F5D4F5D675E2897535
:10076E00D24075D8FF7582001207157582011207E7
:10077E001575E10322E582900861F0E5E35480FFF0
:10078E00E0547F4FF5E322E582900862F0E06007C7
:10079E0053E2BF53D27F2243E24022E582900863A8
:1007AE00F090062D7408F075820012078375820191
:1007BE00120795900863E0FFE0701374FB55E44454
:1007CE0002F5E490000F1206D853E4FD8014BF0129
:1007DE001174FB55E54402F5E590000F1206D8534F
:1007EE00E5FD9000FA120683C2D822E582900864D5
:1007FE00F0E075F005A4242EFE740835F0FF8E820D
:10080E008F83E0FDBD010050078E828F837401F04F
:10081E00900864E0FF7049E5DB20E3030208B7E5CA
:10082E00E420E035E5DB30E21AEF75F005A4242E66
:10083E00FD740835F0FE8D828E83A3A3E4F043E4AD
:10084E00048016EF75F005A4242EFD740835F0FE15
:10085E008D828E83A3A37401F043E401758200227E
:10086E00BF0146E5DB30E741E5E520E035E5DB306D
:10087E00E61AEF75F005A4242EFD740835F0FE8DF2
:10088E00828E83A3A3E4F043E5048016EF75F00592
:10089E00A4242EFE740835F0FF8E828F83A3A374DA
:1008AE0001F043E5017582002275821622E58290E1
:1008BE000866F0900865E0FFBFFF2F900866E075B0
:1008CE00F005A4242EFD740835F0FE8D828E83A3D0
:1008DE00E0F582C006C005120783D005D0068D82D2
:1008EE008E83A3A3E0F582020795900866E075F06B
:1008FE0014A42438FD740835F0FEEF75F005A4FF3E
:10090E002DFDE43EFE8D828E83A3E0F582C007C0EE
:10091E0006C005120783D005D006D00774022DFD40
:10092E00E43EFE8D828E83E0700343D28090086693
:10093E00E075F014A42438FD740835F0FEEF2DFF99
:10094E00E43EFC8F828C83A3A3E0F582020795E53B
:10095E008290086AF0900867E0FF8FD48FD69008D7
:10096E006BE4F0A3F090086AE0FEC4540FFDBD01E5
:10097E0003ED8001E4F50DE4BD090104F50E9008C8
:10098E0068E0F9A3E0FA8ED5C2D9750AC8750B00D6
:10099E00E50A450B602820D925900001C007C00646
:1009AE00C005C002C001120683D001D002D005D00E
:1009BE0006D007150A74FFB50A02150B80D275D53D
:1009CE000020D9047582FE2220D903020AD530DE1A
:1009DE000475820022E5D9540FF50C740EB50C0483
:1009EE0074018001E4F50A60077420450CF582223B
:1009FE00740AB50C0474018001E4F86033E94A709E
:100A0E000A7420450CF50D850D8222C3E994FFEA88
:100A1E0094FF500519B9FF011A90086BE024FFFBF3
:100A2E00A3E034FFFC90086BEBF0ECA3F0020AD8C5
:100A3E00E50D700CE50E7034BD0D028003020AD177
:100A4E0030DE04758200227402B50C047582002219
:100A5E00E50A7003E860077420450CF58222E50C68
:100A6E007003020AD87420450CF5822230DE04751C
:100A7E00820022EF6011740BB50C0474018001E446
:100A8E0024FFE433FC80107403B50C047401800160
:100A9E00E4FB24FFE433FCEC600475820022E50ADB
:100AAE007003E860077420450CF582227403B50CC0
:100ABE0007740BB50C028012E50C600E7420450C09
:100ACE00F582227582FE2275D8FF90000FC007C0F6
:100ADE0006C005C002C001120683D001D002D005A7
:100AEE00D006D00790086BE02401F0A3E03400F0AC
:100AFE0090086BE0FBA3E0FCC3EB94C8EC940050B1
:100B0E000302099475822022AF83E582900872F069
:100B1E00EFA3F0900872E0FEA3E0FF900876EEF0EF
:100B2E00EFA3F090086DE0FBA3E0FCA3E0FD9000C6
:100B3E00C8C007C006C005C004C003120683D00398
:100B4E00D004D005D006D007EB4C600E8B828C8380
:100B5E008DF0E4123BEAA3123BEA75D708900867C2
:100B6E00E4F09008687410F07427A3F07582D0C07A
:100B7E0007C006C005C004C00312095DAA82D003D7
:100B8E00D004D005D006D007EA60038A8222C006C0
:100B9E00C00775D6D075D4D075D701900107E0FA8D
:100BAE007900900106E0F87F004201EF42029008C2
:100BBE0074E9F0EAA3F0D007D006E94A7003020DFB
:100BCE00C4EE4F7003020DC4900100E0FF20E70356
:100BDE00020CD0900874E0FEA3E0FF4E7003020CEE
:100BEE00CA90012CC007C006C005C004C00312067F
:100BFE0083900867E5D4F09008687410F07427A30A
:100C0E00F075829012095DAA82D003D004D005D06F
:100C1E0006D007EA60038A8222A9D17A00C3E99E30
:100C2E00EA9F5006A9D17A0080048E018F028906B0
:100C3E007F00900874E0F8A3E0FA900874E8C39E71
:100C4E00F0EA9FA3F0EB4C60248B828C838DF01224
:100C5E004695F8A3124695FAEE28FEEF3AFF8B82E0
:100C6E008C838DF0EE123BEAA3EF123BEA900876EE
:100C7E00E0FEA3E0FF7A00C3EA99501CC001EA2E01
:100C8E00F50FE43FF5108A82758300E0850F8285AB
:100C9E001083F00AD00180DF900876E0FEA3E0FF1B
:100CAE00900876E92EF0E43FA3F0E5D1600E9006B1
:100CBE002DE0FFC3E5D19F4003020BE175D7000283
:100CCE000DC4900874E0FEA3E0FF4E7003020DC445
:100CDE009000C8C007C006C005C004C0031206833A
:100CEE00D003D004D005D006D00790062DE0F97AB7
:100CFE0000C3EE99EF9A50048E018F0289D79008A7
:100D0E0076E0FEA3E0FFE5D72EFEE43FFF900876E7
:100D1E00EEF0EFA3F08E828F83A3E0FABA0924904F
:100D2E000BDCE0F97A007401697003EA6006790160
:100D3E007A00800479007A00900BDCE9F08E828FC5
:100D4E0083E9F0900867E5D6F09008687410F074A7
:100D5E0027A3F0758210C005C004C00312095DAF51
:100D6E0082D003D004D005EF60038F8222AED77FEE
:100D7E0000900874E0F9A3E0FA900874E9C39EF0BD
:100D8E00EA9FA3F0EB4C7003020CD08B828C838D08
:100D9E00F0124695FEA3124695FFA9D77A00E92ECA
:100DAE00FEEA3FFF8B828C838DF0EE123BEAA3EFBF
:100DBE00123BEA020CD09000C8120683E5D76004FD
:100DCE007F9080027F1090086774C0F0900868745E
:100DDE0010F07427A3F08F8212095DE582FF600385
:100DEE008F8222E5D77003F58222E5D17003F5825A
:100DFE002275821722AF83E582900879F0EFA3F077
:100E0E00900879E0FEA3E0FF900878E0FD7C00C337
:100E1E00EC9D50178C027B01EC2EF582E43FF5839E
:100E2E00E493F98A828B83F00C80E42290062D7471
:100E3E0008F0743DC0E07447C0E07480C0E0123C1E
:100E4E00531581158115819008787408F09046C568
:100E5E00120E0390086D747BF07408A3F0E4A3F0F7
:100E6E00900870F07402A3F090062E120B16E58215
:100E7E00FF60038F82227452C0E07447C0E074801A
:100E8E00C0E0123C53158115811581900635E09016
:100E9E00062DF09046CBE493FF90087BE0FDA3E097
:100EAE00FE7C00C3ED9FEE9C5019747FC0E074472A
:100EBE00C0E07480C0E0123C531581158115817518
:100ECE0082172275820022E58290087DF0900878C4
:100EDE007408F09046DD120E0390087DE0FF90013D
:100EEE0002F090086DE4F0A3F0A3F0900870F0A368
:100EFE00F0900000C007120B16AE82D007EE600312
:100F0E008E82228F057E00C007C005C00674A9C060
:100F1E00E07447C0E07480C0E0123C53E58124FBCE
:100F2E00F581D0078F821207839000641206D87560
:100F3E00820022E58290087EF09008787408F09086
:100F4E0046ED120E0390087EE0900102F090086DBF
:100F5E00E4F0A3F0A3F0900870F0A3F0900000026C
:100F6E000B169008787408F09046E5120E03900860
:100F7E006DE4F0A3F0A3F0900870F07402A3F0906B
:100F8E00062E020B16AF83E582900884F0EFA3F0D5
:100F9E00900884E0FEA3E0FF8E828F83E07C002425
:100FAE00FEFDEC34FFA2E713CD13CD8E828F83A30B
:100FBE00E0FCBC0302800475820022900881E0FBF5
:100FCE00A3E0FCEB24FFF513EC34FFF51490087F3F
:100FDE00E0F515A3E0F5168515118516127800C3F8
:100FEE00E89D5063C00588047D00C3EC9513ED9514
:100FFE0014D0055052C00588037C00EB2BFBEC335C
:10100E00FC74032BFAE43CFDEA2EFAED3FFD8A82D6
:10101E008D83E0D005600FE82511F582E43512F5D9
:10102E0083743FF0801EE82515F9E43516FA740234
:10103E002BFBE43CFCEB2EF582EC3FF583E0FC89C8
:10104E00828A83F0088098E82515F582E43516F536
:10105E0083E4F07F00900883E0FE0E900B79EDF0B4
:10106E00EFA3F0900B7BEEF0900B7C7434F0900BB2
:10107E007D7456F0900B7EE515F0E516A3F07582A3
:10108E00051238D275820122AF83E582900886F070
:10109E00EFA3F0900886E0FEA3E0FF7C007D008EBB
:1010AE00828F83E0FB7A00C3EC9BED64808AF06351
:1010BE00F08095F0503CEC2EF582ED3FF583E0FB91
:1010CE007A00C007C006C005C004C003C00274B9D0
:1010DE00C0E07447C0E07480C0E0123C53E5812448
:1010EE00FBF581D004D005D006D0070CBC00B00DA6
:1010FE0080AD74C1C0E07447C0E07480C0E0123CA3
:10110E0053158115811581229008787408F0904648
:10111E00CD120E0390086D7488F07408A3F0E4A34A
:10112E00F0900870F07402A3F090062E120B16E5E4
:10113E0082FF60038F82229046D3E493FF9008884B
:10114E00E0FDA3E0FE7C00C3ED9FEE9C5004758293
:10115E001722900630E0FF7E00900631E0FCE42F6F
:10116E00FFEC3EFE9008787408F09046CDC007C0A4
:10117E0006120E03D006D0078F048E05900106ECE2
:10118E00F08E07900107EFF090086D7488F07408E8
:10119E00A3F0E4A3F0900870F07402A3F090062E72
:1011AE00120B16E582FF60038F8222758200229059
:1011BE0008787408F09046D5120E0390086D748A64
:1011CE00F07408A3F0E4A3F0900870F07402A3F09A
:1011DE0090062E020B16E5829008F4F0E0FF75F0F3
:1011EE0010A4FDAEF024D4F582EE3408F583E4F0BD
:1011FE00A3F0A3F0A3F0ED24D4FDEE3408FE8D820F
:10120E008E83A3A3A3A3E4F0A3F0A3F0A3F074082A
:10121E002DF582E43EF583E4F0A3F0A3F0A3F07481
:10122E000C2DF582E43EF583E4F0A3F0A3F0A3F0D9
:10123E007E00EE75F009A4248CFC740835F0FD7464
:10124E00012CFAE43DFB8A828B83E0B5072C8C825D
:10125E008D83E4F08A828B83F08C828D83A3A3A38B
:10126E00F08C828D83A3A3A3A3F08C828D83A3A382
:10127E00A3A3A3F0A3F0A3F0A3F00EBE080040B208
:10128E009008F4E075F014A42438FE740835F0FFCD
:10129E007D00ED75F005A42EFBE43FFC8B828C8364
:1012AE00A3E4F08B828C83F00DBD040040E4227F1A
:1012BE0000EF75F009A4FDAEF0248CFBEE3408FCB3
:1012CE008B828C83E0700302147DED248CFDEE3452
:1012DE0008FE8D828E83A3E0FC8D828E83A3A3E015
:1012EE00900865F08C82C007C006C0051208BBD0FE
:1012FE0005D006D0078D828E83A3A3A3A3E0FE7430
:10130E007F5E4490FDEE30E7067CC07E0080047C5C
:10131E00007E00900867ECF0900868E4F0A3F08D72
:10132E0082C00712095DE582D0076003021473EFD5
:10133E0075F009A4248CF51E740835F0F51F74049D
:10134E00251EFBE4351FFC8B828C83E0F97A00634B
:10135E0001808B828C83E9F09008F5E5D1F0E0F501
:10136E0017E0700302147DB2968B828C83E0F879BD
:10137E0000747F58F51889198F1A891B7405251E5C
:10138E00F51CE4351FF51D851C82851D83E0F8A331
:10139E00E0F9A3E0FAA3E0FEC007C004C003C01842
:1013AE00C019C01AC01BC000C001C002C00674C361
:1013BE00C0E07447C0E07480C0E0123C53E5812465
:1013CE00F5F581D003D004D007AA177E00851C82C4
:1013DE00851D83E0FD8B828C83E0FB53037F851E8E
:1013EE0082851F83A3E075F010A4F9ACF024D4F528
:1013FE0082EC3408F583E0F51EE924D4F9EC3408C8
:10140E00FC89828C83A3A3A3A3E0F51C740829F5A1
:10141E0082E43CF583E0F8740C29F582E43CF58314
:10142E00E0FC900B81EAF0EEA3F0900B83EDF090D0
:10143E000B84EFF0900B85EBF0900B867400F0743C
:10144E0000A3F0900B88E51EF0900B89E51CF09040
:10145E000B8AE8F0900B8BECF0758204C007123902
:10146E0080D007800A900064C007120683D0070F51
:10147E00BF080050030212BF22E5829008F7F0E089
:10148E0075F009A4FEAFF0248CFCEF3408FD8C82BD
:10149E008D83E06029EE248CFEEF3408FF8E828F60
:1014AE0083A3E0FD8E828F83A3A3E0900865F08D69
:1014BE0082C007C0061208BBD006D007800122905A
:1014CE0008787408F0904705C007C006120E03D0C6
:1014DE0006D0078E828F83A3A3A3E0900104F09021
:1014EE0001067401F075D708900867E4F09008685B
:1014FE007410F07427A3F07582D012095DE5826036
:10150E0001229008F6E0900100F075D6D075D4D087
:10151E0075D701900867E5D6F09008687410F074DE
:10152E0027A3F075821002095DAF83E5829008FB58
:10153E00F0EFA3F09008FDE4F0A3F09008FFF09018
:10154E000900F09008FAE075F009A4248CFE7408E6
:10155E0035F0FF9008FBE0F526A3E0F527AA26ABB1
:10156E00279008F8E0F524A3E0F5259008FDE0F5B6
:10157E0020A3E0F521C3E5209524E5219525400122
:10158E0022C006C007E5202526F582E5213527F580
:10159E0083E0FF90090174FC5FF074035FF5209007
:1015AE000902F0900903E4F0A3F0A3F0A3F0740392
:1015BE00B520028006D007D006800BD007D006904B
:1015CE000902E52004F0C006C0079008FDE0FEA366
:1015DE00E0FF74012EF520E43FF521900902E0F5BD
:1015EE0022752300D007D006C3E52395225054C0A0
:1015FE0006C007AE237F00EE2520FEEF3521FFEE5D
:10160E002AF582EF3BF583E0F8E4F9FEFFE523C40B
:10161E000354F8FD8DF005F0800CE828F8E933F955
:10162E00EE33FEEF33FFD5F0F1900903E048F0A35F
:10163E00E049F0A3E04EF0A3E04FF00523D007D031
:10164E000680A59008FFE0FD900901E0FCE4BCC017
:10165E000104F52379008D20752100E523600875BE
:10166E0028017529008005E4F528F529C006C00774
:10167E00E520C39528F8E5219529FF89047E00C34E
:10168E00EC98EE64808FF063F08095F0D007D00672
:10169E005030C007C006C005C003C002C00174DBD5
:1016AE00C0E07447C0E07480C0E0123C5315811551
:1016BE00811581D001D002D003D005D006D0070904
:1016CE008094900901E0FDBD04028063BD08030211
:1016DE00191DBD1403021CA7BD1803021D8FBD24C6
:1016EE0003021CE1BD2803021DC9BD3403021D1BEC
:1016FE00BD4403021D55BD6403021E84BD74030266
:10170E001F6CBD8003021EBEBD8403021FA6BD90CA
:10171E0003021EF8BD9403021FE0BDA003021E03C8
:10172E00BDB003021F32BDC003021E440220199039
:10173E000903E0F52AA3E0F52BA3E0F52CA3E0F5D1
:10174E002DC3E52B94FFE52C9400E52D9400400A63
:10175E00E4F52A752BFFF52CF52DC007C006C00346
:10176E00C00274E0C0E07447C0E07480C0E0123C78
:10177E0053158115811581D002D003D006D0077480
:10178E0001B52A0D14B52B09B52C06B52D0302187B
:10179E005E7407B52A0CE4B52B08B52C05B52D02E1
:1017AE00805E7408B52A0CE4B52B08B52C05B52D52
:1017BE000280257409B52A0CE4B52B08B52C05B5A5
:1017CE002D028064E4B52A0DB52C0AB52D07F4B5AB
:1017DE002B030218850218BEC007C006C003C00244
:1017EE0074ECC0E07447C0E07480C0E0123C531546
:1017FE008115811581D002D003D006D0070218F5CD
:10180E00C007C006C003C00274F1C0E07447C0E058
:10181E007480C0E0123C53158115811581D002D021
:10182E0003D006D0070218F5C007C006C003C002D9
:10183E007401C0E07448C0E07480C0E0123C5315DF
:10184E008115811581D002D003D006D0070218F57C
:10185E00C007C006C003C0027408C0E07448C0E0F0
:10186E007480C0E0123C53158115811581D002D0D1
:10187E0003D006D0078070C007C006C003C0029018
:10188E000903E0C0E0A3E0C0E0A3E0C0E0A3E0C035
:10189E00E07421C0E07448C0E07480C0E0123C5394
:1018AE00E58124F9F581D002D003D006D007803728
:1018BE00C007C006C003C002900903E0C0E0A3E069
:1018CE00C0E0A3E0C0E0A3E0C0E07438C0E074481C
:1018DE00C0E07480C0E0123C53E58124F9F581D05C
:1018EE0002D003D006D007C007C006C003C00274E2
:1018FE00C1C0E07447C0E07480C0E0123C53158153
:10190E0015811581D002D003D006D0070220609039
:10191E000900E07036C002C00374052EF52AE43FBC
:10192E00F52B900903E0F8A3E0FAA3E0FBA3E0FC9B
:10193E00852A82852B83E8F0EAA3F0EBA3F0ECA3D3
:10194E00F09009007401F0D003D002C007C006C0A9
:10195E0003C0027448C0E07448C0E07480C0E01256
:10196E003C53158115811581D002D003D006D007C6
:10197E00900903E0F52AA3E0F52BA3E0F52CA3E0F4
:10198E00F52DC37438952AE4952BE4952CE4952D0A
:10199E005003021C52E52A240B83F582E52A243DCE
:1019AE0083F583E473254D759DC5ED153D658D520B
:1019BE0052525252525252525252525252525252F9
:1019CE0052525252525252525252525252525252E9
:1019DE005252525252B5DD0452525252522B1A1AD0
:1019EE001A1A1A1A1B1B1B1B1C1C1C1C1C1C1C1C35
:1019FE001C1C1C1C1C1C1C1C1C1C1C1C1C1C1C1C19
:101A0E001C1C1C1C1C1C1C1C1C1C1C1C1C1C1B1B0A
:101A1E001C1C1C1C1C1C1CC007C006C003C002746E
:101A2E004FC0E07448C0E07480C0E0123C53158192
:101A3E0015811581D002D003D006D007021C7FC0BD
:101A4E0007C006C003C0027457C0E07448C0E074FB
:101A5E0080C0E0123C53158115811581D002D00350
:101A6E00D006D007021C7FC007C006C003C0027498
:101A7E005FC0E07448C0E07480C0E0123C53158132
:101A8E0015811581D002D003D006D007021C7FC06D
:101A9E0007C006C003C0027465C0E07448C0E0749D
:101AAE0080C0E0123C53158115811581D002D00300
:101ABE00D006D007021C7FC007C006C003C0027448
:101ACE006EC0E07448C0E07480C0E0123C531581D3
:101ADE0015811581D002D003D006D007021C7FC01D
:101AEE0007C006C003C0027477C0E07448C0E0743B
:101AFE0080C0E0123C53158115811581D002D003B0
:101B0E00D006D007021C7FC007C006C003C00274F7
:101B1E007FC0E07448C0E07480C0E0123C53158171
:101B2E0015811581D002D003D006D007021C7FC0CC
:101B3E0007C006C003C0027488C0E07448C0E074D9
:101B4E0080C0E0123C53158115811581D002D0035F
:101B5E00D006D007021C7FC007C006C003C00274A7
:101B6E008FC0E07448C0E07480C0E0123C53158111
:101B7E0015811581D002D003D006D007021C7FC07C
:101B8E0007C006C003C00274A5C0E07448C0E0746C
:101B9E0080C0E0123C53158115811581D002D0030F
:101BAE00D006D007021C7FC007C006C003C0027457
:101BBE00BCC0E07448C0E07480C0E0123C53158194
:101BCE0015811581D002D003D006D007021C7FC02C
:101BDE0007C006C003C00274BEC0E07448C0E07403
:101BEE0080C0E0123C53158115811581D002D003BF
:101BFE00D006D007807BC007C006C003C00274C0E9
:101C0E00C0E07448C0E07480C0E0123C53158115EA
:101C1E00811581D002D003D006D0078054C007C0F2
:101C2E0006C003C00274C2C0E07448C0E07480C035
:101C3E00E0123C53158115811581D002D003D006D8
:101C4E00D007802DC007C006C003C002C02AC02B1B
:101C5E00C02CC02D7438C0E07448C0E07480C0E061
:101C6E00123C53E58124F9F581D002D003D006D081
:101C7E0007C007C006C003C00274C1C0E07447C0ED
:101C8E00E07480C0E0123C53158115811581D0029D
:101C9E00D003D006D007022060C007C006C003C024
:101CAE0002900903E0C0E0A3E0C0E0A3E0C0E0A31F
:101CBE00E0C0E074C8C0E07448C0E07480C0E012B8
:101CCE003C53E58124F9F581D002D003D006D0072C
:101CDE00022060C007C006C003C002900903E0C026
:101CEE00E0A3E0C0E0A3E0C0E0A3E0C0E074D9C090
:101CFE00E07448C0E07480C0E0123C53E58124F9E2
:101D0E00F581D002D003D006D007022060C007C0F4
:101D1E0006C003C002900903E0C0E0A3E0C0E0A348
:101D2E00E0C0E0A3E0C0E074EAC0E07448C0E07434
:101D3E0080C0E0123C53E58124F9F581D002D00336
:101D4E00D006D007022060C007C006C003C00290B4
:101D5E000903E0C0E0A3E0C0E0A3E0C0E0A3E0C060
:101D6E00E074FCC0E07448C0E07480C0E0123C53E4
:101D7E00E58124F9F581D002D003D006D0070220E8
:101D8E0060C007C006C003C002900903E0C0E0A314
:101D9E00E0C0E0A3E0C0E0A3E0C0E074EAC0E074FD
:101DAE0048C0E07480C0E0123C53E58124F9F5810F
:101DBE00D002D003D006D007022060C007C006C0F4
:101DCE0003C002900903E0C0E0A3E0C0E0A3E0C0BE
:101DDE00E0A3E0C0E074FCC0E07448C0E07480C0D2
:101DEE00E0123C53E58124F9F581D002D003D006F0
:101DFE00D007022060C007C006C003C002900903CE
:101E0E00E0C0E0A3E0C0E0A3E0C0E0A3E0C0E07467
:101E1E000EC0E07449C0E07480C0E0123C53E5810E
:101E2E0024F9F581D002D003D006D0079008FFE048
:101E3E002401F0022060C007C006C003C002900952
:101E4E0003E0C0E0A3E0C0E0A3E0C0E0A3E0C0E098
:101E5E007424C0E07449C0E07480C0E0123C53E5C5
:101E6E008124F9F581D002D003D006D0079008FF67
:101E7E00E014F0022060C007C006C003C002900943
:101E8E0003E0C0E0A3E0C0E0A3E0C0E0A3E0C0E058
:101E9E007438C0E07449C0E07480C0E0123C53E571
:101EAE008124F9F581D002D003D006D0070220603C
:101EBE00C007C006C003C002900903E0C0E0A3E063
:101ECE00C0E0A3E0C0E0A3E0C0E07446C0E0744907
:101EDE00C0E07480C0E0123C53E58124F9F581D056
:101EEE0002D003D006D007022060C007C006C00390
:101EFE00C002900903E0C0E0A3E0C0E0A3E0C0E0B0
:101F0E00A3E0C0E07455C0E07449C0E07480C0E046
:101F1E00123C53E58124F9F581D002D003D006D0CE
:101F2E0007022060C007C006C003C002900903E08C
:101F3E00C0E0A3E0C0E0A3E0C0E0A3E0C0E07465B1
:101F4E00C0E07449C0E07480C0E0123C53E58124C7
:101F5E00F9F581D002D003D006D007022060C00769
:101F6E00C006C003C002900903E0C0E0A3E0C0E0D9
:101F7E00A3E0C0E0A3E0C0E07476C0E07449C0E026
:101F8E007480C0E0123C53E58124F9F581D002D073
:101F9E0003D006D007022060C007C006C003C002EF
:101FAE00900903E0C0E0A3E0C0E0A3E0C0E0A3E03E
:101FBE00C0E07487C0E07449C0E07480C0E0123C99
:101FCE0053E58124F9F581D002D003D006D0070263
:101FDE002060C007C006C003C002900903E0C0E045
:101FEE00A3E0C0E0A3E0C0E0A3E0C0E07496C0E0D0
:101FFE007449C0E07480C0E0123C53E58124F9F5C9
:10200E0081D002D003D006D0078047A9227C008D54
:10201E00007D00C007C006C003C002900903E0C0E7
:10202E00E0A3E0C0E0A3E0C0E0A3E0C0E0C001C0D8
:10203E0004C000C00574A8C0E07449C0E07480C03C
:10204E00E0123C53E58124F5F581D002D003D00691
:10205E00D007900902E0FD7C000DBD00010C900838
:10206E00FDE0F8A3E0F99008FDED28F0EC39A3F0BF
:10207E00021579E582900907F0E075F009A4248C29
:10208E00FE740835F0FF74032EFEE43FFF8E828F40
:10209E0083E0FD7C00C007C006C005C00474E8C024
:1020AE00E07449C0E07480C0E0123C53E58124FB2B
:1020BE00F5819008787408F09046F5120E03D0065C
:1020CE00D0078E828F83E0900104F090086D740823
:1020DE00F07409A3F0E4A3F0900870F0A3F090065A
:1020EE002EC007C006120B169008787408F09046A2
:1020FE00FD120E03D006D0078E828F83E09001046E
:10210E00F0900106E4F09001077402F090086D74EF
:10211E0008F07409A3F0E4A3F0900870F07402A321
:10212E00F090062E120B16E582FF60038F82227E40
:10213E00007F00900908E0FCA3E0FDC3EE9CEF9D3C
:10214E005036EE242EF582EF3406F583E0FD7C004A
:10215E00C007C006C005C00474B9C0E07447C0E033
:10216E007480C0E0123C53E58124FBF581D006D08B
:10217E00070EBE00BE0F80BB74C1C0E07447C0E046
:10218E007480C0E0123C53158115811581900908A9
:10219E00E0FEA3E0FF900907E0FD75F009A4248C92
:1021AE00FB740835F0FC8B828C83A3A3A3E0FA8B1F
:1021BE00828C83A3E0FC900B79EEF0EFA3F0900BF2
:1021CE007BEDF0900B7CEAF0900B7DECF0900B7EAB
:1021DE00742EF07406A3F0758207C0051238D2D0A3
:1021EE0005900908E0FEA3E0FF9008F8EEF0EFA3DB
:1021FE00F09008FAEDF090062E1215377582002237
:10220E0090090AE0FEA3E0FF8E828F83A3A3E0FD78
:10221E007C00C007C006C005C004740DC0E0744A3F
:10222E00C0E07480C0E0123C53E58124FBF581D000
:10223E0006D0078E828F83A3A3A3A3A3E0FD7C0009
:10224E00C007C006C005C004741BC0E0744AC0E0DD
:10225E007480C0E0123C53E58124FBF581D006D09A
:10226E000774062EF582E43FF583E0FD7C00C0077F
:10227E00C006C005C0047427C0E0744AC0E0748074
:10228E00C0E0123C53E58124FBF581D006D00774E3
:10229E00072EF582E43FF583E0FF7E00C007C006FF
:1022AE007437C0E0744AC0E07480C0E0123C53E55D
:1022BE008124FBF58122AF83E58290090EF0EFA316
:1022CE00F090090EE0FEA3E0FF8E828F83A3A3E0C1
:1022DE00FF7E00C007C0067450C0E0744AC0E074B0
:1022EE0080C0E0123C53E58124FBF58190090CE09F
:1022FE00FEA3E0FF8E828F83A3A3E0FDFB53030FAB
:10230E007C00EDC4540FFD7A008E828F83A3A3A3AD
:10231E00E0F853000F7900C007C006C003C004C028
:10232E0005C002C000C0017465C0E0744AC0E0740C
:10233E0080C0E0123C53E58124F7F581D006D0072A
:10234E008E828F83A3A3A3A3E0FD7C00C007C006EB
:10235E00C005C0047474C0E0744AC0E07480C0E06C
:10236E00123C53E58124FBF581D006D00774062E6E
:10237E00F582E43FF583E0FF7E00C007C006748B54
:10238E00C0E0744AC0E07480C0E0123C53E5812482
:10239E00FBF58122E582900910F09008787408F020
:1023AE00904715120E03900910E075F009A4248CC5
:1023BE00FE740835F0FF8E828F83A3A3A3E09001F5
:1023CE0004F090086D7411F07409A3F0E4A3F0907A
:1023DE000870F07402A3F090062E120B16E582FF21
:1023EE0060038F82227F00900911E0FDA3E0FE8F33
:1023FE00037C00C3EB9DEC9E502EEF242EF582E461
:10240E003406F583E0FE7D00C007C006C00574B932
:10241E00C0E07447C0E07480C0E0123C53E58124F4
:10242E00FBF581D0070F80BF74C1C0E07447C0E0D8
:10243E007480C0E0123C53158115811581758200A0
:10244E0022E582900913F09008787408F090470DF9
:10245E00120E03900102E4F0900913E075F009A446
:10246E00248CFE740835F0FF8E828F83A3A3A3E025
:10247E00900104F090086D7414F07409A3F0E4A3B5
:10248E00F0900870F07402A3F090062E120B16E571
:10249E0082FF60038F8222749BC0E0744AC0E07496
:1024AE0080C0E0123C531581158115817582002282
:1024BE0022E582900917F0900916E0FFBFFF0E90FB
:1024CE000917E0035480FE43067F8E82229009177F
:1024DE00E003548042070F8F8222E582900919F0A3
:1024EE00900918E0FFBFFF19900919E075F005A4D7
:1024FE00242EFD740835F0FE7C008D828E838CF0C8
:10250E0022900919E075F014A42438FD740835F0F2
:10251E00FEEF75F005A42DFDE43EFE7F008D828E4C
:10252E00838FF022E58290091BF0E0FF90091AE0FC
:10253E00FE900865F08F82C007C0061208BBD00659
:10254E00D007900918EEF08F82C007C0061224E85B
:10255E00AB82AC83ADF0D006D0070BBB00010C8B69
:10256E00828C838DF0124695FB7D008E027C008F4F
:10257E00007900C007C006C003C005C002C004C079
:10258E0000C00174B2C0E0744AC0E07480C0E012B2
:10259E003C53E58124F7F581120E3AAD82D006D078
:1025AE000790091CEDF0ED6003022C5A900918EE0D
:1025BE00F08F82C007C0061224E8AB82AC83ADF068
:1025CE00900632E0FAF87900C005C004C003C002DC
:1025DE00C000C00174D3C0E0744AC0E07480C0E093
:1025EE00123C53E58124FBF581D002D003D004D0F8
:1025FE0005D00674032BF8E43CF98D078882898395
:10260E008FF0EA123BEA900635E0FF7A00C007C071
:10261E0006C005C004C003C007C00274E4C0E07465
:10262E004AC0E07480C0E0123C53E58124FBF58182
:10263E00D003D004D005D006D007BEFF028005D04F
:10264E0007022700D007C003C004C005EF75F010C5
:10265E00A4FFAAF024D4F52EEA3408F52F900636FE
:10266E00E0FB79007C007D00852E82852F83EBF0C8
:10267E00E9A3F0ECA3F0EDA3F0EF24D4FFEA3408C5
:10268E00FA74042FF52EE43AF52F900637E0F87918
:10269E00007B007D00852E82852F83E8F0E9A3F074
:1026AE00EBA3F0EDA3F074082FF52EE43AF52F907E
:1026BE000638E0F879007B007D00852E82852F8319
:1026CE00E8F0E9A3F0EBA3F0EDA3F0740C2FFFE418
:1026DE003AFA900639E0F97B007C007D008F828A01
:1026EE0083E9F0EBA3F0ECA3F0EDA3F0D005D0045A
:1026FE00D00390062EC006C005C004C0031210966B
:10270E00D003D004D005D00690091BE0FF90091627
:10271E00EEF08F82C007C006C005C004C0031224AD
:10272E00BFAA82C002120ED5A982D002D003D00455
:10273E00D005D006D00790091CE9F0E96003022C01
:10274E005A0BBB00010C8B828C838DF0EA123BEA94
:10275E0090062EC007C006C002121096D002D006F8
:10276E00D00790087F742EF07406A3F0900881E4D1
:10277E00F07402A3F0900883EFF090062EC006C00E
:10278E0002120F93E582D002D0066028C006C00266
:10279E00742EC0E07406C0E0E4C0E074F8C0E074CB
:1027AE004AC0E07480C0E0123C53E58124FAF58102
:1027BE00D002D006C006C002121116AF82D002D0CF
:1027CE000690091CEFF0EF6003022C5A900630E0E1
:1027DE00FF7D00900631E0FBE42FFFEB3DFD9009FD
:1027EE001BE0FC0C900B79EFF0EDA3F0900B7BEA65
:1027FE00F0900B7CECF0900B7D74AAF0900B7E7435
:10280E002EF07406A3F0758206C0061238D2D006DA
:10281E00900B1FE4F0A3F07D007F00900630E0FCEB
:10282E007B00900631E0FAE42CFCEA3BFBC3ED9C06
:10283E00EF9B503AED242EF582EF3406F583E0FC43
:10284E007B00C007C006C005C004C00374B9C0E059
:10285E007447C0E07480C0E0123C53E58124FBF560
:10286E0081D005D006D0070DBD00B00F80ADC006DB
:10287E0074C1C0E07447C0E07480C0E0123C5315D0
:10288E008115811581D006900633E0FFFC7D00C0D6
:10289E0007C006C004C005740BC0E0744BC0E074E2
:1028AE0080C0E0123C53E58124FBF581900632E0B6
:1028BE00FD7C00C005C0047424C0E0744BC0E074FD
:1028CE0080C0E0123C53E58124FBF581D006D00791
:1028DE008F82C006120F41D006900630E0FF7D00B9
:1028EE00900631E0FBE42FFFEB3DFD8F038D047965
:1028FE00007A00C3E99BEA9C5027C007C005E92473
:10290E001FF8EA3409FFE9242EF582EA3406F5832E
:10291E00E088828F83F009B900010AD005D00780C4
:10292E00D290062EE0FC90091DF0E4A3F090091B56
:10293E00E0F531AB318F2E8D2F90091DE0F9A3E01C
:10294E00FAC3E9952EEA952F4003022C56E9241F6F
:10295E00F9EA3409FA900B21E9F0EAA3F089828AA8
:10296E0083A3E0F8B80402801AB805028062B82189
:10297E0003022B2DB82403022B93B82503022BC977
:10298E00022BFF88057F00C006C003C002C001C035
:10299E0005C0077439C0E0744BC0E07480C0E0120B
:1029AE003C53E58124FBF581D001D002D00389058B
:1029BE008A07900B1FEDF0EFA3F090090AEDF0EFF0
:1029CE00A3F08B82C00312220ED003D006022C314C
:1029DE00C00388037F00C006C003C002C001C0034D
:1029EE00C0077455C0E0744BC0E07480C0E0123C68
:1029FE0053E58124FBF581D001D00289828A83C000
:102A0E0002C001121096D001D002D003D006900B56
:102A1E001FE0FDA3E0FF8D828F83A3A3A3A3A3E0FA
:102A2E00FFBF03028005D003022C3189058A07748B
:102A3E00022DF532E43FF533853282853383E0D0C3
:102A4E000320E703022C31753000C003E53075F02A
:102A5E0009A4248CFB740835F0FC8B828C83E0D0A7
:102A6E00036008053074F8253050DFC003AB307CAE
:102A7E0000C006C003C003C0047470C0E0744BC035
:102A8E00E07480C0E0123C53E58124FBF581D00355
:102A9E00D006E53075F009A4248CFB740835F0FCE3
:102AAE0074042BF534E43CF535853282853383E0AE
:102ABE00F532853482853583F08B828C837401F0F8
:102ACE0074032BF534E43CF535900B1FE0FDA3E0C9
:102ADE00FF8D828F83A3A3E0853482853583F08BAF
:102AEE00828C83A3E531F08B828C83A3A3EEF0ADB1
:102AFE00327F00C006C003C005C0077492C0E074E8
:102B0E004BC0E07480C0E0123C53E58124FBF5819C
:102B1E00853082122081D003D006D003022C31885A
:102B2E00057F00C006C003C002C001C005C0077407
:102B3E00B9C0E0744BC0E07480C0E0123C53E58134
:102B4E0024FBF581D001D002D003D006900B1FE0FC
:102B5E00FDA3E0FF900B1FE0F5F0A3E045F070033E
:102B6E00022C31C00389038A0490090CEBF0ECA30C
:102B7E00F08D828F83C006C0031222C4D003D0060C
:102B8E00D003022C3188057F00C006C003C002C0EE
:102B9E0001C005C00774CFC0E0744BC0E07480C0A4
:102BAE00E0123C53E58124FBF581D001D0028982ED
:102BBE008A83121096D003D006806888057F00C0E5
:102BCE0006C003C002C001C005C00774F7C0E074A0
:102BDE004BC0E07480C0E0123C53E58124FBF581CC
:102BEE00D001D00289828A83121096D003D006803B
:102BFE00327F00C006C003C002C001C000C007740F
:102C0E0021C0E0744CC0E07480C0E0123C53E581FA
:102C1E0024FBF581D001D00289828A83121096D0CE
:102C2E0003D006900B21E0FDA3E0FF8D828F83E0A1
:102C3E00FD7F0090091DE0FAA3E0FC90091DED2A2E
:102C4E00F0EF3CA3F00229477582002290091CE0A8
:102C5E00F58222E582900B23F0E0FF7E00C3EE9F0B
:102C6E005032EE242EF582E43406F583E0FD7C002E
:102C7E00C007C006C005C00474B9C0E07447C0E008
:102C8E007480C0E0123C53E58124FBF581D006D060
:102C9E00070E80C974C1C0E07447C0E07480C0E004
:102CAE00123C5315811581158122E582900B25F07A
:102CBE009008787408F090472D120E03900B25E0C3
:102CCE00FF0F900104EFF0900B24E0900102F090C2
:102CDE00086D7426F0740BA3F0E4A3F0900870F066
:102CEE007402A3F090062E020B16E582900B28F0CC
:102CFE009008787408F0904735120E03900B28E078
:102D0E00FF0F900104EFF0900B27E0900102F0907E
:102D1E00086D7429F0740BA3F0E4A3F0900870F022
:102D2E007402A3F090062E020B16E582900B2AF089
:102D3E009008787408F0904725120E03900B2AE045
:102D4E00FF0F900104EFF090086D742BF0740BA33D
:102D5E00F0E4A3F0900870F07402A3F090062E0237
:102D6E000B16E582900B2DF07443C0E0744CC0E05E
:102D7E007480C0E0123C53158115811581900B2C87
:102D8E00E0FF900B247404F08F82C007122CB8AEB3
:102D9E0082D007EE60038E8222C0077459C0E074A1
:102DAE004CC0E07480C0E0123C5315811581158132
:102DBE00D0078F82C007122D38AE82758204C006EE
:102DCE00122C61D006D007EE60038E822290000195
:102DDE00C0071206D8D007900000E020E4D490007F
:102DEE0001E030E145C0077471C0E0744CC0E0747E
:102DFE0080C0E0123C53158115811581D007900BD0
:102E0E002DE0FE900918EFF08E82C0071224E8AC78
:102E1E0082AD83AEF0D00774022CFCE43DFD8C82B3
:102E2E008D838EF0E4123BEA8044C007748CC0E0C0
:102E3E00744CC0E07480C0E0123C531581158115AE
:102E4E0081D007900B2DE0FE900918EFF08E82C016
:102E5E00071224E8AC82AD83AEF0D00774022CFCCE
:102E6E00E43DFD8C828D838EF07401123BEA90005E
:102E7E0002E030E445C00774A8C0E0744CC0E074B2
:102E8E0080C0E0123C5315811581158174B8C0E0E5
:102E9E00744CC0E07480C0E0123C5315811581154E
:102EAE0081D007900B277414F08F82C007122CF874
:102EBE00AE82D007EE601C8E822274CFC0E0744CBE
:102ECE00C0E07480C0E0123C5315811581158175E8
:102EDE0082FE22C00774DDC0E0744CC0E07480C076
:102EEE00E0123C53158115811581D007900B277484
:102EFE0012F08F82C007122CF8AE82D007EE60035C
:102F0E008E8222900064C0071206D874FDC0E07451
:102F1E004CC0E07480C0E0123C53158115811581C0
:102F2E00D007900B2DE0FE90091AEFF08E82C007AD
:102F3E00C006122532AD82D006D007ED701F900963
:102F4E0018EFF08E82C0051224E8AC82AE83AFF08B
:102F5E00D0058C828E838FF07401123BEA8D822213
:102F6E00E582900B2EF0900B2FE4F0900B2EE0FFED
:102F7E0090091874FFF08F82C0071224E8AC82AD5E
:102F8E0083AEF0D00774042CFCE43DFD8C828D835F
:102F9E008EF0124695FE7D00C3ED9E4003023192E7
:102FAE00900B2EE0FC90086574FFF08C82C007C079
:102FBE0006C005C0041208BBD004D0058D82C00522
:102FCE00C004122D38AB82D004D005D006D00790A5
:102FDE000B2FEBF0EB60038B8222900002E0FB20C4
:102FEE00E00302318E900000E030E0538D027B0052
:102FFE008C007900C007C006C005C004C002C00323
:10300E00C000C0017419C0E0744DC0E07480C0E00F
:10301E00123C53E58124F9F581D004D005900B279D
:10302E007410F08D82C005C004122CF8AB82D0044F
:10303E00D005D006D007EB700302310A8B82228DA9
:10304E00027B008C007900C007C006C005C004C01A
:10305E0002C003C000C001743EC0E0744DC0E074F5
:10306E0080C0E0123C53E58124F9F581D004D005EF
:10307E00900B277410F08D82C005C004122CF8AB93
:10308E0082D004D005D006D007900B2FEBF0EB606A
:10309E00038B8222EC75F014A42438FA740835F0F0
:1030AE00FBED75F005A42AFAE43BFB8A828B83A321
:1030BE00E4F08A828B83F08D037A00C006EA75F005
:1030CE0009A4248CF8740835F0F988828983A3E06A
:1030DE00FEB507028004D006801988828983A3A3D7
:1030EE00E0FEB503028004D0068008D006888289EF
:1030FE0083E4F00ABA080040C202318E900064C028
:10310E0007C006C005C0041206D8D004D005900929
:10311E0018EDF08C82C005C0041224E8A982AA839F
:10312E00ABF0D004D005D006D00709B900010A894A
:10313E00828A838BF0E4123BEA900B2CEDF08C82AA
:10314E00C007C006C005122D70AC82D005D006D0C7
:10315E0007900B2FECF0EC60277B00C007C006C079
:10316E0005C004C003745EC0E0744DC0E07480C03E
:10317E00E0123C53E58124FBF581D005D006D00743
:10318E000D022FA6900B2FE0F58222E582900B30D8
:10319E00F07479C0E0744DC0E07480C0E0123C530E
:1031AE001581158115819008787408F090471D12CD
:1031BE000E0390086D7433F0740BA3F0E4A3F0903B
:1031CE000870F07402A3F090062E120B16AF8290C8
:1031DE000B31EFF0EF60038F8222900B33E0FEA3F2
:1031EE00E08E82122C61900630E0FF900B32F09050
:1031FE000B30E0FE90091874FFF08E82C007122487
:10320E00E8AC82AD83AEF0D00774042CFCE43DFD37
:10321E008C828D838EF0EF123BEA24FB50287E00C9
:10322E007404C0E0E4C0E0C007C0067497C0E07448
:10323E004DC0E07480C0E0123C53E58124F9F58165
:10324E00900B327404F074B7C0E0744DC0E074801B
:10325E00C0E0123C53158115811581900B32E0FFB1
:10326E007E00C3EE9F50448E047D00C007C006C092
:10327E0004C00574D0C0E0744DC0E07480C0E0128C
:10328E003C53E58124FBF581D006900B247408F0A5
:10329E008E82C006122CB8AD82D006D007900B31AC
:1032AE00EDF0ED60038D82220E80B774D9C0E0740C
:1032BE004DC0E07480C0E0123C531581158115811C
:1032CE00900B32E0FF7E00C3EE9F50448E047D00D3
:1032DE00C007C006C004C00574D0C0E0744DC0E085
:1032EE007480C0E0123C53E58124FBF581D006903A
:1032FE000B277410F08E82C006122CF8AD82D00609
:10330E00D007900B31EDF0ED60038D82220E80B769
:10331E00900B32E0FF7E00C3EE9F400302343190EB
:10332E000B30E0FD900918EEF08D82C007C006C08C
:10333E00051224E8AA82AB83ACF0D005D0068A82AF
:10334E008B838CF07402123BEA8E037C00C006C0A5
:10335E0005C003C00474FFC0E0744DC0E07480C0AB
:10336E00E0123C53E58124FBF5819000321206D821
:10337E00D00590086574FFF08D82C0051208BBD091
:10338E0005D0068E82C006C005122D38AC82900B79
:10339E0031ECF0758204C004122C61D004D005D03B
:1033AE0006D007EC60038C8222900000E030E02310
:1033BE00C007C006C005741CC0E0744EC0E0748027
:1033CE00C0E0123C53158115811581D005D006D071
:1033DE0007801FC007C0067438C0E0744EC0E0748A
:1033EE0080C0E0123C53158115811581D006D0079F
:1033FE00802D900064C007C006C0051206D8D00507
:10340E00D006900B2CEEF08D82C006122D70AD8280
:10341E00D006D007900B31EDF0ED60038D82220EB9
:10342E00023325900B31E0F58222E582900B35F0C8
:10343E00900B36E4F0900B35E0FFFEFD75F005A421
:10344E00F53685F0378F027900900064C007C0060C
:10345E00C005C002C0011206D89000641206D8D072
:10346E0001D0028A82C002C0011211E4D001D00242
:10347E008A82C002C0011207A9D001D002D005D0A5
:10348E0006D0077800900001C007C006C005C00234
:10349E00C001C0001206D8D000D001D002D005D095
:1034AE0006D0078F82C007C006C005C002C001C08B
:1034BE00001207F9E582D000D001D002D005D00667
:1034CE00D007600608B8640040BBB86451C0058FD1
:1034DE0082C007C006C005C002C001120715D00188
:1034EE00D002D005D006D0078F007D00C007C006E1
:1034FE00C005C002C001C000C0057451C0E0744ECA
:10350E00C0E07480C0E0123C53E58124FBF581D00D
:10351E0001D002D005D006D007D00502363F900963
:10352E001A74FFF08E82C007C006C005C002C0012B
:10353E00122532A882D001D002D005D006D0079035
:10354E000B36E8F0E87069C00590091874FFF08E2C
:10355E0082C007C006C002C0011224E8A882AC8354
:10356E00ADF0D001D002D006D007740328F8E43CA9
:10357E00FC88828C838DF0124695F8B8090280047F
:10358E00D0058021D0058E82C007C006C005C002BE
:10359E00C001123199E582D001D002D005D006D0FB
:1035AE0007900B36F0900B36E0FCE070038C822215
:1035BE00900B36E0FCF87B00C007C006C005C004C7
:1035CE00C002C001C000C0037474C0E0744EC0E0FD
:1035DE007480C0E0123C53E58124FBF581D001D00C
:1035EE0002D004D0058D030B900B79E4F0A3F0907C
:1035FE000B7BEBF0900B7CECF0900B7D74EEF0906F
:10360E000B7EE4F0A3F0758203C005C002C0011268
:10361E0038D2E536242EF582E5373408F583740268
:10362E00F0758201120795D001D002D005D006D0D8
:10363E000709B90A005003023457900B36E0F582A1
:10364E0022900B37E4F010D8030237DCE5DB30E3D1
:10365E006390082EE06008E5E430E0030237197548
:10366E00820012071590082E7401F0E4C0E0C0E04D
:10367E007482C0E0744EC0E07480C0E0123C53E52A
:10368E008124FBF581900B79E4F0A3F0900B7B0481
:10369E00F0900B7CF0900B7DF0900B7EE4F0A3F09D
:1036AE007582011238D2758200123438E582900B81
:1036BE0037F0805790082EE0FFBF0100404D758215
:1036CE00001211E4758200120715E4C0E0C0E07428
:1036DE00A3C0E0744EC0E07480C0E0123C53E5819C
:1036EE0024FBF581900B79E4F0A3F0900B7B04F0B2
:1036FE00900B7CF0900B7DF0900B7EE4F0A3F075B8
:10370E0082021238D2900B377416F0E5DB30E76484
:10371E00900833E06008E5E530E0030237DC75829F
:10372E00011207159008337401F0C0E0E4C0E07494
:10373E0082C0E0744EC0E07480C0E0123C53E5815C
:10374E0024FBF581900B79E4F0A3F0900B7B7402CF
:10375E00F0900B7CF0900B7DF0900B7EE4F0A3F0DC
:10376E007582011238D2758201123438E582900BBF
:10377E0037F0805A900833E0FFBF01004050758249
:10378E00011211E47582011207157401C0E0E4C044
:10379E00E074A3C0E0744EC0E07480C0E0123C53ED
:1037AE00E58124FBF581900B79E4F0A3F0900B7B7F
:1037BE007402F0900B7CF0900B7DF0900B7EE4F099
:1037CE00A3F07582021238D2900B377416F090085F
:1037DE002EE0FFBF010E900831E0FFBF0906758293
:1037EE0000122F6E900833E0FFBF010E900836E0F6
:1037FE00FFBF0906758201122F6E900B37E0F5821E
:01380E002297
:1046C50080060001000012008006000200001200B2
:1046D500810600040000090000050200000000003A
:1046E500800602030904020400090000000000001E
:1046F500210A000000000000810600220000FF00E2
:104705002109000200000000210B0000000000004C
:10471500A103000000000100A0060029000012000E
:10472500A3000000000004002303000000000000B7
:104735002301000000000000676574446576696325
:104745006544657363726970746F720A00446576B7
:104755006963652064657363726970746F72207232
:104765006571756573742073656E74207375636305
:1047750065737366756C6C790A0052656365697655
:104785006564207061636B657420697320736D6166
:104795006C6C6572207468616E20657870656374F1
:1047A50065640A00536574416464726573733A20E5
:1047B50025690A0030782530325820000A0048491A
:1047C5004420256C752C20256920646174612025A1
:1047D50069203A200A002020202000557361676572
:1047E500207061676520004C454473004B65796214
:1047F5006F6172642F4B65797061640042757474E2
:104805006F6E0067656E65726963206465736B74AE
:104815006F7020636F6E74726F6C730076656E6473
:104825006F7220646566696E656420307825303462
:104835006C7800756E6B6E6F776E20307825303230
:104845006C780055736167652000556E6B6E6F77E8
:104855006E00506F696E746572004D6F75736500FB
:104865005265736572766564004A6F79737469631E
:104875006B0047616D65706164004B6579626F61BE
:104885007264004B6579706164004D756C74692DB7
:104895004178697320636F6E74726F6C6C6572001A
:1048A5005461626C65742073797374656D20636FF0
:1048B5006E74726F6C7300580059005A0057686522
:1048C500656C004C6F676963616C206D696E2025AE
:1048D5006C750A004C6F676963616C206D617820A7
:1048E500256C750A00506879736963616C206D6980
:1048F5006E20256C750A00506879736963616C20B8
:104905006D617820256C750A00436F6C6C65637466
:10491500696F6E20737461727420256C750A00438B
:104925006F6C6C656374696F6E20656E6420256CB1
:10493500750A00556E69742030782530326C780A16
:1049450000496E7075742030782530326C780A0015
:104955004F75747075742030782530326C780A0084
:10496500466561747572652030782530326C780A39
:10497500005265706F72742073697A6520256C75B5
:104985000A005265706F727420494420256C750ABF
:10499500005265706F727420636F756E7420256C9C
:1049A500750A00556E6B6E6F776E2048494420720C
:1049B50065706F7274206964656E74696669657285
:1049C5003A2030782530327820282569206279749C
:1049D50065732920646174613A2030782530326C22
:1049E500780A0052657175657374696E6720726522
:1049F500706F72742066726F6D20696E7465726671
:104A05006163652025690A00496E74657266616394
:104A1500652025640A002020436C6173732025649A
:104A25000A00202053756220436C6173732025644E
:104A35000A002020496E74657266616365205072B4
:104A45006F746F636F6C2025640A004849442061C8
:104A55007420496E746572666163652025640A0079
:104A650020205553422025642E256425640A002004
:104A750020436F756E74727920636F64652030789A
:104A8500253032580A002020547970655820307836
:104A9500253032580A005365742048494420507225
:104AA5006F746F636F6C20746F20300A00726F6FC4
:104AB500742068756220706F72742025692D2569D0
:104AC5002028256429656E61626C65640A00446569
:104AD5007669636520636C6173732025690A004DEF
:104AE5006178207061636B65742073697A65202530
:104AF500690A0044657669636520537472696E6757
:104B05003A2025730A00436F6E6669677572617492
:104B1500696F6E2076616C75653A2025640A0049D7
:104B25006E7465726661636520636F756E743A2095
:104B350025640A00496E7465726661636520646563
:104B45007363726970746F7220666F756E640A00A4
:104B5500456E64706F696E74206465736372697005
:104B6500746F7220666F756E640A00436F6E6E65B2
:104B7500637465642064657669636520617420707B
:104B85006F736974696F6E3A2025690A00476F74FF
:104B950020656E64706F696E7420666F722074682C
:104BA5006520484944646576696365203078253019
:104BB50032780A00484944206465736372697074E9
:104BC5006F7220666F756E640A00436C61737320A3
:104BD50073706563696669632068656164657220E1
:104BE50064657363726970746F7220666F756E6445
:104BF5000A00436C6173732073706563696669634A
:104C050020656E64706F696E742064657363726984
:104C150070746F7220666F756E640A00556E6578E4
:104C25007065637465642064657363726970746F1D
:104C35007220747970653A20253032580A002D2D7E
:104C45002D2D2D526573657420706F72742D2D2D69
:104C55002D2D0A002D2D2D2D2D4173736572742078
:104C650052657365742D2D2D2D2D0A004C6F7720FF
:104C75007370656564206465766963652069732072
:104C8500666F756E640A0046756C6C207370656599
:104C9500642064657669636520697320666F756E47
:104CA500640A00526573657420636F6D706C65747A
:104CB500650A002D2D2D2D2D436C656172207265C1
:104CC5007365742D2D2D2D2D0A0052657365742085
:104CD5006661696C65640A002D2D2D2D2D57616B5C
:104CE500652075702066726F6D2073757370656EC3
:104CF500642D2D2D2D2D0A002D2D2D2D2D456E7557
:104D05006D6572617465206465766963652D2D2D09
:104D15002D2D0A004E657720446576696365206907
:104D250073206465746563746564206F6E20706FAD
:104D3500727425642D25640A0044657669636520CF
:104D4500646973636F6E6E65637465642E20706F3E
:104D5500727425642D25640A0048756220706F6C95
:104D65006C696E67206661696C65643A30782530D8
:104D750032580A002D2D2D2D2D476574204855429A
:104D85002064657363726970746F722D2D2D2D2DDE
:104D95000A00506F7274206E756D28256429206590
:104DA500786365656473206C696D69742825642969
:104DB5000A002D2D2D2D2D5475726E206F6E2070CD
:104DC5006F7274732D2D2D2D2D0A00706F72743A2C
:104DD50025640A002D2D2D2D2D436C6561722070E3
:104DE5006F727420636F6E6E656374696F6E2049B0
:104DF5006E666F2D2D2D2D2D0A002D2D2D2D2D4758
:104E0500657420706F727425642073746174757392
:104E15002D2D2D2D2D0A0044657669766520697343
:104E2500206465746563746564206F6E20706F72AD
:104E3500740A004E6F206465766963652069732086
:104E4500636F6E6E6563746F65640A004661696CB5
:104E5500656420746F20656E61626C6520726F6F8A
:104E6500742068756220706F72742025690A004588
:104E750072726F72203D20253032580A00446576E3
:104E850069636520617420726F6F74206875622094
:104E9500256920636F6E6E65637465640A004465F9
:104EA5007669636520617420726F6F74206875621E
:104EB50020256920646973636F6E6E65637465642C
:024EC5000A00E1
:014ED20000DF
:10380F0010980122900BDDE02438F582E4340BF59B
:10381F0083E599F0900BDDE0FF2438F582E4340B5B
:10382F00F583E0FEBE0A028005BF4000405D900BAD
:10383F0038E0FEBE6B24900B39E0FDBD620E120125
:10384F00168508828509831200068037BD7234758C
:10385F00A15575A1AA43B1108029EE30E7258E043A
:10386F00530460E4C423CCC423541F6CCC541FCC2A
:10387F006CCC30E40244E09008F6741F5EF08C824A
:10388F00121487900BDDE4F002380F900BDDEF047C
:10389F00F002380FE582900B78F0E0FFBFC0028096
:1038AF0005BFDB1A800C7582DB1201B77582DC0253
:1038BF0001B77582DB1201B77582DD0201B78F8206
:1038CF000201B7E582900B80F0900B79E0FEA3E048
:1038DF00FF8E058D82C007C0061238A3D006D00711
:1038EF008F058D82C007C0061238A3900B80E0F5BC
:1038FF00821238A3900B7BE0F5821238A3900B7CD9
:10390F00E0F5821238A3900B7DE0F5821238A37593
:10391F0082001238A37582001238A3758200123804
:10392F00A37582001238A3D006D007900B7EE0FC5F
:10393F00A3E0FD7A007B00C3EA9EEB9F502DEA2C9B
:10394F00F582EB3DF583E0F582C007C006C005C0E8
:10395F0004C003C0021238A3D002D003D004D00594
:10396F00D006D0070ABA00CF0B80CC7582C00201F7
:10397F00B7E582900B8CF0900B81E0FEA3E0FF8EF9
:10398F00058D82C007C0061238A3D006D0078F0559
:10399F008D82C007C0061238A3900B8CE0F58212FF
:1039AF0038A3900B83E0F5821238A3900B84E0F5D7
:1039BF00821238A3900B85E0F5821238A3900B8802
:1039CF00E0F5821238A3900B89E0F5821238A390AC
:1039DF000B8AE0F5821238A3900B8BE0F582123838
:1039EF00A3D006D007900B86E0FCA3E0FD7A007B06
:1039FF0000C3EA9EEB9F502DEA2CF582EB3DF58339
:103A0F00E0F582C007C006C005C004C003C00212A3
:103A1F0038A3D002D003D004D005D006D0070ABAFD
:0B3A2F0000CF0B80CC7582C00201B7F5
:014ED30000DE
:103A3A00AF82AE83ADF0FC900B91EFF0EEA3F0ED08
:103A4A00A3F0ECA3F0900B91E0FCA3E0FDA3E0FE51
:103A5A00A3E0FF30E70FC3E49CF8E49DF9E49EFA83
:103A6A00E49FFB80088C008D018E028F03900B8DE2
:103A7A00E0FCA3E0FDA3E0FEA3E0FF33E433F53866
:103A8A006013C3E49CF539E49DF53AE49EF53BE402
:103A9A009FF53C80088C398D3A8E3B8F3C900B9574
:103AAA00E539F0E53AA3F0E53BA3F0E53CA3F0885D
:103ABA008289838AF0EB123AF6AC82AD83AEF0FFCC
:103ACA00900B91E0A3E0A3E0A3E033E43365386010
:103ADA0013C3E49CF8E49DF9E49EFAE49F88828982
:103AEA00838AF0228C828D838EF0EF22AF82AE839E
:103AFA00ADF0FC900B99EFF0EEA3F0EDA3F0ECA380
:103B0A00F0900B9DE4F0A3F0A3F0A3F0900B95E0E6
:103B1A00FCA3E0FDA3E0FEA3E0FF7B20C003900B23
:103B2A0099E0F8A3E0F9A3E0FAA3E0FB900BA12344
:103B3A005401F0E828F8E933F9EA33FAEB33FB9059
:103B4A000B99E8F0E9A3F0EAA3F0EBA3F0900B9D40
:103B5A00E0F8A3E0F9A3E0FAA3E0FBE828F8E933E8
:103B6A00F9EA33FAEB33FB900B9DE8F0E9A3F0EAAC
:103B7A00A3F0EBA3F0D003900BA1E06008900B9D9B
:103B8A00E043E001F0900B9DE0F548A3E0F549A37E
:103B9A00E0F54AA3E0F54BC3E5489CE5499DE54AB3
:103BAA009EE54B9F401F900B9DE548C39CF0E5495D
:103BBA009DA3F0E54A9EA3F0E54B9FA3F0900B99D5
:103BCA00E043E001F01BEB6003023B26900B99E017
:103BDA00FCA3E0FDA3E0FEA3E08C828D838EF0229D
:06003700E478FFF6D8FD9D
:100015007902E94400601B7A01904ED278DC75A024
:100025000BE493F2A308B8000205A0D9F4DAF2753F
:02003500A0FF2A
:103BEA0020F71130F6138883A88220F509F6A883F6
:0B3BFA007583002280FEF280F5F022AF
:10003D007800E84400600A790075A006E4F309D859
:10004D00FC78DCE84405600C7906900600E4F0A32A
:04005D00D8FCD9FAF8
:02000600E473A1
:103C0500C0478581477E008E83120664D04722AF68
:103C1500F0AE83E582900BA4F0EEA3F0EFA3F09055
:103C25000BA4E0FDA3E0FEA3E0FF900BA3E0FC9056
:103C35000BB8E4F0A3F0A3F0900BBBEDF0EEA3F00E
:103C4500EFA3F0900BBEECF0903C05023D5CC04745
:103C5500E581F54724FBFF900BB8E4F0A3F0A3F052
:103C6500E54724FBF8900BBBE6F008E6A3F008E671
:103C7500A3F0900BBEEFF0903C05123D5CD04722BF
:103C8500E582900BB4F0E0FF900BAAE0C0E0A3E062
:103C9500C0E0A3E0C0E0123CA0800D900BA8E0C0FE
:103CA500E0A3E0C0E08F8222158115811581900B7C
:103CB500B2E02401F0A3E03400F022E582900BB5D8
:103CC500F0E02430FF24C6500D74072FFF900BA79A
:103CD500E060034307208F82023C85E582900BB6A6
:103CE500F0E0FFC4540FF582C007123CC0D0075363
:103CF500070F8F82023CC0E582900BB7F0900BADA9
:103D0500E0FCA3E0FDA3E0FEA3E0FF900BB1E0FB28
:103D1500754820900BB7E0F98B00E828F8EF23549D
:103D25000148FBEC2CFCED33FDEE33FEEF33FFC316
:103D3500EB994007EBC399FB430401E54814FA8A64
:103D45004870D5900BADECF0EDA3F0EEA3F0EFA32A
:103D5500F0900BB1EBF022AF83E582900BBFF0EF53
:103D6500A3F0900BBFE0FEA3E0FF900BA8EEF0EFF1
:103D7500A3F0900BB8E0FDA3E0FEA3E0FF900BAA33
:103D8500EDF0EEA3F0EFA3F0900BB2E4F0A3F0900A
:103D95000BBBE0FDA3E0FEA3E0FF8D828E838FF0D9
:103DA500124695FC900BBB74012DF0E43EA3F0EF99
:103DB500A3F0EC7003024651BC250280030246497C
:103DC500900BC1E4F0900BC2F0900BC3F0900BC4C4
:103DD500F0900BC5F0900BC6F0900BC7F0900BC898
:103DE500F0900BCAF0900BCBF0A3F0900BCD14F034
:103DF500A3F0900BBBE0FDA3E0FEA3E0FF8D828E58
:103E0500838FF0124695FBA3AD82AE83900BBBED7D
:103E1500F0EEA3F0EFA3F0900BD1EBF0BB25088BF0
:103E250082123C85023D94BB30005003023EF5EB07
:103E350024C65003023EF5900BCDE0F53DA3E0F519
:103E45003E74FFB53D63B53E60C005C006C0079032
:103E55000BCBE0FAA3E0FF900BDAEAF0EFA3F090CA
:103E6500000AC005C003124675AE82AF83D003D0E9
:103E7500058B027D00EA2EFEED3FFFEE24D0FEEF1E
:103E850034FFFF900BCBEEF0EFA3F0D007D006D0B8
:103E950005900BCBE0F5F0A3E045F06003023E0290
:103EA500900BC27401F0023E02C005C006C0079027
:103EB5000BDAE53DF0E53EA3F090000AC006C0052B
:103EC500C003124675AA82AF83D003D005D0067E03
:103ED50000EB2AFAEE3FFFEA24D0FAEF34FFFF9019
:103EE5000BCDEAF0EFA3F0D007D006D005023E02D5
:103EF500900BD1E0FBBB2E2FC005C006C007900B71
:103F0500CDE0FAA3E0FFBAFF05BFFF028009D007A5
:103F1500D006D005023E02D007D006D005900BCDC5
:103F2500E4F0A3F0023E02BB61004014EB2485409F
:103F35000F900BD174DF5BF0900BA77401F0800537
:103F4500900BA7E4F0900BD1E0FBBB20028075BB82
:103F55002B028067BB2D028059BB4202806FBB4399
:103F650002807CBB44030241ECBB4603024212BB08
:103F75004803023E02BB49030241ECBB4A03023E31
:103F850002BB4C028050BB4F030241FABB500302F7
:103F9500415ABB53028077BB5403023E02BB550313
:103FA500024202BB580302420ABB5A03023E020206
:103FB500421A900BC17401F0023E02900BC37401CA
:103FC500F0023E02900BC47401F0023E02900BC653
:103FD5007401F0023E02900BC77401F0023E02909C
:103FE5000BC6E0600E900BBEE014F9F0900BD1E724
:103FF500F0800F900BBEE024FEFFF08F01900BD1F7
:10400500E7F0900BD1E0F582123C85024229900B36
:10401500BEE024FDFFF08F018705098706098707A4
:104025001919900BADEDF0EEA3F0EFA3F08D828E94
:10403500838FF012465D85823D85833E900BCDE0F2
:10404500FAA3E0FDBAFF0DBDFF0A900BCDE53DF0EB
:10405500E53EA3F0900BC1E0704B900BCBE0FAA3CB
:10406500E0FDC3E53D9AE53E9D503A900BCBEAC392
:10407500953DF0ED953EA3F0900BCBE0FAA3E0FD66
:104085008A068D071ABAFF011DEE4F601075822052
:10409500C005C002123C85D002D00580E3900BCB51
:1040A500EAF0EDA3F0900BCDE0F540A3E0F54190EB
:1040B5000BADE0FAA3E0FDA3E0FF8A828D838FF0CC
:1040C500124695F53F603CC3E4954074808541F008
:1040D50063F08095F0502C154074FFB540021541F2
:1040E500853F82123C85900BADE0FAA3E0FDA3E08D
:1040F500FF0ABA00010D900BADEAF0EDA3F0EFA3B6
:10410500F080AC900BC1E07003024229900BCBE02C
:10411500FEA3E0FFC3E53D9EE53E9F400302422925
:10412500900BCBEEC3953DF0EF953EA3F0900BCBF6
:10413500E0FEA3E0FF8E028F051EBEFF011FEA4DC4
:104145007003024221758220C007C006123C85D04B
:1041550006D00780E0900BBEE024FDFDF08D0187C1
:10416500420987430987441919900BADE542F0E5EB
:1041750043A3F0E544A3F0900BAFE0FDBD80004004
:1041850008900BD17443F08020BD60004008900B6F
:10419500D17450F08013BD40004008900BD1744994
:1041A500F08006900BD17458F0900BD1E0FDF582AC
:1041B500C005123C8575823A123C85758230123CE9
:1041C50085758278123C85D005BD4902800EBD50AB
:1041D500028009900BAEE0F582123CE0900BADE059
:1041E500F582123CE0803D900BC57401F0900BCA3E
:1041F500740AF0802F900BCA7408F08027900BCAC0
:10420500740AF0801F900BCA7410F08017900BC8C9
:104215007401F0800F8B82123C858008900BCBEEE9
:10422500F0EFA3F0900BC8E06071900BBEE024FCAA
:10423500FFF08F0187030987050987060987071995
:104245001919900BADEBF0EDA3F0EEA3F0EFA3F091
:10425500900BAD74C7F0744EA3F07480A3F0900B6F
:10426500ADE0F542A3E0F543A3E0F5447401254232
:10427500FAE43543FBAF44900BADEAF0EBA3F0EF66
:10428500A3F08542828543838544F0124695FF70ED
:1042950003023D948F82123C8580C3900BCAE07067
:1042A50003023D94900BC6E06047900BBEE014F905
:1042B500F087077E007D007B00900BADEFF0EEA34D
:1042C500F0EDA3F0EBA3F0900BC5E0600302436CA7
:1042D500900BADE0FBA3E0A3E0A3E07D007E007FB3
:1042E50000900BADEBF0EDA3F0EEA3F0EFA3F080A3
:1042F50076900BC7E06028900BBEE024FCFFF08FA2
:104305000187030987050987060987071919199080
:104315000BADEBF0EDA3F0EEA3F0EFA3F08048902A
:104325000BBEE024FEFFF08F01870609870719EF12
:104335003395E0FDFB900BADEEF0EFA3F0EDA3F0B0
:10434500EBA3F0900BC5E0701E900BADE0FBA3E076
:10435500FDA3E0A3E07E007F00900BADEBF0EDA3A5
:10436500F0EEA3F0EFA3F0900BC5E06041900BAD2C
:10437500E0FBA3E0FDA3E0FEA3E0FF30E72B900BFD
:10438500ADE0FBA3E0FDA3E0FEA3E0FFC3E49BFBE0
:10439500E49DFDE49EFEE49FFF900BADEBF0EDA3E5
:1043A500F0EEA3F0EFA3F08005900BC5E4F0900BC1
:1043B500C97401F0900BCAE0F5407545D775460BF9
:1043C500E4F53DF53E900BB1E4F0854082123CFCEE
:1043D500900BC9E07026900BB1E0C4F5428545828B
:1043E500854683E0FFE5424207854582854683EFA2
:1043F500F0154574FFB545021546800C900BB1E0EC
:10440500FF854582854683F0053DE4B53D02053EC1
:10441500900BC9E0B40100E433F0900BADE0FAA3D2
:10442500E0FBA3E0FEA3E0FFEA4B4E4F7097900B35
:10443500D8E545F0E546A3F0900BCFE53DF0E53E28
:10444500A3F0900BCBE0F5F0A3E045F07009900BDD
:10445500CB7401F0E4A3F0900BC2E0FFE07047904D
:104465000BC1E07041853D45853E46900BCBE0FA9A
:10447500A3E0FBC007AF450F8F067F00C3EE9AEFA1
:104485009BD0075019758220C007C003C002123C9B
:1044950085D002D003D0071ABAFF011B80D5900B37
:1044A500CBEAF0EBA3F0900BC5E0602075822DC040
:1044B50007123C85D007900BCBE024FFFDA3E03429
:1044C500FFFE900BCBEDF0EEA3F08056900BCFE006
:1044D500F5F0A3E045F0604A900BC3E060207582DB
:1044E5002BC007123C85D007900BCBE024FFFDA322
:1044F500E034FFFE900BCBEDF0EEA3F08024900BA3
:10450500C4E0601E758220C007123C85D007900B61
:10451500CBE024FFFDA3E034FFFE900BCBEDF0EEE6
:10452500A3F0900BC1E07048900BCFE0F545A3E0F8
:10453500F546900BCBE0FAA3E0FBC0078A068B0794
:104545001ABAFF011BC3E5459EE5469FD0075053A8
:10455500EF60067D307E0080047D207E008D82C068
:1045650007C003C002123C85D002D003D00780CA21
:10457500900BCBE0FEA3E0FF900BCFE0F545A3E069
:10458500F546C3E5459EE5469F500F900BCBEEC320
:104595009545F0EF9546A3F08011900BCBE4F0A381
:1045A500F08008900BCBEAF0EBA3F0900BD8E0FE7F
:1045B500A3E0FF900BCFE0F545A3E0F546AA45AD96
:1045C50046154574FFB545021546EA4D6045900B05
:1045D500C9E0B40100E433F0900BC9E070140EBEDD
:1045E50000010F8E828F83E0C4540FFD900BB1F054
:1045F500800E8E828F83E0FD53050F900BB1EDF099
:10460500900BB1E0F582C007C006123CC0D006D0C1
:104615000780AA900BC1E07003023D94900BCBE09C
:10462500FEA3E0FF8E038F051EBEFF011FEB4D703D
:1046350003023D94758220C007C006123C85D00652
:10464500D00780E08C82123C85023D94900BB2E04D
:08465500FEA3E08E82F5832232
:0B4EC7003C4E4F20464C4F41543E0033
:10465D00AA82AB831246956003A380F8C3E5829AC4
:10466D00F582E5839BF58322AA83AB828BF0900BB9
:10467D00DAE0A4F8A9F08AF0E0A429F98BF0A3E020
:08468D00A429F5838882222292
:0D00080075814B1246B1E5826003020003D2
:1046950020F71430F6148883A88220F507E6A8834E
:1046A50075830022E280F7E49322E02275820022DE
:00000001FF
