:03000000020008F3
:0300670002000391
:0300030002006A8E
:10006A001200FE9006007401F0E4A3F090C200753D
:10007A00F001E412012B90C20075F001E41201C9EB
:10008A007455C0E07445C0E07480C0E0123AF315BC
:10009A0081158115817582001211E4758201121190
:1000AA00E4120749745EC0E07445C0E07480C0E0A1
:1000BA00123AF3158115811581900B73E4F0A3F0C0
:1000CA00900B75F0900B76F0900B77F0900B78F020
:1000DA00A3F0758208123772E5C120E60C120116E8
:1000EA008508828509831200061236AF1234EF1290
:0400FA0012BD80E4CF
:10455500537461727475700A0052656164790A005A
:060061007508007509F4AA
:1000FE0075A15575A1AA53B3E043B30675B2D87571
:10010E00A1FF9000070206D875A15575A1AA75B377
:10011E009875B2D875A1FF9000070206D8AF82AECF
:10012E0083ADF0FC900602EFF0EEA3F0EDA3F0EC41
:10013E00A3F0900600E0F5F0A3E045F0600C43C696
:10014E000143C40843C50C43CE10C29FD29EC29D2C
:10015E00D29C438780900602E0FCA3E0FDA3E0FE64
:10016E00A3E0FF900B8FECF0EDA3F0EEA3F0EFA366
:10017E00F0908D8075F05BE4123996AC82AD830CF5
:10018E00BC00010DEDC313CC13CC740F5589442064
:10019E00F58943C9A0C3E49CFC8C8DD28ED29922E2
:1001AE0010980280FB85998222E582900606F01057
:1001BE00990280FB900606E0F59922AF82AE83ADE0
:1001CE00F0FC900607EFF0EEA3F0EDA3F0ECA3F039
:1001DE00759300759120759380759701900B87E547
:1001EE0097F0E4A3F0A3F0A3F0908D8075F05BE49C
:1001FE001238DAAC82AD83AEF0FF900607E0F8A3BA
:10020E00E0F9A3E0FAA3E0FB900B8FE8F0E9A3F08E
:10021E00EAA3F0EBA3F08C828D838EF0EF12399669
:10022E00AC82AD838C9A8D9175920175930322E504
:10023E009530E0FB859A8222E58290060BF0E595DB
:10024E0030E5FB90060BE0F59A22E58290060EF063
:10025E0090060F74C4F07400A3F07440A3F09006DF
:10026E001274BAF07400A3F07440A3F090061574E3
:10027E00BCF07400A3F07440A3F090061874BEF0A6
:10028E007400A3F07440A3F090061B74C5F07400C4
:10029E00A3F07440A3F090061E74BBF07400A3F09C
:1002AE007440A3F090062174BDF07400A3F0744066
:1002BE00A3F090062474BFF07400A3F07440A3F072
:1002CE0090060DE0FF24F9500122EF2F2F9002DF50
:1002DE00730202F40203770203FC0204570204D9EC
:1002EE0002055F0205E390060EE0FFFE8EF005F0BC
:1002FE007401800225E0D5F0FBF4ADC65DF5C6EFC6
:10030E0075F003A4FFAEF0240FF582EE3406F583EC
:10031E00E0FBA3E0FCA3E0FD8B828C838DF0124505
:10032E0035FA90060CE0F989F005F074018002258B
:10033E00E0D5F0FBF4F952028B828C838DF0EA1239
:10034E003A8AEF241BF582EE3406F583E0FDA3E036
:10035E00FEA3E0FF8D828E838FF012453552018D04
:10036E00828E838FF0E9023A8A90060EE0FFFE8EAF
:10037E00F005F07401800225E0D5F0FBF4ADC65D0A
:10038E00F5C6EF75F003A4FFAEF0240FF582EE3440
:10039E0006F583E0FBA3E0FCA3E0FD8B828C838D4E
:1003AE00F0124535FA90060CE0F989F005F074016B
:1003BE00800225E0D5F0FBF9F4F8EA52008B828C2E
:1003CE00838DF0E8123A8AEF241BF582EE3406F59F
:1003DE0083E0FDA3E0FEA3E0FF8D828E838FF012FB
:1003EE00453542018D828E838FF0E9023A8A90065E
:1003FE000EE0FFFE8EF005F07401800225E0D5F0D0
:10040E00FBF4ADC65DF5C6EF75F003A4240FF582BF
:10041E00740635F0F583E0FDA3E0FEA3E0FF8D82C8
:10042E008E838FF0124535FC90060CE0FB8BF005A9
:10043E00F07401800225E0D5F0FBF4FBEC42038D55
:10044E00828E838FF0EB023A8A90060EE0FFFE8ECC
:10045E00F005F07401800225E0D5F0FBADC64DF538
:10046E00C6EF75F003A4FFAEF0240FF582EE34064E
:10047E00F583E0FBA3E0FCA3E0FD8B828C838DF083
:10048E00124535FA90060CE0F989F005F0740180FA
:10049E000225E0D5F0FBF4F952028B828C838DF0AD
:1004AE00EA123A8AEF241BF582EE3406F583E0FD5C
:1004BE00A3E0FEA3E0FF8D828E838FF012453552AE
:1004CE00018D828E838FF0E9023A8A90060EE0FF4C
:1004DE00FE8EF005F07401800225E0D5F0FBADC66E
:1004EE004DF5C6EF75F003A4FFAEF0240FF582EEC6
:1004FE003406F583E0FBA3E0FCA3E0FD8B828C8346
:10050E008DF0124535FA90060CE0F989F005F0747D
:10051E0001800225E0D5F0FBF942028B828C838D9F
:10052E00F0EA123A8AEF241BF582EE3406F583E0E8
:10053E00FDA3E0FEA3E0FF8D828E838FF012453582
:10054E00FCE9F4F9EC52018D828E838FF0E9023AC8
:10055E008A90060EE0FFFE8EF005F07401800225F3
:10056E00E0D5F0FBADC64DF5C6EF75F003A4FFAEBA
:10057E00F0240FF582EE3406F583E0FBA3E0FCA336
:10058E00E0FD8B828C838DF0124535FA90060CE0DF
:10059E00F989F005F07401800225E0D5F0FBF9F43D
:1005AE00F8EA52008B828C838DF0E8123A8AEF249F
:1005BE001BF582EE3406F583E0FDA3E0FEA3E0FF1B
:1005CE008D828E838FF012453542018D828E838F00
:1005DE00F0E9023A8A90060EE0FFFE8EF005F07406
:1005EE0001800225E0D5F0FBADC64DF5C6EF75F0E6
:1005FE0003A4FFAEF0240FF582EE3406F583E0FB84
:10060E00A3E0FCA3E0FD8B828C838DF0124535FABE
:10061E0090060CE0F989F005F07401800225E0D512
:10062E00F0FBF942028B828C838DF0EA123A8AEF4C
:10063E00241BF582EE3406F583E0FDA3E0FEA3E075
:10064E00FF8D828E838FF012453542018D828E830F
:10065E008FF0E9023A8AAF83E582900627F0EFA386
:10066E00F0900627E0FEA3E08E8202024612023DC3
:10067E007E008E8322AF83E582900629F0EFA3F0F1
:10068E00900629E0FEA3E0FFEE4F603505A105A11F
:10069E0005A105A105A105A105A105A105A105A11C
:1006AE0005A105A105A105A105A105A105A105A10C
:1006BE0005A11EBEFF011F900629EEF0EFA3F080EC
:1006CE00C7900629EEF0EFA3F022AF83E5829006E5
:1006DE002BF0EFA3F090062BE0FEA3E0FFEE4F60B1
:1006EE001D9003E8C007C006120683D006D0071E71
:1006FE00BEFF011F90062BEEF0EFA3F080DF9006F9
:10070E002BEEF0EFA3F022E582900860F0E0FF758B
:10071E00F005A4FDAEF0242EF582EE3408F583E448
:10072E00F0ED242EFDEE3408FE8D828E83A3E4F0D0
:10073E00EF600475E5002275E40022C2EA75E280DE
:10074E0075E3009024477448F090244CE4F0A3F035
:10075E0090244E04F0E4A3F0F5D4F5D675E2897535
:10076E00D24075D8FF7582001207157582011207E7
:10077E001575E10322E582900861F0E5E35480FFF0
:10078E00E0547F4FF5E322E582900862F0E06007C7
:10079E0053E2BF53D27F2243E24022E582900863A8
:1007AE00F090062D7408F075820012078375820191
:1007BE00120795900863E0FFE0701374FB55E44454
:1007CE0002F5E490000F1206D853E4FD8014BF0129
:1007DE001174FB55E54402F5E590000F1206D8534F
:1007EE00E5FD9000FA120683C2D822E582900864D5
:1007FE00F0E075F005A4242EFE740835F0FF8E820D
:10080E008F83E0FDBD010050078E828F837401F04F
:10081E00900864E0FF7049E5DB20E3030208B7E5CA
:10082E00E420E035E5DB30E21AEF75F005A4242E66
:10083E00FD740835F0FE8D828E83A3A3E4F043E4AD
:10084E00048016EF75F005A4242EFD740835F0FE15
:10085E008D828E83A3A37401F043E401758200227E
:10086E00BF0146E5DB30E741E5E520E035E5DB306D
:10087E00E61AEF75F005A4242EFD740835F0FE8DF2
:10088E00828E83A3A3E4F043E5048016EF75F00592
:10089E00A4242EFE740835F0FF8E828F83A3A374DA
:1008AE0001F043E5017582002275821622E58290E1
:1008BE000866F0900865E0FFBFFF2F900866E075B0
:1008CE00F005A4242EFD740835F0FE8D828E83A3D0
:1008DE00E0F582C006C005120783D005D0068D82D2
:1008EE008E83A3A3E0F582020795900866E075F06B
:1008FE0014A42438FD740835F0FEEF75F005A4FF3E
:10090E002DFDE43EFE8D828E83A3E0F582C007C0EE
:10091E0006C005120783D005D006D00774022DFD40
:10092E00E43EFE8D828E83E0700343D28090086693
:10093E00E075F014A42438FD740835F0FEEF2DFF99
:10094E00E43EFC8F828C83A3A3E0F582020795E53B
:10095E008290086AF0900867E0FF8FD48FD69008D7
:10096E006BE4F0A3F090086AE0FEC4540FFDBD01E5
:10097E0003ED8001E4F50DE4BD090104F50E9008C8
:10098E0068E0F9A3E0FA8ED5C2D9750AC8750B00D6
:10099E00E50A450B602820D925900001C007C00646
:1009AE00C005C002C001120683D001D002D005D00E
:1009BE0006D007150A74FFB50A02150B80D275D53D
:1009CE000020D9047582FE2220D903020AD530DE1A
:1009DE000475820022E5D9540FF50C740EB50C0483
:1009EE0074018001E4F50A60077420450CF582223B
:1009FE00740AB50C0474018001E4F86033E94A709E
:100A0E000A7420450CF50D850D8222C3E994FFEA88
:100A1E0094FF500519B9FF011A90086BE024FFFBF3
:100A2E00A3E034FFFC90086BEBF0ECA3F0020AD8C5
:100A3E00E50D700CE50E7034BD0D028003020AD177
:100A4E0030DE04758200227402B50C047582002219
:100A5E00E50A7003E860077420450CF58222E50C68
:100A6E007003020AD87420450CF5822230DE04751C
:100A7E00820022EF6011740BB50C0474018001E446
:100A8E0024FFE433FC80107403B50C047401800160
:100A9E00E4FB24FFE433FCEC600475820022E50ADB
:100AAE007003E860077420450CF582227403B50CC0
:100ABE0007740BB50C028012E50C600E7420450C09
:100ACE00F582227582FE2275D8FF90000FC007C0F6
:100ADE0006C005C002C001120683D001D002D005A7
:100AEE00D006D00790086BE02401F0A3E03400F0AC
:100AFE0090086BE0FBA3E0FCC3EB94C8EC940050B1
:100B0E000302099475822022AF83E582900872F069
:100B1E00EFA3F0900872E0FEA3E0FF900876EEF0EF
:100B2E00EFA3F090086DE0FBA3E0FCA3E0FD9000C6
:100B3E00C8C007C006C005C004C003120683D00398
:100B4E00D004D005D006D007EB4C600E8B828C8380
:100B5E008DF0E4123A8AA3123A8A75D70890086784
:100B6E00E4F09008687410F07427A3F07582D0C07A
:100B7E0007C006C005C004C00312095DAA82D003D7
:100B8E00D004D005D006D007EA60038A8222C006C0
:100B9E00C00775D6D075D4D075D701900107E0FA8D
:100BAE007900900106E0F87F004201EF42029008C2
:100BBE0074E9F0EAA3F0D007D006E94A7003020DFB
:100BCE00C4EE4F7003020DC4900100E0FF20E70356
:100BDE00020CD0900874E0FEA3E0FF4E7003020CEE
:100BEE00CA90012CC007C006C005C004C00312067F
:100BFE0083900867E5D4F09008687410F07427A30A
:100C0E00F075829012095DAA82D003D004D005D06F
:100C1E0006D007EA60038A8222A9D17A00C3E99E30
:100C2E00EA9F5006A9D17A0080048E018F028906B0
:100C3E007F00900874E0F8A3E0FA900874E8C39E71
:100C4E00F0EA9FA3F0EB4C60248B828C838DF01224
:100C5E004535F8A3124535FAEE28FEEF3AFF8B82A2
:100C6E008C838DF0EE123A8AA3EF123A8A900876B0
:100C7E00E0FEA3E0FF7A00C3EA99501CC001EA2E01
:100C8E00F50FE43FF5108A82758300E0850F8285AB
:100C9E001083F00AD00180DF900876E0FEA3E0FF1B
:100CAE00900876E92EF0E43FA3F0E5D1600E9006B1
:100CBE002DE0FFC3E5D19F4003020BE175D7000283
:100CCE000DC4900874E0FEA3E0FF4E7003020DC445
:100CDE009000C8C007C006C005C004C0031206833A
:100CEE00D003D004D005D006D00790062DE0F97AB7
:100CFE0000C3EE99EF9A50048E018F0289D79008A7
:100D0E0076E0FEA3E0FFE5D72EFEE43FFF900876E7
:100D1E00EEF0EFA3F08E828F83A3E0FABA0924904F
:100D2E000BD6E0F97A007401697003EA6006790166
:100D3E007A00800479007A00900BD6E9F08E828FCB
:100D4E0083E9F0900867E5D6F09008687410F074A7
:100D5E0027A3F0758210C005C004C00312095DAF51
:100D6E0082D003D004D005EF60038F8222AED77FEE
:100D7E0000900874E0F9A3E0FA900874E9C39EF0BD
:100D8E00EA9FA3F0EB4C7003020CD08B828C838D08
:100D9E00F0124535FEA3124535FFA9D77A00E92E8C
:100DAE00FEEA3FFF8B828C838DF0EE123A8AA3EF20
:100DBE00123A8A020CD09000C8120683E5D760045E
:100DCE007F9080027F1090086774C0F0900868745E
:100DDE0010F07427A3F08F8212095DE582FF600385
:100DEE008F8222E5D77003F58222E5D17003F5825A
:100DFE002275821722AF83E582900879F0EFA3F077
:100E0E00900879E0FEA3E0FF900878E0FD7C00C337
:100E1E00EC9D50178C027B01EC2EF582E43FF5839E
:100E2E00E493F98A828B83F00C80E42290062D7471
:100E3E0008F074CDC0E07445C0E07480C0E0123A92
:100E4E00F31581158115819008787408F090456529
:100E5E00120E0390086D747BF07408A3F0E4A3F0F7
:100E6E00900870F07402A3F090062E120B16E58215
:100E7E00FF60038F822274E2C0E07445C0E074808C
:100E8E00C0E0123AF3158115811581900635E09078
:100E9E00062DF090456BE493FF90087BE0FDA3E0F8
:100EAE00FE7C00C3ED9FEE9C5019740FC0E074469B
:100EBE00C0E07480C0E0123AF3158115811581757A
:100ECE0082172275820022E58290087DF0900878C4
:100EDE007408F090457D120E0390087DE0FF90019E
:100EEE0002F090086DE4F0A3F0A3F0900870F0A368
:100EFE00F0900000C007120B16AE82D007EE600312
:100F0E008E82228F057E00C007C005C0067439C0D0
:100F1E00E07446C0E07480C0E0123AF3E58124FB31
:100F2E00F581D0078F821207839000641206D87560
:100F3E00820022E58290087EF09008787408F09086
:100F4E00458D120E0390087EE0900102F090086D20
:100F5E00E4F0A3F0A3F0900870F0A3F0900000026C
:100F6E000B169008787408F0904585120E039008C1
:100F7E006DE4F0A3F0A3F0900870F07402A3F0906B
:100F8E00062E020B16AF83E582900884F0EFA3F0D5
:100F9E00900884E0FEA3E0FF8E828F83E07C002425
:100FAE00FEFDEC34FFA2E713CD13CD8E828F83A30B
:100FBE00E0FCBC0302800475820022900881E0FBF5
:100FCE00A3E0FCEB24FFF513EC34FFF51490087F3F
:100FDE00E0F515A3E0F5168515118516127800C3F8
:100FEE00E89D5063C00588047D00C3EC9513ED9514
:100FFE0014D0055052C00588037C00EB2BFBEC335C
:10100E00FC74032BFAE43CFDEA2EFAED3FFD8A82D6
:10101E008D83E0D005600FE82511F582E43512F5D9
:10102E0083743FF0801EE82515F9E43516FA740234
:10103E002BFBE43CFCEB2EF582EC3FF583E0FC89C8
:10104E00828A83F0088098E82515F582E43516F536
:10105E0083E4F07F00900883E0FE0E900B73EDF0BA
:10106E00EFA3F0900B75EEF0900B767434F0900BBE
:10107E00777456F0900B78E515F0E516A3F07582AF
:10108E000512377275820122AF83E582900886F0D1
:10109E00EFA3F0900886E0FEA3E0FF7C007D008EBB
:1010AE00828F83E0FB7A00C3EC9BED64808AF06351
:1010BE00F08095F0503CEC2EF582ED3FF583E0FB91
:1010CE007A00C007C006C005C004C003C002744940
:1010DE00C0E07446C0E07480C0E0123AF3E58124AB
:1010EE00FBF581D004D005D006D0070CBC00B00DA6
:1010FE0080AD7451C0E07446C0E07480C0E0123A16
:10110E00F3158115811581229008787408F09045A9
:10111E006D120E0390086D7488F07408A3F0E4A3AA
:10112E00F0900870F07402A3F090062E120B16E5E4
:10113E0082FF60038F8222904573E493FF900888AC
:10114E00E0FDA3E0FE7C00C3ED9FEE9C5004758293
:10115E001722900630E0FF7E00900631E0FCE42F6F
:10116E00FFEC3EFE9008787408F090456DC007C005
:10117E0006120E03D006D0078F048E05900106ECE2
:10118E00F08E07900107EFF090086D7488F07408E8
:10119E00A3F0E4A3F0900870F07402A3F090062E72
:1011AE00120B16E582FF60038F8222758200229059
:1011BE0008787408F0904575120E0390086D748AC5
:1011CE00F07408A3F0E4A3F0900870F07402A3F09A
:1011DE0090062E020B16E5829008F4F0E0FF75F0F3
:1011EE0010A4FDAEF024D4F582EE3408F583E4F0BD
:1011FE00A3F0A3F0A3F0ED24D4FDEE3408FE8D820F
:10120E008E83A3A3A3A3E4F0A3F0A3F0A3F074082A
:10121E002DF582E43EF583E4F0A3F0A3F0A3F07481
:10122E000C2DF582E43EF583E4F0A3F0A3F0A3F0D9
:10123E007E00EE75F009A4248CFC740835F0FD7464
:10124E00012CFAE43DFB8A828B83E0B5072C8C825D
:10125E008D83E4F08A828B83F08C828D83A3A3A38B
:10126E00F08C828D83A3A3A3A3F08C828D83A3A382
:10127E00A3A3A3F0A3F0A3F0A3F00EBE080040B208
:10128E009008F4E075F014A42438FE740835F0FFCD
:10129E007D00ED75F005A42EFBE43FFC8B828C8364
:1012AE00A3E4F08B828C83F00DBD040040E4227F1A
:1012BE0000EF75F009A4FDAEF0248CFBEE3408FCB3
:1012CE008B828C83E07003021471ED248CFDEE345E
:1012DE0008FE8D828E83A3E0FC8D828E83A3A3E015
:1012EE00900865F08C82C007C006C0051208BBD0FE
:1012FE0005D006D0078D828E83A3A3A3A3E0FE7430
:10130E007F5E4490FDEE30E7067CC07E0080047C5C
:10131E00007E00900867ECF0900868E4F0A3F08D72
:10132E0082C00712095DE582D0076003021471EFD7
:10133E0075F009A4248CF51E740835F0F51F74049D
:10134E00251EFBE4351FFC8B828C83E0F97A00634B
:10135E0001808B828C83E9F09008F5E5D1F0E0F501
:10136E0017E07003021471B2968B828C83E0F879C9
:10137E0000747F58F51889198F1A891B7405251E5C
:10138E00F51CE4351FF51D851C82851D83E0F8A331
:10139E00E0F9A3E0FAA3E0FEC007C004C003C01842
:1013AE00C019C01AC01BC000C001C002C0067453D1
:1013BE00C0E07446C0E07480C0E0123AF3E58124C8
:1013CE00F5F581D003D004D007AA177E00851C82C4
:1013DE00851D83E0FD8B828C83E0FB53037F851E8E
:1013EE0082851F83A3E075F010A4F9ACF024D4F528
:1013FE0082EC3408F583E0F51EE924D4F9EC3408C8
:10140E00FC89828C83A3A3A3A3E0F51C740829F5A1
:10141E0082E43CF583E0F8740C29F582E43CF58314
:10142E00E0FC900B7BEAF0EEA3F0900B7DEDF090DC
:10143E000B7EEFF0900B7FEBF0900B807400F0744E
:10144E0000A3F0900B82E51EF0900B83E51CF0904C
:10145E000B84E8F0900B85ECF0758204C00712380F
:10146E0020D0070FBF080050030212BF22E5829062
:10147E0008F7F09008787408F09045A5120E0390C6
:10148E0008F7E075F009A4248CFE740835F0FF8E81
:10149E00828F83A3A3A3E0900104F0900106740150
:1014AE00F09000C812068375D708900867E4F09094
:1014BE0008687410F07427A3F07582D012095DE5E8
:1014CE00826001229008F6E0900100F075D701903D
:1014DE000867E5D6F09008687410F07427A3F075CD
:1014EE00821002095DAF83E5829008FBF0EFA3F056
:1014FE009008FDE4F0A3F09008FFF0900900F09042
:10150E0008FAE075F009A4248CFE740835F0FF90FB
:10151E0008FBE0F526A3E0F527AA26AB279008F8EE
:10152E00E0F524A3E0F5259008FDE0F520A3E0F515
:10153E0021C3E5209524E5219525400122C006C052
:10154E0007E5202526F582E5213527F583E0FF9076
:10155E00090174FC5FF074035FF520900902F090AE
:10156E000903E4F0A3F0A3F0A3F07403B520028006
:10157E0006D007D006800BD007D006900902E520D2
:10158E0004F0C006C0079008FDE0FEA3E0FF740162
:10159E002EF520E43FF521900902E0F52275230097
:1015AE00D007D006C3E52395225054C006C007AE1F
:1015BE00237F00EE2520FEEF3521FFEE2AF582EF88
:1015CE003BF583E0F8E4F9FEFFE523C40354F8FD90
:1015DE008DF005F0800CE828F8E933F9EE33FEEFD4
:1015EE0033FFD5F0F1900903E048F0A3E049F0A3F2
:1015FE00E04EF0A3E04FF00523D007D00680A59073
:10160E0008FFE0FD900901E0FCE4BCC00104F523F5
:10161E0079008D20752100E5236008752801752954
:10162E00008005E4F528F529C006C007E520C3951E
:10163E0028F8E5219529FF89047E00C3EC98EE6415
:10164E00808FF063F08095F0D007D0065030C00741
:10165E00C006C005C003C002C001746BC0E0744672
:10166E00C0E07480C0E0123AF3158115811581D067
:10167E0001D002D003D005D006D00709809490097E
:10168E0001E0FDBD04028063BD08030218D9BD143C
:10169E0003021C63BD1803021D4BBD2403021C9DD7
:1016AE00BD2803021D85BD3403021CD7BD440302B1
:1016BE001D11BD6403021E40BD7403021F28BD80B0
:1016CE0003021E7ABD8403021F62BD9003021EB484
:1016DE00BD9403021F9CBDA003021DBFBDB003023B
:1016EE001EEEBDC003021E00021FD5900903E0F5D9
:1016FE002AA3E0F52BA3E0F52CA3E0F52DC3E52BF3
:10170E0094FFE52C9400E52D9400400AE4F52A752B
:10171E002BFFF52CF52DC007C006C003C002747058
:10172E00C0E07446C0E07480C0E0123AF315811533
:10173E00811581D002D003D006D0077401B52A0DD1
:10174E0014B52B09B52C06B52D0302181A7407B55E
:10175E002A0CE4B52B08B52C05B52D02805E740855
:10176E00B52A0CE4B52B08B52C05B52D02802574D1
:10177E0009B52A0CE4B52B08B52C05B52D028064ED
:10178E00E4B52A0DB52C0AB52D07F4B52B030218B6
:10179E004102187AC007C006C003C002747CC0E0C4
:1017AE007446C0E07480C0E0123AF31581158115BD
:1017BE0081D002D003D006D0070218B1C007C006F0
:1017CE00C003C0027481C0E07446C0E07480C0E003
:1017DE00123AF3158115811581D002D003D006D0AF
:1017EE00070218B1C007C006C003C0027491C0E062
:1017FE007446C0E07480C0E0123AF315811581156D
:10180E0081D002D003D006D0070218B1C007C0069F
:10181E00C003C0027498C0E07446C0E07480C0E09B
:10182E00123AF3158115811581D002D003D006D05E
:10183E00078070C007C006C003C002900903E0C055
:10184E00E0A3E0C0E0A3E0C0E0A3E0C0E074B1C05C
:10185E00E07446C0E07480C0E0123AF3E58124F9EA
:10186E00F581D002D003D006D0078037C007C0065E
:10187E00C003C002900903E0C0E0A3E0C0E0A3E013
:10188E00C0E0A3E0C0E074C8C0E07446C0E074805D
:10189E00C0E0123AF3E58124F9F581D002D003D0ED
:1018AE0006D007C007C006C003C0027451C0E07462
:1018BE0046C0E07480C0E0123AF31581158115819F
:1018CE00D002D003D006D00702201C900900E07091
:1018DE0036C002C00374052EF52AE43FF52B90099D
:1018EE0003E0F8A3E0FAA3E0FBA3E0FC852A8285DF
:1018FE002B83E8F0EAA3F0EBA3F0ECA3F090090041
:10190E007401F0D003D002C007C006C003C0027439
:10191E00D8C0E07446C0E07480C0E0123AF315817E
:10192E0015811581D002D003D006D007900903E0AF
:10193E00F52AA3E0F52BA3E0F52CA3E0F52DC37457
:10194E0038952AE4952BE4952CE4952D5003021C32
:10195E000EE52A240B83F582E52A243D83F583E4E4
:10196E0073E109315981A9D1F921490E0E0E0E0EDE
:10197E000E0E0E0E0E0E0E0E0E0E0E0E0E0E0E0E79
:10198E000E0E0E0E0E0E0E0E0E0E0E0E0E0E0E0E69
:10199E000E7199C00E0E0E0E0EE7191A1A1A1A1A99
:1019AE001A1A1B1B1C1C1C1C1C1C1C1C1C1C1C1C6F
:1019BE001C1C1C1C1C1C1C1C1C1C1C1C1C1C1C1C59
:1019CE001C1C1C1C1C1C1C1C1C1C1B1B1B1C1C1C4C
:1019DE001C1C1BC007C006C003C00274DFC0E0742D
:1019EE0046C0E07480C0E0123AF31581158115816E
:1019FE00D002D003D006D007021C3BC007C006C0E1
:101A0E0003C00274E7C0E07446C0E07480C0E01208
:101A1E003AF3158115811581D002D003D006D00777
:101A2E00021C3BC007C006C003C00274EFC0E074C6
:101A3E0046C0E07480C0E0123AF31581158115811D
:101A4E00D002D003D006D007021C3BC007C006C090
:101A5E0003C00274F5C0E07446C0E07480C0E012AA
:101A6E003AF3158115811581D002D003D006D00727
:101A7E00021C3BC007C006C003C00274FEC0E07467
:101A8E0046C0E07480C0E0123AF3158115811581CD
:101A9E00D002D003D006D007021C3BC007C006C040
:101AAE0003C0027407C0E07447C0E07480C0E01247
:101ABE003AF3158115811581D002D003D006D007D7
:101ACE00021C3BC007C006C003C002740FC0E07406
:101ADE0047C0E07480C0E0123AF31581158115817C
:101AEE00D002D003D006D007021C3BC007C006C0F0
:101AFE0003C0027418C0E07447C0E07480C0E012E6
:101B0E003AF3158115811581D002D003D006D00786
:101B1E00021C3BC007C006C003C002741FC0E074A5
:101B2E0047C0E07480C0E0123AF31581158115812B
:101B3E00D002D003D006D007021C3BC007C006C09F
:101B4E0003C0027435C0E07447C0E07480C0E01278
:101B5E003AF3158115811581D002D003D006D00736
:101B6E00021C3BC007C006C003C002744CC0E07428
:101B7E0047C0E07480C0E0123AF3158115811581DB
:101B8E00D002D003D006D007021C3BC007C006C04F
:101B9E0003C002744EC0E07447C0E07480C0E0120F
:101BAE003AF3158115811581D002D003D006D007E6
:101BBE00807BC007C006C003C0027450C0E07447EB
:101BCE00C0E07480C0E0123AF3158115811581D002
:101BDE0002D003D006D0078054C007C006C003C091
:101BEE00027452C0E07447C0E07480C0E0123AF351
:101BFE00158115811581D002D003D006D007802D16
:101C0E00C007C006C003C002C02AC02BC02CC02D06
:101C1E0074C8C0E07446C0E07480C0E0123AF3E5C8
:101C2E008124F9F581D002D003D006D007C007C0B9
:101C3E0006C003C0027451C0E07446C0E07480C098
:101C4E00E0123AF3158115811581D002D003D0062A
:101C5E00D00702201CC007C006C003C002900903B3
:101C6E00E0C0E0A3E0C0E0A3E0C0E0A3E0C0E07409
:101C7E0058C0E07447C0E07480C0E0123AF3E581CA
:101C8E0024F9F581D002D003D006D00702201CC063
:101C9E0007C006C003C002900903E0C0E0A3E0C085
:101CAE00E0A3E0C0E0A3E0C0E07469C0E07447C008
:101CBE00E07480C0E0123AF3E58124F9F581D00298
:101CCE00D003D006D00702201CC007C006C003C038
:101CDE0002900903E0C0E0A3E0C0E0A3E0C0E0A3EF
:101CEE00E0C0E0747AC0E07447C0E07480C0E012D7
:101CFE003AF3E58124F9F581D002D003D006D0075E
:101D0E0002201CC007C006C003C002900903E0C039
:101D1E00E0A3E0C0E0A3E0C0E0A3E0C0E0748CC0AC
:101D2E00E07447C0E07480C0E0123AF3E58124F914
:101D3E00F581D002D003D006D00702201CC007C008
:101D4E0006C003C002900903E0C0E0A3E0C0E0A318
:101D5E00E0C0E0A3E0C0E0747AC0E07447C0E07475
:101D6E0080C0E0123AF3E58124F9F581D002D00368
:101D7E00D006D00702201CC007C006C003C00290C8
:101D8E000903E0C0E0A3E0C0E0A3E0C0E0A3E0C030
:101D9E00E0748CC0E07447C0E07480C0E0123AF387
:101DAE00E58124F9F581D002D003D006D0070220B8
:101DBE001CC007C006C003C002900903E0C0E0A328
:101DCE00E0C0E0A3E0C0E0A3E0C0E0749EC0E07419
:101DDE0047C0E07480C0E0123AF3E58124F9F58142
:101DEE00D002D003D006D0079008FFE02401F00205
:101DFE00201CC007C006C003C002900903E0C0E06B
:101E0E00A3E0C0E0A3E0C0E0A3E0C0E074B4C0E093
:101E1E007447C0E07480C0E0123AF3E58124F9F50E
:101E2E0081D002D003D006D0079008FFE014F00254
:101E3E00201CC007C006C003C002900903E0C0E02A
:101E4E00A3E0C0E0A3E0C0E0A3E0C0E074C8C0E03F
:101E5E007447C0E07480C0E0123AF3E58124F9F5CE
:101E6E0081D002D003D006D00702201CC007C006C6
:101E7E00C003C002900903E0C0E0A3E0C0E0A3E00D
:101E8E00C0E0A3E0C0E074D6C0E07447C0E0748048
:101E9E00C0E0123AF3E58124F9F581D002D003D0E7
:101EAE0006D00702201CC007C006C003C00290095E
:101EBE0003E0C0E0A3E0C0E0A3E0C0E0A3E0C0E028
:101ECE0074E5C0E07447C0E07480C0E0123AF3E5F8
:101EDE008124F9F581D002D003D006D00702201C50
:101EEE00C007C006C003C002900903E0C0E0A3E033
:101EFE00C0E0A3E0C0E0A3E0C0E074F5C0E074472A
:101F0E00C0E07480C0E0123AF3E58124F9F581D087
:101F1E0002D003D006D00702201CC007C006C003A3
:101F2E00C002900903E0C0E0A3E0C0E0A3E0C0E07F
:101F3E00A3E0C0E07406C0E07448C0E07480C0E066
:101F4E00123AF3E58124F9F581D002D003D006D000
:101F5E000702201CC007C006C003C002900903E0A0
:101F6E00C0E0A3E0C0E0A3E0C0E0A3E0C0E07417CF
:101F7E00C0E07448C0E07480C0E0123AF3E58124FA
:101F8E00F9F581D002D003D006D00702201CC0077D
:101F9E00C006C003C002900903E0C0E0A3E0C0E0A9
:101FAE00A3E0C0E0A3E0C0E07426C0E07448C0E047
:101FBE007480C0E0123AF3E58124F9F581D002D0A5
:101FCE0003D006D0078047A9227C008D007D00C07B
:101FDE0007C006C003C002900903E0C0E0A3E0C042
:101FEE00E0A3E0C0E0A3E0C0E0C001C004C000C0B8
:101FFE00057438C0E07448C0E07480C0E0123AF353
:10200E00E58124F5F581D002D003D006D0079009E2
:10201E0002E0FD7C000DBD00010C9008FDE0F8A370
:10202E00E0F99008FDED28F0EC39A3F0021535E546
:10203E0082900907F0E075F009A4248CFE7408352F
:10204E00F0FF74032EFEE43FFF8E828F83E0FD7C53
:10205E0000C007C006C005C0047478C0E07448C054
:10206E00E07480C0E0123AF3E58124FBF58190081C
:10207E00787408F0904595120E03D006D0078E8224
:10208E008F83E0900104F090086D7408F07409A33A
:10209E00F0E4A3F0900870F0A3F090062EC007C0F5
:1020AE0006120B169008787408F090459D120E03D8
:1020BE00D006D0078E828F83E0900104F090010647
:1020CE00E4F09001077402F090086D7408F0740942
:1020DE00A3F0E4A3F0900870F07402A3F090062E23
:1020EE00120B16E582FF60038F82227E007F009026
:1020FE000908E0FCA3E0FDC3EE9CEF9D5036EE24F4
:10210E002EF582EF3406F583E0FD7C00C007C00695
:10211E00C005C0047449C0E07446C0E07480C0E0DD
:10212E00123AF3E58124FBF581D006D0070EBE00EE
:10213E00BE0F80BB7451C0E07446C0E07480C0E036
:10214E00123AF3158115811581900908E0FEA3E07E
:10215E00FF900907E0FD75F009A4248CFB74083587
:10216E00F0FC8B828C83A3A3A3E0FA8B828C83A3D7
:10217E00E0FC900B73EEF0EFA3F0900B75EDF0908A
:10218E000B76EAF0900B77ECF0900B78742EF074DF
:10219E0006A3F0758207C005123772D005900908A4
:1021AE00E0FEA3E0FF9008F8EEF0EFA3F09008FA3F
:1021BE00EDF090062E1214F37582002290090AE0BB
:1021CE00FEA3E0FF8E828F83A3A3E0FD7C00C007F9
:1021DE00C006C005C004749DC0E07448C0E07480A1
:1021EE00C0E0123AF3E58124FBF581D006D0078ECC
:1021FE00828F83A3A3A3A3A3E0FD7C00C007C00628
:10220E00C005C00474ABC0E07448C0E07480C0E088
:10221E00123AF3E58124FBF581D006D00774062E21
:10222E00F582E43FF583E0FD7C00C007C006C005E3
:10223E00C00474B7C0E07448C0E07480C0E0123AC5
:10224E00F3E58124FBF581D006D00774072EF582C5
:10225E00E43FF583E0FF7E00C007C00674C7C0E010
:10226E007448C0E07480C0E0123AF3E58124FBF5B7
:10227E008122AF83E58290090EF0EFA3F090090E54
:10228E00E0FEA3E0FF8E828F83A3A3E0FF7E00C05B
:10229E0007C00674E0C0E07448C0E07480C0E0126D
:1022AE003AF3E58124FBF58190090CE0FEA3E0FFF3
:1022BE008E828F83A3A3E0FDFB53030F7C00EDC43E
:1022CE00540FFD7A008E828F83A3A3A3E0F85300F0
:1022DE000F7900C007C006C003C004C005C002C00D
:1022EE0000C00174F5C0E07448C0E07480C0E01214
:1022FE003AF3E58124F7F581D006D0078E828F83DD
:10230E00A3A3A3A3E0FD7C00C007C006C005C004C4
:10231E007404C0E07449C0E07480C0E0123AF3E582
:10232E008124FBF581D006D00774062EF582E43F9A
:10233E00F583E0FF7E00C007C006741BC0E0744941
:10234E00C0E07480C0E0123AF3E58124FBF58122EF
:10235E0022E582900911F0900910E0FFBFFF0E9068
:10236E000911E0035480FE43067F8E8222900911EC
:10237E00E003548042070F8F8222E582900913F00A
:10238E00900912E0FFBFFF19900913E075F005A444
:10239E00242EFD740835F0FE7C008D828E838CF029
:1023AE0022900913E075F014A42438FD740835F05A
:1023BE00FEEF75F005A42DFDE43EFE7F008D828EAE
:1023CE00838FF022E582900915F0E0FF900914E06A
:1023DE00FE900865F08F82C007C0061208BBD006BB
:1023EE00D007900912EEF08F82C007C00612238824
:1023FE00AB82AC83ADF0D006D0070BBB00010C8BCB
:10240E00828C838DF0124535FB7D008E027C008F11
:10241E00007900C007C006C003C005C002C004C0DA
:10242E0000C001742BC0E07449C0E07480C0E0129B
:10243E003AF3E58124F7F581120E3AAD82D006D03B
:10244E0007900916EDF0ED6003022AFA900912EEDC
:10245E00F08F82C007C006122388AB82AC83ADF02A
:10246E00900632E0FAF87900C005C004C003C0023D
:10247E00C000C001744CC0E07449C0E07480C0E07C
:10248E00123AF3E58124FBF581D002D003D004D0BB
:10249E0005D00674032BF8E43CF98D0788828983F6
:1024AE008FF0EA123A8A900635E0FF7A00C007C034
:1024BE0006C005C004C003C007C002745DC0E0744E
:1024CE0049C0E07480C0E0123AF3E58124FBF58147
:1024DE00D003D004D005D006D007BEFF028005D0B1
:1024EE00070225A0D007C003C004C005EF75F01089
:1024FE00A4FFAAF024D4F52EEA3408F52F90063660
:10250E00E0FB79007C007D00852E82852F83EBF029
:10251E00E9A3F0ECA3F0EDA3F0EF24D4FFEA340826
:10252E00FA74042FF52EE43AF52F900637E0F87979
:10253E00007B007D00852E82852F83E8F0E9A3F0D5
:10254E00EBA3F0EDA3F074082FF52EE43AF52F90DF
:10255E000638E0F879007B007D00852E82852F837A
:10256E00E8F0E9A3F0EBA3F0EDA3F0740C2FFFE479
:10257E003AFA900639E0F97B007C007D008F828A62
:10258E0083E9F0EBA3F0ECA3F0EDA3F0D005D004BB
:10259E00D00390062EC006C005C004C003121096CC
:1025AE00D003D004D005D006900915E0FF90091095
:1025BE00EEF08F82C007C006C005C004C003122310
:1025CE005FAA82C002120ED5A982D002D003D00417
:1025DE00D005D006D007900916E9F0E96003022A6B
:1025EE00FA0BBB00010C8B828C838DF0EA123A8AB7
:1025FE0090062EC007C006C002121096D002D0065A
:10260E00D00790087F742EF07406A3F0900881E432
:10261E00F07402A3F0900883EFF090062EC006C06F
:10262E0002120F93E582D002D0066028C006C002C7
:10263E00742EC0E07406C0E0E4C0E07471C0E074B3
:10264E0049C0E07480C0E0123AF3E58124FAF581C6
:10265E00D002D006C006C002121116AF82D002D030
:10266E0006900916EFF0EF6003022AFA900630E0AA
:10267E00FF7D00900631E0FBE42FFFEB3DFD90095E
:10268E0015E0FC0C900B73EFF0EDA3F0900B75EAD8
:10269E00F0900B76ECF0900B7774AAF0900B7874A8
:1026AE002EF07406A3F0758206C006123772D0069D
:1026BE00900B19E4F0A3F07D007F00900630E0FC53
:1026CE007B00900631E0FAE42CFCEA3BFBC3ED9C68
:1026DE00EF9B503AED242EF582EF3406F583E0FCA5
:1026EE007B00C007C006C005C004C0037449C0E02B
:1026FE007446C0E07480C0E0123AF3E58124FBF525
:10270E0081D005D006D0070DBD00B00F80ADC0063C
:10271E007451C0E07446C0E07480C0E0123AF31504
:10272E008115811581D006900633E0FFFC7D00C037
:10273E0007C006C004C0057484C0E07449C0E074CC
:10274E0080C0E0123AF3E58124FBF581900632E079
:10275E00FD7C00C005C004749DC0E07449C0E074E7
:10276E0080C0E0123AF3E58124FBF581D006D00754
:10277E008F82C006120F41D006900630E0FF7D001A
:10278E00900631E0FBE42FFFEB3DFD8F038D0479C6
:10279E00007A00C3E99BEA9C5027C007C005E924D4
:1027AE0019F8EA3409FFE9242EF582EA3406F58396
:1027BE00E088828F83F009B900010AD005D0078026
:1027CE00D290062EE0FC900917F0E4A3F0900915C4
:1027DE00E0F531AB318F2E8D2F900917E0F9A3E084
:1027EE00FAC3E9952EEA952F4003022AF6E9241939
:1027FE00F9EA3409FA900B1BE9F0EAA3F089828A10
:10280E0083A3E0F8B80402801AB805028062B821EA
:10281E00030229CDB82403022A33B82503022A69FC
:10282E00022A9F88057F00C006C003C002C001C0F7
:10283E0005C00774B2C0E07449C0E07480C0E012F5
:10284E003AF3E58124FBF581D001D002D00389054E
:10285E008A07900B19EDF0EFA3F090090AEDF0EF57
:10286E00A3F08B82C0031221CAD003D006022AD154
:10287E00C00388037F00C006C003C002C001C003AE
:10288E00C00774CEC0E07449C0E07480C0E0123A54
:10289E00F3E58124FBF581D001D00289828A83C0C1
:1028AE0002C001121096D001D002D003D006900BB8
:1028BE0019E0FDA3E0FF8D828F83A3A3A3A3A3E062
:1028CE00FFBF03028005D003022AD189058A07744F
:1028DE00022DF532E43FF533853282853383E0D025
:1028EE000320E703022AD1753000C003E53075F0EE
:1028FE0009A4248CFB740835F0FC8B828C83E0D009
:10290E00036008053074F8253050DFC003AB307C0F
:10291E0000C006C003C003C00474E9C0E07449C01F
:10292E00E07480C0E0123AF3E58124FBF581D00318
:10293E00D006E53075F009A4248CFB740835F0FC44
:10294E0074042BF534E43CF535853282853383E00F
:10295E00F532853482853583F08B828C837401F059
:10296E0074032BF534E43CF535900B19E0FDA3E030
:10297E00FF8D828F83A3A3E0853482853583F08B10
:10298E00828C83A3E531F08B828C83A3A3EEF0AD12
:10299E00327F00C006C003C005C007740BC0E074D0
:1029AE004AC0E07480C0E0123AF3E58124FBF58161
:1029BE0085308212203DD003D006D003022AD18862
:1029CE00057F00C006C003C002C001C005C0077469
:1029DE0032C0E0744AC0E07480C0E0123AF3E58180
:1029EE0024FBF581D001D002D003D006900B19E064
:1029FE00FDA3E0FF900B19E0F5F0A3E045F07003A6
:102A0E00022AD1C00389038A0490090CEBF0ECA3CF
:102A1E00F08D828F83C006C003122280D003D006B1
:102A2E00D003022AD188057F00C006C003C002C0B1
:102A3E0001C005C0077448C0E0744AC0E07480C08D
:102A4E00E0123AF3E58124FBF581D001D0028982B0
:102A5E008A83121096D003D006806888057F00C046
:102A6E0006C003C002C001C005C0077470C0E07488
:102A7E004AC0E07480C0E0123AF3E58124FBF58190
:102A8E00D001D00289828A83121096D003D006809C
:102A9E00327F00C006C003C002C001C000C0077470
:102AAE009AC0E0744AC0E07480C0E0123AF3E58147
:102ABE0024FBF581D001D00289828A83121096D030
:102ACE0003D006900B1BE0FDA3E0FF8D828F83E009
:102ADE00FD7F00900917E0FAA3E0FC900917ED2A9C
:102AEE00F0EF3CA3F00227E775820022900916E072
:102AFE00F58222E582900B1DF0E0FF7E00C3EE9F73
:102B0E005032EE242EF582E43406F583E0FD7C008F
:102B1E00C007C006C005C0047449C0E07446C0E0DA
:102B2E007480C0E0123AF3E58124FBF581D006D023
:102B3E00070E80C97451C0E07446C0E07480C0E0D6
:102B4E00123AF315811581158122E582900B1FF043
:102B5E009008787408F09045BD120E03900B1FE09C
:102B6E00FF0F900104EFF0900B1EE0900102F09029
:102B7E00086D7420F0740BA3F0E4A3F0900870F0CD
:102B8E007402A3F090062E020B16E582900B22F033
:102B9E009008787408F09045C5120E03900B22E051
:102BAE00FF0F900104EFF0900B21E0900102F090E6
:102BBE00086D7423F0740BA3F0E4A3F0900870F08A
:102BCE007402A3F090062E020B16E582900B24F0F1
:102BDE009008787408F09045B5120E03900B24E01F
:102BEE00FF0F900104EFF090086D7425F0740BA3A5
:102BFE00F0E4A3F0900870F07402A3F090062E0299
:102C0E000B16E582900B27F074BCC0E0744AC0E04E
:102C1E007480C0E0123AF3158115811581900B2650
:102C2E00E0FF900B1E7404F08F82C007122B58AE7B
:102C3E0082D007EE60038E8222C00774D2C0E07489
:102C4E004AC0E07480C0E0123AF3158115811581F7
:102C5E00D0078F82C007122BD8AE82758204C006B1
:102C6E00122B01D006D007EE60038E822290000157
:102C7E00C0071206D8D007900000E020E4D49000E0
:102C8E0001E030E145C00774EAC0E0744AC0E07468
:102C9E0080C0E0123AF3158115811581D007900B93
:102CAE0027E0FE900912EFF08E82C007122388AC47
:102CBE0082AD83AEF0D00774022CFCE43DFD8C8215
:102CCE008D838EF0E4123A8A8044C0077405C0E00A
:102CDE00744BC0E07480C0E0123AF3158115811573
:102CEE0081D007900B27E0FE900912EFF08E82C084
:102CFE0007122388AC82AD83AEF0D00774022CFC91
:102D0E00E43DFD8C828D838EF07401123A8A900020
:102D1E0002E030E445C0077421C0E0744BC0E0749B
:102D2E0080C0E0123AF31581158115817431C0E02F
:102D3E00744BC0E07480C0E0123AF3158115811512
:102D4E0081D007900B217414F08F82C007122B983C
:102D5E00AE82D007EE601C8E82227448C0E0744BA7
:102D6E00C0E07480C0E0123AF315811581158175AB
:102D7E0082FE22C0077456C0E0744BC0E07480C05F
:102D8E00E0123AF3158115811581D007900B21744D
:102D9E0012F08F82C007122B98AE82D007EE60031E
:102DAE008E8222900064C0071206D87476C0E0743A
:102DBE004BC0E07480C0E0123AF315811581158185
:102DCE00D007900B27E0FE900914EFF08E82C0071B
:102DDE00C0061223D2AD82D006D007ED701F900927
:102DEE0012EFF08E82C005122388AC82AE83AFF054
:102DFE00D0058C828E838FF07401123A8A8D8222D6
:102E0E00E582900B28F0900B29E4F0900B28E0FF60
:102E1E0090091274FFF08F82C007122388AC82AD26
:102E2E0083AEF0D00774042CFCE43DFD8C828D83C0
:102E3E008EF0124535FE7D00C3ED9E40030230320A
:102E4E00900B28E0FC90086574FFF08C82C007C0E0
:102E5E0006C005C0041208BBD004D0058D82C00583
:102E6E00C004122BD8AB82D004D005D006D0079068
:102E7E000B29EBF0EB60038B8222900002E0FB202B
:102E8E00E00302302E900000E030E0538D027B0014
:102E9E008C007900C007C006C005C004C002C00384
:102EAE00C000C0017492C0E0744BC0E07480C0E0FA
:102EBE00123AF3E58124F9F581D004D005900B2167
:102ECE007410F08D82C005C004122B98AB82D00412
:102EDE00D005D006D007EB7003022FAA8B82228D6D
:102EEE00027B008C007900C007C006C005C004C07C
:102EFE0002C003C000C00174B7C0E0744BC0E074E0
:102F0E0080C0E0123AF3E58124F9F581D004D005B2
:102F1E00900B217410F08D82C005C004122B98AB5B
:102F2E0082D004D005D006D007900B29EBF0EB60D1
:102F3E00038B8222EC75F014A42438FA740835F051
:102F4E00FBED75F005A42AFAE43BFB8A828B83A382
:102F5E00E4F08A828B83F08D037A00C006EA75F066
:102F6E0009A4248CF8740835F0F988828983A3E0CB
:102F7E00FEB507028004D006801988828983A3A338
:102F8E00E0FEB503028004D0068008D00688828950
:102F9E0083E4F00ABA080040C202302E900064C0EA
:102FAE0007C006C005C0041206D8D004D00590098B
:102FBE0012EDF08C82C005C004122388A982AA8368
:102FCE00ABF0D004D005D006D00709B900010A89AC
:102FDE00828A838BF0E4123A8A900B26EDF08C8273
:102FEE00C007C006C005122C10AC82D005D006D08A
:102FFE0007900B29ECF0EC60277B00C007C006C0E1
:10300E0005C004C00374D7C0E0744BC0E07480C028
:10301E00E0123AF3E58124FBF581D005D006D00706
:10302E000D022E46900B29E0F58222E582900B2AA6
:10303E00F074F2C0E0744BC0E07480C0E0123AF35A
:10304E001581158115819008787408F09045AD12A0
:10305E000E0390086D742DF0740BA3F0E4A3F090A2
:10306E000870F07402A3F090062E120B16AF829029
:10307E000B2BEFF0EF60038F8222900B2DE0FEA35F
:10308E00E08E82122B01900630E0FF900B2CF09018
:10309E000B2AE0FE90091274FFF08E82C0071223F5
:1030AE0088AC82AD83AEF0D00774042CFCE43DFDF9
:1030BE008C828D838EF0EF123A8A24FB50287E008C
:1030CE007404C0E0E4C0E0C007C0067410C0E07431
:1030DE004CC0E07480C0E0123AF3E58124F9F5812A
:1030EE00900B2C7404F07430C0E0744CC0E074800B
:1030FE00C0E0123AF3158115811581900B2CE0FF7B
:10310E007E00C3EE9F50448E047D00C007C006C0F3
:10311E0004C0057449C0E0744CC0E07480C0E01275
:10312E003AF3E58124FBF581D006900B1E7408F06E
:10313E008E82C006122B58AD82D006D007900B2B74
:10314E00EDF0ED60038D82220E80B77452C0E074F4
:10315E004CC0E07480C0E0123AF3158115811581E0
:10316E00900B2CE0FF7E00C3EE9F50448E047D003A
:10317E00C007C006C004C0057449C0E0744CC0E06E
:10318E007480C0E0123AF3E58124FBF581D00690FD
:10319E000B217410F08E82C006122B98AD82D006D1
:1031AE00D007900B2BEDF0ED60038D82220E80B7D1
:1031BE00900B2CE0FF7E00C3EE9F40030232D190B5
:1031CE000B2AE0FD900912EEF08D82C007C006C0FA
:1031DE0005122388AA82AB83ACF0D005D0068A8272
:1031EE008B838CF07402123A8A8E037C00C006C068
:1031FE0005C003C0047478C0E0744CC0E07480C095
:10320E00E0123AF3E58124FBF5819000321206D8E4
:10321E00D00590086574FFF08D82C0051208BBD0F2
:10322E0005D0068E82C006C005122BD8AC82900B3C
:10323E002BECF0758204C004122B01D004D005D003
:10324E0006D007EC60038C8222900000E030E02371
:10325E00C007C006C0057495C0E0744CC0E0748011
:10326E00C0E0123AF3158115811581D005D006D034
:10327E0007801FC007C00674B1C0E0744CC0E07474
:10328E0080C0E0123AF3158115811581D006D00762
:10329E00802D900064C007C006C0051206D8D00568
:1032AE00D006900B26EEF08D82C006122C10AD8249
:1032BE00D006D007900B2BEDF0ED60038D82220E21
:1032CE000231C5900B2BE0F58222E582900B2FF098
:1032DE00900B30E4F0900B2FE0FFFEFD75F005A48F
:1032EE00F53685F0378F027900900064C007C0066E
:1032FE00C005C002C0011206D89000641206D8D0D4
:10330E0001D0028A82C002C0011211E4D001D002A3
:10331E008A82C002C0011207A9D001D002D005D006
:10332E0006D0077800900001C007C006C005C00295
:10333E00C001C0001206D8D000D001D002D005D0F6
:10334E0006D0078F82C007C006C005C002C001C0EC
:10335E00001207F9E582D000D001D002D005D006C8
:10336E00D007600608B8640040BBB86451C0058F32
:10337E0082C007C006C005C002C001120715D001E9
:10338E00D002D005D006D0078F007D00C007C00642
:10339E00C005C002C001C000C00574CAC0E0744CB4
:1033AE00C0E07480C0E0123AF3E58124FBF581D0D1
:1033BE0001D002D005D006D007D0050234DF900927
:1033CE001474FFF08E82C007C006C005C002C00193
:1033DE001223D2A882D001D002D005D006D00790F9
:1033EE000B30E8F0E87069C00590091274FFF08E9A
:1033FE0082C007C006C002C001122388A882AC8317
:10340E00ADF0D001D002D006D007740328F8E43C0A
:10341E00FC88828C838DF0124535F8B80902800441
:10342E00D0058021D0058E82C007C006C005C0021F
:10343E00C001123039E582D001D002D005D006D0BD
:10344E0007900B30F0900B30E0FCE070038C822282
:10345E00900B30E0FCF87B00C007C006C005C0042E
:10346E00C002C001C000C00374EDC0E0744CC0E0E7
:10347E007480C0E0123AF3E58124FBF581D001D0CF
:10348E0002D004D0058D030B900B73E4F0A3F090E3
:10349E000B75EBF0900B76ECF0900B7774EEF090E2
:1034AE000B78E4F0A3F0758203C005C002C00112D0
:1034BE003772E536242EF582E5373408F58374022B
:1034CE00F0758201120795D001D002D005D006D03A
:1034DE000709B90A0050030232F7900B30E0F5826B
:1034EE0022900B31E4F010D80302367CE5DB30E39A
:1034FE006390082EE06008E5E430E0030235B9750C
:10350E00820012071590082E7401F0E4C0E0C0E0AE
:10351E0074FBC0E0744CC0E07480C0E0123AF3E576
:10352E008124FBF581900B73E4F0A3F0900B7504EE
:10353E00F0900B76F0900B77F0900B78E4F0A3F010
:10354E007582011237727582001232D8E582900BA5
:10355E0031F0805790082EE0FFBF0100404D75827C
:10356E00001211E4758200120715E4C0E0C0E07489
:10357E001CC0E0744DC0E07480C0E0123AF3E581E7
:10358E0024FBF581900B73E4F0A3F0900B7504F01F
:10359E00900B76F0900B77F0900B78E4F0A3F0752B
:1035AE008202123772900B317416F0E5DB30E7644D
:1035BE00900833E06008E5E530E00302367C758262
:1035CE00011207159008337401F0C0E0E4C0E074F6
:1035DE00FBC0E0744CC0E07480C0E0123AF3E581A9
:1035EE0024FBF581900B73E4F0A3F0900B7574023D
:1035FE00F0900B76F0900B77F0900B78E4F0A3F050
:10360E007582011237727582011232D8E582900BE3
:10361E0031F0805A900833E0FFBF010040507582B0
:10362E00011211E47582011207157401C0E0E4C0A5
:10363E00E0741CC0E0744DC0E07480C0E0123AF338
:10364E00E58124FBF581900B73E4F0A3F0900B75EC
:10365E007402F0900B76F0900B77F0900B78E4F00C
:10366E00A3F0758202123772900B317416F0900827
:10367E002EE0FFBF010E900831E0FFBF09067582F4
:10368E0000122E0E900833E0FFBF010E900836E0B8
:10369E00FFBF0906758201122E0E900B31E0F582E6
:0136AE0022F9
:104565008006000100001200800600020000120013
:10457500810600040000090000050200000000009B
:10458500800602030904020400090000000000007F
:10459500210A000000000000810600220000FF0043
:1045A5002109000200000000A006002900001200F9
:1045B500A300000000000400230300000000000029
:1045C5002301000000000000676574446576696397
:1045D5006544657363726970746F720A0044657629
:1045E5006963652064657363726970746F722072A4
:1045F5006571756573742073656E74207375636377
:1046050065737366756C6C790A00526563656976C6
:104615006564207061636B657420697320736D61D7
:104625006C6C6572207468616E2065787065637462
:1046350065640A00536574416464726573733A2056
:1046450025690A0030782530325820000A0048498B
:104655004420256C752C2025692064617461202512
:1046650069203A200A0020202020005573616765E3
:10467500207061676520004C454473004B65796285
:104685006F6172642F4B6579706164004275747453
:104695006F6E0067656E65726963206465736B7420
:1046A5006F7020636F6E74726F6C730076656E64E5
:1046B5006F7220646566696E6564203078253034D4
:1046C5006C7800756E6B6E6F776E203078253032A2
:1046D5006C780055736167652000556E6B6E6F775A
:1046E5006E00506F696E746572004D6F757365006D
:1046F5005265736572766564004A6F797374696390
:104705006B0047616D65706164004B6579626F612F
:104715007264004B6579706164004D756C74692D28
:104725004178697320636F6E74726F6C6C6572008B
:104735005461626C65742073797374656D20636F61
:104745006E74726F6C7300580059005A0057686593
:10475500656C004C6F676963616C206D696E20251F
:104765006C750A004C6F676963616C206D61782018
:10477500256C750A00506879736963616C206D69F1
:104785006E20256C750A00506879736963616C2029
:104795006D617820256C750A00436F6C6C656374D8
:1047A500696F6E20737461727420256C750A0043FD
:1047B5006F6C6C656374696F6E20656E6420256C23
:1047C500750A00556E69742030782530326C780A88
:1047D50000496E7075742030782530326C780A0087
:1047E5004F75747075742030782530326C780A00F6
:1047F500466561747572652030782530326C780AAB
:10480500005265706F72742073697A6520256C7526
:104815000A005265706F727420494420256C750A30
:10482500005265706F727420636F756E7420256C0D
:10483500750A00556E6B6E6F776E2048494420727D
:1048450065706F7274206964656E746966696572F6
:104855003A2030782530327820282569206279740D
:1048650065732920646174613A2030782530326C93
:10487500780A0052657175657374696E6720726593
:10488500706F72742066726F6D20696E74657266E2
:104895006163652025690A00496E74657266616306
:1048A500652025640A002020436C6173732025640C
:1048B5000A00202053756220436C617373202564C0
:1048C5000A002020496E7465726661636520507226
:1048D5006F746F636F6C2025640A0048494420613A
:1048E5007420496E746572666163652025640A00EB
:1048F50020205553422025642E256425640A002076
:1049050020436F756E74727920636F64652030780B
:10491500253032580A0020205479706558203078A7
:10492500253032580A00726F6F74206875622070E6
:104935006F72742025692D25692028256429656EE7
:1049450061626C65640A0044657669636520636C21
:104955006173732025690A004D6178207061636B6E
:1049650065742073697A652025690A00446576694E
:10497500636520537472696E673A2025730A004394
:104985006F6E66696775726174696F6E2076616CAA
:1049950075653A2025640A00496E7465726661631F
:1049A5006520636F756E743A2025640A00496E743C
:1049B5006572666163652064657363726970746F9F
:1049C5007220666F756E640A00456E64706F696E5D
:1049D500742064657363726970746F7220666F7595
:1049E5006E640A00436F6E6E65637465642064656A
:1049F5007669636520617420706F736974696F6E81
:104A05003A2025690A00476F7420656E64706F69E6
:104A15006E7420666F722074686520484944646529
:104A250076696365203078253032780A0048494434
:104A35002064657363726970746F7220666F756E3A
:104A4500640A00436C6173732073706563696669FA
:104A5500632068656164657220646573637269705B
:104A6500746F7220666F756E640A00436C617373B0
:104A750020737065636966696320656E64706F692C
:104A85006E742064657363726970746F7220666FEB
:104A9500756E640A00556E6578706563746564208B
:104AA50064657363726970746F7220747970653AA6
:104AB50020253032580A002D2D2D2D2D5265736578
:104AC5007420706F72742D2D2D2D2D0A002D2D2D16
:104AD5002D2D4173736572742052657365742D2D88
:104AE5002D2D2D0A004C6F77207370656564206449
:104AF500657669636520697320666F756E640A0063
:104B050046756C6C207370656564206465766963B1
:104B15006520697320666F756E640A00526573655A
:104B25007420636F6D706C6574650A002D2D2D2DD5
:104B35002D436C6561722072657365742D2D2D2D65
:104B45002D0A005265736574206661696C65640A97
:104B5500002D2D2D2D2D57616B65207570206672EA
:104B65006F6D2073757370656E642D2D2D2D2D0A57
:104B7500002D2D2D2D2D456E756D65726174652089
:104B85006465766963652D2D2D2D2D0A004E65779B
:104B9500204465766963652069732064657465637F
:104BA500746564206F6E20706F727425642D2564A2
:104BB5000A0044657669636520646973636F6E6E88
:104BC50065637465642E20706F727425642D256489
:104BD5000A0048756220706F6C6C696E67206661AB
:104BE500696C65643A3078253032580A002D2D2DD0
:104BF5002D2D47657420485542206465736372699D
:104C050070746F722D2D2D2D2D0A00506F7274202A
:104C15006E756D2825642920657863656564732044
:104C25006C696D6974282564290A002D2D2D2D2D9B
:104C35005475726E206F6E20706F7274732D2D2DEA
:104C45002D2D0A00706F72743A25640A002D2D2DE2
:104C55002D2D436C65617220706F727420636F6EC9
:104C65006E656374696F6E20496E666F2D2D2D2DEF
:104C75002D0A002D2D2D2D2D47657420706F727412
:104C85002564207374617475732D2D2D2D2D0A00E7
:104C95004465766976652069732064657465637417
:104CA5006564206F6E20706F72740A004E6F206409
:104CB500657669636520697320636F6E6E656374DD
:104CC5006F65640A004661696C656420746F2065D0
:104CD5006E61626C6520726F6F74206875622070FA
:104CE5006F72742025690A004572726F72203D202B
:104CF500253032580A004465766963652061742061
:104D0500726F6F742068756220256920636F6E6EFF
:104D150065637465640A004465766963652061743A
:104D250020726F6F7420687562202569206469732D
:0B4D3500636F6E6E65637465640A00B6
:014D4B000067
:1036AF0010980122900BD7E02432F582E4340BF509
:1036BF0083E599F0900BD7E0FF2432F582E4340BC9
:1036CF00F583E0FEBE0A028005BF4000405D900B0F
:1036DF0032E0FEBE6B24900B33E0FDBD620E120193
:1036EF00168508828509831200068037BD723475EE
:1036FF00A15575A1AA43B1108029EE30E7258E049C
:10370F00530460E4C423CCC423541F6CCC541FCC8B
:10371F006CCC30E40244E09008F6741F5EF08C82AB
:10372F0012147B900BD7E4F00236AF900BD7EF0457
:10373F00F00236AFE582900B72F0E0FFBFC002805F
:10374F0005BFDB1A800C7582DB1201B77582DC02B4
:10375F0001B77582DB1201B77582DD0201B78F8267
:10376F000201B7E582900B7AF0900B73E0FEA3E0B5
:10377F00FF8E058D82C007C006123743D006D007D3
:10378F008F058D82C007C006123743900B7AE0F584
:10379F0082123743900B75E0F582123743900B7608
:1037AF00E0F582123743900B77E0F58212374375BD
:1037BF008200123743758200123743758200123729
:1037CF0043758200123743D006D007900B78E0FC88
:1037DF00A3E0FD7A007B00C3EA9EEB9F502DEA2CFD
:1037EF00F582EB3DF583E0F582C007C006C005C04A
:1037FF0004C003C002123743D002D003D004D00557
:10380F00D006D0070ABA00CF0B80CC7582C0020158
:10381F00B7E582900B86F0900B7BE0FEA3E0FF8E66
:10382F00058D82C007C006123743D006D0078F051B
:10383F008D82C007C006123743900B86E0F58212C7
:10384F003743900B7DE0F582123743900B7EE0F506
:10385F0082123743900B7FE0F582123743900B8231
:10386F00E0F582123743900B83E0F58212374390D5
:10387F000B84E0F582123743900B85E0F582123707
:10388F0043D006D007900B80E0FCA3E0FD7A007BCD
:10389F0000C3EA9EEB9F502DEA2CF582EB3DF5839A
:1038AF00E0F582C007C006C005C004C003C0021205
:1038BF003743D002D003D004D005D006D0070ABAC0
:0B38CF0000CF0B80CC7582C00201B757
:014D4C000066
:1038DA00AF82AE83ADF0FC900B8BEFF0EEA3F0ED70
:1038EA00A3F0ECA3F0900B8BE0FCA3E0FDA3E0FEB9
:1038FA00A3E0FF30E70FC3E49CF8E49DF9E49EFAE5
:10390A00E49FFB80088C008D018E028F03900B8749
:10391A00E0FCA3E0FDA3E0FEA3E0FF33E433F538C7
:10392A006013C3E49CF539E49DF53AE49EF53BE463
:10393A009FF53C80088C398D3A8E3B8F3C900B8FDB
:10394A00E539F0E53AA3F0E53BA3F0E53CA3F088BE
:10395A008289838AF0EB123996AC82AD83AEF0FF8E
:10396A00900B8BE0A3E0A3E0A3E033E43365386077
:10397A0013C3E49CF8E49DF9E49EFAE49F888289E3
:10398A00838AF0228C828D838EF0EF22AF82AE83FF
:10399A00ADF0FC900B93EFF0EEA3F0EDA3F0ECA3E7
:1039AA00F0900B97E4F0A3F0A3F0A3F0900B8FE054
:1039BA00FCA3E0FDA3E0FEA3E0FF7B20C003900B85
:1039CA0093E0F8A3E0F9A3E0FAA3E0FB900B9B23B2
:1039DA005401F0E828F8E933F9EA33FAEB33FB90BB
:1039EA000B93E8F0E9A3F0EAA3F0EBA3F0900B97AE
:1039FA00E0F8A3E0F9A3E0FAA3E0FBE828F8E9334A
:103A0A00F9EA33FAEB33FB900B97E8F0E9A3F0EA13
:103A1A00A3F0EBA3F0D003900B9BE06008900B9708
:103A2A00E043E001F0900B97E0F548A3E0F549A3E5
:103A3A00E0F54AA3E0F54BC3E5489CE5499DE54A14
:103A4A009EE54B9F401F900B97E548C39CF0E549C4
:103A5A009DA3F0E54A9EA3F0E54B9FA3F0900B933C
:103A6A00E043E001F01BEB60030239C6900B93E0E0
:103A7A00FCA3E0FDA3E0FEA3E08C828D838EF022FE
:06003700E478FFF6D8FD9D
:100015007902E94400601B7A01904D4B78D675A0B2
:100025000BE493F2A308B8000205A0D9F4DAF2753F
:02003500A0FF2A
:103A8A0020F71130F6138883A88220F509F6A88357
:0B3A9A007583002280FEF280F5F02210
:10003D007800E84400600A790075A006E4F309D859
:10004D00FC78D6E84405600C7906900600E4F0A330
:04005D00D8FCD9FAF8
:02000600E473A1
:103AA500C0478581477E008E83120664D04722AFCA
:103AB500F0AE83E582900B9EF0EEA3F0EFA3F090BD
:103AC5000B9EE0FDA3E0FEA3E0FF900B9DE0FC90C4
:103AD5000BB2E4F0A3F0A3F0900BB5EDF0EEA3F07C
:103AE500EFA3F0900BB8ECF0903AA5023BFCC04771
:103AF500E581F54724FBFF900BB2E4F0A3F0A3F0BA
:103B0500E54724FBF8900BB5E6F008E6A3F008E6D8
:103B1500A3F0900BB8EFF0903AA5123BFCD04722EA
:103B2500E582900BAEF0E0FF900BA4E0C0E0A3E0CF
:103B3500C0E0A3E0C0E0123B40800D900BA2E0C0C6
:103B4500E0A3E0C0E08F8222158115811581900BDD
:103B5500ACE02401F0A3E03400F022E582900BAF45
:103B6500F0E02430FF24C6500D74072FFF900BA101
:103B7500E060034307208F82023B25E582900BB06E
:103B8500F0E0FFC4540FF582C007123B60D0075325
:103B9500070F8F82023B60E582900BB1F0900BA777
:103BA500E0FCA3E0FDA3E0FEA3E0FF900BABE0FB90
:103BB500754820900BB1E0F98B00E828F8EF235405
:103BC5000148FBEC2CFCED33FDEE33FEEF33FFC378
:103BD500EB994007EBC399FB430401E54814FA8AC6
:103BE5004870D5900BA7ECF0EDA3F0EEA3F0EFA392
:103BF500F0900BABEBF022AF83E582900BB9F0EFC1
:103C0500A3F0900BB9E0FEA3E0FF900BA2EEF0EF5E
:103C1500A3F0900BB2E0FDA3E0FEA3E0FF900BA4A0
:103C2500EDF0EEA3F0EFA3F0900BACE4F0A3F09071
:103C35000BB5E0FDA3E0FEA3E0FF8D828E838FF040
:103C4500124535FC900BB574012DF0E43EA3F0EF61
:103C5500A3F0EC70030244F1BC250280030244E9A1
:103C6500900BBBE4F0900BBCF0900BBDF0900BBE3D
:103C7500F0900BBFF0900BC0F0900BC1F0900BC211
:103C8500F0900BC4F0900BC5F0A3F0900BC714F0A7
:103C9500A3F0900BB5E0FDA3E0FEA3E0FF8D828EBF
:103CA500838FF0124535FBA3AD82AE83900BB5ED46
:103CB500F0EEA3F0EFA3F0900BCBEBF0BB25088B58
:103CC50082123B25023C34BB30005003023D95EB8C
:103CD50024C65003023D95900BC7E0F53DA3E0F5E2
:103CE5003E74FFB53D63B53E60C005C006C0079094
:103CF5000BC5E0FAA3E0FF900BD4EAF0EFA3F09038
:103D0500000AC005C003124515AE82AF83D003D0AB
:103D1500058B027D00EA2EFEED3FFFEE24D0FEEF7F
:103D250034FFFF900BC5EEF0EFA3F0D007D006D01F
:103D350005900BC5E0F5F0A3E045F06003023CA259
:103D4500900BBC7401F0023CA2C005C006C00790F0
:103D55000BD4E53DF0E53EA3F090000AC006C00592
:103D6500C003124515AA82AF83D003D005D0067EC5
:103D750000EB2AFAEE3FFFEA24D0FAEF34FFFF907A
:103D85000BC7EAF0EFA3F0D007D006D005023CA29E
:103D9500900BCBE0FBBB2E2FC005C006C007900BD8
:103DA500C7E0FAA3E0FFBAFF05BFFF028009D0070D
:103DB500D006D005023CA2D007D006D005900BC78F
:103DC500E4F0A3F0023CA2BB61004014EB24854063
:103DD5000F900BCB74DF5BF0900BA17401F08005A5
:103DE500900BA1E4F0900BCBE0FBBB20028075BBF0
:103DF5002B028067BB2D028059BB4202806FBB43FB
:103E050002807CBB440302408CBB46030240B2BB2C
:103E15004803023CA2BB490302408CBB4A03023C57
:103E2500A2BB4C028050BB4F0302409ABB50030219
:103E35003FFABB53028077BB5403023CA2BB550338
:103E45000240A2BB58030240AABB5A03023CA2028D
:103E550040BA900BBB7401F0023CA2900BBD7401FB
:103E6500F0023CA2900BBE7401F0023CA2900BC084
:103E75007401F0023CA2900BC17401F0023CA290C7
:103E85000BC0E0600E900BB8E014F9F0900BCBE797
:103E9500F0800F900BB8E024FEFFF08F01900BCB64
:103EA500E7F0900BCBE0F582123B250240C9900B61
:103EB500B8E024FDFFF08F0187050987060987070C
:103EC5001919900BA7EDF0EEA3F0EFA3F08D828EFC
:103ED500838FF01244FD85823D85833E900BC7E0BC
:103EE500FAA3E0FDBAFF0DBDFF0A900BC7E53DF053
:103EF500E53EA3F0900BBBE0704B900BC5E0FAA339
:103F0500E0FDC3E53D9AE53E9D503A900BC5EAC3F9
:103F1500953DF0ED953EA3F0900BC5E0FAA3E0FDCD
:103F25008A068D071ABAFF011DEE4F6010758220B3
:103F3500C005C002123B25D002D00580E3900BC519
:103F4500EAF0EDA3F0900BC7E0F540A3E0F5419052
:103F55000BA7E0FAA3E0FDA3E0FF8A828D838FF033
:103F6500124535F53F603CC3E4954074808541F0CA
:103F750063F08095F0502C154074FFB54002154153
:103F8500853F82123B25900BA7E0FAA3E0FDA3E055
:103F9500FF0ABA00010D900BA7EAF0EDA3F0EFA31D
:103FA500F080AC900BBBE070030240C9900BC5E0FC
:103FB500FEA3E0FFC3E53D9EE53E9F40030240C9E9
:103FC500900BC5EEC3953DF0EF953EA3F0900BC564
:103FD500E0FEA3E0FF8E028F051EBEFF011FEA4D26
:103FE50070030240C1758220C007C006123B25D070
:103FF50006D00780E0900BB8E024FDFDF08D018729
:10400500420987430987441919900BA7E542F0E552
:1040150043A3F0E544A3F0900BA9E0FDBD8000406B
:1040250008900BCB7443F08020BD60004008900BD6
:10403500CB7450F08013BD40004008900BCB744901
:10404500F08006900BCB7458F0900BCBE0FDF58219
:10405500C005123B2575823A123B25758230123B0D
:1040650025758278123B25D005BD4902800EBD50CD
:10407500028009900BA8E0F582123B80900BA7E027
:10408500F582123B80803D900BBF7401F0900BC40C
:10409500740AF0802F900BC47408F08027900BC42D
:1040A500740AF0801F900BC47410F08017900BC237
:1040B5007401F0800F8B82123B258008900BC5EEB2
:1040C500F0EFA3F0900BC2E06071900BB8E024FC18
:1040D500FFF08F01870309870509870609870719F7
:1040E5001919900BA7EBF0EDA3F0EEA3F0EFA3F0F9
:1040F500900BA77440F0744DA3F07480A3F0900B5F
:10410500A7E0F542A3E0F543A3E0F5447401254299
:10411500FAE43543FBAF44900BA7EAF0EBA3F0EFCD
:10412500A3F08542828543838544F0124535FF70AF
:1041350003023C348F82123B2580C3900BC4E07090
:1041450003023C34900BC0E06047900BB8E014F9D3
:10415500F087077E007D007B00900BA7EFF0EEA3B4
:10416500F0EDA3F0EBA3F0900BBFE0600302420C6F
:10417500900BA7E0FBA3E0A3E0A3E07D007E007F1A
:1041850000900BA7EBF0EDA3F0EEA3F0EFA3F0800A
:1041950076900BC1E06028900BB8E024FCFFF08F0F
:1041A50001870309870509870609870719191990E2
:1041B5000BA7EBF0EDA3F0EEA3F0EFA3F080489092
:1041C5000BB8E024FEFFF08F01870609870719EF7A
:1041D5003395E0FDFB900BA7EEF0EFA3F0EDA3F018
:1041E500EBA3F0900BBFE0701E900BA7E0FBA3E0E4
:1041F500FDA3E0A3E07E007F00900BA7EBF0EDA30D
:10420500F0EEA3F0EFA3F0900BBFE06041900BA799
:10421500E0FBA3E0FDA3E0FEA3E0FF30E72B900B5E
:10422500A7E0FBA3E0FDA3E0FEA3E0FFC3E49BFB47
:10423500E49DFDE49EFEE49FFF900BA7EBF0EDA34C
:10424500F0EEA3F0EFA3F08005900BBFE4F0900B28
:10425500C37401F0900BC4E0F5407545D175460B6C
:10426500E4F53DF53E900BABE4F0854082123B9CB6
:10427500900BC3E07026900BABE0C4F542854582F8
:10428500854683E0FFE5424207854582854683EF03
:10429500F0154574FFB545021546800C900BABE053
:1042A500FF854582854683F0053DE4B53D02053E23
:1042B500900BC3E0B40100E433F0900BA7E0FAA340
:1042C500E0FBA3E0FEA3E0FFEA4B4E4F7097900B97
:1042D500D2E545F0E546A3F0900BC9E53DF0E53E96
:1042E500A3F0900BC5E0F5F0A3E045F07009900B45
:1042F500C57401F0E4A3F0900BBCE0FFE0704790BB
:104305000BBBE07041853D45853E46900BC5E0FA07
:10431500A3E0FBC007AF450F8F067F00C3EE9AEF02
:104325009BD0075019758220C007C003C002123BFD
:1043350025D002D003D0071ABAFF011B80D5900BF8
:10434500C5EAF0EBA3F0900BBFE0602075822DC0AD
:1043550007123B25D007900BC5E024FFFDA3E034F1
:10436500FFFE900BC5EDF0EEA3F08056900BC9E073
:10437500F5F0A3E045F0604A900BBDE06020758242
:104385002BC007123B25D007900BC5E024FFFDA3EA
:10439500E034FFFE900BC5EDF0EEA3F08024900B0A
:1043A500BEE0601E758220C007123B25D007900B2A
:1043B500C5E024FFFDA3E034FFFE900BC5EDF0EE54
:1043C500A3F0900BBBE07048900BC9E0F545A3E066
:1043D500F546900BC5E0FAA3E0FBC0078A068B07FC
:1043E5001ABAFF011BC3E5459EE5469FD00750530A
:1043F500EF60067D307E0080047D207E008D82C0CA
:1044050007C003C002123B25D002D003D00780CAE3
:10441500900BC5E0FEA3E0FF900BC9E0F545A3E0D6
:10442500F546C3E5459EE5469F500F900BC5EEC387
:104435009545F0EF9546A3F08011900BC5E4F0A3E8
:10444500F08008900BC5EAF0EBA3F0900BD2E0FEEC
:10445500A3E0FF900BC9E0F545A3E0F546AA45ADFD
:1044650046154574FFB545021546EA4D6045900B66
:10447500C3E0B40100E433F0900BC3E070140EBE4A
:1044850000010F8E828F83E0C4540FFD900BABF0BB
:10449500800E8E828F83E0FD53050F900BABEDF000
:1044A500900BABE0F582C007C006123B60D006D08A
:1044B5000780AA900BBBE07003023C34900BC5E06B
:1044C500FEA3E0FF8E038F051EBEFF011FEB4D709F
:1044D50003023C34758220C007C006123B25D00676
:1044E500D00780E08C82123B25023C34900BACE077
:0844F500FEA3E08E82F5832294
:0B4D40003C4E4F20464C4F41543E00BB
:1044FD00AA82AB831245356003A380F8C3E5829A87
:10450D00F582E5839BF58322AA83AB828BF0900B1A
:10451D00D4E0A4F8A9F08AF0E0A429F98BF0A3E087
:08452D00A429F58388822222F3
:0D00080075814B124551E582600302000333
:1045350020F71430F6148883A88220F507E6A883AF
:1045450075830022E280F7E49322E022758200223F
:00000001FF
